:020000040800F2
:10000000B0090020953D00088D3B00088F3B00089B
:10001000B53D0008B93D0008BD3D000800000000E6
:10002000000000000000000000000000913B0008FC
:10003000933B000800000000953B0008973B000838
:10004000C13D0008C53D0008C93D0008A73B0008A8
:10005000CD3D0008D13D0008AB3B0008D53D000870
:10006000D93D0008DD3D0008E13D0008E53D000800
:10007000C93B0008ED3B0008E93D0008ED3D0008E4
:10008000F13D0008F53D0008F93D0008FD3D000880
:10009000013E0008053E0008093E00080D3E00082C
:1000A000113E0008153E0008193E00081D3E0008DC
:1000B000213E0008253E0008293E00082D3E00088C
:1000C000313E0008353E0008393E00083D3E00083C
:1000D000413E0008453E0008493E00084D3E0008EC
:1000E000B13B0008513E0008553E0008593E00084B
:1000F0005D3E0008613E0008653E0008693E00085C
:100100006D3E0008713E0008753E0008793E00080B
:100110007D3E0008813E0008853E0008893E0008BB
:100120008D3E0008913E0008953E0008993E00086B
:100130009D3E0008A13E0008A53E0008A93E00081B
:10014000AD3E0008B13E0008B53E0008B93E0008CB
:10015000BD3E0008C13E0008C53E0008C93E00087B
:10016000CD3E0008D13E0008D53E0008D93E00082B
:10017000DD3E0008E13E0008E53E0008000000000A
:10018000E93E0008ED3E00082DE9F047044682B044
:100190002078DFF8BC56DFF8B466C00625D5B06815
:1001A00010F00C0F3AD13068C0F3400010B1A069D4
:1001B000002831D0306800074EBF306868680009F9
:1001C00000F0F001206A814206D200F002FB002814
:1001D00022D100F0DDF905E000F0DAF9206A00F044
:1001E000F8FAC8B90F2000F03DFB2078C00741F2B3
:1001F000893876D500F0D7FA07D000F0D9FA02BFD7
:10020000F06800F0030003282ED100F0BDF90028AB
:1002100067D06068002864D10120A3E1A0690028AC
:10022000306811D040F0010000F0A5F907463068B1
:10023000C0F3400028B900F085FCC01B6528F6D348
:100240008DE100F0A5F9D0E74008400000F093F9F7
:1002500007463068C0F340000028C6D000F072FCAA
:10026000C01B6528F5D37AE100F088F920F48020DE
:1002700000F081F9074600F087F928B100F062FC30
:10028000C01B4045F7D36AE16068B0F5803F07D0F6
:10029000B0F5A02F00F072F906D140F48020306054
:1002A000306840F4803001E020F4802030606068E5
:1002B00058B100F047FC074600F066F988B900F035
:1002C00041FCC01B4045F7D349E100F03BFC074629
:1002D00000F05AF928B100F035FCC01B4045F7D3B7
:1002E0003DE12078800718D500F058FA07D000F0DB
:1002F0005FFA02BFF06800F00300022825D13068E1
:10030000C0F3802010B1E068002885D070682169B2
:1003100020F0F85040EA016070602078000748D56E
:1003200060690028686834D040F00100686000F01F
:1003300009FC07466868C0F34000002839D100F086
:1003400001FCC01B6528F5D309E1E068002830688E
:100350000FD040F4807000F00EF907463068C0F30B
:1003600080200028D2D100F0EDFBC01B6528F5D31A
:10037000F5E020F4807000F0FEF807463068C0F326
:1003800080200028C9D000F0DDFBC01B6528F5D314
:10039000E5E040084000686000F0D4FB074668686C
:1003A000C0F3400028B100F0CDFBC01B6528F6D398
:1003B000D5E02078400773D5B06DC0004FF000093C
:1003C0000AD4B06D40F08050B0654FF00109B06DB7
:1003D00000F0805000900098DFF878A4DAF8000070
:1003E000C00512D4DAF8000040F48070CAF80000AA
:1003F00000F0A8FB0746DAF80000C00505D400F0BD
:10040000A1FBC01B6528F6D3A9E0286800F0ACF872
:10041000286000F097FB07462868C0F3400028B129
:1004200000F090FBC01B4045F6D398E0A06801287F
:100430000CD008B928680DE0052828680AD14008C2
:1004400040002860286840F004002860286840F0D8
:10045000010001E000F088F82860A06860B100F0B9
:1004600071FB07462868C0F3400090B900F06AFBB2
:10047000C01B4045F6D372E000F064FB07462868D5
:10048000C0F3400028B100F05DFBC01B4045F6D32F
:1004900065E0B9F1000F03D0B06D20F08050B06579
:1004A000606A00285DD0B16801F00C010C293FF4AE
:1004B000B3AE0228306820F0807030603AD100F08E
:1004C00041FB07463068C0F3406028B100F03AFBBA
:1004D000C01B6528F6D342E0E06A216B401E09028A
:1004E00041EA0010616B090940EA4140A16A0843F2
:1004F000A16B891E0905490D40EA4150E16B891E37
:10050000090601F07E410843F060306840F08070D9
:100510003060F06840F08070F06000F013FB074638
:100520003068C0F34060E0B900F00CFBC01B6528E8
:10053000F6D314E0F068DFF8201380088000F06044
:10054000F0680840F06000F0FDFA07463068C0F33C
:10055000406030B100F0F6FAC01B6528F6D30320E6
:1005600000E00020BDE8F6874008400028602868C9
:1005700020F004007047306000F0E4BA306820F4E6
:1005800080303060306870473068C0F3404070475A
:10059000306840F0080030603068216A20F0F000D8
:1005A000084330607068E16920F47F4040EA012030
:1005B000706070472DE9F843DFF8A052DFF88C62D5
:1005C000044628680F4600F00700B84241F2893817
:1005D0005BD2002F18BF012F04D0022F1CBF032FA6
:1005E000042F04D12868C00847EAC00000E028684A
:1005F00000F0C7F816D100F0E0F840F1A98060687B
:10060000022803D13168C1F340410AE0032803D135
:100610003168C1F3406104E00028316803D1C1F3BF
:10062000400121B992E0C1F380210029FAD000F005
:10063000AEF805466068022808D100F0B4F809D089
:1006400000F080FA401B4045F7D36BE0032808D147
:1006500000F0AEF87CD000F075FA401B4045F7D3AF
:1006600060E048B9B06810F00C0F71D000F06AFA81
:10067000401B4045F6D355E000F090F868D000F0FC
:1006800061FA401B4045F7D34CE000F096F84BD59B
:100690006068022803D13168C1F3404109E018B90C
:1006A0003168C1F3400104E00328316803D1C1F38C
:1006B000406121B94AE0C1F38021002946D000F011
:1006C00066F881466068022809D100F06CF82BD0EA
:1006D00000F038FAA0EB09004045F6D322E00328E9
:1006E00009D100F065F81FD000F02CFAA0EB09004A
:1006F0004045F6D316E060B9B06810F00C0F13D087
:1007000000F020FAA0EB090041F288318842F3D3CF
:1007100008E000F043F807D000F014FAA0EB09005D
:100720004045F6D303202AE0002F18BF012F04D044
:10073000022F1CBF032F042F04D12868C00847EAEA
:10074000C00000E0286800F01CF801D0012016E08D
:100750002078400705D5B068E16820F4E0600843E0
:10076000B0602078000706D5B068216920F4605099
:1007700040EAC100B0600F2000F074F80020BDE82E
:10078000F2832860286800F00700B8427047B1681B
:10079000890840EA8100B06000F0D4B9B06800F088
:1007A0000C0004287047B06800F00C00082870475F
:1007B000B06800F00C000C2870472078800705D541
:1007C000B068A16820F0F0000843B0602078C0074E
:1007D000704770B5224E82B0054630680024C000D4
:1007E00002D500F0B7F90EE0306840F0805030607C
:1007F000306800F080500090009800F0ABF931684C
:1008000021F080513160B0F5007F04D1812D0DD3EE
:10081000A12D06D209E0812D28BF032406D2802D08
:1008200001D1022402E0702D00D101240B4801689F
:10083000C90844EAC1010160006800F00700A04255
:1008400001D0012076BD002076BD000000100240DE
:100850009010024000700040FFFFEEFE00200240BA
:10086000581002400020704738B500F055F900F0EC
:10087000D1F900F033FA0121002000F031FB984C4F
:10088000984DE06B40F00100E063206840F080503C
:100890002060206800F080500090009800F06EFB0F
:1008A00000F06CFBA06B20F4407040F40070A0637B
:1008B000A06B40F40040A0638B482860002085F8BE
:1008C0002000012085F82100284600F09BFB012034
:1008D000A86047F6FF70E860284600F0ABFB296887
:1008E000CA2048625320296848620321284600F044
:1008F00011FCE06BC0F340000028FAD0284600F05D
:1009000051FD002301227949002000F0A7FD0621B6
:10091000022000F01BFE00F0B4FE00F003F800F02F
:100920007CF8FCE710B50FF2E8118CB00CC909A8EF
:1009300000240CC001F058F900F0E2FE01F06AF961
:1009400006A904A801F051FB00F0DAFE9DF81000A2
:10095000312803DB022001248DF82900062209A991
:1009600007A801F06DFB07AA0621002001F078FB23
:1009700001F0D6FB64B10DF11600019005AB0DF14D
:100980001200009007220021012001F04AFD07E03B
:100990000DF116030DF1120205A9012001F06FFD02
:1009A0000FF26410BDF8121000900723BDF8140078
:1009B000002201F0A9FC00B1FEE70120039007230B
:1009C0004B4802900022002001900021102000904E
:1009D000012001F0F1FD01F049FE01F0E8FE0421E3
:1009E000012001F064FB0CB010BD72B641494A68A9
:1009F000012303FA00F0104307E072B63D494A684C
:100A0000012303FA00F022EA0000486062B6704752
:100A10000020EAE700BF0120E7E710B5354C207958
:100A2000800707D5207828B90120FFF7E6FF324874
:100A300000F016F82079C00705D5207818B9FFF71F
:100A4000DCFF01F053F972B6606828B180088000BD
:100A500004BF2078012801D100F0A5FD62B610BDC9
:100A600070B5264D0446287860B1204E307800F0ED
:100A700024FD01F0DCFF0020287043F6016130788E
:100A800000F036FD1E480168B1B1002101601D482B
:100A9000006858B12068643020606068643060602D
:100AA000A0686430A060204601F062FEBDE870409E
:100AB0000621022000F04ABD70BD20B1022818BFF7
:100AC000032803D000E0A6E7100000D010477047CD
:100AD000A3E7411E89410748C90F01707047000014
:100AE000581002404805002000280040A8050020BA
:100AF00040E201008C050020A40000208C000020B2
:100B0000A4050020A0000020426C75654E524700ED
:100B1000123400E18003000080B50C48016841F404
:100B200080710160032002F04CF80F20FFF79AFE5D
:100B300000F002F8002002BD704705480168491C1A
:100B400001607047024800687047000000200240C2
:100B50009C050020DFF8AC00006800F4C06070471E
:100B60002848016841F48041016070472548264AC1
:100B7000016821F48041016024490968B1FBF2F168
:100B80003222514300E0491E11B142699205FAD464
:100B90004069800501D50320704700207047194A3D
:100BA0000028106802D1C008C00003E0C008C000DF
:100BB00040F00100106001291548026842F004026B
:100BC00002600FBF30BF40BF20BF20BF016821F0CF
:100BD0000401016070470B490A68D208D20042F054
:100BE00002020A6001280A490A6842F004020A6007
:100BF0000FBF30BF40BF20BF20BF086820F00400F7
:100C0000086070470070004040420F00B4000020B0
:100C100010ED00E000B597B001A8142102F026F80D
:100C20000FF2780106A891EC100B80EC100B1A481B
:100C3000016841F080510160006800F08050009030
:100C400000981020069001200C9060200E9000204B
:100C50000D9002200F9001201090119028201290EA
:100C600002201590072013900420149006A8FFF787
:100C70008BFA00B1FEE70F200190042103200290BF
:100C8000002003900490059001A8FFF793FC00B1A9
:100C9000FEE717B000BD0000581002400000000041
:100CA0000000000000000000000000000000000044
:100CB0000000000000000000000000000000000034
:100CC0000000000000000000000000000000000024
:100CD00000000000000000000000000010B5754892
:100CE000754C86B0016841F48041016001A9206D16
:100CF00040F080502065206D00F0805000900098FA
:100D0000206840F400402060606E4008400060664B
:100D1000606E20F002006066606E20F00400606685
:100D2000606E20F008006066606E20F01000606663
:100D3000606E20F020006066606E20F0400060660B
:100D4000606E20F080006066606C40F001006064BE
:100D5000606C00F0010000F082F840F00200606476
:100D6000606C00F0020000F07AF840F0040060646B
:100D7000606C00F0040000F072F840F0080060645D
:100D8000606C00F0080000F06AF840F01000606449
:100D9000606C00F0100000F062F840F02000606429
:100DA000606C00F0200000F05AF840F040006064F1
:100DB000606C00F0400000F052F840F08000606489
:100DC000606C00F080000090009803200290049076
:100DD000002003904FF6FF700190384801F04AFF61
:100DE00001A9374801F046FF01A9364801F042FF4A
:100DF00001A9354801F03EFF01A9344801F03AFF4E
:100E000001A9334801F036FF01A9324801F032FF51
:100E100001A94FF0904001F02DFF606C40084000A8
:100E20006064606C20F002006064606C20F004007C
:100E30006064606C20F008006064606C20F010005A
:100E40006064606C20F020006064606C20F0400002
:100E50006064606C20F08000606406B010BD00909B
:100E60000098606C704700B5AFB008201E9000205D
:100E70002790012023901EA8FFF786F900B1FEE716
:100E80004FF4003000904FF400701D9000A801F066
:100E9000F9FF00B1FEE71048016841F4004101602C
:100EA00000220F21032001F099FE032001F0B3FE80
:100EB0002FB000BD0020024008100240000400488E
:100EC00000080048000C00480010004800140048CA
:100ED00000180048001C00489010024070470000B5
:100EE00030B587B004460D4600F03AF854B9DFF843
:100EF0007800016841F004010160006800F004001E
:100F000000900098DFF864000FF268013DB931F8F5
:100F1000141001910021029100F01AF816E0012D41
:100F200014D131F814100191DFF84410029100211E
:100F300000F00EF80FF2400030F8144000220F21AC
:100F400060B201F04BFE60B201F065FE07B030BD4B
:100F500003910221049101A950F8240001F08ABEF6
:100F600001A8142101F082BE4C100240B000002004
:100F7000000021100020000028000000184801682F
:100F800041F480710160704710B50C461549002886
:100F9000086804D1800506D5FFF7E8FD03E0800569
:100FA00058BFFFF7DDFD1048016821F00401012C56
:100FB000016001D130BF10BD40BF20BF20BF10BDB8
:100FC000FFF7EDBD06480168C908C90041F00301FB
:100FD00001600548016841F00401016030BF7047BD
:100FE000007000401470004010ED00E08A60FF21A6
:100FF00002685162012180F82110002180F8201040
:101000000020704790F82010012901D1022070477C
:10101000012180F82010022180F82110CA210268E5
:10102000516253210268516201688A6842F02002CD
:10103000FFF7DCBF38B5040011D094F8210020B9C7
:1010400084F820002046FFF70EFF00F038F8FF2557
:101050000028206805D04562042084F82100012082
:1010600032BD8168DFF87420114000F033F8626807
:1010700023691A43A3691A43114381602168E06818
:10108000086120680169A26841EA024101612068A3
:10109000C16821F08001C1602068C16C89088900A5
:1010A000C1642068C16CE26963691A431143C16479
:1010B00020684562012084F82100002032BD022012
:1010C00084F82100CA2021684862532021684862C0
:1010D000204605E08160206881687047BFFF8FFF70
:1010E00038B504462068C168490611D44FF0FF3175
:1010F000C160FFF727FD05462068C068400607D499
:10110000FFF720FD401BB0F57A7FF5D9032032BDF3
:10111000002032BD00688268D20841EAC2018160C5
:10112000704700002DE9F041DFF80464DFF8048423
:10113000044630781425082815FB048708D1307838
:1011400070703470082038744FF6FF70F0803AE009
:1011500000F06BF8B96811FA80F0B860B8683178BF
:1011600015FB0181896888421BD3317802E015FBA9
:101170000181097C15FB0182127C082A04D015FB31
:10118000028292689042F2D215FB0180027C1346E3
:10119000082B1CBF15FB0383DC733A74F9730474CA
:1011A00011E030783278904215FB008106D0CA7B7E
:1011B00015FB02831C743874FA7300E03874CC7326
:1011C000307870703470BDE8F081F0B5D84BD94DEF
:1011D0001E781424B04214FB005204D118785870C1
:1011E000107C18700BE0D07B167C177C14FB005031
:1011F000082E077403D0D07B14FB0654E073012043
:1012000010731878082802BF00294FF6FF70D880A5
:10121000F0BDC749C96809684FF6FF7000E0886AE9
:101220008A6A9042FBD180B2704710B5C04CE0880A
:101230004FF6FF71884212D0FFF7EBFFE188814241
:10124000E18828BF081A04D2228912FA81F1081A0B
:10125000401C2179E278414321FA02F000E00020AD
:1012600080B210BD2DE9F843B14CE568286881686B
:10127000490502D5C1684907FCD48168DFF8B4820A
:1012800021F4806181604FF01409277819FB0780F1
:101290008668FFF7CAFF864238BF002608D36189F7
:1012A00010FA81F1B14202D26689002101E0361ABA
:1012B0000121A17001E08A600F7C082F08D019FB82
:1012C00007818A68824232BF00228A68121AF2E7D6
:1012D000B6B23EB9FFF79DFFE0800320BDE8F243C0
:1012E00001F0A8BC022E02DAE078012800D0761EB8
:1012F0002868C1684907FBD500F0A7F88E49086047
:10130000032001F09DFCE5682868B6B24661FFF74E
:1013100080FFE0802868816841F480618160BDE8D9
:10132000F1832DE9F041EFF3108872B68048C1686F
:1013300009688A6822F480628A60CA6802F08002C2
:1013400062F49062CA604FF480117B4A11601422EB
:101350000578784912FB0516317B02291ED13768C2
:10136000B47B8078C0B1707B01280AD10121284666
:10137000FFF72BFF88F310887168284600F0B8F853
:1013800004E088F31088284600F097F83A4629468A
:101390002046FFF792FB03E0FFF764FF88F3108815
:1013A000BDE8F08138B5624CE0600168896801F001
:1013B0000701C1F10401E17002681269120C02F028
:1013C0007F02521C2271D2B203681B695B045B0C62
:1013D00023815B1E5A4342FA01F3A3F110014FF639
:1013E000FF7291422CBF628161810121A170E28074
:1013F0000021504A0023142515FB0125491C08290A
:101400002B73F8DB0821217000684C4D816821F4B2
:101410008061816000F019F86861032001F010FC20
:10142000E0680068816841F4804181600022A8681A
:1014300040F48010A8600321286840F480102860E0
:101440000320BDE8384001F0C9BBC16801F080014C
:1014500061F49061C1604FF480107047F0B50024D2
:10146000EFF3108572B61426324F16FB047C9CF8FD
:101470000CC0BCF1000F03D0641CE4B2082CF4DBF8
:10148000082C0BD016FB04760127377385F31088E0
:10149000B073727333600C700020F0BD85F3108858
:1014A0000120F0BD10B5044600F007F821491422D0
:1014B00012FB04110020087310BD38B5054600F07A
:1014C0003FF800F030F8007B02280BD100212846BD
:1014D000FFF77BFE16480178407888421CBF082938
:1014E000FFF7C0FE032001F096FB84F3108831BDA6
:1014F00070B505460E4600F023F800F014F80221FE
:101500000173866046602846FFF70CFE08480178A4
:101510004078884218BFFFF7A5FE032001F07BFB4F
:1015200084F3108870BD0348142111FB0500704737
:101530007C050020940300201404014000040140B5
:10154000EFF3108472B6032001F06BBBF0B5EFF33C
:10155000108272B6294BDF681D685E689C684FF088
:10156000010C0CFA00F0082908BF074314D05FEA09
:10157000417E6FEA000C4CBF0CEA050505435FEAAB
:10158000817E4CBF0CEA06060643C9070CEA070732
:101590004CBF0CEA040404439C605E601D60DF6085
:1015A00082F31088F0BD38B5EFF3108472B613489B
:1015B000C16801BB016821B101210020FFF7E4FCF3
:1015C00019E081680E4D41B9C046C0461F20286011
:1015D000FFF7F8FCC046C0460DE01F2129604068B7
:1015E00020B101210020FFF7EBFC02E00120FFF712
:1015F000F2FAFFF773FC84F3108831BD6C0500200C
:1016000018700040DFF88C15002008707047DFF874
:101610008805006F004780B5DFF8800501684A6DD6
:10162000126800F026FA896D00F0DBF972B690F8C6
:10163000241001290BD1002180F82410012101710F
:10164000062001F0EEFA62B6BDE8014073E1002128
:10165000017162B601BD80B5FFF7DDFFDFF83C0523
:101660004189DFF83C050068BDE80440C9B200F0DC
:1016700056BB80B5012000F001FABDE8044000210E
:1016800069E110B5DFF8104504F10C0000F01CF81A
:10169000DFF80805DFF80C3504F10C0101600022C9
:1016A0000021017180F82410E068416841F00301D5
:1016B0004160016841F040010160032004F108012C
:1016C000BDE81040FFF7CABEDFF8DC1401604FF43C
:1016D00082714160002181604FF4E061C1600021AE
:1016E000016141614FF40071816100210162416239
:1016F0000721C1620821C1610021816201F074BE2D
:1017000010B588B04FF48070029000200590002240
:10171000DFF8983400A90320FFF7A0FEDFF890045B
:10172000DFF8704400F000FA0022006800F00100C9
:1017300001904FF4807101984FF0904001F07EFBD2
:101740000120039002A9002004904FF0904001F086
:1017500091FA9DF800000121FFF7CAFE00F014F88D
:1017600001224FF480714FF0904001F067FB9DF82B
:1017700000005D21FFF7BCFE00F006F89DF80000B8
:10178000FFF790FE08B010BD0120207020780128DE
:10179000FCD0704738B5DFF80444251D686100208F
:1017A000A9612A776B77E87772B6287840B901206B
:1017B0002870062001F035FA62B6BDE83140BAE083
:1017C000012084F8240062B631BD10B5DFF8E4438F
:1017D00001206060062001F033FA062001F01BFAB8
:1017E00000F0A4F8012803D1206840F00100206037
:1017F00010BD002207E0DFF8A403006800688068DD
:101800000006F8D4012202214FF0904001F016BBEF
:1018100080B5FFF7F0FF0D204FF00051401E096822
:10182000FAD1BDE80140E4E738B5DFF87003DFF82E
:1018300088430368DFF884239D6DDFF884132D68E7
:10184000A54204D30D6845F020050D6003E015683E
:1018500045F0200515605B6D1B68A34204D30A6840
:1018600042F400720A6003E0116841F400711160F3
:10187000C94C027A21781AB1022A1AD027D331BD75
:101880002079E27852EA002001D002290FD000F03E
:101890004DF840B9FFF7AFFF06210120FFF756FED4
:1018A000BDE83140B7E6FFF7B3FF002019E00220A2
:1018B00017E0FFF7A0FF06210120FFF747FEC14810
:1018C00020670221207ABDE83440FFF711BEA278DC
:1018D000637853EA022201D0022905D0FFF798FF6E
:1018E0000120BDE83240C9E000F121018D780B787C
:1018F000012D1C460FD090F8200054FA80F4A2422B
:1019000005DA101A1A1A0A7001228A7000E01846C5
:101910004870002007E0A242B2BF981A1A46002081
:1019200008704A700120BDE8324060E001214FF0AC
:10193000904001F07DBA10B5062001F072F9964C86
:10194000A1482067FFF755FF207A0621FFF7D0FD59
:10195000BDE8104006210020FFF7F8BD80B58F4894
:10196000954A0168496D096891422CBF9449934991
:101970000A6842F400720A6000F12101027D12B18E
:10198000012A06D001BD487890B1BDE8024001208F
:101990002DE08A78012A0BD10A784AB1C2694978C8
:1019A0008918C161FFF734FFBDE80240012065E0FE
:1019B000BDE8014010B506210020FFF7C7FD774CB8
:1019C00000202071FFF717FF2068416D00F009F833
:1019D000806D00680168490849000160BDE8104059
:1019E000F3E609680A68520852000A60704738B581
:1019F0006A4D04462868416D0A6800F03AF8806D27
:101A0000026800F036F80068026822F00202026004
:101A10000868694988422CBF69486848016841F4F0
:101A2000007101600D2001F00BF92868406D01681C
:101A30000A6842F002020A6001680A6842F0800205
:101A40000A6014B1012C08D010E000212975026849
:101A500095F820105160A96906E0012129750268F6
:101A600095F822105160E9690268D16000F05BF8D6
:101A700031BD13685B085B001360704770B5474C5D
:101A80002268516D0B681D686D086D001D60936DB7
:101A90001D682E68760876002E6004251668367B51
:101AA0006D1EFBD11A68136843F0020313600968C6
:101AB0000A6822F002020A6018B102280AD003D391
:101AC00026E00FF2101102E00FF20011012000F0E9
:101AD00030F81DE0207230480179C07840EA0120DA
:101AE000217C814238BF0846216860814A6D1368B5
:101AF0001D6825F080051D60896D0B6858601368AE
:101B000058600968E068C86011680FF2D000C860CA
:101B10002068816D09680A6842F001020A60406D20
:101B200000F001F870BD0068016841F0010101603A
:101B3000704710B5194A10721068426D13681C681E
:101B400044F080041C60052314686360806D0468A1
:101B500063600068104BC3601068C16010BD0F4A1D
:101B6000D060117431E680B572B60C48017969B95C
:101B70000121017162B6FFF73CFE0020FFF77EFFF6
:101B8000BDE8044000210120FFF7E0BC62B601BDC2
:101B900000000000AA050020AC0400202005002061
:101BA000940500200F1600080030014005160008BB
:101BB0004C10024010040140810002400400024029
:101BC0000404024057160008731600080A000000BB
:101BD000000000000B00000000000000FF000000FB
:101BE000B34901204870704738B5B14C04F110007A
:101BF00001F056FC04F1180001F052FC00258C2085
:101C000010FB054000F1200100F06CF86D1C052D63
:101C1000F5DB31BD80B50020009000A9A54801F09A
:101C20005EFC0098802101F06DFC01BD70B5A04CF8
:101C300000F10803A3600021A3782BB9A38003E07F
:101C4000042B4ED10323A370A388802B49DAA388E9
:101C50005D1CA580A568A6785B5D002EF0D0032EE4
:101C600008BF0623EFD0042E08BF0523EBD0052EB6
:101C700008BF0723E7D0072E08BF0823E3D0082EAC
:101C800004D1B5F8032000210923DCE7062E01D199
:101C90001A46F8E7092ED7D1491C89B292B291426F
:101CA000D2D30021A17000F108014A1C097804294F
:101CB0000CD111780E2918BF0F2907D0014604F165
:101CC000180001F0FEFBFEF7A3FE02E0014600F063
:101CD00009F8E06828B1A188A068E268BDE8704012
:101CE000104770BD04F1100001F0EBBB10B582B0DD
:101CF000002000906E4C0BE000A904F1180001F0E8
:101D0000EEFB0098083000F014FF0099FFF7EAFF9F
:101D100004F1180001F0C7FB0028EDD013BD70B529
:101D200082B00446002000900D46614E06F110007E
:101D300001F0B9FB40B900A906F1100001F0CFFB9A
:101D40000098802101F0DEFB1DB12046FFF76EFFF9
:101D500073BD214606F1100001F0ACFB73BD01F02C
:101D6000CDBB70B5890582B0890D41EA8020ADF800
:101D700000000120504E307014461D468DF8024080
:101D8000032200A9701C00F05BF9234604222946B7
:101D90003046FFF7E4FF73BD45490120C870704726
:101DA0002DE9F8430446424F60882188DFF80C9102
:101DB0008005800D40EA8125414800680A21B0FB7A
:101DC000F1F60020F8704FF00A08FEF782FE3D4859
:101DD000F860E268A36861882088D2B2FFF7C1FF8B
:101DE0002FE0FEF775FE787838B1387801F0BAFB4D
:101DF00000F06AF84FF0FF3057E0F8780028F0D094
:101E0000387801F0AFFBB86802461178042916D182
:101E1000C11CB8885278C01E0E2A26D00F2A04D0C2
:101E2000102AE5D03E2A2ED009E04A88ADB2AA4257
:101E300005D162680F2A13D008780028D8D1002075
:101E4000F8705FEA0800A8F10108D1D006B90126B0
:101E5000002078703A464946304601F06FFBC2E7F1
:101E600062699042C8BF10460AE0B1F80120ADB2E5
:101E7000AA42E4D16269C91CC01E9042C8BF104684
:101E8000606102460BE00A7863689A42D7D16269C2
:101E9000401E9042C8BF104660610246491C20693E
:101EA00000F0CEF800F010F80020BDE8F28300004A
:101EB000B8000020C800002098050020E11B0008A1
:101EC000B03D0008991D00080020F8600120FEF7D1
:101ED00000BEF0B589B000F02CF800F071F800F009
:101EE0007FF8042000F078F8012000F02CF800A81A
:101EF00007900920089003A8FFF752FF002802D49A
:101F00009DF8000010B14FF0FF3010E09DF8010087
:101F10002070BDF8020028809DF804003070BDF8E4
:101F2000050038800E99BDF807000880002009B030
:101F3000F0BD04460D4616461F4670471822002184
:101F400001A800F083B8ADF80E00002005900690BF
:101F5000704730B58FB000F01EF88DF81C40202C73
:101F6000A8BF1F2400F011F8FFF7E8FF00F022F8E7
:101F70000920ADF8060007A803902020049000F087
:101F800024F800F00FF80FB030BD224629460DF1BD
:101F90001D0000F055B804460D462022002107A878
:101FA00000F054B8002802D49DF8000008B14FF0AA
:101FB000FF3070470820ADF8040000217047044648
:101FC0000922002100A800F041B800A805900120D6
:101FD000069001A8E4E60820ADF80C000021704747
:101FE0001822002103A800F031B870B584B006466D
:101FF00001A800900C460DF10A0302AA0DF106019A
:102000000DF10900FFF765FFC5B2A5B9BDF80600DF
:10201000000A3070BDF8060000022080BDF80410F0
:102020000906090F40EA01102080BDF8041001F0F4
:102030000F0108432080FFF759FE284604B070BD09
:1020400010B5044601F094FA204610BD10B50446C0
:1020500010460A460146204601F0C6FA204610BD49
:1020600010B50C461146A21C812AA8B0A8BF422078
:102070001BDA8DF81C008DF81D4022460DF11E0064
:10208000FFF7DEFF00F036F800F02FF80C20ADF877
:10209000060007A80390A01CC0B2049000F031F81D
:1020A00000284CBFFF209DF8000028B010BD00B5EF
:1020B00089B08DF804008DF805101822002102A8BF
:1020C000FFF7C4FF3F20ADF8080000210F20ADF856
:1020D0000A0001A80490022000F01AF800284CBF62
:1020E000FF209DF8000009B000BD3F20ADF80400BE
:1020F000002170471822002101A8FFF7A7BFADF803
:10210000060000A805900120069001A8FFF748BE30
:10211000059000A806900120079002A8FFF740BE96
:1021200000B587B000F047F900F036F940F2011031
:10213000ADF8060000F038F900284CBFFF209DF8EC
:10214000000007B000BD70B58CB001288DF81C00F0
:1021500014460CBF022610261D4632460DF11D0006
:10216000FFF76EFF701C07A9C0B203224454441C41
:10217000E4B200A865540021FFF768FF00F01BF9E6
:1021800000F00AF94FF4817000F0EBF8601C00F0E9
:1021900059F800F00CF9002848BFFF2005D49DF83D
:1021A000000010B9109900F048F80CB070BDF1B5FE
:1021B0008EB00D4616461F4602220EA900F00AF9FF
:1021C00007AC012DA57031460CBF022510252A460B
:1021D00000F0DEF8E81CC0B2411C0755C9B21498E3
:1021E0000855491C1598C9B203220855491C169870
:1021F000C9B20855491C1798C9B24D1C0855EDB213
:102200001898285500F024F800F0D5F800F0C4F82C
:102210004FF4827000F0A5F8681C00F013F800F08D
:10222000C6F8002848BFFF2005D49DF8000010B96B
:10223000199900F002F80FB0F0BDBDF80100088058
:1022400000207047C0B2049000A80590032070479A
:10225000002100A8FFF7FABE73B5A8B014461D46CA
:1022600000F0B6F800F0B9F88DF82040012C0CBF52
:102270000224102400F0A6F8611D07AD2E98C9B203
:102280004855481C2F9CC0B2461CF6B256FA84F141
:102290004455491D8129A8BF422033DA309907AB44
:1022A0002246F018FFF7CCFEA1193198C9B20322DB
:1022B0004855491C3298C9B24855491C3398C9B28F
:1022C0004855491C3498C9B24E1C4855F6B2359849
:1022D0007055FFF7BDFF00F06EF800F05DF840F2BA
:1022E000051000F03EF8701CFFF7ACFF00F05FF83F
:1022F000002848BFFF2005D49DF8000010B936998A
:10230000FFF79BFF2AB070BD33B51C46A01D812886
:10231000A7B01546A8BF422021DA022227A900F063
:1023200059F8022228A900F05AF82C998DF820506B
:102330008DF82140224600F019F800F03CF800F03A
:102340002BF84FF4837000F00CF8A01DC0B204907D
:1023500000F02AF800284CBFFF209DF8000029B0AB
:1023600030BDADF8060007A8039070470DF12200BC
:10237000FFF766BE3F20ADF8080000217047182225
:10238000ADF80400002102A8FFF760BE22461946FE
:102390000DF11F00FFF754BE3F20ADF804000021EF
:1023A000704704900F20029000A80590012006902D
:1023B00001A8FFF7F5BC1822002101A8FFF746BECF
:1023C0008DF82040224629460DF12100FFF738BE46
:1023D000022228A907A8FFF733BE022229A90DF17E
:1023E0001E00FFF72DBEADF80A0001A804900220E0
:1023F000059000A806900120079002A8FFF7D0BC26
:1024000000B589B0FFF7BBFFFFF7B4FF40F227101C
:10241000FFF7E9FF00284CBFFF209DF8000009B03E
:1024200000BD10B58AB08DF800008DF801108DF850
:1024300002201C46072200F003F900F0EDF800F03E
:1024400048F800A805900320069001A807900720EF
:1024500000F007F9002848BFFF200ED49DF80400C3
:1024600058B9BDF8050020800C99BDF80700088018
:102470000D99BDF80900088000200AB010BD70B5A4
:102480008AB00C468DF8080015461E46072200F05B
:10249000CDF800F0C1F800F01CF802A8059001206A
:1024A000069000A80790072000F0DBF8002848BF3E
:1024B000FF200CD49DF8000048B9BDF80100208031
:1024C000BDF803002880BDF80500308000200AB068
:1024D00070BD3F20ADF80C0000218A20ADF80E0041
:1024E000704776B592B000F057F828BF42201DD251
:1024F00000F05AF800F04AF89DF8600000F018F873
:1025000000F021F800F03AF800F030F800F097F809
:1025100000F090F8832000F023F8C0B2049000F09F
:1025200093F800284CBFFF209DF8000014B070BD48
:102530001A998DF822008DF821608DF823502A46D3
:1025400009A8FFF77DBD05F10800C0B207A9451C29
:102550004454EDB21C9907A822462818FFF770BD15
:10256000ADF8060007A80390A01C7047A41CE4B2B5
:1025700007A802221EA92018FFF762BD6419E4B261
:1025800007A802221DA92018FFF75ABD022213A98D
:102590000DF11F00FFF754BD199D1B9C54FA85F1E6
:1025A0000E3129291E4670478DF81C00022212A9FF
:1025B0000DF11D00FFF744BD30B58FB08DF81C0044
:1025C0008DF81D1014461D461022214600F043F8D8
:1025D00012988DF82F008DF82E5018229DF84C007F
:1025E0008DF8300000211498CDF8310015988DF841
:1025F000350001A8FFF72AFD00F01CF8862000F046
:1026000010F81A20049000F01FF800284CBFFF209B
:102610009DF800000FB030BD1822002103A8FFF77D
:1026200015BDADF8060007A803907047002100A86B
:10263000FFF70CBD3F20ADF80400002170471822C1
:10264000002101A8FFF702BD00A805900120069017
:1026500001A8FFF7A5BB0DF11E00FFF7F1BC079025
:102660000120089003A8FFF79BBB000030B58BB09A
:102670001B208DF8180006ACC520607000F0AFF983
:10268000B420A0719A2000F066F83A2000F05DF8BE
:102690006E2060733620A0730220E0730723DFF8FA
:1026A000F454281D0090012206A90220FFF74BFDDB
:1026B000002847D11B208DF81800012300F051F8A5
:1026C00000F08FF9FC20A0718F2000F044F84A2020
:1026D000A072CF20E072A0202073782060733E208B
:1026E000A073E220E073A81D059000200490102044
:1026F000039000200290019010200090A888FFF71E
:1027000056FDF8B91B208DF81800062300F029F8B3
:1027100000F067F93620A071AC2000F01CF84B20C7
:1027200000F013F81B2060730A20A0733420E073BC
:1027300005F1080000F00FF912200090A888FFF7BB
:1027400036FD00B147200BB030BDA072CF20E07243
:10275000802020737047E071E120207211206072A8
:102760007047C520607006AAD520A070022170476E
:10277000E0B501688DF804100623016809128DF890
:102780000510002241688DF80610416809128DF885
:10279000071081688DF8081001A980680091001267
:1027A0008DF80900DFF8EC03018980882FE1F0B58E
:1027B00091B01B208DF830000CACC520607000F08B
:1027C0000EF9D020A071822000F0CFF840202073B5
:1027D0001A2060738220A0734220E0730A23DFF87E
:1027E000B45305F10A00009001220CA90220FFF762
:1027F000AAFC002825D100F0EBF8E320A071A92065
:1028000000F0B3F820202073552060732E20A073B1
:10281000A320E07305F10C0000F0CBF8002810D1E4
:102820000E208DF828004FF0FF3642F22F70ADF8E1
:102830002A0042F6041700F0A2F8A98900F07EF8F9
:10284000002878D11B208DF830000323C52060704C
:102850000CAAD520A070022100F0C3F80B20A071B3
:10286000842000F072F88B20A072E420E0728020B7
:102870002073C42060732020A073CD20E07305F185
:102880000E0000F068F8022000906889FFF78FFCC6
:10289000002850D10F208DF828006FF004008DF82B
:1028A00029004FF41E50ADF82A0000208DF82C00AE
:1028B000ADF82D000DF126000890002007901020A3
:1028C00006900020059001200490002003900AA8A3
:1028D0000290072001900090ADF82470E989688982
:1028E00009AB0122FFF7B8FC002824D100F070F8F2
:1028F0007320A071A02000F028F88C20A072E420A2
:10290000E072602020730B206073C520A07301204B
:10291000E07305F1100000F04CF860B906208DF866
:1029200028004FF41C50ADF82A0000F028F8298A3E
:1029300000F004F800B1472011B0F0BD6889ADF88F
:10294000247009AB0122FFF787BCE071E2202072FE
:1029500011206072704705900020049010200390B1
:1029600004200290002001907047E071E220207264
:10297000112060727720A072E420E072704700207E
:102980008DF82C00ADF82D000DF1260008900020E8
:102990000790102006900020059001200490002050
:1029A00003900AA802900720019000908DF82960FA
:1029B000704705900020049010200390042002909E
:1029C000002001900220009001466889FFF7EFBBCC
:1029D0001B208DF830000223C52060700CAAD52082
:1029E000A070A520E0700220207100206071704767
:1029F00001B582B000F010F80223818905E001B52D
:102A000082B000F009F80323C18940890022FFF752
:102A10007BFC00B147200EBD02A95E4800917047C3
:102A200001B582B0FFF7F8FF0223018AEDE700B598
:102A30000FF26C1189B00CC907A800210CC000204E
:102A4000FFF787FA0020069005900490039007A8EE
:102A500002900820019000200090034602460146A3
:102A6000FFF73FFD012000F08EF809B000BD494896
:102A700001224261418070474648002141610121A5
:102A8000017000214170704730B5424C2189491CCA
:102A9000884283B004D104F11800FFF769FE3BE0DF
:102AA000A189491C884211D100F0D2FD054604F1EC
:102AB0001800FFF75DFE0F2080FB050100F034F8E1
:102AC00000F5877000B2FFF793FF25E0E189491C0C
:102AD000884213D1304800680A21B0FBF1F100A808
:102AE00000F024FD00F0B4FD4FF47A7100F01AF804
:102AF00000F5C330A030FFF782FF0DE0218A491CAA
:102B0000884209D100F0A4FD642100F00BF800F523
:102B1000E17080B2FFF784FF608810B16088FFF732
:102B20006FFC37BD81FB00016FF04042002300F0D5
:102B3000FFBD38B50446012000F025F82078651C5B
:102B400004281FD12878052804D03E2805D0FF2866
:102B50000ED031BDBDE831408EE7A81C01780129B7
:102B600010D1401CBDE83440B0F80110401D7EE794
:102B7000A81C40F614420188914203D1BDE83240BE
:102B8000808881E731BD05490870012808BFFDF73D
:102B900041BF70478C000020B03D0008A90500200F
:102BA00009426C75654E52470901002806D5274A2F
:102BB00000F00F00801800F8041C7047244A81546C
:102BC000704724490A684FF6FF031A4000F00700D7
:102BD00042EA0020204A10430860704770B51D4B40
:102BE0001B68C3F302230124C3F10705052D2EBF83
:102BF0000F2504FA05F56D1E1E1D072E34BF002398
:102C0000DB1E2940994004FA03F3BDE870405B1EC7
:102C10001A401143C8E7012100F01F0291400F4AFA
:102C200004E0012100F01F0291400D4A400942F8E2
:102C300020107047012100F01F029140094AF5E77A
:102C4000012100F01F029140074AEFE718ED00E074
:102C500000E400E00CED00E00000FA0500E100E017
:102C600080E100E000E200E080E200E0002200F00D
:102C7000D7BD00002DE9F8470022784BDFF8E0814E
:102C8000DFF8E0914FF00F0A30E005FA0EFE4EEA51
:102C9000040448F82C406FEA070C1C680CEA040E88
:102CA0004C68E40348BF47EA0E0EC3F800E05C68D6
:102CB0000CEA040E4C68A40348BF47EA0E0EC3F8A2
:102CC00004E09C680CEA040E4C68E40248BF47EA42
:102CD0000E0EC3F808E0DC680CEA040C4C68A40291
:102CE00048BF47EA0C0CC3F80CC0521C0F6837FAF7
:102CF00002F400F09B804FF0010C0CFA02F4274024
:102D0000F3D04D68022D18BF122D11D1D50800EB5C
:102D1000850C02F00706DCF820504FEA860E0AFA0E
:102D20000EF6B5430E6906FA0EF63543CCF8205080
:102D30004FEA420C0326056806FA0CF66FEA060E07
:102D40000E7906F003060EEA050506FA0CF6354381
:102D50000560E4434D68012D18BF022D03D0112DED
:102D600018BF122D0FD18568CE680EEA050506FA48
:102D70000CF63543856045684E68C6F3001625405D
:102D80009640354345604D6805F00306032E06D195
:102D9000C66AC5F3C005344095402C43C462C4687C
:102DA0000EEA040E8C6804FA0CF444EA0E04C460C3
:102DB0004C68E40099D5D9F8004044F00104C9F802
:102DC00000404FEA920CD9F8004004F0010400944E
:102DD00002F00305009C58F82C404FEA850E0AFAD1
:102DE0000EF5AC43B0F1904F08BF00251DD01E4D2D
:102DF000A84208BF012518D01C4DA84208BF0225D3
:102E000013D01B4DA84208BF03250ED0194DA84270
:102E100008BF042509D0184DA84208BF052504D0D5
:102E2000164DA8420CBF062507252EE7BDE8F18701
:102E30000069084018BF0120C0B270470AB1816123
:102E40007047816270470E4A1368034200D1704791
:102E500080B5106000F05EFB01BD00000004014081
:102E600008000140601002400004004800080048CB
:102E7000000C0048001000480014004800180048EA
:102E8000140401402DE9F84F044600272068DFF8BC
:102E9000DC6400250005A84623D5606D70B1B0F54F
:102EA000800F17D0B0F5000F03D0B0F5400F09D058
:102EB00015E0306840F48030306004E0201D00F000
:102EC0008DF9074667B9F06F616D20F44000084343
:102ED000F06706E004F1180000F00FFAF1E70127AF
:102EE000B8462068C00423D5A06DA8B1B0F1807F9A
:102EF00017D0B0F1007F03D0B0F1407F04D015E0CF
:102F0000306840F4803030608FB9F06FA16D20F0F0
:102F100040700843F0670BE0201D00F05FF90746A2
:102F2000F2E704F1180000F0E8F9F8E70127B846E5
:102F3000206880032DD5F06CC000A9460AD4F06C3F
:102F400040F08050F0644FF00109F06C00F08050C8
:102F500000900098DFF818B4DBF8000040F48070AF
:102F6000CBF80000FDF7EEFD8246DBF80000C0055F
:102F700000F18080FDF7E6FDA0EB0A006528F4D3A0
:102F80000327B846B9F1000F03D0F06C20F0805051
:102F9000F0642078C00705D5F06FA16A800841EA87
:102FA0008000F0672078800705D5F06FE16A20F097
:102FB0000C000843F0672078400705D5F06F216BBF
:102FC00020F030000843F0672078000705D5F06F47
:102FD000616B20F0C0000843F0672078C00605D57B
:102FE000F06FA16B20F440700843F06720788006F2
:102FF00005D5F06FE16B20F440600843F06720686E
:10300000800505D5F06FE16C20F440200843F0679F
:103010002068400505D5F06F216D20F4401008436D
:10302000F0672078400605D5F06F216C20F4405001
:103030000843F0672078000605D5F06F616C20F436
:1030400040400843F0672068C00505D5F06FA16CCB
:1030500020F440300843F0672068800443D5F06FC7
:10306000E16D00F09EF8E06DB0F1006F32D100F03C
:103070009DF838E0002F84D1DFF8F8723868616F6E
:1030800000F4407088420BD0386820F440753868EE
:1030900040F480303860386820F4803038603D601B
:1030A000A80710D5FDF74EFD05463868C0F340006F
:1030B00048B9FDF747FD401B41F289318842F4D3FE
:1030C0004FF003085EE73868616F20F440700843F2
:1030D000386057E7B0F1806F05D1201D00F0A1F8EE
:1030E000070018BF80462068000313D5F06F216EDB
:1030F00000F057F8206EB0F1006F02D100F056F8E2
:1031000008E0B0F1806F05D1201D00F08AF80700BB
:1031100018BF80462068400313D5F06F616E00F041
:1031200040F8606EB0F1006F02D100F03FF808E0A7
:10313000B0F1806F05D1201D00F073F8070018BFB3
:1031400080462068400417D5F06FA16E20F04050F3
:103150000843F067A06EB0F1805F03D1201D00F03E
:10316000A8F806E0B0F1005F06D104F1180000F005
:1031700005F9070018BF80462068000405D5F06FE8
:10318000E16E20F080400843F0672068C00305D559
:10319000F06F216F400051EA5000F0674046BDE8F3
:1031A000F28F20F040600843F0677047306840F4C9
:1031B00080103060704708433061306840F08060B4
:1031C0003060FDF7BFBC2846BDE8F0810843706160
:1031D000306840F080503060FDF7B4BC2DE9F0411C
:1031E00000F05EF800F054F800F056F828B1FDF752
:1031F000A9FCC01B4045F7D30EE000F040F800F0FA
:10320000A1F8FFF7D9FF074600F046F830B9FDF7FF
:1032100099FCC01B4045F7D3032501E000F02AF8D4
:10322000D1E72DE9F04100F03BF800F031F800F073
:1032300033F828B1FDF786FCC01B4045F7D314E0F6
:1032400000F01DF8A168891E090520F4C000490D91
:1032500040EA4150FFF7B0FF074600F01DF830B9D3
:10326000FDF770FCC01B4045F7D3032501E000F0DB
:1032700001F8A8E730692169084330617047306977
:10328000216820F4FE4040EA012030613069704737
:10329000074640F2E93870473068C0F3C0607047B5
:1032A000354E0446306820F0806030600025FDF720
:1032B00049BC2DE9F041FFF7F3FFFFF7E9FFFFF706
:1032C000EBFF28B1FDF73EFCC01B4045F7D30FE0F4
:1032D000FFF7D5FFE16800F077F8FFF76CFF0746CE
:1032E000FFF7DAFF30B9FDF72DFCC01B4045F7D3DF
:1032F000032501E0FFF7BEFF65E72DE9F04100F08F
:103300002CF8FFF7C5FF00F024F828B1FDF71AFCF0
:10331000C01B4045F7D30EE000F05DF800F012F856
:10332000FFF755FF074600F014F830B9FDF70AFC27
:10333000C01B4045F7D3032503E07069E1680843EB
:10334000706140E7616820F40030090940EA4140BB
:1033500070473068C0F340707047074E04463068CD
:1033600020F0805030600025FDF7ECBB0C100240CF
:103370000070004090100240001002402DE9F04122
:10338000FFF7EBFFFFF784FFFFF7E3FF28B1FDF73F
:10339000D9FBC01B4045F7D30FE000F01CF8A16833
:1033A00000F012F8FFF712FF0746FFF7D2FF30B91F
:1033B000FDF7C8FBC01B4045F7D3032503E0706948
:1033C000E16808437061FEE6891E090620F0C060CE
:1033D00001F07E4170477069216820F4FE4040EAA8
:1033E000012070617069704770B5040001D101203F
:1033F00070BD04F15C05687818B92870204600F0AB
:1034000029FA0220687040F2017300F043F8E26884
:103410009A4204D30021B2F5706F05D106E0B2F5EF
:10342000E06F4FF4805101D00026A662266B26B9CA
:103430009A422CBF0222012222636268A3681A43C7
:1034400023691A4363691A43A36903F400731A4397
:10345000E3691A43236A1A43A36A1A430260226B80
:10346000022A03D1026842F400620260A269636A20
:10347000120C02F004021A43636B1A43E3681A4306
:1034800011434160E16A01610020686001206870B9
:10349000002070BD2068016821F040010160704784
:1034A0000060406070470168814201D1012070478F
:1034B0000020704702680A60486001600868416047
:1034C0007047086042684A60416048680160704720
:1034D000426801681160416800684160704710B53A
:1034E0000C46016821600068FFE7FFF7F1FF2168E3
:1034F000002008602168486010BD0000DBB2D2B235
:10350000FEF748B9024A10600830FEF728BB0000F9
:1035100094050020012808BFFEF725BBB0F5005F29
:1035200003D108210220FEF711B8704710B50446F8
:103530006160FFE700F064FA206010BD38B5044612
:1035400015460B46002229460220FDF787FF4FF45F
:103550007A7060433F21B0FBF1F12878FDF7C8FF96
:10356000002032BD80B5FDF79DFF002002BD0000A8
:1035700062B38B0708D0521E11F8013B00F8013BE3
:1035800000F024808B07F6D1830740F0208000BF35
:10359000103A07D330B4B1E83810103AA0E8381028
:1035A000F9D230BC530724BFB1E80810A0E80810D6
:1035B00044BF51F8043B40F8043BD20724BF31F824
:1035C000022B20F8022B44BF0B7803707047083A97
:1035D00007D3B1E80810083A40F8043B40F804CBA0
:1035E000F7D25307E4E7000062F30F2262F31F42B1
:1035F000401810F0030308D0C91A1FD3DB0748BFD7
:1036000000F8012D28BF20F8022D130030B4144615
:103610001546103928BF20E93C00FAD8490728BFD1
:1036200020E90C0048BF40F8042D890028BF20F88D
:10363000022D48BF00F8012D30BC7047C91818BFD3
:1036400000F8012DCB0728BF00F8012D70470000BE
:10365000F8B5344F384600F0D5F90446381D00F06F
:10366000D1F9054607F1080000F0CCF9064607F14C
:103670000C0000F0C7F923782B492C4A002B40D1CD
:103680002B6802FB03132B60082702FB03132B603C
:1036900002FB03132B6002FB03132B6002FB0313DB
:1036A0002B6002FB03132B6002FB03132B6002FB56
:1036B00003132B600346D5F800C002FB0C1CC5F8B1
:1036C00000C043F804CB7F1ED5F800C002FB0C1CE1
:1036D000C5F800C043F804CBD5F800C002FB0C1CB1
:1036E000C5F800C043F804CBD5F800C002FB0C1CA1
:1036F000C5F800C043F804CBDDD1C36F33600123AC
:1037000023702B6802FB03112960317801F01F013F
:1037100050F8212032602A6840F82120306880006B
:103720008008F2BD000000205FF36E3C0D661900BA
:103730001B4213D1094236D12AB18446B0FBF2F0C4
:1037400002FB10C2704700F05FB9FCD300220023D7
:1037500070470B000200002100207047904271EB7F
:10376000030CF6D370B5B1FA81F4B3FA83F52C1BD0
:10377000A340C4F1200532FA05F63343A2405FF0BE
:103780000046E64002E05B085FEA3202841A71EB11
:10379000030524BF204629467641F4D302000B00DE
:1037A0003000002170BD012ACFD970B5140C20D093
:1037B000B1FA81F4B2FA82F5C4F120046419B4F1CB
:1037C0002006D6D3B2405FF00044F440002502E06A
:1037D00052085FEA3303C61A71EB020E24BF30466B
:1037E000714664416D41F3D302000B0020002900B3
:1037F00070BD0C46B1FBF2F102FB11452D0445EA08
:103800001045B5FBF2F402FB145580B240EA0545C1
:10381000B5FBF2F002FB105240EA044070BD00001C
:1038200000B500BF130096469446103928BFA0E8A3
:103830000C50FAD85FEA417C28BF0CC048BF40F862
:10384000042BC90728BF20F8022B48BF00F8012B22
:1038500000BD0000F0B5044687B020684D4988429D
:1038600040F095804C4D686840F00200686001A906
:10387000686800F002000090009800F0AEF800F0D8
:10388000ACF8A86940F48050A861A86900F48050A1
:1038900000900098082001900220029000200390E0
:1038A00003200490052005903C48FFF7E3F94020F1
:1038B00000F085F8802000F082F80220019001A934
:1038C00001200290002000F071F8012202214FF047
:1038D0009040FFF7B3FA0120019001A9304802900F
:1038E000022000F063F8286840F001002860286892
:1038F0002C4D00F00100009000980120686010201D
:10390000A8600020E8608020286100206861A8612C
:10391000E8614FF40056244F2E6207F1140028602E
:10392000284600F073F8206829680C3088606565C7
:1039300001202864AC6200206864A864EE658020E1
:10394000E864EF63002028656865A86505F13C0020
:1039500000F05CF82068E96B0C308860002205F10B
:103960003C00A0656C6601210D20FFF737F90D20A2
:10397000FFF751F9002201210C20FFF72FF90C204D
:10398000FFF749F9002202210620FFF727F907B0C7
:10399000F0BD000000300140481002400004004823
:1039A00000001110340400201C000240039003208A
:1039B0000490002005904FF09040FFF75BB9019014
:1039C00001A902200290002003900320049005200A
:1039D00005904FF09040FFF74DB9686840F0010046
:1039E0006860686800F0010000900098686840F026
:1039F00001006860686800F001000090009870475E
:103A0000FDF7A0B8704700007047000010B508B976
:103A1000012010BD00F124014A7802B90A70022287
:103A20004A700268136884686FF30D132343C468F7
:103A30002343046923434469234384692343C469BA
:103A40002343046A234313608268B2F5804F73D026
:103A50000368DFF8F840DFF8F820A3421DD0DFF854
:103A6000F440A34224D0DFF8F040A3422CD0DFF88A
:103A7000EC40A34234D0DFF8E840A3423CD0DFF86A
:103A8000E440A34244D0DFF8E040A3424CD0DFF84A
:103A9000DC40DFF8DC20A34206D113681B091B01C0
:103AA00000F050F8184346E0DFF8C840A34207D1C1
:103AB000136823F0F00300F045F843EA00103AE001
:103AC000DFF8B440A34207D1136823F4706300F019
:103AD00039F843EA00202EE0DFF8A040A34207D1E6
:103AE000136823F4704300F02DF843EA003022E01D
:103AF000DFF88C40A34207D1136823F4702300F051
:103B000021F843EA004016E0DFF87840A34207D1ED
:103B1000136823F4700300F015F843EA00500AE03C
:103B2000DFF86440A34207D1136823F0706300F00C
:103B300009F843EA006010600020486101204870E5
:103B4000002010BD136013684068704708000240F1
:103B5000A80002401C000240300002404400024025
:103B6000580002406C0002408000024008040240FD
:103B7000A80402401C0402403004024044040240F5
:103B8000580402406C040240800402407047FEE783
:103B900070477047704780B5FCF7CFFF1C4801683D
:103BA000491C016001BDFDF7BCBB0120FFF74BB90B
:103BB00080B5184901200860FEF7E5FFBDE8024026
:103BC0004FF40050FFF73FB91348806D006801685B
:103BD00089070AD5114988422CBF1148114800684D
:103BE00010F0200018BFFDF71FBE70470A48406D57
:103BF0000068016889070AD5084988422CBF08482F
:103C00000848006810F4007018BFFDF7A7BE7047A1
:103C1000A0050020A4050020B80400208100024077
:103C200000040240000002400E480F4A016841F4BF
:103C3000700101600D48016841F00101016000213F
:103C400081600168114001604FF40061C16001684A
:103C500021F480210160002181614FF0006004495E
:103C60000860704788ED00E0FFFFF6EA00100240B0
:103C700008ED00E019E050F8041BCB0744BFA9F1A0
:103C800001035918121F0023042A41F8043BF9D2FA
:103C90005FEA827C0B4604D54FF0000CA1F800C00F
:103CA0009B1CD10744BF0021197050F8042B002A37
:103CB000E1D1704710B450F8041B79B10268436831
:103CC00012180830DC0744BFA9F10104E31852F8C8
:103CD000044B43F8044B091FF9D1ECE710BC7047C3
:103CE00010B5074979441831064C7C44163404E079
:103CF0000A68081D511888470146A142F8D110BD35
:103D00002C0000004C0000004EF68851CEF200015D
:103D1000086840F470000860BFF34F8FBFF36F8FE7
:103D20004FF00070E1EE100A7047000049FFFFFFFE
:103D3000F4040000B80000200000000079FFFFFF3D
:103D4000B8000000AC0100000000002000000000EE
:103D500000F00BF8002801D0FFF7C2FF0020C0469A
:103D6000C046FCF781FD00F002F80120704700F02A
:103D700001B800000746384600F002F8FBE70000F3
:103D800080B5C046C046024A11001820ABBEFBE712
:103D9000260002000148804701480047293C0008EE
:103DA000A53D0008C046C046FFF7AEFFFFF7D0FFB5
:103DB000E8030000FFF7FEBFFFF7FEBFFFF7FEBFFF
:103DC000FFF7FEBFFFF7FEBFFFF7FEBFFFF7FEBF27
:103DD000FFF7FEBFFFF7FEBFFFF7FEBFFFF7FEBF17
:103DE000FFF7FEBFFFF7FEBFFFF7FEBFFFF7FEBF07
:103DF000FFF7FEBFFFF7FEBFFFF7FEBFFFF7FEBFF7
:103E0000FFF7FEBFFFF7FEBFFFF7FEBFFFF7FEBFE6
:103E1000FFF7FEBFFFF7FEBFFFF7FEBFFFF7FEBFD6
:103E2000FFF7FEBFFFF7FEBFFFF7FEBFFFF7FEBFC6
:103E3000FFF7FEBFFFF7FEBFFFF7FEBFFFF7FEBFB6
:103E4000FFF7FEBFFFF7FEBFFFF7FEBFFFF7FEBFA6
:103E5000FFF7FEBFFFF7FEBFFFF7FEBFFFF7FEBF96
:103E6000FFF7FEBFFFF7FEBFFFF7FEBFFFF7FEBF86
:103E7000FFF7FEBFFFF7FEBFFFF7FEBFFFF7FEBF76
:103E8000FFF7FEBFFFF7FEBFFFF7FEBFFFF7FEBF66
:103E9000FFF7FEBFFFF7FEBFFFF7FEBFFFF7FEBF56
:103EA000FFF7FEBFFFF7FEBFFFF7FEBFFFF7FEBF46
:103EB000FFF7FEBFFFF7FEBFFFF7FEBFFFF7FEBF36
:103EC000FFF7FEBFFFF7FEBFFFF7FEBFFFF7FEBF26
:103ED000FFF7FEBFFFF7FEBFFFF7FEBFFFF7FEBF16
:103EE000FFF7FEBFFFF7FEBFFFF7FEBFFFF7FEBF06
:103EF00000000000010000000000000000000000C1
:103F000000000000000000000000000000000000B1
:103F100000000000000000000000000000000000A1
:103F20000000000000000000000000000000000091
:103F30000000000000000000000000000000000081
:103F40000000000000000000000000000000000071
:103F50000000000000000000000000000000000061
:103F60000000000000000000000000000000000051
:103F70000000000000000000000000000100000040
:103F80000000000000000000000000000000000031
:103F90000000000000000000000000000000000021
:083FA0000008004800093D0083
:00000001FF
