:020000040800F2
:1000000020080020E1280008A1270008A3270008F5
:1000100000000000000000000000000000000000E0
:10002000000000000000000000000000A5270008FC
:10003000A727000800000000A9270008AB27000838
:1000400053080008EB080008D3110008EB1900085A
:10005000271D0008BB270008331D0008C52700081E
:1000600047270008BF280008CB28000801290008FE
:1000700003290008052900080000000007290008DE
:100080000000000009290008000000000000000036
:100090000B290008000000000D2900080F290008A6
:1000A000112900081329000815290008172900083C
:1000B000192900081B2900081D2900081F2900080C
:1000C000F8B50400A34D2078C00716D58027BF02DD
:1000D000E8680C210140082907D0E8680C2101409C
:1000E0000C295DD1E868C0035AD52868074004D0C0
:1000F00060688021490288422AD10427207880073D
:1001000019D5E8680C210140042907D0E8680C21C2
:1001100001400C297AD1E868C00377D428683840B8
:1001200002D0E068012813D16868B3490140206912
:100130000002084368602078C00618D5E8680C21E2
:10014000014000D088E02868800503D5E0690128D7
:1001500000D07EE16868A9490140606A0843686090
:1001600068680002000A216A090601436960207874
:10017000000700D4A3E060690028286D00D18FE05B
:1001800001210143296500F0FAFA0600286D800775
:1001900000D594E000F0F3FA801B6528F6D356E111
:1001A0002868AE490140296000F0E9FA0600286895
:1001B000384006D000F0E3FA801BA9498842F6D304
:1001C00045E12868A54901406068084328606068E7
:1001D000790888420CD100F0D2FA0600286838402D
:1001E0008BD100F0CCFA801B9D498842F6D32EE1DA
:1001F00000F0C5FA06002868384000D17DE700F01D
:10020000BEFA801B96498842F5D320E1E0680921B7
:10021000C943002810D02A6811400843286000F024
:10022000AEFA06002868384000D07DE700F0A7FA53
:10023000801B6528F6D30AE128680140296000F098
:100240009EFA06002868384000D174E700F097FA5B
:10025000801B6528F6D3FAE0E069002828680FD0F3
:10026000A90D0143296000F08AFA0600286880057C
:1002700000D56FE700F083FA801B6528F6D3E6E02F
:1002800078490140296000F07AFA06002868800564
:1002900000D46CE700F073FA801B6528F6D3D6E033
:1002A00001218843286500F06AFA0600286D80075E
:1002B00005D500F064FA801B6528F7D3C7E02078E5
:1002C00080062ED56848A1690029A96816D00122A8
:1002D0000A43AA60696B01220A436A6301686A0CD7
:1002E0000A43026000F04BFA0600A868800718D4A1
:1002F00000F045FA801B6528F7D3A8E0012291435E
:10030000A9600168594A0A40026000F038FA060004
:10031000A868800705D500F032FA801B6528F7D35E
:1003200095E0206807404BD0A86B80214905014328
:10033000A9634F4F3868A90D0143396000F01FFAD7
:1003400006003868C00507D400F019FA801B65283C
:10035000F7D37CE000100240464F286D38402865F6
:1003600000F00DFA0600286D800506D500F007FAAA
:10037000801B3B498842F6D369E0286D0740A0689E
:1003800038432865A068A90D88420CD100F0F7F920
:100390000600286D800513D400F0F1F9801B304968
:1003A0008842F6D353E000F0EAF90600286D800594
:1003B00006D500F0E4F9801B29498842F6D346E0CF
:1003C000A06A002847D0E9680C220A400C2A40D0D5
:1003D0008027BF04A349022828682BD10140296047
:1003E00000F0CDF906002868384009D000F0C7F9C0
:1003F000801B6528F7D32AE0FFE0FFFFFF1FFFFF08
:10040000E86899490140206B0843616B0143E06A49
:100410000843E860286879080143296000F0AFF9D3
:1004200006002868384016D100F0A9F9801B65281D
:10043000F7D30CE00140296000F0A1F9060028681C
:10044000384008D000F09BF9801B6528F7D30320C3
:10045000F2BD0120F2BD0020F2BD0000FFFFFAFF57
:1004600089130000FFFEFFFF20000140FEDFFFFFB9
:1004700000700040FFFAFFFFF2B50400934F032025
:10048000C043934DF021C9430222924B1E68F307EB
:10049000DB0F009EB34265D28E4B1B680126B3432F
:1004A000009E1E438B4B1E601E68F307DB0F009EF1
:1004B000B3421BD123681A4004D0EA681140A268F5
:1004C0000A43EA602178C90700D4B3E061680229D1
:1004D00002D12A68920308E0002902D12A68920515
:1004E00003E003292A6802D1920102D4A0E0520756
:1004F000FCD5EA6810400143E96000F040F90600CD
:10050000606802280AD1E8680C210140082917D048
:1005100000F035F9801BB842F5D379E003280AD101
:10052000E8680C2101400C290AD000F028F9801B52
:10053000B842F5D36CE0002809D1E8680C210140ED
:1005400078D000F01CF9801BB842F6D360E0E86870
:100550000C21014004296DD000F011F9801BB84234
:10056000F5D355E023681A4004D0EA681140A26828
:100570000A43EA602178C9074CD56168022902D193
:100580002A68920308E0002902D12A68920503E054
:1005900003292A6802D1920102D449E0520747D5C3
:1005A000EA6810400143E96000F0E9F8060060687D
:1005B00002280AD1E8680C21014008292AD000F05D
:1005C000DEF8801BB842F5D322E003280AD1E868A0
:1005D0000C2101400C291DD000F0D1F8801BB8423D
:1005E000F5D315E0002809D1E8680C21014011D0AD
:1005F00000F0C5F8801BB842F6D309E0E8680C218A
:100600000140042906D000F0BAF8801BB842F5D3A7
:100610000320F2BD2F48006801218843009901435F
:100620002C4801600068C107C90F0098814201D0C1
:100630000120F2BD2078400705D5E8682D4901402A
:10064000E0680843E8602078000706D5E8682A4992
:1006500001402069C0000843E860032000F078F8FA
:100660000020F2BDFFFFFFFEFFFF02FF30B5184C78
:10067000616823484300E2680C251540042D04D02E
:10068000082D22D00C2D07D019E02068C00601D516
:10069000980830BD180030BDE268E168194D92023B
:1006A000120FAA5C0902890F491CE468E40301D413
:1006B0005A4300E04243100000F074F830BD00BF20
:1006C00013A00904490F8900405830BD8913000068
:1006D000001002400020024080B5FFF7C7FF074925
:1006E0000968094A0906090F515CC84007490860B2
:1006F00002BD0000FFF8FFFFFFC7FFFF0C10024024
:1007000000127A00E0000020D0000020CC00002081
:1007100000FA000000F4010000E8030000D0070028
:1007200040420F0080841E0000093D0080B51B4838
:10073000016840220A430260016802220A43026003
:10074000032000F005F800F002F8002002BD704719
:1007500010B50400FFF7C0FFFA21890000F022F86D
:1007600000F0A3F8002221000020C04300F08BF825
:10077000002010BD0A480168491C01607047084804
:100780000068704711B581B0FFF7F9FF0400FFF76B
:10079000F6FF001B01998842F9D313BD00200240E7
:1007A000140400200022030A8B420BD203098B425F
:1007B00019D243088B422ED2411A00D2014652412F
:1007C00010467047FF2209023FD012068B4205D324
:1007D000121209028B4201D31212090203098B4241
:1007E00019D300E0090AC3098B4201D3CB01C01A17
:1007F000524183098B4201D38B01C01A52414309F4
:100800008B4201D34B01C01A524103098B4201D3E1
:100810000B01C01A5241C3088B4201D3CB00C01A4E
:10082000524183088B4201D38B00C01A52414308C6
:100830008B4201D34B00C01A5241884200D3401A68
:100840005241CFD201461046704708B500F04CF82F
:1008500008BDFEE710B58207D30EFF249C40E2439B
:100860008907090E9940030004D51A481B071B0F7E
:10087000083B00E018489B089B00C01803681A401A
:100880001143016010BD80B5FFF7E4FF01BD0121F8
:10089000C006C00E81401148016070470121C006AA
:1008A000C00E81400E480160704710B5401E802187
:1008B0004904884201D3012010BD0A4C6060032125
:1008C0000020C043FFF7C6FF0020A0600721216081
:1008D00010BD00001CED00E000E400E000E100E0DD
:1008E00080E100E010E000E07047FEE7F0B58BB07B
:1008F0001B2706AC2770C5206070D520A070A520EE
:10090000E0700226267100206071B420A0719A2048
:10091000E071E1202072112060723A20A072CF2095
:10092000E072802020736E2060733620A073E6731F
:10093000384D281D00900723012206A9022000F04F
:10094000CBFA002862D12770C5206070D520A07036
:10095000A520E070267100206071FC20A0718F201E
:10096000E071E1202072112060724A20A072CF2035
:10097000E072A0202073782060733E20A073E220F4
:10098000E073A81D05900020049010200390002023
:100990000290019010200090012306AA0221A8884D
:1009A00000F0DFFA002831D12770C5206070D52013
:1009B000A070A520E0702671002060713620A07123
:1009C000AC20E071E1202072112060724B20A072F7
:1009D000CF20E0728020207367730A20A073342038
:1009E000E073280008300590002004901020039048
:1009F000042002900020019012200090062306AAF5
:100A00000221A88800F0ADFA002800D047200BB0E2
:100A1000F0BD00008C000020E0B501A902680A705A
:100A2000026812124A7042688A7042681212CA70D2
:100A300082680A71806800124871C54800910623D7
:100A400000220189808800F05CFB002800D047204C
:100A50000EBDF0B591B00CAC1B202070C5206070AD
:100A6000D520A070A520E0700220207100276771BA
:100A7000D020A0718220E071E221217211216172E7
:100A80007726A672E421E172402121731A21617355
:100A9000A0734220E073AE4D28000A3000900A2374
:100AA00001220CA9022000F017FA002800D003E16F
:100AB0001B202070C5206070D520A070A520E0709C
:100AC000022020716771E320A071A920E071E2206B
:100AD000207211206072A672E420E0722020207340
:100AE000552060732E20A073A320E07328000C30E3
:100AF0000590049710200390042002900197022093
:100B0000009002230CAA0221688900F02AFA00282A
:100B100055D10AAE0E2030700020C0437070BE4820
:100B2000708037717771B771BC486946888409A8AD
:100B3000801C0890079710200690059701200490CC
:100B400003970AA8029007200190009009AB0122A8
:100B5000A989688900F062FA002830D11B20207032
:100B6000C5206070D520A070A520E0700220207103
:100B700067710B20A0718420E071E22020721120A7
:100B800060728B20A072E420E07280202073C42069
:100B900060732020A073CD20E07328000E300590F4
:100BA00004971020039004200290019702200090E7
:100BB00003230CAA0221688900F0D3F900287BD115
:100BC0000F2030700420C04370709E208001708020
:100BD00037717771B77191486946888409A8801C7C
:100BE000089007971020069005970120049003971E
:100BF0000AA8029007200190009009AB0122E98920
:100C0000688900F00BFA002856D11B202070C520FF
:100C10006070D520A070A520E0700220207167715F
:100C20007320A071A020E071E22020721120607278
:100C30008C20A072E420E072602020730B2060738F
:100C4000C520A0730120E0732800103005900497A0
:100C500010200390042002900197022000900223AC
:100C60000CAA0221688900F07CF9002824D1062012
:100C700030700020C04370709C20800170803771FC
:100C80007771B77165486946888409A8801C089007
:100C900007971020069005970120049003970AA853
:100CA000029007200190009009AB0122298A6889EF
:100CB00000F0B4F9002800D0472011B0F0BD01B514
:100CC00082B0704802A900910223002281894089E4
:100CD000B9E601B582B06B4802A900910323002256
:100CE000C1894089AFE601B582B0664802A900918A
:100CF00002230022018A4089A5E6000000B589B0E0
:100D000007A800BF64A10CC90CC00021002000F09E
:100D100019FC0020069005900490039007A802900B
:100D2000082001900020009000230022002100F004
:100D3000BFFC09B000BD53480122426141807047A9
:100D4000504800214161012202704170704700004B
:100D50008C00002050B583B04A4C2189491C884240
:100D600004D120001830FFF757FE4EE0A189491C3E
:100D7000884217D100F034FD060020001830FFF73C
:100D80004BFE3000F1170F22002300F08FFD3E4A8A
:100D9000002300F0A4FD87214900401800B2FFF7AE
:100DA0008EFF32E0E189491C884219D1374800683A
:100DB0000A21FFF7F7FC0100684600F0C5FD00F0CE
:100DC0000FFDC117FA229200002300F06FFD2E4A9A
:100DD000002300F084FD2E494018FFF77AFF14E04D
:100DE000218A491C884210D100F0FAFCC117642204
:100DF000002300F05BFD244A002300F070FDE12198
:100E00004900401880B2FFF76EFF6088002802D0CA
:100E1000608800F0CBF957BD2F270000042900009F
:100E20000100401C0978042900D0704780B5017882
:100E3000052904D03E2905D0FF2911D001BDFFF7B7
:100E40007FFF01BD801C017801291AD1401C417827
:100E500082781206120C1143401DFFF76CFF01BD92
:100E6000801C017842781206120C1143094A914203
:100E700007D1017942791206120C11430800FFF7DD
:100E800069FF01BD8C000020FFFFFF3FFC28000828
:100E9000A0860100140C000009426C75654E524793
:100EA00000B587B01822002101A800F067FD01A855
:100EB0003F210180C23141806846059001200690A3
:100EC000002101A800F048FA002801D5FF2001E028
:100ED0006846007807B000BDF0B58DB016001F0061
:100EE00007AC2070012801D1022500E010252A005E
:100EF000601C00F03DFD6D1CEDB266556D1CEDB241
:100F0000675503220021684600F038FD18220021B1
:100F100001A800F033FD01A83F210180C3314180C9
:100F200007A803906D1CEDB2049568460590032058
:100F30000690002101A800F00FFA002801D5FF203B
:100F40000DE068460178002901D0084607E04178A5
:100F500082781206120C11431298018000200DB005
:100F6000F0BDF1B58EB00D0017001E0002220EA9D3
:100F700007A800F0FDFC07ACA570012D01D10225EA
:100F800000E010252A003900E01C00F0F1FCED1C07
:100F9000EDB266556D1C1498EDB260556D1C159838
:100FA000EDB260556D1C1698EDB260556D1C17982A
:100FB000EDB260556D1C1898EDB26055032200210A
:100FC000684600F0DBFC1822002101A800F0D6FCE6
:100FD00001A83F210180C531418007A803906D1C05
:100FE000EDB204956846059003200690002101A803
:100FF00000F0B2F9002801D5FF200DE06846017825
:10100000002901D0084607E0417882781206120CC8
:1010100011431998018000200FB0F0BD73B5A8B03E
:1010200014001E00022228A907A800F0A1FC07ADA9
:10103000022229A9A81C00F09BFC2C71012C01D1D3
:10104000022400E0102422003100681D00F090FC12
:10105000641D2E98E4B22855641C2F9EE4B22E55D0
:10106000641CE4B23119491D812901DB422046E0AC
:1010700032003099281900F07BFCA4193198E4B2B1
:101080002855641C3298E4B22855641C3398E4B2A5
:101090002855641C3498E4B22855641C3598E4B291
:1010A000285503220021684600F068FC1822002120
:1010B00001A800F063FC01A83F210180C6314180F6
:1010C00007A80390641CE4B20494684605900320CA
:1010D0000690002101A800F03FF9002801D5FF206B
:1010E0000DE068460178002901D0084607E0417804
:1010F00082781206120C11433698018000202AB023
:1011000070BD73B5A8B016001C00A01D812801DBBE
:10111000422032E0022228A907A800F029FC07ADEE
:10112000022229A9A81C00F023FC2E716C71220058
:101130002E99A81D00F01CFC1822002101A800F027
:101140001DFC01A83F210180C731418007A8039001
:10115000A41DE4B204946846059001200690002185
:1011600001A800F0F9F8002801D5FF2005E0684645
:101170000078002801D0684600782AB070BD418010
:1011800001A80490022005900F2003906846069065
:1011900001200790002102A800F0DEF8002801D508
:1011A000FF2001E06846007809B000BD00B589B0B5
:1011B000694688801822002102A800F0DFFB02A8FF
:1011C0003F210180E831418001A804900220059070
:1011D000DCE7FEE738B5B84C201D00F0D9FB200055
:1011E0000C3000F0D5FB00258C2068432118143109
:1011F000201D00F0DEFB6D1C052DF5DB31BD01006F
:1012000008310A78042A01D0012070478978883093
:101210000078C01E814201D0022070470020704734
:1012200030B5A1B00025009500F051FDA24C10E0B2
:10123000694620000C3000F0CAFB00F043FD009826
:101240000830FFF7EDFD00F042FD0099201D00F091
:10125000B0FB20000C3000F09EFB0028E8D0207886
:1012600000280AD10EE0802201A9944800F090FCE9
:10127000000602D001A8FFF7D3FD00F07EFC002895
:10128000F1D1257000F01EFD21B030BD38B5002031
:10129000009000F021FD894D04E0201D00F082FB4C
:1012A00000F01AFD00F069FC002824D0824C201DBB
:1012B00000F071FB00281AD16946201D00F087FB61
:1012C000802200990831280000F062FCC0B200289A
:1012D0000099E2D0883108700098FFF790FF00284D
:1012E0000099DAD10C34200000F063FBD8E701202C
:1012F000207000F0F1FC31BD80B500F0EFFB01BDC6
:1013000030B583B014001D0001AA8905890D800243
:10131000084310809470684601210170032201A9DE
:10132000401C00F025FB2300042229006846FFF73B
:10133000E3FF37BD38B504000D0007E0694628001B
:1013400000F045FB0099200000F033FB280000F07E
:1013500022FB0028F2D031BDF0B587B005000F00A8
:1013600068888005800D29888902014389B204912B
:10137000534800680A21FFF715FA06000020009084
:1013800002A800F005FBAB68EA68D2B26988288839
:10139000FFF7B6FF484C002F5DD1002E00D101268B
:1013A000310005A800F0D0FA04E002A800F001FB2B
:1013B00000F088FC05A800F0CFFA002871D12000C9
:1013C0000C3000F0E8FA0028F4D100F080FC694607
:1013D00020000C3000F0FBFA009A08321078042844
:1013E0000099E2D10B31009888300078C01E527805
:1013F0000E2A3ED00F2A04D0102A52D03E2A43D0C3
:101400000DE08A78CB781B061B0C1A43049B9A428A
:1014100047D16A680F2A15D00878002841D1009971
:1014200002A800F0C6FA201D00F0B5FA0028BFD0CF
:1014300001A920000C3000F0CAFA0199201D00F02B
:10144000B8FAB5E76A69904200DD100068610246AB
:10145000286900F08DFA0099201D00F0A3FA02A976
:101460000C342000FFF766FF00F02CFC002007B0D2
:10147000F0BD4A788B781B061B0C1A43049B9A42DA
:101480000FD1C91CC01EDDE70A786B689A42C6D12D
:10149000401E6A69904200DD100068610246491CE6
:1014A000D6E702A90C342000FFF744FF00F00AFC45
:1014B0000020C043DBE70000F0000020C003002054
:1014C000FC280008F0B589B006000D0014001F00CC
:1014D00009220021684600F051FA1822002103A8D1
:1014E00000F04CFA03A80421018001214180002072
:1014F000059006906846079009200890002103A8EF
:10150000FFF72AFF002801D5FF2019E0684601787F
:10151000002901D0084613E04178317041882980C4
:1015200001792170417982791206120C11433980B8
:10153000C179027A1206120C11430E980180002024
:1015400009B0F0BD30B58FB004000D00202200219D
:1015500007A800F013FA07A80470202C01DB1F2253
:1015600000E022002900401C00F002FA18220021AD
:1015700001A800F003FA01A8082101800921418097
:1015800007A803902020049068460590012006904B
:10159000002101A8FFF7E0FE002801D5FF2001E0AF
:1015A000684600780FB030BD10B58AB01C006B469D
:1015B000187059709A700722002101A800F0DEF916
:1015C0001822002103A800F0D9F903A83F210180C7
:1015D0008A214180684605900320069001A8079063
:1015E00007200890002103A8FFF7B6FE002801D5C8
:1015F000FF201AE001A80178002901D0084614E074
:10160000417882781206120C11432180C178027948
:101610001206120C11430C9A11804179827912063C
:10162000120C11430D98018000200AB010BD70B556
:101630008AB00D0014001E006946087007220021C0
:1016400001A800F09BF91822002103A800F096F9E8
:1016500003A83F2101808A2141806846059001202E
:10166000069001A8079007200890002103A8FFF723
:1016700073FE002801D5FF2018E001A80178002999
:1016800001D0084612E0417882781206120C11430C
:101690002980C17802791206120C11432180417908
:1016A00082791206120C1143318000200AB070BDFD
:1016B000F6B591B01F0019A90D781B9EA9190E311E
:1016C000292901D342204EE007AC2070022211A943
:1016D000601C00F04DF9022212A9E01C00F048F94C
:1016E00067711898A071E5712A001A9920000830D6
:1016F00000F03EF90835EDB266556D1CEDB23200D2
:101700001C99601900F034F9AD19EDB202221DA93F
:10171000601900F02DF9AD1CEDB202221EA960196E
:1017200000F026F91822002101A800F027F901A8ED
:101730003F2101808321418007A80390AD1CEDB2B9
:1017400004956846059001200690002101A8FFF746
:1017500003FE002801D5FF2005E068460078002838
:1017600001D06846007813B0F0BD70B58EB00E00A1
:1017700011001D0007AC207066701022A01C00F044
:10178000F7F8A5741298E07413A80078207521006A
:101790001531149800F0BCFA1598607618220021D3
:1017A00001A800F0EBF801A83F21018086214180CB
:1017B00007A803901A20049068460590012006901F
:1017C000002101A8FFF7C8FD002801D5FF2005E092
:1017D00068460078002801D0684600780EB070BDD9
:1017E000F8B52F4E300000F09DFA0090301D00F04B
:1017F00099FA04003000083000F094FA05000C3625
:10180000300000F08FFA2749274A009B1B78002BF5
:1018100036D1236853435B18236053435B1823601E
:1018200053435B18236053435B18236053435B1897
:10183000236053435B18236053435B182360534377
:101840005B18236003000826276857437F1827602A
:101850001F60276857437F1827605F6027685743DA
:101860007F1827609F60276857437F182760DF60D5
:101870001033761EE8D1C36F2B600123009E3370B6
:1018800023685343591821602978C906490E401826
:101890000168296021680160286880008008F2BD25
:1018A000000000205FF36E3C0D66190030B4434326
:1018B00051435D18010C0C00130C5C432D1980B2D0
:1018C000434392B251430024C918644124040B04D9
:1018D000090C09195043C018694130BC70471242C5
:1018E00024D0994228D970B500251B4202D00C00A3
:1018F000002109E00024012649186441944200D3E4
:10190000A41A7641F8D33100012601E0764109D2CC
:10191000001864416D41A41A9D41F7D2A4185D419D
:10192000B619F5D3300022002B0070BD1B42D8D170
:1019300008B500F0F9F908BD01D19042D3D20200F8
:101940000B0000210020704710B504006160FFE724
:1019500000F0EBF9206010BD10B5040000F0E5F9CF
:1019600061682268801A401C81428041C00F10BD0E
:1019700010B5040000F0DEF9200010BD10B5040021
:1019800010000A000100200000F002FA200010BD43
:101990000060406070470168814201D101207047BA
:1019A0000020704702680A60486001600868416072
:1019B0007047086042684A6041604868016070474B
:1019C000016842681160416800684160704710B565
:1019D0000C00016821600068FFE7FFF7F1FF0020BD
:1019E000216808602168486010BDFEE70068B349BF
:1019F000884200D07047F0B585B00125B048016835
:101A000029430160022601683143016001682943CE
:101A10000160016829430160016829430160016890
:101A2000294301608168820C0A438260870D009718
:101A3000019502950024039404946946A020C005F2
:101A400000F0D0F900223900A020C00500F096FA7D
:101A50000820009001960296032703970494694694
:101A6000A04800F0BFF9402000900196029403972F
:101A700004946946A020C00500F0B4F980200090CD
:101A800001960294039704946946A020C00500F0D3
:101A9000A9F9009601950295039704946946A02040
:101AA000C00500F09FF901220221A020C00500F02E
:101AB00065FA00958C480190029403970494694656
:101AC000A020C00500F08EF9002203210520FEF7BA
:101AD000DAFE0520FEF7DBFE05B0F0BDF1B584B0FF
:101AE0000F0016001D00814800680A21FEF75AFE0B
:101AF000010001A8FFF728FF7D4CE8B20090F3B287
:101B00003A000499200000F08FF8002804D001A8C2
:101B1000FFF722FF0028F0D005B0F0BD80B5744873
:101B20006649016082214900416000218160C160F5
:101B3000016141618022920082610162416207225B
:101B4000C2620822C261816200F03AFA01BD38B572
:101B5000A024E40580256D0000222900200000F06B
:101B60000DFA0520FEF70EFE01222900200000F0EC
:101B700005FA0520FEF706FE31BD80B50121A02043
:101B8000C00500F0F5F9012800D0002002BD0000DA
:101B9000F3B587B0160000250024FF206946487180
:101BA00004A800BF54A10CC90CC000220221A0202F
:101BB000C00500F0E3F90F200090052302AA04A954
:101BC000079800F03FFA02A80178022919D101799B
:101BD0000F02C078074314D0BE420FDA37000DE081
:101BE0000F200090012301AA01A9491C079800F0C9
:101BF00029FA6846007908990855641CE4B2BC4289
:101C0000EEDB01220221A020C00500F0B7F900950B
:101C100003E000BF0098401C009000980228F8DB09
:101C2000200009B0F0BD0000F6B5C5B007001E00E9
:101C3000002403A832A10CC90CC001A832A10CC910
:101C40000CC00520FEF72AFE00220221A020C005BC
:101C500000F094F90F200090052301AA03A9380091
:101C600000F0F0F901A8017802291AD14C9D4078C2
:101C70007119884214DB002E07D00F20009033002A
:101C800005AA4599380000F0DDF9002D0AD00F2093
:101C900000902B0005AA4699380000F0D3F901E026
:101CA0000124E44301220221A020C00500F066F9CE
:101CB0000520FEF7ECFD200047B0F0BD00300140EC
:101CC0002C10024080B50520FEF7E1FD01BD80B576
:101CD0000520FEF7E3FD01BD0120064908607047BD
:101CE000000000000004005000001110FC28000853
:101CF000C0030020140401400B000000000000009D
:101D00000A00000000000000AA000000000000001F
:101D100084460870000A4870000A8870000AC8707B
:101D2000604670477047FEE7704780B5FEF727FDB5
:101D300002BDFEE7124207D08B0706D00B78491C84
:101D40000370401C521EF7D87047830706D00B78EB
:101D5000491C0370401C521EF9D1704770B4103AF0
:101D600003D378C9103A78C0FBD2530701D318C9FE
:101D700018C001D508C908C0D20704D30B88038056
:101D8000891C801C002A01D50B78037070BC704739
:101D90001206130A1A43130C1A4300BF094205D056
:101DA000830705D00270401C491EF9D1704700001E
:101DB000130030B414001500103902D310393CC0A0
:101DC000FCD2490700D30CC000D504C0890002D35F
:101DD0000280801C002900D5027030BC70470000D2
:101DE0000022E5E7F1B583B000200322012301249E
:101DF0008440029425460C682C40AC4200D0B2E0EE
:101E00004D68022D01D0122D19D1039DC608B600D0
:101E1000AD192E6A00964607F60E6F463E71009E7B
:101E2000B4460F276E463679B7406646BE43B44681
:101E30000F696E463679B740664637432F624600D3
:101E40000325B540EF4300974D68012D05D0022DC5
:101E500003D0112D01D0122D13D1039DAF68009D29
:101E60003D40CF68B7402F43039DAF60039D6D6831
:101E7000029FBD434F683F091F4087402F43039D8A
:101E80006F60039D2F68009D3D404F681740B7402D
:101E90002F43039D2F60039DEF68009D3D408F6899
:101EA000BC4637006646BE402E43039DEE604D683B
:101EB000ED0058D53A4D2D681D43394E3560394DEA
:101EC0008608B600AD1900952D6803270740BE00AF
:101ED0006F463E710F26F6433F79BE402E40039D6C
:101EE000A027FF05BD4201D1002514E02E4FBD42C1
:101EF00001D101250FE02D4FBD4201D102250AE09D
:101F00002B4FBD4201D1032505E02A4FBD4201D12F
:101F1000042500E005256F463F79BD403543009E0E
:101F20003560254D2E68E5432E404F68FF0300D5F0
:101F30002643214F3E607E682E404F68BF0300D588
:101F400026431D4F7E60BE682E404F68FF0200D5BD
:101F50002643194FBE60FE6835404E68B60201D573
:101F60002C432500FD60401C102800D23FE7FFBD38
:101F70000069084000D00120C0B27047002A01D09B
:101F800081617047816270470C4A1368034000D139
:101F9000704780B5106000F009FA01BD0000000034
:101FA00034100240080001400004005000080050B6
:101FB000000C0050001C00500004014014040140BB
:101FC00038B5050001D1012032BD2C0051342078F4
:101FD000002802D12800FFF709FD022020702868A0
:101FE00001684022914301606868A9680143E8687C
:101FF00008432969014368690843A969D20011406F
:102000000143E8690843296A0143A86A084329682B
:102010000860A869000C04210840696A0143286827
:102020004160E86A296808612868C169044A0A4071
:10203000C2610020607001202070002032BD0000CD
:10204000FFF7FFFFF8B50400250050356878012838
:1020500002D0222800D042E1002902D0002A00D07C
:10206000002B00D136E12878012800D137E101208A
:1020700028706878012801D1322068700020A8708B
:10208000A263A387E3872163A386E386A064E06459
:102090008027BF01A06AB84208D120680168914A30
:1020A0000A400260206801683943016020684021CD
:1020B00002680A4002D10268114301608220400098
:1020C000069EE168BA089142616860D1002904D097
:1020D00081420CD1E08E012809D1206B0088216853
:1020E000C860206B801C2063E08E401EE086E08E7E
:1020F000002836D1A06AB84239D120680168520060
:102100000A43026033E0330000220221200000F085
:10211000EBF8002832D1206B00882168C860206B62
:10212000801C2063E08E401EE086000407D1A06A78
:10213000B84204D1206801687A080A43026033007B
:1021400000220121200000F0CFF8002816D12068DD
:10215000C068A16B0880A06B801CA063E08F401E4C
:10216000E087E08E0028CED1606800287CD1330063
:1021700000220121200000F0B7F8002869D1206872
:10218000C068A16B0880A06B801CA06369E0002977
:1021900004D081420BD1E08E012808D1206B411C74
:1021A000216300782168C860E08E401EE086E08EE2
:1021B000002840D1A06AB84204D1206801685200CA
:1021C0000A430260330000220121200000F08CF855
:1021D00000283ED12068C068A16B087041E0330040
:1021E00000220221200000F07FF8002831D1206B6E
:1021F000411C216300782168C860E08E401EE086A3
:10220000000407D1A06AB84204D1206801687A08A6
:102210000A430260330000220121200000F064F82C
:10222000002816D1A06B411CA1632168C968017008
:10223000E08F401EE087E08E0028D0D16068002843
:1022400012D1330000220121200000F04DF80028B7
:1022500001D00320F2BDA06B411CA1632168C968B5
:102260000170E08F401EE087A06AB84210D13300B1
:1022700000220121200000F037F8002804D0A878BF
:1022800002210143A970E4E72068C068694608801C
:10229000330001228021200000F026F8002802D01F
:1022A000A8782021EDE70120687020688168A26A83
:1022B000BA4211D1C9060FD5A97802220A43AA70E1
:1022C0000168084A0A400260206801680F430760FD
:1022D000002028700120F2BD00202870F2BD0220ED
:1022E000F2BD0000FFDFFFFFFFB581B0FEF747FA48
:1022F00000902D4FFC434025ED43E026F643684611
:10230000007B002816D1019800688068029901407E
:102310000298814244D004980021C9438842F2D0F7
:1023200000281DD0FEF72BFA0099401A049981422B
:10233000E9D215E00198006880680299014002988E
:1023400081422DD104980021C9438842F2D000284F
:1023500006D0FEF714FA0099401A04998142E9D296
:102360000198006841680E40466001980068016865
:102370000D4005600198806AA04209D1019800686B
:1023800001680F4007600198006801680C43046011
:10239000019850300121417000210170032000E0BC
:1023A000002005B0F0BD0000FFDFFFFF80B5FEF7A5
:1023B0006DFF01BD10B58CB0002409A84DA10CC95A
:1023C0000CC0FEF7B3F90021002000F097F800F0F0
:1023D000FFF8FFF7A3FBFEF7FDFEFFF7B8FB06A92A
:1023E00004A800F029F9FFF7B2FB6846007C312809
:1023F00003DB0124022009A94871062209A907A8C4
:10240000FFF7B6FA07AA0621002000F041F9FEF70F
:1024100047FD002C0CD005A8801C019004A8801C4E
:10242000009005AB072200210120FFF7BDF807E06F
:1024300005AB9B1C04AA921C05A90120FFF7F7F825
:102440002AA00090072300226846418A808AFEF76E
:1024500058FE002800D0FEE7012003901F4802909C
:10246000002001901020009007230022002101206D
:10247000FFF77BF9FEF73AFAFEF7EBFA04210120A9
:1024800000F03AF9164CFEF7CBFE200000F001F800
:10249000F9E738B50400134D2878002803D0FEF77B
:1024A0002DFC00202870002000F07AF8002814D1BC
:1024B000002000F075F80028FAD00B4800680028CA
:1024C0000BD0206864302060606864306060A06871
:1024D0006430A0602000FEF79FFA31BD40E20100A9
:1024E000A40000208C000020A0000020426C756534
:1024F0004E524700123400E180030000F0B587B06F
:102500000E002E49002803D10A68042313430B60F0
:102510008A68012313438B6029498200891800913E
:10252000470002240025002E0BD100BF22A0C05B73
:10253000019002950395049401A900980068FFF7A3
:1025400051FC012E28D100BF1BA0C05B0190039558
:1025500004941C48029001A900980068FFF742FC0F
:102560000EA0C05B8107CC0EFF22A240D143C02247
:10257000A24044B2002C04D5134B2407240F083C7E
:1025800000E0124BA408A4001B191C6821400A4358
:102590001A6040B2FEF77BF907B0F0BD07000000FB
:1025A00080B500BF04A14200895A054A8000105836
:1025B000FFF7DEFC02BD0000002000002C100240EE
:1025C000EC000020000021101CED00E000E400E021
:1025D00070B594B0154C6068802149050143616075
:1025E00013480168134A0A40C10C114301600220DC
:1025F000059001250895102109910F90002610964D
:10260000400411900001129005A8FDF759FD0095B6
:102610000320019002960396049601216846FDF777
:102620002BFF20680543256014B070BD34100240B4
:1026300000700040FFE7FFFF70B584B005000C009C
:1026400001A8009002AB9B1C02AA01A9891C02A848
:10265000401CFEF737FFC6B2002E14D16846C08872
:10266000000A28706846C088000220806946898870
:102670000906090F09010143218068468088000787
:10268000000F08432080FEF7CBFD300004B070BD82
:1026900010B5A8B003000C001100A01C812801DBBC
:1026A000422027E007A8037044702200801CFFF737
:1026B0005FF91822002101A8FFF760F901A83F2166
:1026C00001800C21418007A80390A41CE4B204946B
:1026D0006846059001200690002101A8FEF73CFE07
:1026E000002801D5FF2005E068460078002801D0C9
:1026F0006846007828B010BD00B589B001AA1070F6
:1027000051701822002102A8FFF738F902A83F21D2
:1027100001800F21418001A80490022005906846A5
:10272000069001200790002102A8FEF715FE002860
:1027300001D5FF2005E068460078002801D06846F2
:10274000007809B000BDFEE70F480168820D0A431A
:102750000260C1680D4A0A40C26001680C4A0A4022
:10276000026081680122914381600168094A0A4040
:102770000260C168084A0A40C260002101618020ED
:102780000005064908607047001002400C40FF88B1
:10279000F6FFF6FEFFFFFBFFFFFF02FF08ED00E084
:1027A0007047FEE770477047704780B5FDF7E2FF5E
:1027B00009480168491C016001BD80B50120FFF78F
:1027C000E3FB01BD80B580208001FFF7DDFB012028
:1027D0000249087001BD0000180400201C040020FC
:1027E00070B40121002313E00468001D0C4202D0E4
:1027F0004D466D1E64192360241D121F042AFAD24F
:102800002500960701D52380AD1C0A4000D02B700F
:102810000268001D002AE7D170BC704730B4012166
:102820000268001D002A0FD00368C31844680830EE
:102830000C4202D04D466D1E64191D6825601B1D9B
:10284000241D121FECD0F8E730BC704710B50749C3
:1028500079441831064C7C44163404E0081D0A689B
:10286000891888470100A142F8D110BD0800000076
:10287000280000006DFFFFFF30030000F000002083
:102880000000000099FFFFFFF0000000940000002E
:10289000000000200000000000F00BF8002801D02C
:1028A000FFF7D4FF0020C046C046FFF783FD00F0CD
:1028B00002F80120704780B500F002F801BDFEE784
:1028C0000746384600F002F8FBE7FEE780B5C04651
:1028D000C046024A11001820ABBEFBE726000200EA
:1028E000014880470148004749270008F1280008AF
:1028F000C046C046C046C046FFF7CEFFE803000012
:10290000FEE7FEE7FEE7FEE7FEE7FEE7FEE7FEE79F
:10291000FEE7FEE7FEE7FEE7FEE7FEE7FEE7FEE78F
:1029200000000000010000000000000000000000A6
:102930000000000000000000000000000000000097
:102940000000000000000000000000000000000087
:102950000000000000000000000000000000000077
:102960000000000000000000000000000000000067
:102970000000000000000000000000000000000057
:102980000000000000000000000000000000000047
:102990000000000000000000000000000000000037
:1029A0000000000000000000000000000100000026
:1029B0000000000000000000000000000000000017
:1029C0000000000000000000000000000000000007
:1029D00000000000000000000102030406070809CF
:1029E000030406080C1018203000000080841E002C
:1029F00000000000010203040102030406070809A5
:102A0000030406080C1018203000000000080050D5
:00000001FF
