:020000040800F2
:10000000F005002005240008A1220008A322000812
:1000100025240008292400082D24000800000000E1
:10002000000000000000000000000000A522000801
:10003000A722000800000000A9220008AB22000847
:100040003124000835240008392400083D24000824
:100050004124000845240008BB2200084924000868
:100060004D24000851240008552400085924000894
:100070005D24000861240008652400086924000844
:100080006D240008712400087524000879240008F4
:100090007D240008812400088524000889240008A4
:1000A0008D24000891240008952400089924000854
:1000B0009D240008A1240008A5240008A924000804
:1000C000AD240008B1240008B5240008B9240008B4
:1000D000BD240008C1240008C1220008C52400086E
:1000E000C7220008C9240008CD240008D124000834
:1000F000D5240008D9240008DD240008E1240008E4
:10010000E5240008E9240008ED240008F124000893
:10011000F5240008F9240008FD2400080125000842
:1001200005250008092500080D25000811250008EF
:1001300015250008192500081D250008212500089F
:1001400025250008292500082D250008312500084F
:1001500035250008392500083D25000841250008FF
:1001600045250008492500084D25000851250008AF
:1001700055250008592500085D25000800000000ED
:1001800061250008652500082DE9F047044682B086
:100190002078DFF8B857DFF8B067C00625D5B0681B
:1001A00010F00C0F3AD13068C0F3400010B1A069D4
:1001B000002831D0306800074EBF306868680009F9
:1001C00000F0F001206A814206D200F081FB002895
:1001D00022D100F0DDF905E000F0DAF9206A00F044
:1001E00077FBC8B90F2000F0DEFB2078C00741F292
:1001F000893876D500F0D7FA07D000F0D9FA02BFD7
:10020000F06800F0030003282ED100F0BDF90028AB
:1002100067D06068002864D10120A3E1A0690028AC
:10022000306811D040F0010000F0A5F907463068B1
:10023000C0F3400028B900F0CDFBC01B6528F6D301
:100240008DE100F0A5F9D0E74008400000F093F9F7
:1002500007463068C0F340000028C6D000F0BAFB63
:10026000C01B6528F5D37AE100F088F920F48020DE
:1002700000F081F9074600F087F928B100F0AAFBE9
:10028000C01B4045F7D36AE16068B0F5803F07D0F6
:10029000B0F5A02F00F072F906D140F48020306054
:1002A000306840F4803001E020F4802030606068E5
:1002B00058B100F08FFB074600F066F988B900F0EE
:1002C00089FBC01B4045F7D349E100F083FB07469B
:1002D00000F05AF928B100F07DFBC01B4045F7D370
:1002E0003DE12078800718D500F058FA07D000F0DB
:1002F0005FFA02BFF06800F00300022825D13068E1
:10030000C0F3802010B1E068002885D070682169B2
:1003100020F0F85040EA016070602078000748D56E
:1003200060690028686834D040F00100686000F01F
:1003300051FB07466868C0F34000002839D100F03F
:1003400049FBC01B6528F5D309E1E0680028306847
:100350000FD040F4807000F00EF907463068C0F30B
:1003600080200028D2D100F035FBC01B6528F5D3D2
:10037000F5E020F4807000F0FEF807463068C0F326
:1003800080200028C9D000F025FBC01B6528F5D3CC
:10039000E5E040084000686000F01CFB0746686824
:1003A000C0F3400028B100F015FBC01B6528F6D350
:1003B000D5E02078400773D5B06DC0004FF000093C
:1003C0000AD4B06D40F08050B0654FF00109B06DB7
:1003D00000F0805000900098DFF874A5DAF8000073
:1003E000C00512D4DAF8000040F48070CAF80000AA
:1003F00000F0F0FA0746DAF80000C00505D400F076
:10040000E9FAC01B6528F6D3A9E0286800F0ACF82B
:10041000286000F0DFFA07462868C0F3400028B1E2
:1004200000F0D8FAC01B4045F6D398E0A068012838
:100430000CD008B928680DE0052828680AD14008C2
:1004400040002860286840F004002860286840F0D8
:10045000010001E000F088F82860A06860B100F0B9
:10046000B9FA07462868C0F3400090B900F0B2FA24
:10047000C01B4045F6D372E000F0ACFA074628688E
:10048000C0F3400028B100F0A5FAC01B4045F6D3E8
:1004900065E0B9F1000F03D0B06D20F08050B06579
:1004A000606A00285DD0B16801F00C010C293FF4AE
:1004B000B3AE0228306820F0807030603AD100F08E
:1004C00089FA07463068C0F3406028B100F082FA2C
:1004D000C01B6528F6D342E0E06A216B401E09028A
:1004E00041EA0010616B090940EA4140A16A0843F2
:1004F000A16B891E0905490D40EA4150E16B891E37
:10050000090601F07E410843F060306840F08070D9
:100510003060F06840F08070F06000F05BFA0746F1
:100520003068C0F34060E0B900F054FAC01B6528A1
:10053000F6D314E0F068DFF81C1480088000F06047
:10054000F0680840F06000F045FA07463068C0F3F4
:10055000406030B100F03EFAC01B6528F6D303209E
:1005600000E00020BDE8F6874008400028602868C9
:1005700020F004007047306000F02CBA306820F49E
:1005800080303060306870473068C0F3404070475A
:10059000306840F0080030603068216A20F0F000D8
:1005A000084330607068E16920F47F4040EA012030
:1005B000706070472DE9F843DFF89C53DFF88863DB
:1005C000044628680F4600F00700B84241F2893817
:1005D0005BD2002F18BF012F04D0022F1CBF032FA6
:1005E000042F04D12868C00847EAC00000E028684A
:1005F00000F0C7F816D100F0E0F840F1A98060687B
:10060000022803D13168C1F340410AE0032803D135
:100610003168C1F3406104E00028316803D1C1F3BF
:10062000400121B992E0C1F380210029FAD000F005
:10063000AEF805466068022808D100F0B4F809D089
:1006400000F0C8F9401B4045F7D36BE0032808D100
:1006500000F0AEF87CD000F0BDF9401B4045F7D368
:1006600060E048B9B06810F00C0F71D000F0B2F93A
:10067000401B4045F6D355E000F090F868D000F0FC
:10068000A9F9401B4045F7D34CE000F096F84BD554
:100690006068022803D13168C1F3404109E018B90C
:1006A0003168C1F3400104E00328316803D1C1F38C
:1006B000406121B94AE0C1F38021002946D000F011
:1006C00066F881466068022809D100F06CF82BD0EA
:1006D00000F080F9A0EB09004045F6D322E00328A2
:1006E00009D100F065F81FD000F074F9A0EB090003
:1006F0004045F6D316E060B9B06810F00C0F13D087
:1007000000F068F9A0EB090041F288318842F3D388
:1007100008E000F043F807D000F05CF9A0EB090016
:100720004045F6D303202AE0002F18BF012F04D044
:10073000022F1CBF032F042F04D12868C00847EAEA
:10074000C00000E0286800F01CF801D0012016E08D
:100750002078400705D5B068E16820F4E0600843E0
:10076000B0602078000706D5B068216920F4605099
:1007700040EAC100B0600F2000F015F90020BDE88C
:10078000F2832860286800F00700B8427047B1681B
:10079000890840EA8100B06000F01CB9B06800F040
:1007A0000C0004287047B06800F00C00082870475F
:1007B000B06800F00C000C2870472078800705D541
:1007C000B068A16820F0F0000843B0602078C0074E
:1007D00070475D498B680022002003F00C03042B56
:1007E00008BF5F4827D08B6803F00C03082B08BFB5
:1007F0005C4820D08B6813F00C0F09D08B6803F095
:100800000C030C2B02BFCB6803F00303012B12D1A6
:100810000A68120704D4544A1268C2F3032202E0A1
:100820000A68C2F30312514B53F822208B6813F06D
:100830000C0F08BF10468B6803F00C030C2B1ED165
:10084000C868CB68C3F302135B1C00F003000228E6
:1008500002D0032802D005E0414800E04148B0FB47
:10086000F3F001E0B2FBF3F0CA68C968C1F341617B
:10087000C2F30622491C50434900B0FBF1F0704717
:1008800080B5FFF7A6FF354B394A1B683949C3F3DA
:1008900003139A5C20FA02F30B60086802BD80B56E
:1008A000FFF7EEFF00F00EF8C2F3022206E080B57B
:1008B000FFF7E6FF00F006F8C2F3C222125C21FA4D
:1008C00002F002BD254A126801460FF2B0007047DF
:1008D00070B5294E82B0054630680024C00002D5AC
:1008E00000F08AF80EE0306840F0805030603068E8
:1008F00000F080500090009800F07EF8316821F000
:1009000080513160B0F5007F04D1812D0DD3A12D30
:1009100006D209E0812D28BF032406D2802D01D103
:10092000022402E0702D00D101240B480168C9089F
:1009300044EAC1010160006800F00700A04201D054
:10094000012076BD002076BD0010024090100240CC
:1009500000700040FFFFEEFE002002400810024041
:100960000024F40000127A00941002407022000863
:10097000602200080800002058100240000000001B
:100980000102030480B51A48016841F480710160D6
:10099000032000F046F80F2000F005F800F002F800
:1009A000002002BD704710B50446FFF769FF4FF401
:1009B0007A71B0FBF1F000F06DF8002221464FF0A3
:1009C000FF3000F03BF8002010BD0A480168491CC8
:1009D0000160704707480068704738B50446FFF764
:1009E000F9FF0546FFF7F6FF401BA042FAD331BDE1
:1009F00000200240E4010020DFF80800006800F455
:100A0000C0607047007000400901002806D52B4ADD
:100A100000F00F00801800F8041C7047284A815429
:100A2000704728490A684FF6FF031A4000F0070094
:100A300042EA0020244A10430860704770B5214BF9
:100A40001B68C3F302230124C3F10705052D2EBF44
:100A50000F2504FA05F56D1E1E1D072E34BF002359
:100A6000DB1E2940994004FA03F3BDE870405B1E89
:100A70001A401143C8E7012100F01F029140134AB8
:100A800004E0012100F01F029140114A400942F8A0
:100A90002010704710B5401EB0F1807F01D30120B7
:100AA00010BD0C4C60600F214FF0FF30FFF7ACFF22
:100AB0000020A06007202060002010BD18ED00E09D
:100AC00000E400E00CED00E00000FA0500E100E0C9
:100AD00080E100E010E000E038B504000BD004F144
:100AE0006805687818B92870204600F03FFC00F0CF
:100AF0000DF8012801D1012032BD606A08B100F073
:100B000025F800F014F821F02A0109E002206870AD
:100B100020680168490849000160204600F07AB960
:100B2000816000F00CF8BDE8324000F004BB2068A2
:100B3000416821F4904141602068816870472068D5
:100B4000016841F00101016020467047204600F035
:100B50008FBAF8B5044604F150070D46787E012897
:100B60001CBF787E22281E4640D1002D18BF002AC7
:100B700001D10120F2BD387E012837D0012038761E
:100B80000020F861787E22280CBF3220122078766F
:100B90003A807A8001E0216808857888A8B1401EF3
:100BA000788033460022802100F089F898B9A06847
:100BB000B0F5805F04BF2069002811BF15F8010B54
:100BC00035F8020BC005C00DE5E733460022402191
:100BD00000F075F808B10320F2BD787E32280CBF12
:100BE00022200120787600203876F2BD0220F2BD66
:100BF0002DE9F041044604F158070D46787C0128A0
:100C00001CBF787C1228984656D1002D14BF002AAC
:100C1000012052D0387C01284ED0012038740020A9
:100C20007861787C12280CBF3220222078743A80B8
:100C30007A80FF21A068B0F5805F04D1206928B9CF
:100C400040F2FF100EE028B9206908B9B9800AE027
:100C50007F2007E0B0F1805F05D1206900280CBF3C
:100C60007F203F20B880BE8804E02068808C304020
:100C700025F8020B7888B0B1401E788043460022E8
:100C8000202100F01CF808B1032016E0A068B0F5A0
:100C9000805F04BF20690028E7D02068808C304046
:100CA00005F8010BE6E7787C32280CBF1220012002
:100CB00078740020387400E00220BDE8F0812046FE
:100CC00000F05EBA38B5044604F152052068C169E7
:100CD000C90709D50168C90506D501210162E06E81
:100CE00040F00100E066E9752068C16989070AD50E
:100CF0008168C90707D502210162E06E40F0040057
:100D0000E0660120E8752068C16949070AD5816855
:100D1000C90707D504210162E06E40F00200E066D9
:100D20000120E8752068C16909070AD58168C907EB
:100D300007D508210162E06E40F00800E06601205E
:100D4000E875E06E10B1204600F0B0FB2068C16984
:100D5000C9020AD58168490207D54FF480110162A2
:100D60000120E875204600F0B5FB2068C1698906BE
:100D70000AD50068800607D5204600F052FA2068A0
:100D8000018B41F0080101832068C169090628D55B
:100D90000168090625D5E97D12291CBFE97D3229A4
:100DA0001FD1298829B900F02DFA41F040010160D6
:100DB00017E0A168B1F5805F04BF2169002908D15F
:100DC000E16C0988C905C90D0185E06C801CE064EF
:100DD00004E0E16C4A1CE264097801852888401E21
:100DE00028802068C169490611D5016849060ED5D9
:100DF000016821F040010160E87D322808BF22200F
:100E000001D000F006FAE875204600F001F831BD87
:100E100070477047F8B50446894B2268106818403F
:100E2000A36818432369184363691843E3691843A7
:100E3000106010265068E36820F44050184350605A
:100E400000210025A0697F4B9A421CBF276A3843C6
:100E5000976827F43067384390607B4F7B48BA42ED
:100E60001FD1006810F0030004D0022826D035D32B
:100E7000032831E00126E069B0F5004F40F0B98069
:100E800066B1012E00F09E80022E00F09E80042E9E
:100E900000F09D80082E00F09E80A2E0FFF7FFFC8E
:100EA00097E06B4FBA420BD1006810F00C005DD098
:100EB000042813D0082801D00C280DE002261DE0DC
:100EC000644FBA420CD1006810F030004ED01028A8
:100ED00004D02028F2D030280FD00FE004260DE0F7
:100EE0005D4FBA4223D1006810F0C0003ED04028C8
:100EF000F4D08028E2D0C02800D108269A42BAD186
:100F0000300006D0022E33D0042E33D0082E34D039
:100F100092E0FFF7C4FC002800F08F80626802EBCB
:100F20004201884202D31103814229D284E04B4F0F
:100F3000BA420CD1006810F4407017D0B0F5807F31
:100F4000CCD0B0F5007FB9D0B0F5407FC4E79A426D
:100F5000D4D1006810F4406008D0B0F5806FBDD0E7
:100F6000B0F5006FAAD0B0F5406FB5E70026C5E731
:100F70003B48D3E7FFF72DFCCDE74FF40040CDE72A
:100F800036B1022E07D0042E07D0082E0CD012E066
:100F9000FFF785FC03E0334808E0FFF71AFC010E79
:100FA00062680002002303E04FF4000000210B46BA
:100FB00000F092FA00E00125A0F540712A4A914222
:100FC0003AD22EE0FFF773FC03E0284805E0FFF774
:100FD00000FC400001E04FF480306168B0FBF1F1AB
:100FE00000E001254FF6F0700840C1F342010843CC
:100FF00017E046B1012E09D0022E0AD0042E0AD0E5
:10100000082E11D018E0FFF74AFC06E0FFF74FFC6E
:1010100003E013480AE0FFF7DCFB6168B0FBF1F086
:1010200080B22168C86008E04FF400406168B0FBFE
:10103000F1F080B2D06000E001252846F2BD00004A
:10104000F369FFEF00800040003801408810024043
:101050000044004000480040004C00400050004068
:101060000024F400000024F400FD0F000048E80113
:1010700090F82410C90706D501684A68836A22F4EB
:1010800000321A434A6090F82410890706D5016897
:101090004A68C36A22F480321A434A6090F82410E6
:1010A000490706D501684A68036B22F480221A4377
:1010B0004A6090F82410090706D501684A68436B16
:1010C00022F400421A434A6090F82410C90606D55B
:1010D00001688A68836B22F480521A438A6090F810
:1010E0002410890606D501688A68C36B22F4005271
:1010F0001A438A6090F82410490610D501684A689E
:10110000036C22F480121A434A60026CB2F5801F0D
:1011100005D14A68436C22F4C0021A434A6090F831
:101120002410090606D501684A68806C22F4002262
:1011300010434860704770B5044604F1680500200C
:1011400068606FF07E4620680068000706D5334669
:1011500000224FF40011FFF7B2FD50B9206800687B
:10116000400708D5334600224FF48001FFF7A7FD62
:1011700008B1032070BD012068700020287070BD88
:101180002DE9F84304460E4691461F46FFF722FC20
:10119000B9F1000F804604F168050FD12068C069DD
:1011A0003040B0422BD017F1010FF7D0AFB1FFF7AD
:1011B00011FCA0EB08008742F0D20EE02068C06965
:1011C0003040B0421BD117F1010FF7D02FB1FFF71C
:1011D00001FCA0EB08008742F0D2206800F012F872
:1011E00021F0200101602068016821F48071016014
:1011F00000F00FF8687000202870032000E0002045
:10120000BDE8F283016821F0800101602068016877
:101210007047206881684908490081600120704753
:10122000000010B500F15A014A88CB7B222B1CBF6D
:10123000CB7B322B35D18368B3F5805F04BF036964
:10124000002B08D103689B8C1A40436D1A80426DB5
:10125000921C426506E0436D5C1C44650468A48CE6
:1012600022401A700A88521E0A8092B2BAB90268E5
:10127000136823F020031360CA7B322A08BF1222AE
:101280000AD00268136823F48073136002689368BD
:101290005B085B0093600122CA73FFF7BAFD002070
:1012A00010BD022010BD000030B5C1B0FF218DF887
:1012B000001000AD012169700224417829710021DC
:1012C00069710178FF2914D14078012804D00428DD
:1012D00009D005280AD00CE08DF806000424092066
:1012E0008DF8070007E000F03CFA04E000F04CFA4B
:1012F00001E0012068710020221DAC708DF8030010
:10130000D2B200E0401C9042FCDB4FF4967300A97F
:101310006048FFF71EFC08B100F0D4F841B030BDC2
:1013200080B55D485D4941604FF4E1318160002145
:10133000C16001614161C1610C218161001DFFF744
:10134000CBFB00281CBFBDE8014000F0BBB801BDCD
:1013500081B000200090524903E000BF0098401C7B
:10136000009000988842F8D301B0704700B54D480E
:1013700087B000F023F800F021F8C16841F4003193
:10138000C16001A9C06800F40030009000980420FA
:10139000019002200290012003900220049000F0AE
:1013A00007F80820019001A900F002F807B000BD7D
:1013B000072005904FF0904000F0CABA016841F054
:1013C00001010160016801F001010091009970477D
:1013D000F0B5C1B0FFF7D6FA002000F0C7FB00213E
:1013E000002000F0F1FB00F049FCFFF799FF00F04E
:1013F0009CF900F0B6F92C4C274D0A23042229460B
:10140000281DFFF7F5FB20B1032823D000F05AF880
:1014100020E0EE7856B14FF49673324605F1740130
:10142000281DFFF7E5FB08B100F04CF8002000E0B4
:10143000401CB042FCDB2878012807D13346042247
:1014400005F17401284600F04FF903E00421284615
:10145000FFF72AFF01214FF0904000F057FB0128D1
:10146000CBD1FF2200A9204600F096F9C6B2002E8B
:10147000F0D0002700A839184FF496730122281DD8
:10148000FFF767FB08B100F01DF87F1CB742F1DBE6
:10149000E0E70000100000200C00002000440040A5
:1014A000400D03004C1002408001002080B5002058
:1014B00000F080FBFFF74CFF002000F07BFBBDE855
:1014C000014045E780B5002000F074FB6420FFF781
:1014D00084FAF8E7704700001B4213D1094236D165
:1014E0002AB18446B0FBF2F002FB10C2704700F054
:1014F00029BCFCD30022002370470B00020000210E
:1015000000207047904271EB030CF6D370B5B1FA2E
:1015100081F4B3FA83F52C1BA340C4F1200532FA01
:1015200005F63343A2405FF00046E64002E05B0868
:101530005FEA3202841A71EB030524BF2046294674
:101540007641F4D302000B003000002170BD012A67
:10155000CFD970B5140C20D0B1FA81F4B2FA82F56B
:10156000C4F120046419B4F12006D6D3B2405FF070
:101570000044F440002502E052085FEA3303C61A33
:1015800071EB020E24BF3046714664416D41F3D3C6
:1015900002000B002000290070BD0C46B1FBF2F1E7
:1015A00002FB11452D0445EA1045B5FBF2F402FBA0
:1015B000145580B240EA0545B5FBF2F002FB10522B
:1015C00040EA044070BD00000068D549884200D060
:1015D000704700B5D34887B0016841F00101016050
:1015E000016801F0010100910099016841F00201D8
:1015F0000160016801F002010091009900F061F8BA
:1016000000F05FF8416941F48051416101A94069EE
:1016100000F48050009000984FF4807001900120F9
:101620000290039000200490059000F059F90022E8
:101630004FF4807100F05AF90820019001A90220AE
:10164000029003900320049005200590B64800F016
:101650007FF9402000F027F8802000F024F80220D5
:10166000019001A90120029000F014F800F03CF96B
:101670000120019001A9AD480290002000F00AF875
:10168000002203210620FFF7D9F90620FFF7F3F91E
:1016900007B000BD039003200490002005904FF098
:1016A000904000F055B9019001A90220029000205D
:1016B000039003200490052005904FF0904000F027
:1016C00047B9016841F001010160016801F00101C1
:1016D00000910099016841F001010160016801F089
:1016E00001010091009970472DE9F04104469048AE
:1016F000DFF8408200680D460A2184B0B0FBF1F1AA
:1017000016461F4601A800F01EFBF8B20090F3B287
:101710002A462146404600F085F820B101A800F095
:101720001AFB0028F1D0BDE8FF8182487C490160A6
:101730004FF482714160002181604FF4E061C1602B
:101740000021016141614FF400718161002101625A
:1017500041620721C1620821C1610021816200F05C
:1017600007BB80B500224FF4807100F0BFF8052060
:10177000FFF733F901224FF4807100F0B7F8BDE8AC
:1017800002400520FFF729B980B500F097F8FFF770
:10179000E8FFBDE80140ADE02DE9F04186B0054627
:1017A0000E46FF2017468DF8050004A80FF2881199
:1017B0000CC90CC0002200F098F80F2000900523FF
:1017C00002AA04A900F077F89DF808000024022876
:1017D00019D19DF80C009DF80B1051EA002812D089
:1017E00047450DDAB8460BE00F200090012301AA0F
:1017F0000DF1050100F05FF89DF80400A055641C90
:10180000E4B24445F0DB00F06FF8002002E000BFD6
:101810000098401C009000980228F8DB204606B093
:10182000BDE8F0812DE9F043884691461E460FF24F
:101830001011C5B005460CC903A80FF20C110CC05D
:101840000CC901A800270CC00620FFF71AF90022D6
:1018500000F04BF80F200090052301AA03A900F027
:101860002AF89DF8040002281AD14C9C9DF8050026
:1018700054FA86F1884210DB36B10F2000903346CF
:1018800005AA414600F017F864B10F2000902346E6
:1018900005AA494600F00FF804E06FF0010701E0E7
:1018A0004FF0FF3700F020F80620FFF7E4F8384645
:1018B00045B0BDE8F083284600F0C0BA00B585B059
:1018C00001200090019000A90320039000200290C5
:1018D00000F006F80122012100F008F805B000BD73
:1018E0004FF0904000F034B8012202214FF09040B8
:1018F00000F012B900B585B00120009000A90B4896
:101900000190022002900320039000200490FFF732
:10191000E7FF0020029000A9FFF7E2FF05B000BD3D
:10192000003001404C10024000040048000011103B
:1019300020240008800100200B00000000000000AF
:101940000A00000000000000AA00000000000000E3
:101950002DE9F84700227A4BDFF8E881DFF8E891BB
:101960004FF00F0A30E005FA0EFE4EEA040448F884
:101970002C406FEA070C1C680CEA040E4C68E40368
:1019800048BF47EA0E0EC3F800E05C680CEA040E9C
:101990004C68A40348BF47EA0E0EC3F804E09C68F5
:1019A0000CEA040E4C68E40248BF47EA0E0EC3F886
:1019B00008E0DC680CEA040C4C68A40248BF47EA63
:1019C0000C0CC3F80CC0521C0F6837FA02F400F07C
:1019D0009B804FF0010C0CFA02F42740F3D04D68C5
:1019E000022D18BF122D11D1D50800EB850C02F085
:1019F0000706DCF820504FEA860E0AFA0EF6B543C9
:101A00000E6906FA0EF63543CCF820504FEA420C28
:101A10000326056806FA0CF66FEA060E0E7906F044
:101A200003060EEA050506FA0CF635430560E443A5
:101A30004D68012D18BF022D03D0112D18BF122D96
:101A40000FD18568CE680EEA050506FA0CF6354317
:101A5000856045684E68C6F30016254096403543BC
:101A600045604D6805F00306032E06D1C66AC5F32E
:101A7000C005344095402C43C462C4680EEA040E8D
:101A80008C6804FA0CF444EA0E04C4604C68E40068
:101A900099D5D9F8004044F00104C9F800404FEA54
:101AA000920CD9F8004004F00104009402F0030500
:101AB000009C58F82C404FEA850E0AFA0EF5AC430C
:101AC000B0F1904F08BF00251DD0204DA84208BF9F
:101AD000012518D01E4DA84208BF022513D01D4D68
:101AE000A84208BF03250ED01B4DA84208BF0425FD
:101AF00009D01A4DA84208BF052504D0184DA842A8
:101B00000CBF062507252EE7BDE8F18700690840D0
:101B100018BF0120C0B270470AB18161704781626D
:101B2000704742695140416170470E4A1368034251
:101B300000D1704780B5106000F016F801BD0000BC
:101B40000004014008000140601002400004004809
:101B500000080048000C004800100048001400482D
:101B600000180048140401407047000010B586B00A
:101B7000044600F070F83CB9DFF8E400016841F079
:101B80000101016000F010F80FF2E40030F81400D9
:101B900000F05AF802200490DFF8C80050F8240042
:101BA000FFF7D6FE06B010BD006800F001000090FF
:101BB000009870470FF2B801DFF8A82031F8101034
:101BC00052F82000FFF7ADBF30B587B004460D4690
:101BD00000F041F854B9DFF88800016841F00401D1
:101BE0000160006800F0040000900098DFF87800C1
:101BF0000FF280013DB931F81410019100210291DA
:101C000000F01AF816E0012D14D131F814100191EA
:101C1000DFF858100291002100F00EF80FF2580082
:101C200030F8144000220F2160B2FEF707FF60B2C7
:101C3000FEF721FF07B030BD03910221049101A9F5
:101C400050F82400FFF784BE019001A90120029002
:101C500000200390704701A8142100F0BBBA0000D7
:101C60004C10024000000020040000200000211061
:101C700020000000002000002800000000B597B000
:101C800001A8142100F0A6FA0FF2780106A891EC41
:101C9000100B80EC100B1A48016841F08051016074
:101CA000006800F0805000900098102006900120FD
:101CB0000C9060200E9000200D9002200F900120CB
:101CC0001090119028201290022015900720139058
:101CD0000420149006A8FEF757FA00B1FEE70F2083
:101CE00001900421032002900020039004900590AD
:101CF00001A8FEF75FFC00B1FEE717B000BD0000D1
:101D00005810024000000000000000000000000029
:101D100000000000000000000000000000000000C3
:101D200000000000000000000000000000000000B3
:101D300000000000000000000000000000000000A3
:101D400000000000704710B504466160FFE700F036
:101D500044FA206010BD10B5044600F03EFA226837
:101D60006168801A401C81428041C00F10BD000094
:101D700070B5040001D1012070BD04F15C056878E4
:101D800018B928702046FFF71FFC0220687040F247
:101D9000017300F0FDF9E2689A4204D30021B2F524
:101DA000706F05D106E0B2F5E06F4FF4805101D0BD
:101DB0000026A662266B26B99A422CBF0222012277
:101DC00022636268A3681A4323691A4363691A434A
:101DD000A36903F400731A43E3691A43236A1A439D
:101DE000A36A1A430260226B022A03D1026842F4FA
:101DF00000620260A269636A120C02F004021A43D4
:101E0000636B1A43E3681A4311434160E16A01615D
:101E10000020686001206870002070BD3B460122F0
:101E20000121304600F034B901684DF6FF721140CF
:101E30000160016841F40051016070472DE9F84FDD
:101E40000646894692469B46FEF7C4FD06F15C04B1
:101E5000804620780025012808BF022000F0F68087
:101E6000012020706078012818BF022540F0E98029
:101E7000B9F1000F1CBFBAF1000FBBF1000F00F069
:101E8000DF80052006F1380760706560C7F808A09C
:101E9000A7F80EB0A7F80CB0C7F80090A7F806B0E6
:101EA000A7F804B000F0E0F802D13068FFF7BCFFFB
:101EB00040F20171F068884202D2F889022804DBFE
:101EC0003068426822F4805203E03068426842F48D
:101ED0008052426030680268520603D4026842F0C1
:101EE00040020260F068DDF8289088423AD3F98811
:101EF00089B9F889F8B900F0B7F840F08B804B4603
:101F0000FFF78DFF00287CD1F1683068B1F5706F64
:101F10006ED1C0687CE03068826892070BD500F013
:101F200097F8491EF98089B2002904BFB16AB1F55A
:101F3000005F00F0A7F8F88958B130688168C907D8
:101F400007D5B968C0680880881CB860F889401E49
:101F5000F88119F1010FCAD0FEF73CFD00F08EF8B0
:101F6000C5D343E0F98811B9F889C0B9C3E730682F
:101F70008268920713D5022903DB00F069F8891EF5
:101F800004E0396800F074F8F988491EF980F9888E
:101F9000002904BFB16AB1F5005F00F073F8F98958
:101FA000E1B130688268D20718D5BA6802290EDB21
:101FB000C1681180911CB960F989891EF98189B2C3
:101FC00002290BDA416841F48051416006E0511C5E
:101FD000B960007B1070F889401EF88119F1010F7B
:101FE000C0D0FEF7F7FC00F049F8BBD3032528E08A
:101FF00000F034F8306B02280CD14B46FFF70FFF8E
:1020000020B1606840F002006060EFE73068007B5C
:1020100000F025F830688168C90607D5616841F08D
:102020000201616001254FF6EF718160494630463B
:1020300000F0B4F810B12020606001E0606800B1E9
:10204000012501206070002020702846BDE8F28F35
:102050003A6832F8023BC3603A607047007BADF8E3
:102060000000BDF800007047B06AB0F5005F70472F
:10207000491C3960491E097801737047A0EB0800BC
:102080004845704703D1016841F4805101607047B1
:102090002DE9F04104460D4690461F46FEF79AFC96
:1020A0000646206880682840404516D017F1010F89
:1020B000F7D027B1FEF78EFC801BB842F1D300F0B9
:1020C00043F807D1A168B1F5004F18BFB1F5806F93
:1020D00000F043F800F047F800E00020BDE8F08190
:1020E0002DE9F04182B004460D4616461F46FEF724
:1020F00071FC8046206881682940B14221D0B5F545
:10210000C06F08BF002E04D1007B8DF800009DF841
:10211000000017F1010FEDD02FB1FEF75BFCA0EB33
:102120000800B842E6D300F00FF807D1A168B1F576
:10213000004F18BFB1F5806F00F00FF800F013F8F2
:1021400000E00020BDE8F6812068416821F0E00150
:1021500041606168B1F5827F704703D1016821F069
:10216000400101607047A16AB1F5005F08D10168C4
:102170004DF6FF7211400160016841F400510160A9
:1021800004F15C00012141700021017003207047BF
:102190002068016821F040010160704738B50D46A4
:1021A00004462B4600224FF4C051FFF799FF10B9A7
:1021B00000F00AF808B100F001F832BD206E40F0DE
:1021C00020002066032070472B46002280212046F5
:1021D0005EE70000002200F003B8FEF7FBBB000042
:1021E00000B500BF130096469446103928BFA0E8FA
:1021F0000C50FAD85FEA417C28BF0CC048BF40F8B9
:10220000042BC90728BF20F8022B48BF00F8012B78
:1022100000BD00000E480F4A016841F470010160E2
:102220000D48016841F001010160002181600168F1
:10223000114001604FF40061C160016821F4802108
:102240000160002181614FF000600449086070471F
:1022500088ED00E0FFFFF6EA0010024008ED00E024
:102260000000000000000000010203040607080946
:10227000A0860100400D0300801A060000350C0006
:1022800040420F0080841E0000093D0000127A00C9
:102290000024F40000366E010048E801006CDC0206
:1022A0007047FEE770477047704780B5FEF78DFBBB
:1022B00009480168491C016001BD0120FFF735BCD8
:1022C0000648FEF7FFBC80B54FF40050FFF72DFC29
:1022D00003490120087001BDE80100201000002022
:1022E000EC01002019E050F8041BCB0744BFA9F112
:1022F00001035918121F0023042A41F8043BF9D2A4
:102300005FEA827C0B4604D54FF0000CA1F800C0B8
:102310009B1CD10744BF0021197050F8042B002AE0
:10232000E1D1704710B450F8041B79B102684368DA
:1023300012180830DC0744BFA9F10104E31852F871
:10234000044B43F8044B091FF9D1ECE710BC70476C
:1023500010B5074979441831064C7C44163404E022
:102360000A68081D511888470146A142F8D110BDDE
:102370002C0000004C0000004EF68851CEF2000107
:10238000086840F470000860BFF34F8FBFF36F8F91
:102390004FF00070E1EE100A7047000049FFFFFFA8
:1023A000E40100000C0000200000000079FFFFFFA6
:1023B0000C000000B401000000000020000000003C
:1023C00000F00BF8002801D0FFF7C2FF0020C04644
:1023D000C046FEF7FDFF00F002F80120704700F054
:1023E00001B800000746384600F002F8FBE700009D
:1023F00080B5C046C046024A11001820ABBEFBE7BC
:1024000026000200014880470148004715220008C5
:1024100015240008C046C046FFF7AEFFFFF7D0FF07
:10242000E8030000FFF7FEBFFFF7FEBFFFF7FEBFA8
:10243000FFF7FEBFFFF7FEBFFFF7FEBFFFF7FEBFD0
:10244000FFF7FEBFFFF7FEBFFFF7FEBFFFF7FEBFC0
:10245000FFF7FEBFFFF7FEBFFFF7FEBFFFF7FEBFB0
:10246000FFF7FEBFFFF7FEBFFFF7FEBFFFF7FEBFA0
:10247000FFF7FEBFFFF7FEBFFFF7FEBFFFF7FEBF90
:10248000FFF7FEBFFFF7FEBFFFF7FEBFFFF7FEBF80
:10249000FFF7FEBFFFF7FEBFFFF7FEBFFFF7FEBF70
:1024A000FFF7FEBFFFF7FEBFFFF7FEBFFFF7FEBF60
:1024B000FFF7FEBFFFF7FEBFFFF7FEBFFFF7FEBF50
:1024C000FFF7FEBFFFF7FEBFFFF7FEBFFFF7FEBF40
:1024D000FFF7FEBFFFF7FEBFFFF7FEBFFFF7FEBF30
:1024E000FFF7FEBFFFF7FEBFFFF7FEBFFFF7FEBF20
:1024F000FFF7FEBFFFF7FEBFFFF7FEBFFFF7FEBF10
:10250000FFF7FEBFFFF7FEBFFFF7FEBFFFF7FEBFFF
:10251000FFF7FEBFFFF7FEBFFFF7FEBFFFF7FEBFEF
:10252000FFF7FEBFFFF7FEBFFFF7FEBFFFF7FEBFDF
:10253000FFF7FEBFFFF7FEBFFFF7FEBFFFF7FEBFCF
:10254000FFF7FEBFFFF7FEBFFFF7FEBFFFF7FEBFBF
:10255000FFF7FEBFFFF7FEBFFFF7FEBFFFF7FEBFAF
:10256000FFF7FEBFFFF7FEBF00000048000800486D
:0425700000093D0021
:00000001FF
