:020000040800F2
:100000009009002059450008494300084B43000867
:1000100000000000000000000000000000000000E0
:100020000000000000000000000000004F43000836
:1000300051430008000000005343000855430008E6
:10004000DF1A0008F71A000867430008FB1A0008C7
:10005000071B00086F4300088B2400087943000841
:10006000F731000837450008914300084345000870
:10007000A1450008A345000800000000A5450008B0
:1000800000000000A745000800000000000000007C
:10009000A945000800000000AB450008AD45000878
:1000A000AF450008B1450008B3450008B545000854
:1000B000B7450008B9450008BB450008BD45000824
:1000C00000B58BB01B2069460876C52006A948708C
:1000D000D52006A98870A52006A9C870022006A907
:1000E0000871002006A94871B42006A988719A20D9
:1000F00006A9C871E12006A90872112006A9487254
:100100003A2006A98872CF2006A9C872802006A9C5
:1001100008736E2006A94873362006A9887302204A
:1001200006A9C873614800900723012206A902208E
:1001300000F0DAFBC0B2002802D047200BB000BDAF
:100140001B2069460876C52006A94870D52006A957
:100150008870A52006A9C870022006A90871002091
:1001600006A94871FC2006A988718F2006A9C871CC
:10017000E12006A90872112006A948724A2006A9A2
:100180008872CF2006A9C872A02006A9087378201B
:1001900006A948733E2006A98873E22006A9C87301
:1001A0004348059000200490102003900020029006
:1001B0000020019010200090012306AA02213B4854
:1001C000008800F0E3FBC0B20028B6D11B206946CE
:1001D0000876C52006A94870D52006A98870A520F4
:1001E00006A9C870022006A90871002006A9487156
:1001F000362006A98871AC2006A9C871E12006A99D
:100200000872112006A948724B2006A98872CF20D7
:1002100006A9C872802006A908731B2006A9487386
:100220000A2006A98873342006A9C87321480590BE
:1002300000200490102003900420029000200190E0
:1002400012200090062306AA02211848008800F018
:100250009DFBC0B2002800D06FE700206EE7E0B53C
:1002600001686A4611710168091201AA517041685A
:1002700001AA91704168091201AAD170816801AA8E
:1002800011718068001201A9487101A8009006232D
:100290000022084801880548008800F083FCC0B2AD
:1002A000002801D0472000E000200EBD6C05002092
:1002B0006E0500207005002000B591B01B2009A933
:1002C0000870C52009A94870D52009A98870A52003
:1002D00009A9C870022009A90871002009A948715C
:1002E000D02009A98871822009A9C871E22009A932
:1002F0000872112009A94872772009A98872E420A0
:1003000009A9C872402009A908731A2009A94873CD
:10031000822009A98873422009A9C873DC4800908B
:100320000A23012209A9022000F0DEFAC0B2002847
:1003300002D0472011B000BD1B2009A90870C520BC
:1003400009A94870D52009A98870A52009A9C870F5
:10035000022009A90871002009A94871E32009A910
:100360008871A92009A9C871E22009A90872112081
:1003700009A94872772009A98872E42009A9C872DE
:10038000202009A90873552009A948732E2009A91E
:100390008873A32009A9C873D14805900020049050
:1003A0001020039004200290002001900220009071
:1003B000022309AA0221B648008800F0E7FAC0B279
:1003C0000028B6D10E200EA908700020C0430EA947
:1003D0004870CA480EA9488000200EA908710EA8CE
:1003E00000214171090A8171CA48694688860DA8B1
:1003F000801C089000200790102006900020059097
:1004000001200490002003900EA802900720019084
:10041000072000900DAB0122B14801889C4800885C
:1004200000F029FBC0B2002883D11B2009A9087065
:10043000C52009A94870D52009A98870A52009A957
:10044000C870022009A90871002009A948710B2071
:1004500009A98871842009A9C871E22009A9087234
:10046000112009A948728B2009A98872E42009A9E2
:10047000C872802009A90873C42009A948732020E4
:1004800009A98873CD2009A9C873A3480590002045
:10049000049010200390042002900020019002207C
:1004A0000090032309AA02217948008800F06EFA1F
:1004B000C0B2002800D03CE70F200EA9087004202D
:1004C000C0430EA948709E2080010EA948800020DC
:1004D0000EA908710EA800214171090A81718D4889
:1004E000694688860DA8801C08900020079010207F
:1004F00006900020059001200490002003900EA893
:10050000029007200190072000900DAB0122824845
:1005100001885F48008800F0AEFAC0B2002800D021
:1005200007E71B2009A90870C52009A94870D52034
:1005300009A98870A52009A9C870022009A9087115
:10054000002009A94871732009A98871A02009A970
:10055000C871E22009A90872112009A948728C20EB
:1005600009A98872E42009A9C872602009A9087342
:100570000B2009A94873C52009A98873012009A97E
:10058000C8739A480590002004901020039004201E
:1005900002900020019002200090022309AA02216B
:1005A0003B48008800F0F2F9C0B2002800D0C0E655
:1005B00006200EA908700020C0430EA948709C2098
:1005C00080010EA9488000200EA908710EA8002104
:1005D0004171090A81714F48694688860DA8801CBF
:1005E0000890002007901020069000200590012020
:1005F0000490002003900EA802900720019007208D
:1006000000900DAB0122794801882148008800F054
:1006100032FAC0B2002800D08BE600208AE601B58D
:1006200082B002A80090022300222D4801881848B9
:10063000008800F0B7FAC0B2002801D0472000E0DF
:1006400000200EBD01B582B002A800900323002255
:10065000314801880E48008800F0A4FAC0B2002892
:1006600001D0472000E000200EBD01B582B002A8F5
:100670000090022300225D4801880548008800F0B0
:1006800091FAC0B2002801D0472000E000200EBD42
:100690007205002000B589B007A876490CC90CC0C6
:1006A000083908380021002000F043FD00200690A2
:1006B00000200590002004900020039007A80290DD
:1006C000082001900020009000230022002100203B
:1006D00000F0FCFD012000F0C4F809B000BD0000EE
:1006E0007405002000B50120634A10606348018052
:1006F000052000E0401E0128FCDA00BD2F27000085
:1007000000205D49086001205D49087000205D49B6
:100710000870704704290000760500201CB580B2DF
:1007200059490988491C884203D15848FFF797FD69
:1007300052E080B256490988491C884215D100F020
:1007400093FEC1170F22002300F0F4FE514A00234C
:1007500000F009FF8721490044184C48FFF77FFD4E
:10076000200000B2FFF75BFF36E080B24A490988FB
:10077000491C884219D1494800680A2100F028FF25
:100780000100684600F07BFF00F06EFEC117FA2200
:100790009200002300F0CEFE3E4A002300F0E3FE6C
:1007A0003F494018FFF74EFF16E080B20F49098815
:1007B000491C884210D100F057FEC1176422002363
:1007C00000F0B8FE334A002300F0CDFEE1214900DD
:1007D000401880B2FFF749FF28480088002803D05E
:1007E0002648008800F039FA13BD00007805002083
:1007F00038B505002C00641C012000F032F8287880
:1008000004282DD12078052804D03E2805D0FF28C3
:1008100013D025E0FFF774FF22E0A41C2078012804
:100820000AD1641C6178A0780006000C014389B2EB
:10083000641D2000FFF756FF12E0A41C20786178A9
:100840000906090C084380B21649884208D1A41C45
:10085000A078E1780906090C084380B2FFF75EFF33
:1008600031BD80B510490870C0B2012801D100F037
:10087000CFFF01BD84450008400500206A05002027
:10088000900000208605002070050020080500204B
:1008900074050020FFFFFF3F760500209C450008FF
:1008A000A0860100140C00008705002000B587B069
:1008B0001822002101A801F0B8F83F20694688807D
:1008C000FF20801C01A94880684605900120069001
:1008D000002101A800F01AFB002801D5FF2001E04B
:1008E0006846007807B000BDF0B58DB016001F0057
:1008F000002407AAE4B21055641CC0B2012801D13B
:10090000022500E01025EDB22A0007A8E4B2001984
:1009100001F084F8641907A8E4B20655641C07A81E
:10092000E4B20755641C03220021684601F07DF8FB
:100930001822002101A801F078F83F20694688803C
:100940008120400001A9488007A80390E4B20494E4
:100950006846059003200690002101A800F0D6FA11
:10096000002801D5FF200FE068460078002802D05B
:100970006846007808E0694648788A781206120CC2
:1009800010431299088000200DB0F0BDF1B58EB073
:100990000D0017001E0000246846008F6946088776
:1009A00002220EA901A8E4B2001901F037F8A41C34
:1009B00001A8E4B20555641CEDB2012D01D1022558
:1009C00000E01025EDB22A00390001A8E4B20019B8
:1009D00001F024F8641901A8E4B20655641C1498C7
:1009E00001A9E4B20855641C159801A9E4B20855A0
:1009F000641C169801A9E4B20855641C179801A953
:100A0000E4B20855641C189801A9E4B20855641CA6
:100A100003220021684601F008F81822002108A8E6
:100A200001F003F83F20694608848220400008A9AD
:100A3000488001A80A90E4B20B9468460C90032009
:100A40000D90002108A800F061FA002801D5FF20D0
:100A50000FE068460078002802D06846007808E079
:100A6000694648788A781206120C10431999088052
:100A700000200FB0F0BD73B5A8B015001E00002413
:100A800028A8008828A90880022228A907A8E4B27B
:100A9000001900F0C3FFA41C29A8008829A9088018
:100AA000022229A907A8E4B2001900F0B7FFA41C8C
:100AB00007A8E4B20555641CEDB2012D01D1022551
:100AC00000E01025EDB22A00310007A8E4B20019B9
:100AD00000F0A4FF64192E9807A9E4B20855641C1D
:100AE0002F9D07A8E4B20555641CEDB2E4B22819A5
:100AF000401D812801DB422052E0EDB22A003099EE
:100B000007A8E4B2001900F089FF6419319807A919
:100B1000E4B20855641C329807A9E4B20855641C75
:100B2000339807A9E4B20855641C349807A9E4B2C5
:100B30000855641C359807A9E4B20855641C0322C3
:100B40000021684600F071FF1822002101A800F082
:100B50006CFF3F2069468880FF20801D01A94880E6
:100B600007A80390E4B20494684605900320069019
:100B7000002101A800F0CAF9002801D5FF200FE0EC
:100B800068460078002802D06846007808E0694688
:100B900048788A781206120C104336990880002093
:100BA0002AB070BD73B5A8B015001E000024F6B2BF
:100BB0003000801D812801DB42204CE028A80088FD
:100BC00028A90880022228A907A8E4B2001900F089
:100BD00025FFA41C29A8008829A90880022229A988
:100BE00007A8E4B2001900F019FFA41C07A8E4B29A
:100BF0000555641C07A8E4B20655641CF6B2320021
:100C00002E9907A8E4B2001900F008FFA4191822D1
:100C1000002101A800F009FF3F2069468880832059
:100C2000400001A9488007A80390E4B204946846F4
:100C3000059001200690002101A800F067F9002826
:100C400001D5FF2007E068460078002802D06846FA
:100C5000007800E000202AB070BD00B589B0694678
:100C600088801822002102A800F0DFFE3F2069469C
:100C70000881FF20283002A9488001A804900220A2
:100C800005906846069001200790002102A800F018
:100C90003DF9002801D5FF2001E06846007809B041
:100CA00000BD0020012091490870704710B59048A0
:100CB00000F0C5FE8F4800F0C2FE002408E08E4818
:100CC000E4B28C2161434118894800F0CBFE641CDA
:100CD000E4B2052CF3DB10BD80B50020009069461E
:100CE000834800F0CDFE8021009800F0DDFE01BDBC
:100CF00082490860704738B5002203000833804CF1
:100D00002360804B1B78002B06D100237E4C238070
:100D100002E003237B4C23707B4B1B88802B6ADA19
:100D2000794B1B881C00641C774D2C80744C246804
:100D30009BB2E35C734C2478002C06D1DBB2042B0D
:100D4000E7D000206F49087055E06E4C2478032CE2
:100D500003D106236B4C2370DEE76A4C2478042C05
:100D600003D10523674C2370D6E7664C2478052C05
:100D700003D10723634C2370CEE7624C2478072C01
:100D800003D108235F4C2370C6E75E4C2478082CFF
:100D90000CD15B490A68521C9178D3781B061B0C56
:100DA000194300220923574C2370B5E7554C24788A
:100DB000062C06D1DBB2190000220923514C237006
:100DC000AAE7504B1B78092BA6D1521C92B289B2CC
:100DD0008A42A1D300214B4A117000F00DF8474818
:100DE0000068002807D04848018889B24448006854
:100DF000424A1268904731BD80B5020008321100A6
:100E0000491C1278042A05D10A780E2A02D00978E2
:100E10000F2904D10100364800F024FE05E001004E
:100E2000344800F01FFE00F0EEFC01BD80B500204C
:100E30000090304800F006FE0EE069462D4800F0B4
:100E40001FFE00980830FFF7D3FC0099284800F0F7
:100E500009FE284800F0F6FDC0B20028EDD001BD23
:100E600038B504000D0000200090824800F0EAFD33
:100E7000002807D169467F4800F002FE80210098D3
:100E800000F012FEEDB2002D03D02000FFF733FF7B
:100E900003E02100774800F0DEFD31BD80B59BB254
:100EA00092B200F0FBFD01BD38B514001D008905AC
:100EB000890D8002084369460880684684700120D5
:100EC0006D490870032269466C4800F0A7FDE4B242
:100ED00023009BB2042229006748FFF7DFFF31BDE2
:100EE000012067490870704700000000810500205C
:100EF000140500201C050020940000203805002067
:100F0000300500208205002068050020F8B50400A7
:100F100060888005800D2188890201436846018030
:100F2000584800680A2100F053FB0600002054498D
:100F30000870002000F0EAFC5348FFF7D9FEA368D0
:100F4000E268D2B261882088FFF7AEFF0A2502E08E
:100F500000204B4908702800451E002815D0002E9F
:100F600000D10126002049490870494A494930000A
:100F700000F08CFB01E000F0C5FC4448007800283C
:100F80000CD04348007800F097FB0020FFF7B0FE3C
:100F9000012000F0BBFC0020C0433FE0384800784F
:100FA0000028E8D03A48007800F086FB3A4802680A
:100FB00010780428CCD1521C37480168C91C374826
:100FC0000088C01E12780E2A29D00F2A04D0102AB9
:100FD0004BD03E2A39D049E00A009378D7783F06B3
:100FE0003F0C3B436F463F889BB2BB423ED1636898
:100FF0000F2B03D010780028C7D137E062699042E8
:1010000000DB606960616269206900F007FD002013
:10101000FFF76EFE012000F079FC0020F2BD4A7857
:101020008B781B061B0C1A436B461B8892B29A42A4
:101030001CD1C91CC01E6269904200DB60696061FE
:101040006269206900F0EAFCE1E70A7863689A4285
:101050000CD1401E6269904200DB60696061626988
:10106000491C206900F0DAFCD1E78EE70020044932
:10107000087070E7140500203405002035050020B5
:10108000830500209C450008E10E00088105002032
:1010900080050020A50C0008300500206805002010
:1010A000F0B589B006000D0014001F0009220021D0
:1010B000684600F0BAFC1822002103A800F0B5FC35
:1010C000042069468881012003A9488000200590FA
:1010D000002006906846079009200890002103A888
:1010E000FFF714FF002802D50020C0431FE0684628
:1010F0000078002802D00020C04318E068464078FD
:1011000030706846408828806846007920706946BB
:1011100048798A791206120C104338806946C879DA
:101120000A7A1206120C10430E990880002009B0AA
:10113000F0BD30B58FB004000D002022002107A8BB
:1011400000F073FC68460477E4B2202C01DB1F2218
:1011500001E0E4B22200290007A8401C00F05EFC78
:101160001822002101A800F060FC08206946888050
:10117000092001A9488007A8039020200490684610
:10118000059001200690002101A8FFF7BFFE00286E
:1011900002D50020C04307E068460078002802D04E
:1011A0000020C04300E000200FB030BD10B58AB071
:1011B0001C006B46187068464170684682700722B2
:1011C000002101A800F031FC1822002103A800F042
:1011D0002CFC3F20694688818A2003A94880684604
:1011E00005900320069001A8079007200890002191
:1011F00003A8FFF78BFE002801D5FF201EE06846FC
:101200000079002802D06846007917E001A94878E3
:101210008A781206120C1043208001A9C8780A7936
:101220001206120C10430C99088001A948798A799A
:101230001206120C10430D99088000200AB010BD50
:1012400070B58AB00D0014001E00694608720722AE
:101250000021684600F0E9FB1822002103A800F0F5
:10126000E4FB3F20694688818A2003A9488002A8C0
:1012700005900120069068460790072008900021FD
:1012800003A8FFF743FE002801D5FF201CE06846B5
:101290000078002802D06846007815E06946487852
:1012A0008A781206120C104328806946C8780A7999
:1012B0001206120C10432080694648798A7912067A
:1012C000120C1043308000200AB070BDF6B591B00A
:1012D0001F000024199E1B9DF6B2EDB271190E314C
:1012E000292901D3422079E007A9E4B20855641CFA
:1012F00011A8008811A90880022211A907A8E4B248
:10130000001900F08BFBA41C12A8008812A9088009
:10131000022212A907A8E4B2001900F07FFBA41C66
:1013200007A8E4B20755641C189807A9E4B2085549
:10133000641C07A8E4B20655641CF6B232001A9980
:1013400007A8E4B2001900F069FBA41907A8E4B2E9
:101350000555641CEDB22A001C9907A8E4B20019D7
:1013600000F05CFB64191DA800881DA908800222FA
:101370001DA907A8E4B2001900F050FBA41C1EA888
:1013800000881EA9088002221EA907A8E4B200193D
:1013900000F044FBA41C1822002101A800F045FB2A
:1013A0003F2069468880832001A9488007A80390D0
:1013B000E4B204946846059001200690002101A83B
:1013C000FFF7A4FD002801D5FF2007E0684600785C
:1013D000002802D06846007800E0002013B0F0BD7D
:1013E00030B58FB00D0011001C006A46107707A8B9
:1013F0004570102207A8801C00F010FB07A8847419
:10140000129807A9C874139807A9087507A9153178
:10141000149800F065FB159807A94876182200215A
:1014200001A800F002FB3F2069468880862001A9C0
:10143000488007A803901A20049068460590012070
:101440000690002101A8FFF761FD002801D5FF20CB
:1014500007E068460078002802D06846007800E07F
:1014600000200FB030BD0700F8B52F4E300000F05F
:1014700041FB0090301D00F03DFB040030000830BF
:1014800000F038FB05000C36300000F033FB274934
:10149000274A009B1B78002B36D1236853435B18E7
:1014A000236053435B18236053435B18236053430B
:1014B0005B18236053435B18236053435B1823601E
:1014C00053435B18236053435B18236003000826D3
:1014D000276857437F1827601F60276857437F1886
:1014E00027605F60276857437F1827609F602768E1
:1014F00057437F182760DF601033761EE8D1C36F33
:101500002B600123009E33702368534359182160D8
:101510002978C906490E40180168296021680160D0
:10152000286880008008F2BD000000205FF36E3C58
:101530000D66190030B4434351435D18010C0C0093
:10154000130C5C432D1980B2434392B251430024E3
:10155000C918644124040B04090C09195043C0182C
:10156000694130BC7047124224D0994228D970B5E5
:1015700000251B4202D00C00002109E000240126B6
:1015800049186441944200D3A41A7641F8D331003B
:10159000012601E0764109D2001864416D41A41A88
:1015A0009D41F7D2A4185D41B619F5D33000220051
:1015B0002B0070BD1B42D8D108B500F09DFA08BDC4
:1015C00001D19042D3D202000B00002100207047CD
:1015D0000022030A8B420BD203098B4219D2430823
:1015E0008B422ED2411A00D201465241104670471A
:1015F000FF2209023FD012068B4205D312120902C4
:101600008B4201D31212090203098B4219D300E065
:10161000090AC3098B4201D3CB01C01A5241830985
:101620008B4201D38B01C01A524143098B4201D333
:101630004B01C01A524103098B4201D30B01C01A5E
:101640005241C3088B4201D3CB00C01A52418308D8
:101650008B4201D38B00C01A524143088B4201D305
:101660004B00C01A5241884200D3401A5241CFD297
:1016700001461046704708B500F040FA08BD10B5A5
:101680000400616000F03BFA206010BD38B5040032
:1016900015000B0000222900022000F029FDFA208D
:1016A0008000444320003721FFF792FF0100287893
:1016B00000F08FFD002032BD80B5C0B200F051FDBA
:1016C000002002BD0020704780B500F0CDFD00F085
:1016D000EDFD00F011FE0121002000F01AFF00F0E6
:1016E00027F9914800F07CFC00230122B749002033
:1016F00000F0FEFC0621022000F072FF01F054F819
:1017000000F003F800F089F8FCE730B58BB0874DA6
:10171000002407A8AE490CC90CC008390838FFF7E7
:10172000C5FA01F083F8FFF7D7FA06A904A801F07B
:10173000C3FB01F07BF86846007C312803DB012401
:10174000022007A94871062207A909A800F066F936
:1017500009AA0621002001F0E1FBFFF7A7F8E4B297
:10176000012C0CD105A8801C019004A8801C0090BD
:1017700005AB072200210120FFF718FD07E005ABAC
:101780009B1C04AA921C05A90120FFF759FD280003
:1017900001F030FC03000095DBB200226846418A6C
:1017A0006846808AFFF7FEF9002800D0FEE7012096
:1017B0000390884802900020019010200090072399
:1017C000002200210120FFF70BFEFEF779FCFEF757
:1017D00073FD0421012001F0E2FB0BB030BD72B6B5
:1017E0007D490968012282400A437B48026062B653
:1017F000704772B678490968012282409143764861
:10180000016062B6704780B50020FFF7E8FF01BDB8
:1018100080B50120FFF7E3FF01BD80B56E48007879
:10182000800709D56D480078002805D10120FFF711
:10183000E0FF6B4800F020F867480078C00708D543
:1018400066480078002804D10020FFF7D2FFFFF798
:10185000EDFA72B660480068002809D05E4800685A
:1018600003218843002805D15C480078012801D174
:1018700000F009FF62B601BD10B5040059480078B8
:1018800000280DD05148007800F07CFCFEF702FFE4
:1018900000205449087054494C48007800F099FCE5
:1018A00052480068002816D000205049086050486F
:1018B000006800280BD020686430206060686430C5
:1018C0006060A0686430A0602000FEF7C8FC0621BC
:1018D000022000F085FE10BD80B5C0B2002804D003
:1018E000022806D0032806D007E00120FFF777FF83
:1018F00007E0904705E0904703E01000002800D083
:10190000904701BD80B5FFF788FF01BD00B5C0B2AB
:10191000002803D101203149087002E000202F493E
:10192000087000BD00000000E404002074450008B9
:1019300080B530480068012101432E4801602E48DF
:1019400000688021490501432B48016001F05AFBE2
:1019500001F058FB294800682949014027480160E7
:10196000244800682749014080208002084321491B
:101970000860204800688021C90201431D480160B9
:10198000214822490860002021490870012021498E
:1019900008701E4801F088FB01201C4988601E4821
:1019A0001A49C860194801F0A3FBCA201749096801
:1019B000486253201549096848620321134801F021
:1019C00011FC0C4800688007FBD501BD850500208F
:1019D0007C45000840E201003C0500208405002011
:1019E0000805002090000020054700005005002059
:1019F0004005002050100240381002400010024004
:101A0000FFFFCFFFFFFFFCFF00280040E4040020A1
:101A10000405002005050020FF7F000010B504002C
:101A2000200001F0E9FB200010BD10B504001000FB
:101A30000A000100200001F00DFC200010BD006034
:101A40004060704700B50168814201D1012000E08B
:101A50000020C0B200BD02680A60486001600868EA
:101A600041607047086042684A60416048680160B0
:101A700070470168426811604168006841607047C2
:101A800010B50C00016821600068FFF7F2FF00202C
:101A90002168086000202168486010BD80B5DBB275
:101AA000D2B200F00BFF01BD80B5034A1060C9B28D
:101AB000083001F0D7F901BD2C05002080B580B2B7
:101AC000012802D101F0D6F908E080B28021890115
:101AD000884203D10821022000F082FD01BDFEE70B
:101AE00084460870000A4870000A8870000AC870AE
:101AF000604670477047FEE77047FEE7704780B565
:101B000000F0CDFB02BDFEE710B5BE4AC9B21423FA
:101B10004B43D218127CD2B2082A05D0B94BD2B2AC
:101B2000142454431B19D873B64BC0B21424444335
:101B30001B191A74B34AC0B214234343D218D17389
:101B4000B04AC9B2142359435118087410BD10B5D6
:101B5000AD4A1278C9B291421ED0AA4AC9B2142322
:101B60004B43D218D27BA74BD2B2142454431B1937
:101B70001874A44BC0B2142444431B191974A14B0C
:101B8000C0B2142444431B19DA739E4AC9B2142309
:101B900059435118C8730BE09A4AC0B21423434307
:101BA000D2181174974AC9B2142359435118C873F3
:101BB00010BD38B5040094480078082810D1924828
:101BC0000078924908709048047008208D49E4B26A
:101BD00014225443091908748D488E49088051E035
:101BE00000F0ACF88749E4B214226243891889688E
:101BF00080B208188349E4B21422624389188860CD
:101C00008048E4B214216143401880687E49097815
:101C10007C4AC9B21423594351188968884225D394
:101C200079490978774AC9B214234B43D218127CF8
:101C30000BE0744AC9B2142359435118097C714A04
:101C4000C9B214234B43D218127CD2B2082A07D04F
:101C50006C4BD2B214256A439A1892689042E8D22B
:101C6000C9B22000C0B2FFF74FFF0BE06648017811
:101C70002000C0B2FFF76BFF63480078634908702B
:101C80006148047031BD70B55F4A1278C0B29042AD
:101C90000CD15D4A12785D4B1A705A4AC0B21423B7
:101CA0004343D218127C584B1A7026E0554AC0B2F2
:101CB00014234343D218D27B524BC0B21424444362
:101CC0001B191B7C4F4CC0B2142545436419247C5E
:101CD0004C4DD2B214267243AA181474DBB2082BEE
:101CE0000BD0484AC0B2142444431219D27B454C4D
:101CF000DBB214256B43E318DA730122414BC0B207
:101D000014246043181802733F480078082805D14E
:101D1000C9B2002902D13E48A949088070BD00B56A
:101D20003B4803E0A74800680068806AA549096845
:101D30000968896A8842F5D180B200BD80B535480E
:101D400000886949884217D0FFF7E9FF31490988BF
:101D5000814203D32F490988081A06E09A49098865
:101D6000081A401C2B4909880818984909784843E3
:101D700097490978C84000E0002080B202BD10B544
:101D80000400A4B2002C07D1FFF7C9FF2149088045
:101D9000022001F0F7FA34E0A4B2022C03DA8C48F6
:101DA0000078012800D0641E864800680068C0687A
:101DB0004007F9D5834800680068C0688021084062
:101DC000844901437F4800680068C1608020400367
:101DD00081490860022001F0DAFAA4B2794800686B
:101DE00000684461FFF79BFF7549088075480068EB
:101DF000006880688021C90001437248006800685B
:101E0000816010BD500300208A0500208B05002052
:101E1000FFFF00007A05002038B56A4800680068B6
:101E20008068400505D5674800680068C0684007BD
:101E3000F9D46448006800688068684901406148D6
:101E400000680068816029480478CD48E4B2142114
:101E5000614340188568FFF771FF80B2854204D264
:101E600000210122A04B1A7024E080B29F4909880A
:101E70004118A94205D29D49098800229A4B1A703F
:101E800018E0291A0122984B1A7013E0BC4AE4B2F8
:101E900014236343D218926880B2121AB84BE4B28A
:101EA000142565435B199A60B54AE4B214235C4378
:101EB0001219147CE4B2082C10D0B14AE4B21423F5
:101EC0006343D218926880B28242DFD20022AC4BC8
:101ED000E4B2142565435B199A60E5E7080080B217
:101EE000FFF74DFF31BD0000FFFF00008A05002015
:101EF000F8B5EFF3108572B6324800680068806864
:101F0000364901402F480068006881602D4800680C
:101F10000068C068802108402E49014329480068B4
:101F20000068C160802040032B490860C0480478E5
:101F3000C048E4B2142161434018007B02283BD121
:101F4000BC48E4B2142161434658BA48E4B21421B3
:101F500061434018877B64480078002827D0B54843
:101F6000E4B2142161434018407B012811D10121C2
:101F70002000C0B2FFF787FE85F31088AD48E4B2B9
:101F800014216143401841682000C0B200F021F9DB
:101F900005E085F310882000C0B200F0F3F83200AD
:101FA0002100C9B23800C0B2FFF796FC06E0FFF787
:101FB00033FF85F3108801E085F31088F1BD000040
:101FC0007A050020640500207C0500208E05002095
:101FD0008D0500207FFBFFFF14040140FFFBFFFF86
:101FE00080B59549086004209349096809688968A3
:101FF0004907490F401A914908708F4800680068E6
:102000000069000C4006400E401C8D4908708A484B
:102010000068006800694004400C8A4908808948CB
:102020000088401E86490978484384490978084158
:1020300013388549884203D383482C49088001E03E
:102040002A4908800120284908707F487F49088074
:10205000002007E000214A4AC0B214234343D218AB
:102060001173401CC0B20828F4DB082070490870C6
:102070007148006800688068754901406E480068D2
:10208000006881606C4800680068C0688021084072
:1020900070490143684800680068C16080204003BF
:1020A0006D490860022001F072F963480068006819
:1020B00080688021C90101435F4800680068816031
:1020C0006648006880214903014364480160644810
:1020D0000068802149030143614801600022032117
:1020E000022001F040F901BD8C0500207E05002092
:1020F000F0B50025EFF3108472B600E06D1CEDB270
:10210000082D07DA4B4EEDB214276F43F619367BD4
:10211000002EF3D1EDB2082D1ED00127BC46454F4D
:10212000EDB214266E43BE196746377384F31088E8
:10213000404CEDB214266E43A419A0733D48EDB295
:1021400014246C43001942733A48EDB214226A43D6
:1021500083500D70002002E084F310880120C0B28B
:10216000F0BD10B504002000C0B200F00BF8002054
:102170003049E4B2142254430919087310BD000019
:102180005003002038B50500EFF3108472B602202A
:1021900001F0F3F82748EDB2142169434018007BA1
:1021A000022810D100212800C0B2FFF76CFD2048A2
:1021B00000782C490978C0B2814204D0C0B2082806
:1021C00001D0FFF729FE022001F0D2F884F3108835
:1021D00031BD70B505000C00EFF3108672B6022019
:1021E00001F0CBF802201349EDB214226A4389189A
:1021F00008731048EDB214216943401884600D48FB
:10220000EDB214216943401844602800C0B2FFF7C2
:10221000D0FC0748007813490978C0B2814201D048
:10222000FFF7FAFD022001F0A3F886F3108870BDD5
:102230008A05002050030020640500208D05002041
:102240008E0500207C050020FFFF00007A0500209D
:10225000FFFBFFFF7FFBFFFF140401400804014068
:10226000000401408B05002080B50E480068402125
:1022700001430C4801600B480068022101430948F2
:1022800001600320FFF71EFA00F002F8002002BDF3
:10229000704705480068401C0349086070470248C1
:1022A00000687047002002404805002000B593B048
:1022B000104800688021490501430E480160022052
:1022C0000590102009900120089001200F9005A88A
:1022D00001F06EF80F200090012001900020029084
:1022E00000200390002004900021684601F0D4FAF9
:1022F00013B000BD3810024000B585B058480068E2
:10230000082101435648016001F01EFC01F014FC55
:102310005448006880210902014352480160524834
:10232000006801218843504908604F480068022135
:1023300088434D4908604C480068042188434A4955
:1023400008604948006808218843474908604648B2
:10235000006880218843444908604448006801219E
:1023600001434248016041480068022101433F485F
:1023700001603E480068042101433C4801603B483D
:10238000006808210143394801603848006880210D
:102390000143364801600320019000200290344838
:1023A00000906946334801F0D9FB6946324801F094
:1023B000D5FB6946314801F0D1FB6946304801F050
:1023C000CDFB6946A020C00501F0C8FB2748006886
:1023D0000121884325490860244800680221884378
:1023E0002249086021480068042188431F49086089
:1023F0001E480068082188431C4908601B48006883
:10240000802188431949086005B000BD00B597B028
:10241000082008900020129001200D9008A800F0DC
:10242000C7FF002800D0FEE7202000908020800217
:102430000590684601F0B2FC002800D0FEE7114884
:1024400000688021C90201430E480160002200217A
:10245000022000F088FF022000F08AFF17B000BDC4
:10246000002002400C1002403C1002402C100240A0
:10247000FFFF00000004005000080050000C005056
:10248000001C0050501002407047FEE7F0B540B20B
:10249000002821D54A4B40B20207120F083A920891
:1024A00004246243464C40B205072D0F083DAD0899
:1024B000042675436459FF258607B60F08277E4317
:1024C000B540AC438901C9B28007800F0825684335
:1024D0008140214399501BE03B4A40B203009B08D6
:1024E00004246343D258FF238407A40F08256C43B8
:1024F000A3409A438901C9B283079B0F0824634311
:1025000099401143304A40B2800804235843115087
:10251000F0BD30B585B004000D00E4B2002C06D14A
:1025200028480168042008432649086000E000208C
:10253000264800680121014324480160EDB2002DC6
:1025400013D12348E4B202216143405A0090002095
:102550000190002002900220039069461D48E4B2D9
:1025600004226243805801F0F9FAEDB2012D24D122
:102570001748E4B202216143405A009000200290C3
:10258000022003901448019069461248E4B20422E4
:102590006243805801F0E2FA03211048E4B20222BB
:1025A0006243805A40B2FFF771FF0C48E4B2022147
:1025B0004C43005B40B200F0DBFE05B030BD0000D4
:1025C0001CED00E02C10024000E400E0341002405A
:1025D000A20C00088C0000200000211066140008E6
:1025E00010B5EFF3108272B6C9B2082907D143497A
:1025F0000968012383400B434048036040E03F4BA0
:102600001B6801248440A3433C4C23604B0707D53F
:102610003B4B1B6801248440A343394C236006E0F4
:10262000374B1B68012484401C43354B1C608B07CF
:1026300007D5344B1B6801248440A343314C2360ED
:1026400006E0304B1B68012484401C432D4B1C606A
:10265000C90707D52C4909680123834099432A4BB0
:10266000196006E028490968012383400B43264985
:102670000B60224909680123834099431F48016088
:1026800082F3108810BD10B5EFF3108472B61B48AA
:10269000006800282ED11A480068002804D00121C3
:1026A000002000F0B7FC25E01748006800280CD196
:1026B000C046C04615480068042101431348016024
:1026C00000F0E0FCC046C04614E010480068042159
:1026D00001430E4801600B480068002804D0012126
:1026E000002000F0B0FC03E00121012000F0ABFC71
:1026F000FFF7CAFE84F3108810BD000060050020BB
:1027000054050020580500205C05002000700040A2
:10271000002093490870704780B592480068804750
:1027200001BD80B590480068006C00680068012118
:1027300088438D490968096C096808608A480068FF
:10274000406C006800680121884387490968496C2A
:102750000968086072B68548007801280BD100200E
:102760008249087001208049087100F0DEF862B6E5
:1027700000F0B0F903E000207B49087162B601BDAA
:1027800080B5FFF7CEFF78484189C9B27848006824
:10279000FEF766FB01BD80B5012000F09BFA002129
:1027A0000020FFF71DFF01BD80B5724800F020F842
:1027B00070486D49086000206B49087100206B4922
:1027C00008706C480068406803210143694800684C
:1027D000416068480068006840210143654800681E
:1027E0000160654B0022BA490320FFF781FC01BD5F
:1027F00080B5C149016082214900416000218160AA
:102800000021C16000210161002141618021890016
:10281000816100210162002141620721C162002122
:10282000C1610021816201F08DFB01BD00B587B05F
:1028300080204000019000200490B04B00226946A7
:102840000320FFF755FCAE48006801210143AC4866
:102850000160002280214900A020C00501F071FA2A
:10286000012002900020039001A9A020C00501F0E2
:1028700075F9012168460078FFF7ABFC0120384963
:102880000870374800780128FBD0012280214900D8
:10289000A020C00501F055FA5D2168460078FFF7D9
:1028A00098FC01202E4908702D4800780128FBD0A3
:1028B00068460078FFF755FC07B000BD10B52A4CFC
:1028C000A0612948C161A7480270A7480370002091
:1028D000B949087072B624480079002808D101204F
:1028E0002149087100F021F862B600F0F3F803E026
:1028F00001201E49087062B610BD80B50120AF49A5
:102900000860052000F043FD052000F031FD0121A5
:10291000A020C00501F00AFA012805D1A8480068E6
:1029200001210143A648016001BD80B5052000F0EA
:1029300024FD01BD80B500220221A020C00501F0C8
:1029400000FA01BD80B59F480068006880680006F5
:10295000F9D401220221A020C00501F0F2F901BD45
:102960008905002044050020BC040020E00400206C
:102970002C050020F00300201927000880B5FFF780
:10298000E1FF002003E0802189050968401CC0B2F6
:102990000D28F8DBFFF7CEFF01BD80B52020C84928
:1029A000086080208000C64908608648007A0028B8
:1029B00003D0022829D037D389E0C2480079000229
:1029C000C049C9780843BF49097880B2002802D0BD
:1029D000C9B2022915D00121A020C00501F0A6F935
:1029E000002808D1FFF7AEFF06210120FFF7F8FD10
:1029F000FFF797FE08E0FFF7C1FF002000F06AF93B
:102A000002E0022000F066F961E0FFF79BFF06217B
:102A10000120FFF7E5FDAC48AC49086002212C48D5
:102A20000078FFF7D6FB52E0A64880780002A5495F
:102A300049780843A349097880B2002802D0C9B276
:102A4000022905D0FFF79AFF012000F043F93DE08D
:102A50005949097801291FD080B242490978424A70
:102A60001278891888420FDA3E490978401A984945
:102A700008703D48007896490978401A3A4908702C
:102A800001204D49087003E03748007890490870EC
:102A9000002000F099F819E03349097880B289B232
:102AA000884209D28A4908702F48007888490978F5
:102AB000401A2D49087006E02B48007884490870B8
:102AC000002029490870012000F07EF8FFE701BDD1
:102AD0008805002080B5FFF728FFCD487B490860B6
:102AE000FFF728FF0621CB480078FFF772FB06218D
:102AF0000020FFF775FD01BD0030014011270008DF
:102B00002C10024080B5802080006D4908602D485F
:102B1000007D002802D001280BD022E06C4800780C
:102B2000002803D0012000F04FF801E000F01EF86B
:102B300017E021480078012810D10B4800780028C0
:102B40000CD02048C0696249097840181D49C86105
:102B5000FFF714FF012000F0BDF801E000F006F8D7
:102B6000FFE701BDDC040020DD04002080B5062164
:102B70000020FFF735FD002012490871FFF7E2FE43
:102B800010480068006C00680068012188430D4906
:102B90000968096C096808600A480068406C0068A8
:102BA00000680121884307490968496C0968086081
:102BB000FFF7A3FE01BD0000DF0400201404014064
:102BC00010040140BC04002010B50400B4480068A3
:102BD000006C0068006801218843B1490968096CEC
:102BE00009680860AE480068406C00680068012110
:102BF0008843AB490968496C09680860A8480068BF
:102C0000406C0068006802218843A5490968496C46
:102C10000968086080208000294908600A2000F0C7
:102C2000B6FB9F480068006C006800680221014301
:102C30009B480068006C0068016099480068006C5F
:102C4000006800688021014395480068006C0068B6
:102C50000160E4B2002C02D0012C12D023E000204D
:102C60008F4908758F4800788D490968096C096893
:102C700048608B4880698A490968096C0968C8609E
:102C800011E00120864908751148007884490968D7
:102C9000096C096848608248C06981490968096C03
:102CA0000968C860FFE77E480068006C006800683B
:102CB000012101437A480068006C0068016010BD82
:102CC000040002402405002081270008440500205C
:102CD000DE04002080B572490968096C096809683A
:102CE000012291436E4A1268126C126811606C499D
:102CF0000968496C0968096801229143684A1268A9
:102D0000526C12681160002104E0654A1268126872
:102D1000127B491CC9B20429F7DB61490968496C77
:102D20000968096802220A435D490968496C096813
:102D30000A605B490968096C0968096802229143C5
:102D4000574A1268126C12681160C0B2002803D092
:102D500002280BD005D342E05349002000F05CF874
:102D60003DE05249012000F057F838E002204C497C
:102D700008724F48007900024D49C9780843484914
:102D8000097C89B280B2814201D24548007C444925
:102D9000488143490968096C0968096880229143A0
:102DA0003F4A1268126C1268116080B23C4909688F
:102DB000496C0968486080B239490968096C09683A
:102DC00048603748C06836490968496C0968C86076
:102DD000384833490968096C0968C860FFE730481A
:102DE0000068406C00680068012101432C480068BD
:102DF000406C006801602A480068006C0068006848
:102E00000121014326480068006C0068016001BD93
:102E10009727000888050020214A10722048006882
:102E2000006C00680068802202431D480068006C46
:102E30000068026005201A4A1268126C126850601D
:102E40000520174A1268526C126850601848144ADC
:102E50001268526C1268D06011480068006C0068FB
:102E6000C160704780B50E4AD0600D480174FFF70D
:102E700044FD01BD80B572B60948007900280DD126
:102E800001200749087162B6FFF754FD0020FFF7E3
:102E900021FF00210120FFF7A3FB00E062B601BD86
:102EA000BC040020DC040020944500088C45000888
:102EB00024050020BE45000870B584B005000C0054
:102EC00001A8009002AB9B1C02AA01A9891C02A8C0
:102ED000401CFEF7E5F80600F6B2002E18D1684651
:102EE000C08880B2000A28706846C088000220802E
:102EF000208869468988C9B20909C9B20901014314
:102F000021802088694689880907090F01432180AB
:102F1000FDF78CFF3000C0B204B070BD30B5A7B073
:102F20000D0011000024EDB22A00921C812A01DB61
:102F3000422032E007AAE4B21055641C07A8E4B2AC
:102F40000555641CEDB22A0007A8E4B20019FEF78B
:102F500065FD64191822002101A8FEF766FD3F20D7
:102F6000694688800C2001A9488007A80390E4B234
:102F700004946846059001200690002101A8FDF701
:102F8000C5FF002801D5FF2007E06846007800282B
:102F900002D06846007800E0002027B030BD00B5C0
:102FA00089B06A46107101A841701822002102A858
:102FB000FEF73BFD3F20694608810F2002A94880AB
:102FC00001A8049002200590684606900120079011
:102FD000002102A8FDF79AFF002801D5FF2007E095
:102FE00068460078002802D06846007800E000209B
:102FF00009B000BD010000E0491C0A78002AFBD19D
:10300000081A704726480068802149000143244877
:103010000160704700B50022214A126803239A43D9
:10302000104302001E4802601E48006804229043BC
:103030001C4A1060C9B2012901D130BF02E040BF73
:1030400020BF20BF00BD00B50022154A126803232F
:103050009A4310430200124802601248006804229A
:10306000024310480260C9B2012901D130BF02E019
:1030700040BF20BF20BF0B48006804218843094996
:10308000086000BD06480068022101430448016051
:1030900004480068042101430248016030BF7047C2
:1030A0000070004010ED00E000B52021415C0129D6
:1030B00001D102201BE00121202281540221212282
:1030C0008154CA2102685162532102685162016829
:1030D000896820220A4301688A60FF2102685162E0
:1030E000012121228154002120300170002000BDE7
:1030F00010B50400002C01D1012051E02120205CFA
:10310000002802D12000FFF781F90220212160541C
:10311000CA2021684862532021684862200000F0DC
:1031200043F8002807D0FF2021684862042021349A
:103130002070012034E0206880681A49014020682E
:10314000816020688068616822690A43A16911432F
:10315000014320688160E068216808612068006997
:10316000A16809040143206801612068C0688021CA
:1031700088432168C8602068C06C032188432168A7
:10318000C8642068C06CE16962690A430243206830
:10319000C264FF2021684862012021342070002091
:1031A00010BD0000BFFF8FFF38B504002068C06865
:1031B000400612D40020C0432168C860FFF76FF8B2
:1031C00005002068C068400607D4FFF768F8401B78
:1031D00003498842F5D3032000E0002032BD0000FF
:1031E000E90300000268926807239A4311430A002A
:1031F000006882607047FEE7124207D08B0706D056
:103200000B78491C0370401C521EF7D87047830787
:1032100006D00B78491C0370401C521EF9D1704730
:1032200070B4103A03D378C9103A78C0FBD2530770
:1032300001D318C918C001D508C908C0D20704D3E2
:103240000B880380891C801C002A01D50B78037031
:1032500070BC70471206130A1A43130C1A4300BFBE
:10326000094205D0830705D00270401C491EF9D1E0
:1032700070470000130030B414001500103902D359
:1032800010393CC0FCD2490700D30CC000D504C0A3
:10329000890002D30280801C002900D5027030BC56
:1032A000704700000022E5E70121C006C00E814002
:1032B0003948016070470121C006C00E814037487F
:1032C000016070470121C006C00E81403448016092
:1032D00070470121C006C00E81403248016070472E
:1032E000F0B540B2002821D52F4B40B20207120F93
:1032F000083A9208042462432B4C40B205072D0F74
:10330000083DAD08042675436459FF258607B60FAE
:1033100008277E43B540AC438901C9B28007800FBE
:10332000082568438140214399501BE01F4A40B261
:1033300003009B0804246343D258FF238407A40F8F
:1033400008256C43A3409A438901C9B283079B0FA8
:103350000824634399401143144A40B2800804236F
:1033600058431150F0BD80B540B2FFF7B9FF01BD21
:1033700080B540B2FFF798FF01BD80B540B2FFF7BE
:103380009AFF01BD80B540B2FFF79CFF01BD80B53B
:1033900040B2FFF79EFF01BD00E100E080E100E0E8
:1033A00000E200E080E200E01CED00E000E400E06C
:1033B00038B5040000252078C0075AD5A348006816
:1033C0000C210140082909D0A04800680C210140C7
:1033D0000C290ED19D480068C0030AD5BC4800687E
:1033E000800346D5606880214902884241D001208F
:1033F00030E2B7480068B7490140B5480160FEF7C0
:103400004EFF0500B2480068800307D5FEF747FF6E
:10341000401BB1498842F5D303201BE2AC48006849
:10342000AC49014060680843A94908606068802190
:10343000490288420ED1FEF732FF0500A448006819
:10344000800316D4FEF72BFF401BA3498842F5D317
:103450000320FFE1FEF723FF05009D48006880037D
:1034600007D5FEF71CFF401B9B498842F5D303207C
:10347000F0E12078800721D5744800680C210140D4
:10348000042909D0714800680C2101400C2927D17A
:103490006E480068C00323D48D480068400704D5F7
:1034A000E068012801D00120D4E1BC480068BC4993
:1034B0000140206900020843B84908602078C0062E
:1034C00058D5624800680C21014000296CD1804821
:1034D000006880053DD5E06901283AD00120B9E1B6
:1034E000E06800281FD07A48006809218843E16815
:1034F000014377480160FEF7D2FE0500744800687A
:10350000400706D4FEF7CBFE401B6528F6D3032008
:10351000A0E1A2480068A2490140206900020843D6
:103520009E490860CAE76A48006809218843E16843
:10353000014367480160FEF7B2FE05006448006879
:103540004007BBD5FEF7ABFE401B6528F6D3032032
:1035500080E192480068C0490140606A08438F4991
:1035600008608E4800680002000A216A09060143CB
:103570008A480160207800076AD56069002851D028
:10358000B648006801210143B4480160FEF787FE98
:103590000500B248006880075AD4FEF780FE401B41
:1035A0006528F6D3032055E1E069002826D0484875
:1035B000006880214900014345480160FEF76FFE25
:1035C000050043480068800506D4FEF768FE401BEE
:1035D0006528F6D303203DE1704800689E4901400C
:1035E000606A08436D4908606C4800680002000A80
:1035F000216A0906014369480160BBE73448006855
:103600009749014032480160FEF749FE0500304805
:1036100000688005AED5FEF742FE401B6528F6D354
:10362000032017E18D480068012188438B49086019
:10363000FEF735FE050089480068800708D5FEF7CB
:103640002EFE401B6528F6D3032003E10C10024038
:103650002078800642D5A06900281FD081480068E4
:10366000012101437F4801607F4800680121014337
:103670007D4801607D4800687D4901437B480160C9
:10368000FEF70DFE050077480068800726D4FEF798
:1036900006FE401B6528F6D30320DBE07148006876
:1036A000012188436F4908607048006871490140F2
:1036B0006E480160FEF7F3FD05006A480068800768
:1036C0000CD5FEF7ECFD401B6528F6D30320C1E0C6
:1036D00000100240FFFFFAFF891300002078400726
:1036E00060D5654800688021490501436248016052
:1036F0006248006880214900014360480160FEF78C
:10370000CEFD05005D480068C00506D4FEF7C7FD84
:10371000401B6528F6D303209CE0504800685849B8
:1037200001404E480160FEF7BAFD05004B480068B5
:10373000800507D5FEF7B3FD401B52498842F5D3FB
:10374000032087E0454800684D490140A0680843D0
:1037500042490860A0688021490088420ED1FEF7E6
:103760009EFD05003D48006880051BD4FEF797FDCF
:10377000401B44498842F5D303206BE0FEF78FFDE0
:1037800005003648006880050CD5FEF788FD401B13
:103790003C498842F5D303205CE000BF041002409E
:1037A000FFE0FFFFA06A002853D0374800680C21D3
:1037B00001400C294BD0A06A022834D1334800685C
:1037C0003349014031480160FEF769FD05002F488B
:1037D0000068800106D5FEF762FD401B6528F6D320
:1037E000032037E0284800682A490140206B08433D
:1037F000616B0143E06A084323490860234800687D
:1038000080214904014321480160FEF748FD05007D
:103810001E48006880011CD4FEF741FD401B65284E
:10382000F6D3032016E019480068194901401748EB
:103830000160FEF734FD050014480068800108D5DA
:10384000FEF72DFD401B6528F6D3032002E0012082
:1038500000E0002032BD00BFFF1FFFFF50100240FC
:10386000FFFEFFFF0810024034100240200001401C
:1038700001200000FEDFFFFF381002400070004012
:10388000FFFAFFFF891300000C10024000100240F5
:10389000FFFFFFFEFFFF02FF70B505000C000026D2
:1038A0009F4800680100C907C90FA14200D38FE0FB
:1038B0009B48006801218843204399490860984843
:1038C00000680100C907C90FA14201D0012025E10C
:1038D0002878800707D593480068F0218843A968B5
:1038E0000143904801602878C00700D4FBE0686875
:1038F000022805D18C480068800319D401200DE10D
:103900006868002805D188480068800510D4012027
:1039100004E16868032805D183480068800107D462
:103920000120FBE080480068400701D40120F5E059
:103930007C48006803218843696801437948016035
:10394000FEF7ADFC0600686802280ED175480068D5
:103950000C210140082900D1C5E0FEF7A0FC801B26
:1039600072498842F2D30320D8E0686803280ED158
:103970006C4800680C2101400C2900D1B3E0FEF72F
:103980008EFC801B69498842F2D30320C6E0686838
:1039900000280ED1634800680C210140002900D1A5
:1039A000A1E0FEF77CFC801B60498842F2D3032033
:1039B000B4E05C4800680C210140042900D192E089
:1039C000FEF76DFC801B59498842F2D30320A5E025
:1039D0002878800707D553480068F0218843A968F4
:1039E0000143504801602878C0076CD568680228F8
:1039F00005D14D480068800319D401208EE0686825
:103A0000002805D148480068800510D4012085E0D1
:103A10006868032805D144480068800107D4012064
:103A20007CE041480068400701D4012076E03D4831
:103A3000006803218843696801433A480160FEF742
:103A40002EFC0600686802280DD1364800680C215B
:103A50000140082937D0FEF722FC801B33498842F9
:103A6000F3D303205AE0686803280DD12D4800687D
:103A70000C2101400C2926D0FEF711FC801B2B499C
:103A80008842F3D3032049E0686800280DD1254817
:103A900000680C210140002915D0FEF700FC801BB6
:103AA00022498842F3D3032038E01E4800680C21E5
:103AB0000140042907D0FEF7F2FB801B1B49884216
:103AC000F3D303202AE016480068012188432043ED
:103AD00013490860124800680100C907C90FA142D4
:103AE00001D001201AE02878400707D50D4800686A
:103AF0000F490140E86808430A4908602878000730
:103B000008D5084800680B4901402869C0000843EF
:103B1000044908600320FDF7D5FD002070BD0000BA
:103B2000002002400C1002400010024089130000E7
:103B3000FFF8FFFFFFC7FFFF074800688021C900AB
:103B400001430548016070470348006880218900EF
:103B5000014301480160704700700040F0B5020069
:103B6000002000240026002334E005201D00AD07BE
:103B7000AD0F04277D43A840304306007D481D005B
:103B8000AD0804277D43465167480668A643486848
:103B9000C00300D526436448066077480668A643FC
:103BA0004868800300D5264373480660734806685A
:103BB000A6434868C00200D5264370480660704896
:103BC0000668A6434868800201D5344326006C4845
:103BD00006605B1C102B00D3A5E0012098400C6808
:103BE00004408442F5D14868022802D0486812286F
:103BF0001CD11800C008042568431018066A0F205D
:103C00001D006D076D0F04277D43A840864308699A
:103C10001D006D076D0F04277D43A840304306004B
:103C20001800C00804256843101806624868012877
:103C300008D04868022805D04868112802D0486892
:103C400012281AD1966803201D0002277D43A84040
:103C50008643C8681D0002277D43A8403043060004
:103C600096605668012098408643350048680600F3
:103C7000F606F60F9E402E435660166803201D0080
:103C800002277D43A840864308798007800F1D00E6
:103C900002277D43A840304306001660D668032003
:103CA0001D0002277D43A8408643350088681E001A
:103CB00002277E43B0402E0030430600D66048689D
:103CC000C00086D52F480068012505432D480560B2
:103CD00028481D00AD0804267543465930000F26BC
:103CE000F6431D00AF07BF0F04256F43BE400640DB
:103CF000A020C005824201D1002037E7224882423D
:103D000001D1012032E72148824201D102202DE772
:103D10001F48824201D1032028E71E48824200D07A
:103D200023E7042022E7F0BD0004014000B500694C
:103D300089B20840002801D0012000E00020C0B274
:103D400000BD00B5D2B2002A02D089B2816101E083
:103D500089B2816200BD80B50F49096880B2014017
:103D6000002905D080B20C49086080B2FDF7A6FE9C
:103D700001BD0000080001400404014008040140A6
:103D80000C040140341002400004005000080050B0
:103D9000000C0050001C00501404014038B5040011
:103DA000002500202078C00707D559480068032166
:103DB000884361680143564801602078800707D531
:103DC000534800680C218843A168014350480160B2
:103DD0002078400707D54E4800684E490140E0680A
:103DE00008434B4908602078000707D54848006819
:103DF0004949014020690843454908602078800608
:103E00006ED546480068802149050143434801605A
:103E10004348006880214900014341480160FEF7A2
:103E20003EFA05003E480068C00506D4FEF737FAA2
:103E3000401B6528F6D3032069E03A480068C0219A
:103E4000890201406069C02292020240914212D070
:103E50003448016834480840324909688022120316
:103E60000A4330490A602F490968304A0A402D49FF
:103E70000A602C49086060698021490288420ED19D
:103E8000FEF70DFA050027480068800507D4FEF705
:103E900006FA401B26498842F5D3032037E06069C3
:103EA000C02189020140C020800281420AD12148FC
:103EB00000682149014062691B48104008431D49C0
:103EC000086005E01B4801681B4808401949086064
:103ED00014480068144901406069084311490860AA
:103EE0002078400607D50A48006814490140A069B7
:103EF0000843074908602078000607D50448006891
:103F00000F490140E069084301490860002032BDC3
:103F10004C100240FFF3FFFFFFCFFFFF38100240BD
:103F20000070004050100240FFFFFCFFFFFFF7FF52
:103F30008913000000100240FFFFCFFFFFFFFFFBCF
:103F4000FFFFF3FF10B50400002C01D101203DE07C
:103F50005120205C002802D1200000F03BF8022014
:103F6000512160542068006840218843216808601E
:103F70006068A1680143E068084321690143606902
:103F80000843A1698022920011400143E06908437F
:103F9000216A0143A06A084321680860A069000CF7
:103FA00004210840616A014320684160E06A216899
:103FB00008612068C069064901402068C16100208D
:103FC00052216054012051342070002010BD0000A7
:103FD000FFF7FFFF10B586B00400206872498842E1
:103FE00000D0DFE071480068022101436F480160A2
:103FF0006E480068012101436C4801606B4800680D
:1040000001210143694801606848006801210143BA
:10401000664801606548006801210143634801600A
:10402000634800688021490101436148016008201C
:1040300000900220019000200290032003900020B5
:10404000049069465B48FFF789FD402000900220FC
:104050000190002002900320039000200490694604
:10406000A020C005FFF77AFD80200090022001907B
:104070000020029003200390002004906946A020B5
:10408000C005FFF76BFD0220009001200190002089
:10409000029003200390002004906946A020C005F0
:1040A000FFF75CFD01220221A020C005FFF749FEB9
:1040B00001200090404801900220029003200390CC
:1040C000002004906946A020C005FFF747FD3B484B
:1040D00000680121014339480160012038494860E6
:1040E00010203749886000203549C8608020344955
:1040F0000861002032494861002031498861002070
:104100002F49C861802080012D4908622D482C4923
:1041100008602B4800F05CF820680C3028490968DA
:104120008860274820642648846201202649486028
:1041300000202549886000202349C860802022494A
:10414000086100202049486100201F498861002043
:104150001D49C861802080011B4908621B481A491B
:104160000860194800F034F820680C3016490968D6
:1041700088601548606414488462002201210A2086
:10418000FFF7F1F80A20FFF7F3F8002201210A20D7
:10419000FFF7E9F80A20FFF7EBF8002202210520DB
:1041A000FFF7E1F806B010BD003001402C100240CE
:1041B0003410024000040050000011103010024082
:1041C0004404002030000240800400201C00024013
:1041D00000B50022002801D1012098E0022125220B
:1041E000815401680A681100494A0A401100826836
:1041F000C368134302691A434369134382691A432C
:10420000C3691343026A1A430A4301680A600168DA
:10421000404A91420CD1404909680F2291433E4ADD
:1042200011603D49096842680A433B490A606AE0F7
:1042300001683A4A91420DD137490968F022914309
:10424000354A116034490968426812010A4332490B
:104250000A6058E00168324A91420DD12E4909683E
:10426000304A0A402C490A602B4909684268120208
:104270000A4329490A6046E001682B4A91420DD160
:1042800025490968294A0A4023490A6022490968E0
:10429000426812030A4320490A6034E00168244A54
:1042A00091420DD11C490968224A0A401A490A6004
:1042B00019490968426812040A4317490A6022E052
:1042C00001681D4A91420DD1134909681B4A0A40F1
:1042D00011490A6010490968426812050A430E49EB
:1042E0000A6010E00168164A91420CD10A49096837
:1042F000144A0A4008490A600749096842681206D8
:104300000A4305490A60012125300170002000BDE3
:104310000FC0FFFF08000240A80002401C0002403E
:1043200030000240FFF0FFFF44000240FF0FFFFF9C
:1043300058000240FFFFF0FF6C000240FFFF0FFF3C
:1043400080000240FFFFFFF0704700B5FEE77047B6
:104350007047704780B5FDF79CFF1B480068401C04
:104360001949086001BD80B5FDF7C2FD01BD80B5EA
:104370000120FFF7F0FC01BD80B501201349086062
:104380000120FCF76EFA80208001FFF7E4FC01BDFC
:1043900080B50F48406C00680068800706D50D485E
:1043A0000068800602D5FEF7F8FA0BE00848006CBA
:1043B00000680068800705D506480068800501D5BB
:1043C000FEF7A0FB01BD00004C05002050050020B9
:1043D000F0030020000002401648006880214900D8
:1043E0000143144801601448006814490140124810
:1043F000016010480068124901400E4801601148F0
:104400000068012188430F4908600A4800680E4986
:10441000014008480160084800680C49014006480E
:10442000016000200A4908608020000509490860F1
:1044300070470000001002400C1002400C40FF8842
:10444000F6FFF6FE08100240FFFFFBFFFFFF02FF32
:104450001010024008ED00E070B40121002313E0C9
:104460000468001D0C4202D04D466D1E6419236085
:10447000241D121F042AFAD22500960701D5238095
:10448000AD1C0A4000D02B700268001D002AE7D145
:1044900070BC704730B401210268001D002A0FD0A3
:1044A0000368C318446808300C4202D04D466D1EA4
:1044B00064191D6825601B1D241D121FECD0F8E730
:1044C00030BC704710B5074979441831064C7C441C
:1044D000163404E0081D0A68891888470100A142C3
:1044E000F8D110BD08000000280000006DFFFFFF9C
:1044F000FC040000940000200000000099FFFFFF72
:1045000094000000BC00000000000020000000003B
:1045100000F00BF8002801D0FFF7D4FF0020C046C0
:10452000C046FDF7D1F800F002F80120704780B5D1
:1045300000F002F801BDFEE70746384600F002F839
:10454000FBE7FEE780B5C046C046024A11001820CE
:10455000ABBEFBE726000200014880470148004748
:10456000D943000869450008C046C046C046C04659
:10457000FFF7CEFF426C75654E524700123400E1E2
:104580008003000009426C75654E52470A00000026
:10459000000000000B00000000000000E803000025
:1045A000FEE7FEE7FEE7FEE7FEE7FEE7FEE7FEE7E3
:1045B000FEE7FEE7FEE7FEE7FEE7FEE7FEE7FF00B9
:1045C00000000000010000000000000000000000EA
:1045D00000000000000000000000000000000000DB
:1045E00000000000000000000000000000000000CB
:1045F00000000000000000000000000000000000BB
:1046000000000000000000000000000000000000AA
:10461000000000000000000000000000000000009A
:10462000000000000000000000000000000000008A
:10463000000000000000000000000000000000007A
:104640000000000000000000000000000008005012
:044650000100000065
:00000001FF
