:020000040800F2
:10000000F0080020CD5200088551000887510008F3
:1000100000000000000000000000000000000000E0
:1000200000000000000000000000000089510008EE
:100030008B510008000000008D5100088F5100080E
:10004000B316000823180008271D0008431E0008E7
:10005000073300089F5100081F4C0008A9510008F1
:1000600017510008BF520008CB520008ED5200089B
:10007000EF520008F152000800000000F35200089F
:1000800000000000F5520008000000000000000021
:10009000F752000800000000F9520008FB52000867
:1000A000FD520008FF5200080153000803530008E6
:1000B0000553000807530008095300080B530008B4
:1000C000F1B5A4B00E0014001D004A487844FF307A
:1000D000253003C822AA03C2049600200D9001E037
:1000E0000198241800206946488022AB0022D243A0
:1000F000210000A8801C01F048F90190012805DAD0
:100100002078411E8941C943C90F01916846408842
:100110002528019E00D1761E012E0EDB270039789E
:100120000498249A90470490002800D1F3E20D9897
:10013000401C0D907F1C761EF1D168464088252812
:1001400007D100200790089009900A900B900C901E
:1001500008E0684640880028C2D10D98DDE2010021
:1001600001200843641C21782029F8D023290ED0CF
:100170002B2904D02D2907D030290BD00DE0010008
:100180000220084380B2EDE701000420F9E70100F6
:100190000820F6E701001020F3E72A290FD129688B
:1001A00029600A68091D29600F92002A05D551426D
:1001B0000F9101000420084380B2641C12E000216A
:1001C0000F910AE00F9A7B4B9A4205D093009A1840
:1001D0005200511830390F91641C21780A00303ACE
:1001E0000A2AEFD321782E2906D00021C9430E9187
:1001F00021E000BF0C500000641C21782A2907D19F
:10020000296829600A68091D29600E92641C12E0A1
:1002100000210E910AE00E9A664B9A4205D0930097
:100220009A185200511830390E91641C21780A0036
:10023000303A0A2AEFD302A9088726783100044809
:1002400078440C3001F0AFF8002803D0641C02E0C1
:10025000B84F0000002602A83A30067002A83A30D3
:100260000078682804D12178682901D1622005E04E
:100270006C2807D120786C2804D1712002A93A316A
:100280000870641C12A806902678641C300025387B
:100290002AD01C3800D1D6E0001F022800D8D2E0B6
:1002A000133800D1F5E0093800D1CCE0801E00D130
:1002B0005EE1401E00D136E1401E022800D8C2E0B7
:1002C000001F00D12FE1401F00D18DE0401E00D162
:1002D000DFE0401E2FD0C01E0BD0801E00D1D8E022
:1002E000C01E00D1D5E066E1252012A908700120CA
:1002F0006BE102A83A3000786C282868286016D094
:100300000668001D286005960E9F002F03D530005B
:1003100001F053F809E03A000021300001F055F8EF
:10032000002801D0801B00E0380008904EE10268F0
:10033000001D286038E1286828600268001D2860D8
:100340000020C0430021104002AA03C212A8059059
:10035000069B3C2602A803C8002904D1002802D12C
:100360000E9A002A14D0761E01960207120F303220
:10037000D2B23A2A00DB27329A5500090A07104305
:10038000090901D1002803D0059A9F19BA42EAD37E
:100390003C20801B0890991905910E9988420DDA2E
:1003A000081A0A9002A8008F0349014002A8018799
:1003B0000CE100BFFFFFFF7FEFFF0000002900D42A
:1003C00004E102A93831097814220A40102A00D029
:1003D000FCE00F99079A891A0A9A891A0E1A012EB7
:1003E00000DAF3E00A96F1E002A83A3000786228D9
:1003F00019D0682806D06A280CD06C281BD0712828
:1004000008D018E0286828600168001D28600D9851
:100410000880DBE0286828600268001D28600D98CD
:10042000C11703C2D2E0286828600168001D286057
:100430000D980870CAE0286828600168001D2860CF
:100440000D980860C2E02A68D21D072082432A6006
:1004500003CA2A6002AA03C2002902D507982D21E7
:100460000AE002A8008F810702D507982B2103E03C
:10047000C00705D50798202112AA1154401C0790E7
:1004800012A8079940180590310002A800F0B0FBAF
:100490009CE002A83A3000786C280BD0712801D07B
:1004A0006A2807D12A68D21D072082432A6003CA1E
:1004B0002A6005E0296829600868091D2960002173
:1004C00002AA03C202A83A300078682803D102A821
:1004D00003C880B20BE0622803D102A803C8C0B2EF
:1004E00005E0742801D07A2804D102A803C80021AD
:1004F00002AA03C202A83830007800072FD502A84C
:1005000003C8002901D1002829D0202030437828B1
:1005100025D10798302112AA1154401C411C079183
:1005200012A90E541BE0290002A83A30007800F00E
:10053000F6F802AA03C202A8002902DA07982D21C0
:1005400009E0008F810702D507982B2103E0C0073F
:1005500005D50798202112AA1154401C079012A813
:10056000079940180590310002A800F0A7FA2DE085
:1005700002A83A3000786C2809D00120079028683A
:1005800028600168001D286012A801701EE028681C
:1005900028600168001D286068468180002001A94C
:1005A0004880C0430E9001AA02A9249800F0ECF8FC
:1005B00000280BD5AFE0252012A908700120079074
:1005C000002E03D012A84670022007900F980799BA
:1005D000401A0A99401A0899401A0B99401A099929
:1005E000401A0C99401A019002A838300078400750
:1005F00011D4202069460870002609E001236A46CC
:1006000002A9249800F0A9FE002800D083E0761CFF
:1006100001988642F2DB079F12AE0BE03178049816
:10062000249A90470490002875D00D98401C0D9096
:10063000761C7F1E002FF1D13020694608700A9F7A
:10064000002608E001236A4602A9249800F085FEEE
:10065000002860D1761CBE42F4DB089F059E0BE0AB
:1006600031780498249A90470490002853D00D982C
:10067000401C0D90761C7F1E002FF1D13020694662
:1006800008700B9F002608E001236A4602A92498FF
:1006900000F063FE00283ED1761CBE42F4DB099FC9
:1006A0000598089946180BE031780498249A9047E9
:1006B000049000282FD00D98401C0D90761C7F1EB2
:1006C000002FF1D13020694608700C9F002608E009
:1006D00001236A4602A9249800F03FFE00281AD19F
:1006E000761CBE42F4DB02A838300078400700D404
:1006F000F8E4202069460870002600E0761C019886
:10070000864200DBEEE401236A4602A9249800F049
:1007100024FE0028F2D00020C04325B0F0BD0A001E
:10072000622822D0682819D06A2808D06C2823D0E3
:10073000712804D074281FD07A2808D01CE01368D0
:10074000DB1D07208343136003CB136070471168E0
:1007500011600868091D116000217047116811605F
:100760000868091D116000B20BE01168116008688B
:10077000091D116040B204E0116811600868091D8C
:100780001160C11770470000F4B598B007000C0065
:10079000206B002800D50E48029000F022FE616B0D
:1007A0000818049009487844223003C806AA03C2F6
:1007B0003820205C400702D4049841280AD208A8B7
:1007C000039040200490002613E000BF444A00003C
:1007D000FFFFFF7F00F00AFE03900028F3D1002006
:1007E000C04369E11898801C189002980099401A3B
:1007F00002900298012800DAD1E006AA1898018830
:1008000001A8401C00F04EFE0090002800D5DAE060
:1008100018980088002804D10098401E009000D548
:10082000D1E002980099884200DAB8E06069049942
:10083000009A8218914200D3A0E066634142206A88
:10084000081AA169401A616A401AE169401AA16A4E
:10085000401A05903820205C400711D420206946BA
:100860000871002509E0012301AA2100380000F0E9
:1008700074FD002800D0A6E06D1C05988542F2DBCF
:100880006669039D0BE02978A068B847A06000283E
:1008900000D198E0E06A401CE0626D1C761E002EDC
:1008A000F1D1302069460871266A002509E001234C
:1008B00001AA2100380000F050FD002800D082E09D
:1008C0006D1CB542F3DBA669E5680AE02978A068EB
:1008D000B847A060002876D0E06A401CE0626D1C3A
:1008E000761E002EF2D1302069460871666A002516
:1008F00008E0012301AA2100380000F02EFD0028A5
:1009000061D16D1CB542F4DBE669E068A169451868
:100910000AE02978A068B847A060002853D0E06AB0
:10092000401CE0626D1C761E002EF2D1302069461C
:100930000871A66A002508E0012301AA21003800F9
:1009400000F00BFD00283ED16D1CB542F4DB3820D1
:10095000205C400710D5202069460871002508E07A
:10096000012301AA2100380000F0F7FC00282AD159
:100970006D1C05988542F3DB00266661009A01A98B
:10098000491C03986369C01800F098FD60690099DC
:100990004018606118980088002800D022E7606B3A
:1009A0006169401A216A401AA169401A616A401AB5
:1009B000E169401AA16A401A02903820205C400781
:1009C00011D400250CE00026F6436EE02021A0683B
:1009D000B847A0600028F6D0E06A401CE0626D1CB9
:1009E00002988542F2DB6369039A2100380000F027
:1009F000B4FC0028E7D1206A0090002509E03021EE
:100A0000A068B847A0600028DDD0E06A401CE06222
:100A10006D1C00988542F2DBA369E2682100380072
:100A200000F09BFC0028CED1606A0090002509E010
:100A30003021A068B847A0600028C4D0E06A401CFC
:100A4000E0626D1C00988542F2DBE369E068A16911
:100A500042182100380000F080FC0028B3D1A06AC1
:100A60000090002509E03021A068B847A060002868
:100A7000A9D0E06A401CE0626D1C00988542F2DB60
:100A80003820205C40070ED5002509E02021A06811
:100A9000B847A060002896D0E06A401CE0626D1C58
:100AA00002988542F2DB66616663039808A9884272
:100AB00001D000F031FD300019B0F0BDF3B583B0C6
:100AC000006900906846027C6F2A01D1082406E084
:100AD00020211143782901D00A2400E010243C256C
:100AE000039803C806000F00642A01D0692A07D1C1
:100AF000002905DA00200021801BB94106000F0003
:100B0000002F12D1002E10D10398006B00280CD1B9
:100B1000082C3CD1039838300078000737D53B25A6
:100B2000302000993B31087031E06D1E0195300096
:100B300039002200E31700F033FD3032D2B23A2AF6
:100B400003DB6846007C513812180098425530008B
:100B500039002200E31700F023FD06000F0001D149
:100B6000002E05D00398C068009949198842DCD34B
:100B7000082C0CD1039838300078000707D500986E
:100B8000405D302803D06D1E3020009948553C2030
:100B9000401B0399886100994919039AD160039910
:100BA000096B884209DA081A039908620398008FD2
:100BB0000E4901400398018715E0002913D50399D8
:100BC0003831097814220A40102A0CD10399496B54
:100BD000039A5269891A039A126A891A0D1A012D09
:100BE00001DB0398056205B0F0BD0000EFFF0000D7
:100BF000F3B591B006AD03C802AA03C212A80078EB
:100C000020210143009161290BD01198006B00282D
:100C100001D5062003E004D1672902D101201199F2
:100C20000863119841684800400DAA4A904225D1B6
:100C3000080310D11198006800280CD103201199E5
:100C4000886112A8007861381A2842D32348784472
:100C50008A3000900BE003201199886112A8007877
:100C600061381A2831D31E4878447430009003222A
:100C700000991198C06800F021FCF7E1012817DA0B
:100C8000119800F0C2FC012812DB00270026009812
:100C9000612832D11198C06830210170401C411C7C
:100CA000119AD16012A9097861291FD178211EE01B
:100CB00011994968884A0A4088491143119A51603C
:100CC0008749461A0027FF43E1E706487844143075
:100CD000CCE7054878441030BBE700BF484500002A
:100CE0003C450000344500003845000058210170A3
:100CF00011984069801C11994861002F03D100248C
:100D000068468780A8E10098612800D09FE011988C
:100D1000046B002C01D5212400E0641C24B2601C6B
:100D20000090119803C804AA03C202A803C80022B5
:100D3000002300F08CFC04A803C802D28022120613
:100D4000514002AA03C2301F6946888000270F76EF
:100D500006AE761C00E0F61D0098012830DB02A8E4
:100D600003C80022002300F08BFC29D21C2102A81A
:100D700000F0A0FC02A803C800F02AFD05000098BE
:100D8000C01F009001280ADB280000F04BFD020084
:100D90000B0002A803C800F0BCFD02AA03C2F61DA6
:100DA000072004E0761E2907090F31702D11012D4F
:100DB00001DB401EF6D5401ECDD4761E3770FAE713
:100DC00006A8401C311A06AD6D1CA14200DA0C00C9
:100DD00024B2200032D4884205DA06A909184978DD
:100DE000082900DB0F2706A9091801E0641E491E27
:100DF000401E0A78BA42F9D00F2F04D106A909186B
:100E00004A78521C4A70002806D506AD641C019829
:100E100000B2001D6946888024B2601E0ED42918D5
:100E20000A783032D2B23A2A03DB12AB1B783A3B53
:100E3000D2180A70401E491E0028F1D51198006B87
:100E4000002800D408E1601E1199086304E102A89B
:100E500003C80022002300F0FAFB06D202A803C850
:100E600080221206514002AA03C236B28048704363
:100E7000804900F0DBFD694688800720019909B2AE
:100E8000421A00207C49012A20DB049202AA30CABF
:100E900000260F000498C00707D532003B00200051
:100EA000290000F01DFE04000D000498401004907D
:100EB0003000390032003B0000F012FE06000F0047
:100EC00004980028E6D102A830C028E05442002649
:100ED0006A4F18E0FF070000FFFF0F800000E03FAF
:100EE000FE030000E00707D504A803C832003B005A
:100EF00000F0F6FD06000F00641004A803C804AA61
:100F00000CCA00F0EDFD04AA03C2002CEAD102A82D
:100F100003C832003B0000F0A5FE02AA03C20098FD
:100F2000662803D1019800B20A3000E0062011992A
:100F3000096B08180490142801DB1320049030205A
:100F40006946087606AC641C0498012840DB02A8B8
:100F500003C800F04FFC0500083405940424280061
:100F60000A2100F066FD0F0028000A2100F061FD53
:100F7000050030370598401E077028000A2100F050
:100F800058FD0F0028000A2100F053FD05000598C8
:100F9000801E059030370770641EE0D1059C083430
:100FA0000498083804900128CEDB02A803C800F09A
:100FB00021FC00F041FC02000B0002A803C800F075
:100FC000A8FC00222E4B00F08BFD02AA03C2BEE754
:100FD00006A8401C201A06AD6D1C6A4605E0401E9E
:100FE000019909B2491E91806D1C29783029F6D0EB
:100FF0000099662903D1019909B2491C04E06529C9
:1010000001D1012100E00021119A126B541824B281
:10101000A04200DA040024B221001DD4814204DA87
:10102000685C352801DB392000E030206A1800E0D8
:10103000641E521E491E13788342F9D0392802D10A
:10104000685C401C6854002906D56D1E641C01981C
:1010500000B2401C69468880019800B2009023B21B
:101060002A0012A80178119800F00CF813B0F0BD16
:1010700097750000A0860100000024400000F03FAA
:1010800084D79741F3B589B015001C0000F065FEC8
:101090000190406A0078694608720998076B012C34
:1010A00001DA0124ACA50AA8017820200843109E8B
:1010B000662801D1761C18E0672800D09FE036B280
:1010C0000321C9438E4200DA9DE0BE4200DB9AE074
:1010D000761C099838300078000702D4BC4200DA48
:1010E000270036B2BF1B00D500270998C0680090C2
:1010F0000998806900990918019136B2012E2CDAFD
:10110000401C3021019A1170012F04DA09993831FD
:101110000978090704D56946097A009A1154401CD8
:10112000099988617042874200DA7E4236B2704285
:1011300009994862BF19A74200DA3C0024B2099815
:10114000C461220029000098099B9B69C01800F027
:10115000B5F9381B09998862E0E0B44220DA220030
:101160002900019800F0AAF9099989690919099AD1
:101170009161301B099A5062012F04DA09983830C6
:101180000078000709D56846007A099AD268505459
:101190000998C069401C0999C86109988762BDE037
:1011A00032002900019800F089F9099880698019B6
:1011B000A41B012F04DA099938310978090705D5EC
:1011C0006946097A099AD2681154401C09998861C4
:1011D00024B2A74200DA3C0024B22200A9190998DF
:1011E000C068099B9B69C01800F068F9099880697C
:1011F000001909998861381B099948628EE06129B4
:1012000014D1702015E0BC4205DA0999383109780B
:10121000090700D427007F1E00D500270AA8007800
:10122000672801D1652004E0452002E0412902D170
:1012300050200AA9087009988169481C099AD26847
:1012400000922A78009B5A54691C012F07DA099AE8
:1012500038321278120702D4099988611BE06A4675
:10126000127A009B1A54401C099A9061012F12DBDC
:10127000641E24B2A74200DA3C0024B22200009B84
:10128000181800F01BF909988069001909998861FC
:10129000381B099948620998C068099989694518F5
:1012A0000AA80078287036B2300003D42B2068706A
:1012B000AD1C03E02D216970AD1C4642002405AF32
:1012C00008E00A2203A800F063FD04983870039E2A
:1012D000641C7F1C31B20129F3DA022C08DA0AA857
:1012E000007820210143652902D1302028706D1C2F
:1012F000002C09D1302028706D1C07E0641E05A861
:10130000005D303028706D1C012CF7DA0998C06838
:10131000099989694018281A0999C86109983830CB
:10132000007814210140102914D1099840690999C5
:10133000896940180999496A40180999C96940188A
:101340000999896A40180999496B884202DA081A92
:10135000099908620BB0F0BD300079B50E00140099
:101360001D00002005E0F06A401CF0620020641CB3
:101370006D1E002D08D02178B068009A9047B060AB
:101380000028F0D10020C04376BDF8B504000F005E
:1013900015001E0000F00CFD33002A00390020006B
:1013A00000F01AFDF2BDC9B200E0401C02788A428A
:1013B00002D0002AF9D100207047010000E0491C4A
:1013C0000A78002AFBD1081A7047C9B201E0401C14
:1013D000521E002A03D003788B42F8D170470020B8
:1013E000704780B500F0E4FC012002BD70B5050037
:1013F0002C000F3407208443C046C046A54233D298
:10140000082C04D2082402E0083000F085F82448B3
:10141000026811000CD1011D0A68002A20D013684F
:10142000A34212D2111DF7E71D68A5420DD2191D66
:101430000B68002BF8D11268011D00E0191D0B6824
:1014400093420DD01D68A542F8D300290CD00D6839
:101450002A681300083BA3420AD26A680A600FE0B8
:1014600000F0D8FC0028CFD1C046C046002070BD97
:101470002B190B606E685E60121B0B681A602C6083
:101480000968002904D04A68002A01D0091D00E03B
:1014900000210160C046C0460835280070BD00002C
:1014A000D404002070B504000D00160000F080FC8C
:1014B00032002900200000F085FC70BD124207D0E8
:1014C0008B0706D00B78491C0370401C521EF7D8BE
:1014D0007047830706D00B78491C0370401C521ECE
:1014E000F9D1704770B4103A03D378C9103A78C074
:1014F000FBD2530701D318C918C001D508C908C0C9
:10150000D20704D30B880380891C801C002A01D5D4
:101510000B78037070BC7047002800D1704738B555
:10152000083804002068082836D3400734D1C04664
:10153000C0461A484168002901D08C4203D261603C
:10154000446019E019004B68002B01D0A342F9D385
:101550000B68CD18AC421DD3A54204D122689A185D
:101560000A600C0008E04A68002A03D02368E318E8
:101570009A420FD362604C60616800290AD02268E9
:10158000A3188B4206D1002303600868101820605E
:1015900048686060C046C04631BD0000D4040020E9
:1015A000124224D0994228D970B500251B4202D09E
:1015B0000C00002109E000240126491864419442EE
:1015C00000D3A41A7641F8D33100012601E0764118
:1015D00009D2001864416D41A41A9D41F7D2A418A4
:1015E0005D41B619F5D3300022002B0070BD1B42BF
:1015F000D8D108B500F024FC08BD01D19042D3D267
:1016000002000B0000210020704730B401004B683D
:10161000802212061A4001201B031B0B4B600BD1CA
:101620000B68002B08D10DE00B686400DD0F25432B
:101630004D605B000B60401E4C68E302F4D5230351
:101640001B0B4B604B681A434A6030BC704730B488
:10165000012464054D00EC420BD85D00EC4208D833
:101660000C001C4364000443144304D2994200D18B
:10167000904230BC7047FCD08B42FAD18242F8E7EE
:1016800030B4012464054D00EC420BD85D00EC42FF
:1016900008D80C001C4364000443144304D28B425A
:1016A00000D1824230BC7047FCD09942FAD19042BE
:1016B000F8E7FEE770B504000D0060684000400DDB
:1016C0003F4EB04207D16068000302D12068002875
:1016D00016D0022070BD002804D12000FFF795FF2E
:1016E00001286BDA012D0DDB311A8D420AD36068B7
:1016F000002802D50020334901E00020310503C451
:10170000012070BD4142A942616806DA2E4A0A40B2
:10171000281800051043606047E08022120611403F
:1017200062681203120B80235B0313436360401E45
:101730002D1800202A003532352A02D3616020603E
:1017400070BD00221E23DB439D4204DA203522684F
:10175000636823606060684211D0521E9241D24398
:10176000D20F20231B1A25689D402A432568C540B7
:1017700066689E402E4326606368C340636060686D
:10178000084360601148824206D2802000068242EF
:101790000ED12078C0070BD52068401C206020683F
:1017A000002805D16068401C60600020C04370BD07
:1017B00060688842F9D120680028F6D1002070BD09
:1017C000FF0700000000F0FFFFFF0F800100008016
:1017D000F4464A1805D200F00FF801D580174008EA
:1017E000604700F009F80121C907884200D90800C4
:1017F000404260474A1812D2400DC90208430121F5
:10180000C9070843520D40210901521A521C06D43F
:1018100052421F3201D4D0407047C0177047002099
:101820007047FEE7010009D5F446404200F006F893
:101830000122D20711436047010000BF422212017A
:10184000D21E004207D002D4521E0018FCD5C10A95
:1018500040051205891870478B4200D1824205D994
:101860008446100062468C4619006346DF184C1807
:10187000640D7F0D3AD0661C760537D0E61B352EF9
:1018800034DCDB022B43DB0A0C0DC9022943C912ED
:10189000202E0DDB1700203E06D01F00F741F3403D
:1018A0005F400026012A7741C01871410DD217E030
:1018B0001700F741F2405740F3415A40B340F3401C
:1018C0005A400026801859410AD3A21C52050FD055
:1018D000C207012F724117004008CB07184349087F
:1018E000641C24054208AF4170416141F0BC70475F
:1018F000641C21050020F9E76B4010E06B40ABE76A
:10190000F742F3D1E943F1E72442EFD1002000216F
:10191000ECE7F0B40125ED070F005F40EED40C00BA
:10192000871A9C4105D2C01BA141D219634169406D
:101930006B40AE0ADF184C18F442E1D2640D7F0D03
:10194000E2D0E61B362ED1DCDB022B43DB0AA446B9
:101950000C0DC9022943C90A012E28DC04D1D6077F
:101960005208DF073A435B08EF0A764290419941FB
:1019700014D039423BD1B61940414941761C394215
:1019800004D1761C001849413942FAD0B943674660
:10199000B74208D9A41B24052143A7E70042EAD196
:1019A0003642E8D1A2E7E40AE10700209EE7202EB4
:1019B0000BDD203E1F00F340F7415F40012A00226B
:1019C00057417E42984191410BE01700F741F240A8
:1019D0005740F3415A40B340F3405A407E42904151
:1019E00099410A0303D2641EB619404149410027B8
:1019F000641E24054208AE4178416141F0BC704745
:101A0000F446002804D4494200F013F840426047ED
:101A10004042002905D45FD000F00BF84042494213
:101A20006047494200F005F84942604703460B43CE
:101A3000E6D40022030A8B420BD203098B4219D24F
:101A400043088B422ED2411A00D201465241104621
:101A50007047FF2209023FD012068B4205D31212B3
:101A600009028B4201D31212090203098B4219D3D6
:101A700000E0090AC3098B4201D3CB01C01A5241CD
:101A800083098B4201D38B01C01A524143098B4217
:101A900001D34B01C01A524103098B4201D30B0100
:101AA000C01A5241C3088B4201D3CB00C01A524125
:101AB00083088B4201D38B00C01A524143088B42EA
:101AC00001D34B00C01A5241884200D3401A524100
:101AD000CFD201461046704708B500F0B3F908BDF3
:101AE000F0B50E005E400125ED072E40B446AE0A6B
:101AF000DF184C18F44208D2F7420ED2640D01D020
:101B00007F0D12D100206146F0BD05D1F74201D80A
:101B10007F0D05D10020C143F0BDFBD1640DF9D08C
:101B20000020C143490549088FE0E419C902DB02DE
:101B300029432B43DB0A460DC00231438E4630B4A5
:101B400087B295B27D432E0CADB2140C7C43A41920
:101B5000260C240425439CB27C43A419190C794318
:101B6000270CC919A4B20F043C43090C000C97B20E
:101B700047432E0CBE193543ADB2170C4743360C04
:101B8000BF19A6B2BF193E043543240C3E0C3619CA
:101B90009FB24743BF19BCB23E0C89191F0C474383
:101BA0007F183E043443390C704680B297B24743E5
:101BB0002E0CBE193543ADB2170C4743360CBF1976
:101BC000A6B2BF193E043543240C3E0C36199FB211
:101BD0004743BF19BCB23E0C89191F0C47437F18FD
:101BE0003E043443390C77463F0C90B278432E0CB8
:101BF00080190604ADB22E43050CA0B22D18120CAC
:101C00007A435019020C80B2240CA4189AB27A4379
:101C1000121914042043120C89181B0C7B43C91899
:101C200030BCEF0A394203D1B61940414941641E24
:101C30006F12BF0DE41B0BDBFF19BC4211DA240548
:101C400000274208AE417841614166463143F0BD0C
:101C5000641C05D1401C6141CF0201D34908F4E75F
:101C600050E75DE7F0B40E005E400125ED072E4021
:101C7000B446AE0ADF184C18F4423BD2F74241D2C8
:101C8000640D43D07F0D38D0E41BC902DB02294329
:101C90002B43CF0ADB0A0600B61A9F4104D2641E0A
:101CA000B6197F41B6185F416812800D24180018DC
:101CB000844222DAE80C0021B6197F41B61A9F410E
:101CC00002D2B6185F413F1C40414941F4D3241C65
:101CD00021DD2405B6197F41B61A9F4105D337434C
:101CE000C60737430026012F7041614166463143E4
:101CF000F0BC7047FCD1F74205D20020C143490532
:101D00004908F3E704D00020C143F1E77F0DFAD082
:101D100000206146ECE72442FAD1401C61410F03E8
:101D2000F6D30020E2E7FEE780B5124800F08BF81A
:101D300011A1016041608160C16001614161816107
:101D40000EA242628162C162016341630CA282639E
:101D50000DA2C2630164416401BD10B5054800F0E5
:101D600072F804002068002801D1FFF7DDFF200091
:101D700010BD000000000020000000002E00000048
:101D800066616C7365000000747275650000000088
:101D90007CB504000E00150030002900FFF746FE58
:101DA00000904543701B0190684603C803C476BD8C
:101DB00080B5034800F047F8806902BD00000000CC
:101DC00090000020002804D10EA003C803C2002008
:101DD0007047017001207047002904D10BA003C88F
:101DE00003C300207047002A02D10120C04370477E
:101DF000002801D00A7802800978481E8041C0433B
:101E0000C00F70470000000000000000000000004C
:101E10000000000007490868002801D00020704732
:101E2000054807229043086004499143091A01605C
:101E3000704700BFE4040020F7080020F00A0020EB
:101E40007047FEE77047704710B592B00EA800BF0C
:101E500029A11022FFF746FB0AA800BF2AA11022E1
:101E6000FFF740FB06A800BF2BA11022FFF73AFBAB
:101E7000C64C20000C300090072301220EA902203E
:101E800000F004FC002830D120000E300590012025
:101E900004901020039000200290019010200090E8
:101EA00014230AAA0221A08900F035FC00281CD1C5
:101EB0002000103005900120049010200390012094
:101EC0000290002001900C200090142306AA022109
:101ED000A08900F020FC002807D1228AE18900BFF8
:101EE00011A000F05BFD002004E000BF1EA000F088
:101EF00055FD472012B010BD669A0C200008969E32
:101F0000E2119EB1E0F273D9669A0C200008969E09
:101F1000E2119EB1E1F273D9669A0C200008969EF8
:101F2000E2119EB1E2F273D953616D706C6520537A
:101F30006572766963652061646465642E0A54582D
:101F400020436861722048616E646C6520253034DE
:101F5000582C20525820436861722048616E646C8E
:101F60006520253034580A004572726F72207768F8
:101F7000696C6520616464696E672053616D706C83
:101F80006520536572766963652E0A0000B58BB0D3
:101F9000B6480078002826D124A000F0FFFC07A84E
:101FA00029A10CC90CC0002000F034FD8020C00124
:101FB000FA21C900069105913C2104910021039169
:101FC0002821029101910021009107AB002201001C
:101FD00000F0C8FE002826D01DA000F0DFFC642021
:101FE00000F0FEFE1FE007A822A11022FFF77AFAF8
:101FF0000021002001F0B0F822A000F0CFFC00206A
:10200000069005900490039007A802900D2001907F
:102010000020009000230022002100F00DFE0100AE
:10202000C8A000F0BBFC0BB000BD0000436C6965AC
:102030006E742043726561746520436F6E6E6563D4
:1020400074696F6E0A000000AA0000E180020000BF
:102050004572726F72207768696C65207374617263
:1020600074696E6720636F6E6E656374696F6E2E40
:102070000A00000009426C75654E52475F43686173
:102080007400000047656E6572616C20446973637B
:102090006F76657261626C65204D6F64652000002B
:1020A00010B586B0394CA078002811D109A000F0F5
:1020B00075FC01A80FA11022FFF714FA01A80090E7
:1020C0000223A14A0121E08800F0C0FB0120A0709A
:1020D00006B010BD53746172742072656164696EDC
:1020E0006720545820436861722048616E646C65B3
:1020F0000A000000669A0C200008969EE2119EB12C
:10210000E1F273D910B586B0204CE078002811D1E7
:1021100009A000F043FC01A80FA11022FFF7E2F98B
:1021200001A800900223884A0121E08800F08EFB7C
:102130000120E07006B010BD5374617274207265A6
:102140006164696E6720525820436861722048615B
:102150006E646C650A000000669A0C200008969E6A
:10216000E2119EB1E2F273D9F8B507000E0000202B
:1021700000F060FC0024ABA504E0395D280000F00D
:102180000DFC641CB442F8DBF1BD0000FC00002033
:1021900070B588B003006D4C3448007801285CD1DC
:1021A000A1480078002850D003A800BF30A1142215
:1021B000FFF798F9A06903A90874020A4A74020C8F
:1021C0008A74020ECA74002806D100BF99A000F0DC
:1021D000E5FB00F001FEE061944801680A204143FC
:1021E00001A800F0EBFF03A8009014230022E1896E
:1021F000A08900F0EDFA642804D101A800F0E6FF00
:102200000028F0D0A069401CA061CDD0FA256D0057
:102210002900FFF70EFC0029C6D100F0DDFDE169C1
:10222000461A300000F0DEFF0100814800F0E9FFAF
:1022300001F03CF803003200290000BF80A000F04C
:10224000ADFB00F0C9FDE061AEE700930B0000229A
:10225000E189A08900F0BCFA06E00A006189491C06
:1022600089B2E08800F06CFB08B070BD3901002035
:1022700030313233343536373839414243444546BC
:102280000000000010B584B0684600BF0EA10A88A7
:102290000280664801680A20414301A800F08EFFD1
:1022A000BE4C6B4602222189891C89B2E08800F06D
:1022B0000CFB462804D101A800F088FF0028F0D0CC
:1022C000012060701FBD0000010010B50300100068
:1022D000B24A148A641CA34202D1FFF745FF10BD25
:1022E000D189891C8B4203D10078012800D150701C
:1022F00010BD000070B50400A84801224261C180F1
:10230000AAA000F04BFB0525AEA6615D300000F0F1
:1023100045FB6D1E012DF8DA217800BFABA000F05F
:102320003DFB70BD38B59D4C00256561A9A000F04E
:1023300035FB012020706570A570E5702571657111
:1023400031BD000025640A00FFFF0000FC000020F2
:1023500070B51500914C2289521C334B1B78002B11
:1023600059D08F4B1B78002B55D1904258D1606AC1
:10237000002811D12FA000F011FB00F02DFD2062EC
:10238000287C697C09020143A87C00040843E97C9D
:1023900009060143491EA162287C697C09020143A8
:1023A000A87C00040843E97C09060143A26A501C8A
:1023B000814204D0E06A4018801A401EE062A162A7
:1023C000606A401C60622BD0FA256D002900FFF77F
:1023D00030FB002924D100F0FFFC216A461A3000AE
:1023E00000F000FF0100124800F00BFF00F05EFF5C
:1023F00003003200290000BF11A000F0CFFAE16A0B
:10240000002902D077A000F0C9FA00F0E5FC2062B4
:102410000020E06270BD904202D12800FFF7A4FEC8
:1024200070BD000025630000E8040020E8520008A9
:1024300000409C47546573742073746172740A0081
:102440002564207061636B6574732E20456C617028
:102450007365642074696D653A202564206D732E60
:1024600020417070207468726F7567687075743A77
:10247000202564206B6270732E0A00000100401C4E
:102480000978042900D0704738B50178052904D0AF
:102490003E2905D0FF2911D031BDFFF743FF31BDE3
:1024A000801C0178012977D1401C4178827812067E
:1024B000120C1143401DFFF71DFF31BD851C28780C
:1024C00069780906090C084335490978334C354ABF
:1024D000801A06D00E381BD0401E4BD0801E24D050
:1024E00031BD31480078012807D1AD1CA878E978C2
:1024F0000906090C0843EA1D06E0AD1CA878E97836
:102500000906090C08436A1D2979FFF7DEFE31BD73
:10251000AD1CE87829790906090C08436A1DA978D9
:10252000891EC9B2FFF714FF31BD002934D100BFA5
:1025300031A000F033FAAD1CA07800280AD0207931
:10254000002807D1E97828790006000C0143218191
:1025500034A00CE0E07800281ED0607900281BD160
:10256000E97828790006000C0143618133A000F06E
:1025700015FA31BD00290FD10120A178002904D01E
:102580002179002901D1207131BDE178002903D0E2
:102590006179002900D1607131BD0000FC0000208C
:1025A00039010020010C000038010020436F6E6EDD
:1025B000656374656420746F206465766963653A49
:1025C00000000000253032582D0000002530325820
:1025D0000A000000446973636F6E6E65637465641E
:1025E0000A0000002564206C6F7374207061636BB7
:1025F00065742873290A00004556545F424C5545BE
:102600005F474154545F444953435F524541445FDF
:10261000434841525F42595F555549445F524553C3
:10262000500A0000545820436861722048616E646B
:102630006C6520253034580A0000000052582043B1
:102640006861722048616E646C6520253034580AD8
:102650000000000000B587B01822002101A800F09A
:1026600048FE01A83F210180C231418068460590A3
:1026700001200690002101A800F078FC002801D577
:10268000FF2001E06846007807B000BDF0B58DB0CE
:1026900016001F0007AC2070012801D1022500E0C0
:1026A00010252A00601C00F01EFE6D1CEDB2665560
:1026B0006D1CEDB2675503220021684600F019FE3B
:1026C0001822002101A800F014FE01A83F2101807A
:1026D000C331418007A803906D1CEDB20495684694
:1026E000059003200690002101A800F03FFC00287F
:1026F00001D5FF200DE068460178002901D0084689
:1027000007E0417882781206120C1143129801807A
:1027100000200DB0F0BDF1B58EB00D0017001E0009
:1027200002220EA907A800F0DEFD07ACA570012D5E
:1027300001D1022500E010252A003900E01C00F03C
:10274000D2FDED1CEDB266556D1C1498EDB26055CE
:102750006D1C1598EDB260556D1C1698EDB2605564
:102760006D1C1798EDB260556D1C1898EDB2605550
:1027700003220021684600F0BCFD1822002101A8B8
:1027800000F0B7FD01A83F210180C531418007A8B5
:1027900003906D1CEDB204956846059003200690E9
:1027A000002101A800F0E2FB002801D5FF200DE088
:1027B00068460178002901D0084607E04178827810
:1027C0001206120C11431998018000200FB0F0BDC1
:1027D00073B5A8B016001C00A01D812801DB4220A3
:1027E00032E0022228A907A800F07DFD07AD0222F1
:1027F00029A9A81C00F077FD2E716C7122002E997A
:10280000A81D00F070FD1822002101A800F071FD44
:1028100001A83F210180C731418007A80390A41D72
:10282000E4B204946846059001200690002101A8B6
:1028300000F09CFB002801D5FF2005E068460078E9
:10284000002801D0684600782AB070BD37B58EB038
:102850001C0002220EA907A800F045FD07AD0222C8
:102860000FA9A81C00F03FFD022210A9281D00F0AE
:102870003AFDAC71012C01D1022400E010242200A9
:102880001499E81D00F02FFD1822002101A800F086
:1028900030FD01A83F210180D731418007A8039076
:1028A000E41DE4B204940F200290684605900120D4
:1028B0000690002101A800F059FB002801D5FF2057
:1028C00001E06846007811B030BD73B5A8B01400BF
:1028D0001E00601D812801DB42202FE0022228A972
:1028E00007A800F000FD07AD022229A9A81C00F0EE
:1028F000FAFC2C7122003100681D00F0F4FC182253
:10290000002101A800F0F5FC01A83F210180E2317F
:10291000418007A80390641DE4B204940F20029044
:102920006846059001200690002101A800F01EFBDA
:10293000002801D5FF2001E0684600782AB070BD6C
:1029400030B58FB00D0014001900152A01D34220B4
:1029500022E007AB18805D801C71581D00F0C3FC9D
:102960001822002101A800F0C4FC01A83F21018029
:10297000E431418007A80390641D049468460590E3
:1029800001200690002101A800F0F0FA002801D5EE
:10299000FF2001E0684600780FB030BD0EB400B5EE
:1029A000A0B021AB02008021684600F0ADFC962368
:1029B0005B0082B26946054800F0F6FC002801D0B1
:1029C00001F0BAF8209824B0004700000C04002061
:1029D00030B587B00121504A13680B431360126869
:1029E0000A400092009A00BF18A24300D55A0195F0
:1029F0000291039103210491484980000C1801A918
:102A0000206801F02DF900222900206801F0EDF97D
:102A100007B030BD80B5012202E0000080B5002281
:102A20000AA14300C95A3D4B8000185801F0DDF956
:102A300001BD000080B500BF04A14200895A374A99
:102A40008000105801F0D7F901BD000020000000FF
:102A5000F0B587B00E0004222F490B6813430B60BA
:102A60000B681A400092009A8A68012313438B6016
:102A700007002B48B9004018009003240025002EC1
:102A80000DD100BF23A07900405A01900295022089
:102A90000390049401A90098006801F0E1F8012E68
:102AA00028D100BF1BA07900405A019003951D4812
:102AB000029001A90098006801F0D2F80EA0C05D54
:102AC0000440E400FF22A240D143C022A24044B20D
:102AD000002C04D5144B2407240F083C00E0134BB2
:102AE000A408A4001B191C6821400A431A6040B2C4
:102AF00001F0BDF907B0F0BD0700000080B500BFD0
:102B000004A14200895A064A8000105801F067F972
:102B100002BD0000002000002C1002402C0100200B
:102B200030010020000011101CED00E000E400E086
:102B300010B58AB01C006B46187059709A70072245
:102B4000002101A800F0D5FB1822002103A800F005
:102B5000D0FB03A83F2101808A214180684605906F
:102B60000320069001A8079007200890002103A8E1
:102B700000F0FCF9002801D5FF201AE001A8017837
:102B8000002901D0084614E0417882781206120C20
:102B900011432180C17802791206120C11430C9A5C
:102BA0001180417982791206120C11430D9801802F
:102BB00000200AB010BD70B58AB00D0014001E00D0
:102BC000694608700722002101A800F092FB182234
:102BD000002103A800F08DFB03A83F2101808A217A
:102BE0004180684605900120069001A807900720C3
:102BF0000890002103A800F0B9F9002801D5FF20B2
:102C000018E001A80178002901D0084612E04178B7
:102C100082781206120C11432980C17802791206BB
:102C2000120C11432180417982791206120C114352
:102C3000318000200AB070BDF6B591B01F00199D1B
:102C40001B9EA9190E31292901D342204EE007AC61
:102C50002070022211A9601C00F045FB022212A97B
:102C6000E01C00F040FB67711898A071E5712A0024
:102C70001A992000083000F036FB0835EDB2665591
:102C80006D1CEDB232001C99601900F02CFBAD19DF
:102C9000EDB202221DA9601900F025FBAD1CEDB2BA
:102CA00002221EA9601900F01EFB1822002101A8B3
:102CB00000F01FFB01A83F2101808321418007A86C
:102CC0000390AD1CEDB20495684605900120069076
:102CD000002101A800F04AF9002801D5FF2005E0F5
:102CE00068460078002801D06846007813B0F0BD2F
:102CF00070B58EB00E0011001D0007AC207066701C
:102D00001022A01C00F0EFFAA5741298E07413983A
:102D1000207521001531149801F0D6F815986076C9
:102D20001822002101A800F0E4FA01A83F21018047
:102D30008621418007A803901A20049068460590D8
:102D400001200690002101A800F010F9002801D50B
:102D5000FF2005E068460078002801D0684600782A
:102D60000EB070BD30B58DB00D00190007AC2080DD
:102D7000658022710622601D00F0B5FA1098E0729D
:102D80001198A0811298E081139820821498608293
:102D90001598A0821698E0821822002101A800F060
:102DA000A8FA01A83F2101809C21418007A8039037
:102DB000182004900F20029068460590012006908C
:102DC000002101A800F0D2F8002801D5FF2001E081
:102DD000684600780DB030BD80B501F0A8F802BD9E
:102DE00080B501F0A7F801BD38B5B84C201D01F041
:102DF000B1F820000C3001F0ADF800258C206843BC
:102E000021181431201D01F0BEF86D1C052DF5DBD5
:102E100031BD010008310A78042A01D00120704731
:102E2000897888300078C01E814201D00220704726
:102E30000020704730B5A1B00025009501F059FA87
:102E4000A24C10E0694620000C3001F0B2F801F00D
:102E50004BFA00980830FFF711FB01F04AFA00998D
:102E6000201D01F090F820000C3001F076F80028C9
:102E7000E8D0207800280AD10EE0802201A99448E9
:102E800001F09AF9000602D001A8FFF7F7FA01F065
:102E900089F90028F1D1257001F026FA21B030BD62
:102EA00038B50020009001F029FA894D04E0201D7A
:102EB00001F05FF801F022FA01F074F9002824D043
:102EC000824C201D01F049F800281AD16946201DC6
:102ED00001F06FF8802200990831280001F06CF9A8
:102EE000C0B200280099E2D0883108700098FFF73E
:102EF00090FF00280099DAD10C34200001F043F84B
:102F0000D8E70120207001F0F9F931BD80B501F05A
:102F1000F7F801BD30B583B014001D0001AA890582
:102F2000890D800208431080947068460121017069
:102F3000032201A9401C00F0D6F923000422290035
:102F40006846FFF7E3FF37BD38B504000D0007E022
:102F50006946280001F02DF80099200001F013F8CF
:102F6000280000F0FAFF0028F2D031BDF0B587B09C
:102F700005000F0068888005800D298889020143BB
:102F800089B20491534800680A21FEF752FD0600F9
:102F90000020009002A800F0DDFFAB68EA68D2B222
:102FA00069882888FFF7B6FF484C002F5DD1002EB6
:102FB00000D10126310005A800F000F904E002A8C4
:102FC00000F0E1FF01F090F905A800F0FFF80028FB
:102FD00071D120000C3000F0C0FF0028F4D101F0C6
:102FE00088F9694620000C3000F0E3FF009A0832AF
:102FF000107804280099E2D10B31009888300078CD
:10300000C01E52780E2A3ED00F2A04D0102A52D069
:103010003E2A43D00DE08A78CB781B061B0C1A435E
:10302000049B9A4247D16A680F2A15D00878002875
:1030300041D1009902A800F0A6FF201D00F08DFFED
:103040000028BFD001A920000C3000F0B2FF019988
:10305000201D00F098FFB5E76A69904200DD10007E
:1030600068610246286900F03EF90099201D00F0D1
:1030700080FF02A90C342000FFF766FF01F034F94D
:10308000002007B0F0BD4A788B781B061B0C1A4352
:10309000049B9A420FD1C91CC01EDDE70A786B68F9
:1030A0009A42C6D1401E6A69904200DD10006861F4
:1030B0000246491CD6E702A90C342000FFF744FF62
:1030C00001F012F90020C043DBE700003C010020C2
:1030D0007C040020E8520008F0B589B006000D001D
:1030E00014001F0009220021684600F002F918228E
:1030F000002103A800F0FDF803A8042101800121AC
:1031000041800020059006906846079009200890AD
:10311000002103A8FFF72AFF002801D5FF2019E0AE
:1031200068460178002901D0084613E041783170E3
:103130004188298001792170417982791206120C27
:1031400011433980C179027A1206120C11430E988C
:103150000180002009B0F0BD30B58FB004000D0033
:103160002022002107A800F0C4F807A80470202C32
:1031700001DB1F2200E022002900401C00F0B3F810
:103180001822002101A800F0B4F801A8082101804C
:103190000921418007A803902020049068460590EB
:1031A00001200690002101A8FFF7E0FE002801D5CC
:1031B000FF2001E0684600780FB030BD10B5040074
:1031C0006160FFE7FFF708FE206010BD10B5040046
:1031D000FFF702FE61682268801A401C814280412C
:1031E000C00F10BD9D2102000AD002D4491E9218C2
:1031F000FCD5C905100A1206524100D3012A4841E4
:10320000704730B405004D400122D20715404B18DD
:103210000418240E28D01B0E2FD0FF2C34D0FF2BE7
:1032200037D0E41A0002090210431143430848084A
:10323000D10D1B1A02D2641EDB181B18DB18834247
:1032400000D31B1A4941F9D37F3426DDFE2C08DA5E
:10325000E4054808C907194391416041284330BC3F
:103260007047FF20C005F9E728001B0E03D0FF2B95
:10327000F5D14902F3D0D043F1E7FF2C01D1400250
:10328000F9D1FF20C005E9E74002F4D1FF2BF8D1C6
:10329000F1E728004902E2D0EDE70B0200202442CA
:1032A000DCD15B129B1CD9D9D805D7E70122D20704
:1032B0000118090E7F3910D449421F310FD400186C
:1032C00005D2C0011043C84000D5D0437047C001AB
:1032D0001043C84005D44042704700207047004268
:1032E000F3D51000704710B50400FEF7E7F8200092
:1032F00010BD10B5040010000A000100200001F00C
:1033000019F8200010BDFEE718B583B00024029420
:10331000002902D10094019402E00090491E01911D
:1033200003AB6946064878441630FCF7C9FE00999D
:10333000002900D00C70002800D4029804B010BD01
:103340003D1F000038B5040001D1012032BD250029
:1033500068356878002803D12870200000F094FABE
:1033600002206870206801680122914301602000FA
:1033700000F077F8606A002802D0200000F096F98B
:1033800020684168074A0A404260206881682A2212
:10339000914381602068016801220A430260200095
:1033A0005CE00000FFB7FFFFF8B506000C00350039
:1033B0005035687E012802D0687E22284AD1002C30
:1033C00001D0002A01D10120F2BD287E012841D080
:1033D000012028760027EF61687E222801D1322063
:1033E00000E0122068762A806A8005E02088C00507
:1033F000C00D31688862A41C6888002816D0401E61
:103400006880009B00228021300000F0BBF900287A
:1034100014D1B06880214901884202D13069002866
:10342000E4D0207831688862641CE5E7009B0022C4
:103430004021300000F0A6F9002801D00320F2BDA1
:10344000687E322801D1222000E0012068762F76A4
:103450000020F2BD0220F2BD1D604A7000F0F1F8BC
:1034600032BDF8B504000020002125682A68894B88
:103470001340A2681A432369134362691A43E3693C
:1034800013432B606A68844B1340E2681A436A60F6
:10349000A369824A954202D01E00236A3343AE6874
:1034A0007F4F37403B43AB6010267E4B9D421DD182
:1034B0007D4BDB6C9B079B0F04D0022B37D022D3B4
:1034C000032B32E00121D20BE369934200D090E05C
:1034D000002908D001296ED002296FD0042976D0A6
:1034E000082978D07BE001F0ABFA72E0A14B9D4255
:1034F0000BD16D4BDB6C0C271F40042F03D0082F22
:1035000015D00C2F11E0042114E0954212D1664B26
:10351000DF6CC0231B013B40170DBB42F3D0D70C1F
:10352000BB4204D0C0273F01BB4202D002E00221CF
:1035300000E008219542C6D18F4D002906D002290E
:1035400007D0042914D0082928D0F1BD01F078FA59
:1035500010E06068FEF770F902000B005248006846
:10356000064002D0002085491FE0002084491CE06D
:1035700001F01EFAFEF760F90022B14BFEF7B0FA37
:1035800006000F006068FEF757F902000B003000DC
:103590003900FEF767FBFEF72DF949E06068FEF79A
:1035A0004BF902000B000020A649FEF75BFBFEF77B
:1035B00021F92860F1BD01F04DFA0AE061683A484E
:1035C0000068064001D0A04807E0A04805E001F0EF
:1035D000EFF9400000E050006168FEF72AFA9C4ACB
:1035E00002400006400E4007400F02432068C260C0
:1035F000F1BD002908D0012909D002290AD00429E7
:1036000011D0082917D0F1BD01F01AFA0DE001F030
:1036100021FA0AE0616824480068064001D08D481C
:103620000BE08D4809E001F0C3F96168FEF701FA8B
:103630002168C860F1BD10006168FEF7FAF9E86022
:10364000F1BD38B50400854D20680068000708D535
:103650002B00002280218903200000F093F800282D
:103660000CD12068006840070AD52B000022802179
:10367000C903200000F086F8002801D0032032BDE5
:10368000683400202070606001206070002032BD2E
:1036900000000000F369FFEFFFCFFFFF004800408C
:1036A000FFF4FFFF00380140001002402421415C7C
:1036B000C90706D501684A68694B1340826A1A43F4
:1036C0004A602421415C890706D501684A68654B38
:1036D0001340C26A1A434A602421415C490706D557
:1036E00001684A68604B1340026B1A434A60242108
:1036F000415C090706D501684A685C4B1340426B80
:103700001A434A602421415CC90606D501688A68CB
:10371000574B1340826B1A438A602421415C89060F
:1037200006D501688A68534B1340C26B1A438A60FE
:103730002421415C490611D501684A684E4B13406B
:10374000026C1A434A60026C80235B039A4205D1E3
:103750004A684A4B1340426C1A434A602421415C38
:10376000090606D501684A68454B1340806C18432A
:1037700048607047004400400C4800408084CE41BF
:103780008084EE41FFB583B000F0D1FB0190039837
:103790006830009001270124E4433A4D0026684632
:1037A000007D002816D103980068C0690499014083
:1037B0000498814240D006980021C9438842F2D043
:1037C00000281DD000F0B3FB0199401A06998142F0
:1037D000E9D215E003980068C06904990140049893
:1037E000814229D106980021C9438842F2D000289D
:1037F00006D000F09CFB0199401A06998142E9D25B
:103800000398006801688022914301600398006872
:1038100001682022914301600398006801680D400F
:1038200005600398006881680C40846000984770C8
:1038300000980670032000E0002007B0F0BD0000F3
:10384000000070400000604100127A000048E8016A
:10385000F0FF000000093D000024F400F0550000D6
:10386000FFFFFDFFFFFFFEFFFFFFFBFFFF7FFFFFEF
:10387000FFEFFFFFFFDFFFFFFFFFEFFFFFFF9FFFF8
:10388000FFFFF7FFFFFEFFFF30B587B00120A04923
:103890000A6802430A600A6802400092009A0A68B5
:1038A00002430A600A6802400092009ACA68430410
:1038B0001343CB60042401940221029103900491EC
:1038C0000594A025ED0501A9280000F0C9F90820FC
:1038D0000190059401A9280000F0C2F907B030BD9D
:1038E00080B58C488C490160962189014160002196
:1038F0008160C160016181610C214161FFF722FD9E
:10390000002801D000F018F901BD000010B58EB0FC
:103910000BA800BF8CA10CC90CC009A88CA10CC9B4
:103920000CC000F0DBFA0020FFF752F80021002065
:10393000FFF78EF801F0B4F8FFF7D2FF00F000FCBB
:10394000FFF752FA00F018FC06A904A801F0DCF811
:1039500000F012FC6846028B017C00BF7EA0FFF7DE
:103960001DF86E4C6846007C312801DB0120207078
:103970006078002802D106220BA901E0062209A9DD
:1039800007A8FFF7B0FC07AA0621002001F0E8F81D
:10399000002804D0010000BF74A0FEF7FFFFFEF76F
:1039A00059FE002803D000BF78A0FEF7F7FF20786B
:1039B0006178012913D101280AD104A8801C019043
:1039C00005A8009005AB9B1C07220021012012E0F6
:1039D00004AB9B1C05AA05A9891C012014E0012841
:1039E0000CD104A8801C019005A8009005AB9B1C7D
:1039F000072200210420FFF79BF807E004AB9B1C83
:103A000005AA05A9891C0320FFF7D5F8002802D0D4
:103A100063A0FEF7C3FF01200390414802900020FD
:103A20000190102000900723002200210120FFF7C1
:103A30005FF9002803D100BF5EA0FEF7AFFF6078FA
:103A400001280BD161A0FEF7A9FFFEF7FDF90028C0
:103A500002D100BF65A002E06CA000E073A0FEF7F9
:103A60009DFF0421012001F0AFF8FFF7E3F900F01A
:103A700001F8FAE7F0B585B02A4C2078002803D089
:103A8000FEF784FA00202070274F284C2348407806
:103A9000002822D1264D274E2068002805D03078F6
:103AA000002802D1FEF7FCFA07E02068002804D0C5
:103AB0002878002801D1FEF725FB206800280CD0CB
:103AC0003078002809D02878002806D038780028D7
:103AD00003D1FEF7A3FFFEF7D5FB0020FFF70EF89A
:103AE000002813D10020FFF709F80028FAD0206839
:103AF00000280BD03878002808D0684653A114223B
:103B0000FDF7F0FC14216846FEF742FB05B0F0BD5E
:103B10002C1002400C04002000440040380100201A
:103B200040E20100FC000020FD0000201001002008
:103B3000010100200001002080B50020FEF77AFF7F
:103B4000642000F0F7F9F8E7BB0000E18002000014
:103B5000AA0000E1800200004857766572202564C3
:103B60002C2046577665722025640A0053657474CC
:103B7000696E672042445F41444452206661696C2B
:103B80006564203078253032782E0A00474154543D
:103B90005F496E6974206661696C65642E0A000075
:103BA0004741505F496E6974206661696C65642E97
:103BB0000A000000424C4520537461636B20496E3B
:103BC000697469616C697A65642E0A0053455256BE
:103BD00045523A20424C4520537461636B20496E34
:103BE000697469616C697A65640A0000536572766C
:103BF00069636520616464656420737563636573DC
:103C00007366756C6C792E0A000000004572726F45
:103C100072207768696C6520616464696E672073DF
:103C20006572766963652E0A00000000434C4945C1
:103C30004E543A20424C4520537461636B20496EC8
:103C4000697469616C697A65640A000030313233E5
:103C50003435363738394142434445464748494A66
:103C6000FFB5002401232FE00625B5403D43039E08
:103C70003560684D2E68009FFD432E404F68FF035E
:103C800002D53700009E3E43624F3E607E682E4064
:103C90004F68BF0302D53700009E3E435D4F7E60F4
:103CA000BE682E404F68FF0202D53700009E3E439B
:103CB000584FBE60FE6835404E68B60202D52E00F1
:103CC000009D3543FD60641C0D682E00E64000D168
:103CD00084E00126A6402E400096009D002DF2D0E3
:103CE0004D68022D01D0122D18D1E508AD004519FF
:103CF0002E6A01966607F60E6F463E72019FBC461D
:103D00006E46377A0F26BE406746B743BC460F69FA
:103D10006E46367AB740664637432F626600032701
:103D2000B740FD4301954D68012D05D0022D03D00C
:103D3000112D01D0122D10D18768019D3D40CF6813
:103D4000B7402F43876047680125A540AF434D68C2
:103D50002D091D40A5403D4345600768019D3D403C
:103D60000F79BF07BF0FB7402F430760C768019D9A
:103D70003D408F68BC4637006646BE402E43C66055
:103D80004D68ED009FD5244D2D681D43224E3560B2
:103D9000224DA608B600AD1903952F68A5072E0F72
:103DA0000F25B540AF43A025ED05A84201D1002560
:103DB0005BE71B4DA84201D1012556E7194DA842EA
:103DC00001D1022551E7184DA84201D103254CE746
:103DD000164DA84200D047E7052546E7FFBD00691C
:103DE000084000D00120C0B27047002A01D0816194
:103DF00070478162704742694A40426170470C4A8D
:103E00001368034000D1704780B5106000F003FFD5
:103E100001BD0000000401403410024008000140D0
:103E20000004005000080050000C0050001C00501E
:103E30001404014010B58207D30EFF249C40E243D6
:103E40008907090E9940030004D51A481B071B0F68
:103E5000083B00E018489B089B00C01803681A4004
:103E60001143016010BD80B5FFF7E4FF01BD0121E2
:103E7000C006C00E81401148016070470121C00694
:103E8000C00E81400E480160704710B5401E802171
:103E90004904884201D3012010BD0A4C606003210F
:103EA0000020C043FFF7C6FF0020A060072121606B
:103EB00010BD00001CED00E000E400E000E100E0C7
:103EC00080E100E010E000E084460870000A4870DD
:103ED000000A8870000AC8706046704780B51B48A9
:103EE000016840220A430260016802229143016096
:103EF000032000F005F800F002F8002002BD704732
:103F000010B5040000F08EFDFA218900FDF791FD47
:103F1000FFF7BBFF002221000020C043FFF7A3FFF3
:103F2000002010BD0A480168491C0160704708481C
:103F30000068704711B581B0FFF7F9FF0400FFF783
:103F4000F6FF001B01998842F9D313BD00200240FF
:103F5000DC040020006040607047EFF3108172B60F
:103F60000268824201D1012000E0002081F3108824
:103F70007047EFF3108272B603680B60486001600F
:103F80000868416029E0EFF3108272B60860436868
:103F90004B604160486801601FE0EFF3108172B62A
:103FA000026843681A6042680068426081F31088C2
:103FB000704738B50C00EFF3108572B601682160C8
:103FC0000068FFE7FFF7E9FF00202168086021682B
:103FD000486085F3108831BD086082F3108870470F
:103FE00000686449884200D07047F0B587B001246A
:103FF000BC4801682143016001682140009100999B
:104000000226016831430160016831400091009946
:104010000168214301600168214000910099016815
:10402000214301600168214000910099016821430A
:1040300001600168214000910099016821430160FD
:1040400001682140009100998168820C0A438260D6
:10405000870D01970294039400250495059501A905
:10406000A020C005FFF7FCFD00223900A020C005FC
:10407000FFF7BBFE082001900296039603270497E2
:10408000059501A9A048FFF7EBFD4020019002969D
:1040900003950497059501A9A020C005FFF7E0FD51
:1040A00080200190029603950497059501A9A02010
:1040B000C005FFF7D5FD019602940394049705957A
:1040C00001A9A020C005FFF7CBFD01220221A020FD
:1040D000C005FFF78AFE01948C480290039504976F
:1040E000059501A9A020C005FFF7BAFD0022032114
:1040F0000520FFF7B8FE0520FFF7B9FE07B0F0BDB9
:10410000F1B584B00F0016001D00814800680A2137
:10411000FDF78FFC010001A8FFF750F87D4CE8B2D5
:104120000090F3B23A000499200000F091F80028C2
:1041300004D001A8FFF74AF80028F0D005B0F0BD80
:1041400080B574480B49016082214900416000211B
:104150008160C160016141618022920082610162DF
:1041600041620722C2620822C261816200F058FDEA
:1041700001BD00000030014038B5A024E4058025D1
:104180006D00002229002000FFF72FFE0520FFF719
:10419000D1FE012229002000FFF727FE0520FFF7AE
:1041A000C9FE31BD80B50121A020C005FFF717FE73
:1041B000012800D0002002BDF3B587B0160000250D
:1041C0000024FF206946487104A800BF53A10CC910
:1041D0000CC000220221A020C005FFF706FE0F2020
:1041E0000090052302AA04A9079800F05BFD02A82D
:1041F0000178022919D101790F02C078074314D040
:10420000BE420FDA37000DE00F200090012301AA13
:1042100001A9491C079800F045FD684600790899F6
:104220000855641CE4B2BC42EEDB01220221A0204E
:10423000C005FFF7DAFD009503E000BF0098401CC1
:10424000009000980228F8DB200009B0F0BD0000C3
:10425000F6B5C5B007001E00002403A831A10CC9A3
:104260000CC001A831A10CC90CC00520FFF706FE47
:1042700000220221A020C005FFF7B7FD0F2000900B
:10428000052301AA03A9380000F00CFD01A801785C
:1042900002291AD14C9D40787119884214DB002EF6
:1042A00007D00F200090330005AA4599380000F090
:1042B000F9FC002D0AD00F2000902B0005AA46998A
:1042C000380000F0EFFC01E00124E4430122022168
:1042D000A020C005FFF789FD0520FFF7C8FD2000DD
:1042E00047B0F0BD2C10024080B50520FFF7BFFDA0
:1042F00001BD80B50520FFF7C1FD01BD01200649C4
:104300000860704700000000000400500000111019
:10431000E85200087C040020140401400B00000057
:10432000000000000A00000000000000AA000000D9
:10433000000000001206130A1A43130C1A4300BFB0
:10434000094205D0830705D00270401C491EF9D1EF
:1043500070470000130030B414001500103902D368
:1043600010393CC0FCD2490700D30CC000D504C0B2
:10437000890002D30280801C002900D5027030BC65
:10438000704700000022E5E7F8B50400B24D207840
:10439000C0074FD58027BF02E8680C2101400829DB
:1043A00007D0E8680C2101400C290AD1E868C00355
:1043B00007D5286807403DD0606800283AD1012021
:1043C000F2BD60687908884201D128680DE0AF49E4
:1043D000A022D2029042286809D1014029602868B1
:1043E00079000143296028687908014304E001400D
:1043F00029602868B84901402960606800280CD00D
:10440000FFF795FD06002868384013D1FFF78FFDB0
:10441000801BB2498842F6D3BBE1FFF788FD060056
:104420002868384006D0FFF782FD801BAB498842E0
:10443000F6D3AEE102272068384019D0E8680C2195
:104440000140042907D0E8680C2101400C2942D121
:10445000E868C0033FD42868400702D5E068012817
:10446000ADD16868B5490140206900020843686021
:104470002078C00619D5E8680C2101404FD1286882
:10448000800502D5E069002899D06868AC490140F0
:10449000606A0843686068680002000A216A0906C9
:1044A000014369600320FFF72BFD2078000775D5D5
:1044B00060690028286D62D0012101432965FFF75A
:1044C00036FD0600286D384068D1FFF730FD801BAF
:1044D0006528F7D35DE1E0680921C94300280FD0C2
:1044E0002A68114008432860FFF721FD060028686C
:1044F0004007B6D4FFF71BFD801B6528F7D348E1C2
:10450000286801402960FFF712FD0600286840076F
:10451000AED5FFF70CFD801B6528F7D339E1E069C4
:10452000002828681CD0A90D01432960FFF7FFFC73
:1045300006002868800505D4FFF7F9FC801B652874
:10454000F7D326E168687E490140606A08436860E5
:1045500068680002000A216A090601436960A4E74D
:104560008E4901402960FFF7E2FC060028688005BB
:104570009BD5FFF7DCFC801B6528F7D309E10121FF
:1045800088432865FFF7D3FC0600286D384005D026
:10459000FFF7CDFC801B6528F7D3FAE02078800672
:1045A0002ED57F48A1690029A96816D001220A43A7
:1045B000AA60696B01220A436A6301686A0C0A43B4
:1045C0000260FFF7B4FC0600A868384018D1FFF776
:1045D000AEFC801B6528F7D3DBE001229143A96084
:1045E0000168704A0A400260FFF7A1FC0600A86853
:1045F000384005D0FFF79BFC801B6528F7D3C8E047
:104600002078400700D47BE000200027694608702E
:1046100080204005A96B014003D1A96B0843A86322
:10462000012761480068C00518D45F480068A90DDB
:1046300001435D480160012069460870FFF777FC7F
:10464000060059480068C00508D4FFF770FC801BBD
:104650006528F6D39DE000BF00100240A168A80DB8
:1046600081420ED05148002912D0A022D20091429E
:104670000ED1286D494901402965286D290D014356
:104680002965286DA90D0143296508E0FFFFFEFF9C
:10469000296D424A0A402A65296D08402865A068AC
:1046A00000280CD0FFF743FC0600286D800517D4C6
:1046B000FFF73DFC801B09498842F6D369E0FFF70C
:1046C00036FC0600286D80050AD5FFF730FC801BFC
:1046D00002498842F6D35CE0FFFFFBFF891300002C
:1046E00068460078002805D02F4800682B49014013
:1046F0002D480160002F03D0A86BA8490140A96391
:10470000A06A002847D0E9680C220A400C2A00D190
:1047100055E68027BF04A249022828682CD1014011
:104720002960FFF704FC0600286838400AD0FFF72C
:10473000FEFB801B6528F7D32BE000BFFFE0FFFFE7
:10474000FF1FFFFFE86897490140206B0843616B3A
:104750000143E06A0843E86028687908014329605A
:10476000FFF7E5FB06002868384014D1FFF7DFFBB0
:10477000801B6528F7D30CE001402960FFF7D7FBC9
:1047800006002868384006D0FFF7D1FB801B65285B
:10479000F7D30320F2BD0020F2BD0000FFFEFFFFB3
:1047A00020000140FEDFFFFF00700040FFFBFFFF25
:1047B000F2B504007C4F0320C0437C4DF021C94377
:1047C0000222974B1E68F307DB0F009EB34265D2AF
:1047D000934B1B680126B343009E1E43904B1E6003
:1047E0001E68F307DB0F009EB3421BD123681A40FB
:1047F00004D0EA681140A2680A43EA602178C90738
:1048000000D4B3E06168022902D12A68920308E06B
:10481000002902D12A68920503E003292A6802D1FF
:10482000920102D4A0E05207FCD5EA68104001438F
:10483000E960FFF77CFB0600606802280AD1E8689F
:104840000C210140082917D0FFF771FB801BB842EB
:10485000F5D379E003280AD1E8680C2101400C293E
:104860000AD0FFF764FB801BB842F5D36CE0002848
:1048700009D1E8680C21014078D0FFF758FB801B74
:10488000B842F6D360E0E8680C21014004296DD0FD
:10489000FFF74DFB801BB842F5D355E023681A4063
:1048A00004D0EA681140A2680A43EA602178C90787
:1048B0004CD56168022902D12A68920308E00029D8
:1048C00002D12A68920503E003292A6802D19201E5
:1048D00002D449E0520747D5EA6810400143E96035
:1048E000FFF725FB0600606802280AD1E8680C2162
:1048F000014008292AD0FFF71AFB801BB842F5D3E4
:1049000022E003280AD1E8680C2101400C291DD0BF
:10491000FFF70DFB801BB842F5D315E0002809D145
:10492000E8680C21014011D0FFF701FB801BB84261
:10493000F6D309E0E8680C210140042906D0FFF70E
:10494000F6FA801BB842F5D30320F2BD3448006864
:104950000121884300990143314801600068C10783
:10496000C90F0098814201D00120F2BD2078400794
:1049700005D5E8683D490140E0680843E8602078D3
:10498000000706D5E8683A4901402069C00008439D
:10499000E8600320FFF7B4FA0020F2BDFFFFFFEF4D
:1049A000FFFFFFFEFFFF02FF89130000001002401F
:1049B000F0B5314D6868314A530054081026E96853
:1049C0000C270F40042F04D0082F09D00C2F09D03A
:1049D0001FE02868064001D02000F0BD1800F0BD9F
:1049E0001000F0BDE868E96826A78002000F385C77
:1049F0000902890F491CEF68FF0306D42A68164094
:104A000001D0604302E0584300E05043FDF711F845
:104A1000F0BD01210004400F401C8140C803F0BDDF
:104A20000020024080B5FFF7C3FF00BF18A1114A64
:104A300012681206120F895CC8401149086002BD55
:104A400080B5FFF7EFFF00BF11A10A4A12685205B7
:104A500008E0000080B5FFF7E5FF00BF0CA1054AA4
:104A600012689204520F895CC84002BDFFF8FFFF34
:104A7000FFC7FFFF0C1002400010024000127A0036
:104A800034010020030406080C1018203000000038
:104A900000000000010203040102030406070809E4
:104AA00070B594B0154C6068802149050143616080
:104AB00013480168134A0A40C10C114301600220E7
:104AC000059001250895102109910F900026109658
:104AD000400411900001129005A8FFF755FC0095C5
:104AE0000320019002960396049601216846FFF781
:104AF0005FFE20680543256014B070BD341002408D
:104B000000700040FFE7FFFF70B584B005000C00A7
:104B100001A8009002AB9B1C02AA01A9891C02A853
:104B2000401CFEF7D9FAC6B2002E14D16846C088E0
:104B3000000A28706846C08800022080694689887B
:104B40000906090F09010143218068468088000792
:104B5000000F08432080FEF76DF9300004B070BDEF
:104B600010B5A8B003000C001100A01C812801DBC7
:104B7000422027E007A8037044702200801CFEF743
:104B8000B2FB1822002101A8FEF7B3FB01A83F21C8
:104B900001800C21418007A80390A41CE4B2049476
:104BA0006846059001200690002101A8FEF7DEF975
:104BB000002801D5FF2005E068460078002801D0D4
:104BC0006846007828B010BD00B589B001AA107001
:104BD00051701822002102A8FEF78BFB02A83F218A
:104BE00001800F21418001A80490022005906846B1
:104BF000069001200790002102A8FEF7B7F90028CF
:104C000001D5FF2005E068460078002801D06846FD
:104C1000007809B000BD80B5FEF742F901BDFEE79E
:104C200070B5040001D1012070BD2500503500266B
:104C30006878002803D12E702000FFF7D1F90220F8
:104C40006870206801684022914301606068A16833
:104C50000143E06808432169014360690843A16991
:104C6000D20011400143E0690843216A0143A06A70
:104C7000084321680860A069000C04210840616AAB
:104C8000014320684160E06A216808612068C169C9
:104C9000034A0A40C2616E6001206870002070BD46
:104CA000FFF7FFFFF8B5040000276D462F802500B1
:104CB00050356878012803D06878222800D053E165
:104CC000002902D0002A00D0002B00D147E128782B
:104CD000012800D148E1012028706878012801D11D
:104CE000322068706F60A263A387E3872163A38685
:104CF000E386A764E764A06A8021890188420AD11B
:104D000020680168994A0A40026020680168802290
:104D100092010A4302602068402102680A4002D1E1
:104D200002681143016082204000069EE1688022F3
:104D300012019142616864D1002904D081420CD1F2
:104D4000E08E012809D1206B00882168C860206BA3
:104D5000801C2063E08E401EE086E08E00283AD161
:104D6000A06A910088423CD12068016852000A4341
:104D7000026036E0330000220221200000F0F8F843
:104D8000002835D1206B00882168C860206B801C0A
:104D90002063E08E401EE08600040AD1A06A8021D4
:104DA0008901884205D120680168802252010A43A6
:104DB0000260330000220121200000F0D9F8002811
:104DC00016D12068C068A16B0880A06B801CA0630E
:104DD000E08F401EE087E08E0028CBD1606800287D
:104DE0006CD1330000220121200000F0C1F800281E
:104DF0006DD12068C068A16B0880A06B801CA06387
:104E00006DE0002904D081420BD1E08E012808D149
:104E1000206B411C216300782168C860E08E401E31
:104E2000E086E08E002844D1A06A9100884204D137
:104E30002068016852000A43026033000022012109
:104E4000200000F095F8002841D12068C068A16BCF
:104E5000087044E0330000220221200000F088F8AE
:104E6000002834D1206B411C216300782168C86080
:104E7000E08E401EE08600040AD1A06A80218901EC
:104E8000884205D120680168802252010A430260ED
:104E9000330000220121200000F06AF8002816D11A
:104EA000A06B411CA1632168C9680170E08F401E9E
:104EB000E087E08E0028CDD16068002812D1330051
:104EC00000220121200000F053F8002801D0032027
:104ED000F2BDA06B411CA1632168C9680170E08F1D
:104EE000401EE087A06A80218901884212D13300E8
:104EF00000220121200000F03BF8002804D068685F
:104F0000022101436960E2E72068C06869460880C1
:104F100068460088330001228021200000F028F834
:104F2000002802D068682021EBE701206870A06AA1
:104F300080218901884214D120688168C90610D572
:104F4000696802220A436A600168084A0A400260EE
:104F500020680168802292010A4302602F700120BC
:104F6000F2BD2F700020F2BD0220F2BDFFDFFFFF77
:104F7000FFB581B0FEF7DBFF00902D4FFC434025CD
:104F8000ED43E026F6436846007B002816D10198E1
:104F900000688068029901400298814244D00498D8
:104FA0000021C9438842F2D000281DD0FEF7BFFF80
:104FB0000099401A04998142E9D215E001980068ED
:104FC000806802990140029881422DD10498002105
:104FD000C9438842F2D0002806D0FEF7A8FF009906
:104FE000401A04998142E9D20198006841680E4054
:104FF00046600198006801680D4005600198806A6C
:10500000A04209D10198006801680F40076001982B
:10501000006801680C430460019850300121417020
:1050200000210170032000E0002005B0F0BD000069
:10503000FFDFFFFF816807E00268116851185368BD
:10504000CB18C36008320260C2689142F4D04A1C97
:10505000826008787047F0B587B00100083102918E
:1050600002685208D200891803910025049505951D
:1050700001684908C9004418083440686946C307F4
:10508000DB0F4B704008C00020180190002735E06E
:1050900002A8FFF7CFFF46B20AE002980168401865
:1050A00004900299496840180590029808300290CF
:1050B000049805998842F0D001786A461170401C26
:1050C0000490BD4210D10198844201D100F01EF835
:1050D000256868464078002801D048462D18606849
:1050E0002F180834BD42EED06846007828706D1C39
:1050F000002E08D5761CE4D1BD42C9D10198844266
:10510000C6D107B0F0BD761ED2D5F5E780B5012037
:1051100000F002F801BDFEE780B5C046C046024A75
:1051200011001820ABBEFBE7260002000F48016803
:10513000820D0A430260C1680D4A0A40C2600168DC
:105140000C4A0A4002608168012291438160016833
:10515000094A0A400260C168084A0A40C260002148
:105160000161802000050649086070470010024078
:105170000C40FF88F6FFF6FEFFFFFBFFFFFF02FF7C
:1051800008ED00E07047FEE770477047704780B554
:10519000FEF7C8FE09480168491C016001BD80B5E1
:1051A0000120FEF72CFE01BD80B580208001FEF7B6
:1051B00026FE01200249087001BD0000E004002025
:1051C000E904002070B40121002313E00468001DED
:1051D0000C4202D04D466D1E64192360241D121F1F
:1051E000042AFAD22500960701D52380AD1C0A4077
:1051F00000D02B700268001D002AE7D170BC7047F8
:105200000000000000000000686A6C747A4C000026
:1052100000000000000000006E616E004E414E0074
:10522000696E6600494E460010B507497944183149
:10523000064C7C44163404E0081D0A688918884727
:105240000100A142F8D110BD0800000030000000AC
:1052500075FFFFFFB00300003C01002000000000CC
:10526000F7FDFFFF0200000002000000A0000000A8
:105270001C000000000000203A0100008268521C5F
:1052800082604268002A06D00268531C03601170D5
:105290004168491E4160704700F00BF8002801D0BA
:1052A000FFF7C2FF0020C046C046FEF72FFB00F00C
:1052B00002F80120704780B500F002F801BDFEE75A
:1052C00007463846FFF728FFFBE7FEE7014880471F
:1052D000014800472D510008DD520008C046C04675
:1052E000C046C046FFF7D8FFE8030000FEE7FEE730
:1052F000FEE7FEE7FEE7FEE7FEE7FEE7FEE7FEE786
:10530000FEE7FEE7FEE7FEE7FEE7FEE7E400F8FF64
:10531000DC00FAFF8100D1000001CE000A50000835
:08532000005080841E00000112
:00000001FF
