:020000040800F2
:10000000F8080020ED610008415D0008435D00082C
:1000100000000000000000000000000000000000E0
:10002000000000000000000000000000475D000824
:10003000495D0008000000004B5D00084D5D0008B0
:10004000431E0008E73B0008BB400008EB410008E6
:10005000B34F00085F5D0008B7560008695D0008EF
:10006000AB5C0008876000089360000865620008C8
:100070006762000869620008000000006B62000807
:10008000000000006D620008000000000000000099
:100090006F620008000000007162000873620008CF
:1000A0007562000877620008796200087B620008C8
:1000B0007D6200087F620008816200088362000898
:1000C000F1B5A4B00E0014001D004A487844FF307A
:1000D000253003C822AA03C2049600200D9001E037
:1000E0000198241800206946488022AB0022D243A0
:1000F000210000A8801C01F048F90190012805DAD0
:100100002078411E8941C943C90F01916846408842
:100110002528019E00D1761E012E0EDB270039789E
:100120000498249A90470490002800D1F3E20D9897
:10013000401C0D907F1C761EF1D168464088252812
:1001400007D100200790089009900A900B900C901E
:1001500008E0684640880028C2D10D98DDE2010021
:1001600001200843641C21782029F8D023290ED0CF
:100170002B2904D02D2907D030290BD00DE0010008
:100180000220084380B2EDE701000420F9E70100F6
:100190000820F6E701001020F3E72A290FD129688B
:1001A00029600A68091D29600F92002A05D551426D
:1001B0000F9101000420084380B2641C12E000216A
:1001C0000F910AE00F9A7B4B9A4205D093009A1840
:1001D0005200511830390F91641C21780A00303ACE
:1001E0000A2AEFD321782E2906D00021C9430E9187
:1001F00021E000BF745C0000641C21782A2907D12B
:10020000296829600A68091D29600E92641C12E0A1
:1002100000210E910AE00E9A664B9A4205D0930097
:100220009A185200511830390E91641C21780A0036
:10023000303A0A2AEFD302A9088726783100044809
:1002400078440C3001F0AFF8002803D0641C02E0C1
:10025000205C0000002602A83A30067002A83A305E
:100260000078682804D12178682901D1622005E04E
:100270006C2807D120786C2804D1712002A93A316A
:100280000870641C12A806902678641C300025387B
:100290002AD01C3800D1D6E0001F022800D8D2E0B6
:1002A000133800D1F5E0093800D1CCE0801E00D130
:1002B0005EE1401E00D136E1401E022800D8C2E0B7
:1002C000001F00D12FE1401F00D18DE0401E00D162
:1002D000DFE0401E2FD0C01E0BD0801E00D1D8E022
:1002E000C01E00D1D5E066E1252012A908700120CA
:1002F0006BE102A83A3000786C282868286016D094
:100300000668001D286005960E9F002F03D530005B
:1003100001F053F809E03A000021300001F055F8EF
:10032000002801D0801B00E0380008904EE10268F0
:10033000001D286038E1286828600268001D2860D8
:100340000020C0430021104002AA03C212A8059059
:10035000069B3C2602A803C8002904D1002802D12C
:100360000E9A002A14D0761E01960207120F303220
:10037000D2B23A2A00DB27329A5500090A07104305
:10038000090901D1002803D0059A9F19BA42EAD37E
:100390003C20801B0890991905910E9988420DDA2E
:1003A000081A0A9002A8008F0349014002A8018799
:1003B0000CE100BFFFFFFF7FEFFF0000002900D42A
:1003C00004E102A93831097814220A40102A00D029
:1003D000FCE00F99079A891A0A9A891A0E1A012EB7
:1003E00000DAF3E00A96F1E002A83A3000786228D9
:1003F00019D0682806D06A280CD06C281BD0712828
:1004000008D018E0286828600168001D28600D9851
:100410000880DBE0286828600268001D28600D98CD
:10042000C11703C2D2E0286828600168001D286057
:100430000D980870CAE0286828600168001D2860CF
:100440000D980860C2E02A68D21D072082432A6006
:1004500003CA2A6002AA03C2002902D507982D21E7
:100460000AE002A8008F810702D507982B2103E03C
:10047000C00705D50798202112AA1154401C0790E7
:1004800012A8079940180590310002A800F0B0FBAF
:100490009CE002A83A3000786C280BD0712801D07B
:1004A0006A2807D12A68D21D072082432A6003CA1E
:1004B0002A6005E0296829600868091D2960002173
:1004C00002AA03C202A83A300078682803D102A821
:1004D00003C880B20BE0622803D102A803C8C0B2EF
:1004E00005E0742801D07A2804D102A803C80021AD
:1004F00002AA03C202A83830007800072FD502A84C
:1005000003C8002901D1002829D0202030437828B1
:1005100025D10798302112AA1154401C411C079183
:1005200012A90E541BE0290002A83A30007800F00E
:10053000F6F802AA03C202A8002902DA07982D21C0
:1005400009E0008F810702D507982B2103E0C0073F
:1005500005D50798202112AA1154401C079012A813
:10056000079940180590310002A800F0A7FA2DE085
:1005700002A83A3000786C2809D00120079028683A
:1005800028600168001D286012A801701EE028681C
:1005900028600168001D286068468180002001A94C
:1005A0004880C0430E9001AA02A9249800F0ECF8FC
:1005B00000280BD5AFE0252012A908700120079074
:1005C000002E03D012A84670022007900F980799BA
:1005D000401A0A99401A0899401A0B99401A099929
:1005E000401A0C99401A019002A838300078400750
:1005F00011D4202069460870002609E001236A46CC
:1006000002A9249800F0A9FE002800D083E0761CFF
:1006100001988642F2DB079F12AE0BE03178049816
:10062000249A90470490002875D00D98401C0D9096
:10063000761C7F1E002FF1D13020694608700A9F7A
:10064000002608E001236A4602A9249800F085FEEE
:10065000002860D1761CBE42F4DB089F059E0BE0AB
:1006600031780498249A90470490002853D00D982C
:10067000401C0D90761C7F1E002FF1D13020694662
:1006800008700B9F002608E001236A4602A92498FF
:1006900000F063FE00283ED1761CBE42F4DB099FC9
:1006A0000598089946180BE031780498249A9047E9
:1006B000049000282FD00D98401C0D90761C7F1EB2
:1006C000002FF1D13020694608700C9F002608E009
:1006D00001236A4602A9249800F03FFE00281AD19F
:1006E000761CBE42F4DB02A838300078400700D404
:1006F000F8E4202069460870002600E0761C019886
:10070000864200DBEEE401236A4602A9249800F049
:1007100024FE0028F2D00020C04325B0F0BD0A001E
:10072000622822D0682819D06A2808D06C2823D0E3
:10073000712804D074281FD07A2808D01CE01368D0
:10074000DB1D07208343136003CB136070471168E0
:1007500011600868091D116000217047116811605F
:100760000868091D116000B20BE01168116008688B
:10077000091D116040B204E0116811600868091D8C
:100780001160C11770470000F4B598B007000C0065
:10079000206B002800D50E48029000F022FE616B0D
:1007A0000818049009487844223003C806AA03C2F6
:1007B0003820205C400702D4049841280AD208A8B7
:1007C000039040200490002613E000BFAC560000C8
:1007D000FFFFFF7F00F00AFE03900028F3D1002006
:1007E000C04369E11898801C189002980099401A3B
:1007F00002900298012800DAD1E006AA1898018830
:1008000001A8401C00F04EFE0090002800D5DAE060
:1008100018980088002804D10098401E009000D548
:10082000D1E002980099884200DAB8E06069049942
:10083000009A8218914200D3A0E066634142206A88
:10084000081AA169401A616A401AE169401AA16A4E
:10085000401A05903820205C400711D420206946BA
:100860000871002509E0012301AA2100380000F0E9
:1008700074FD002800D0A6E06D1C05988542F2DBCF
:100880006669039D0BE02978A068B847A06000283E
:1008900000D198E0E06A401CE0626D1C761E002EDC
:1008A000F1D1302069460871266A002509E001234C
:1008B00001AA2100380000F050FD002800D082E09D
:1008C0006D1CB542F3DBA669E5680AE02978A068EB
:1008D000B847A060002876D0E06A401CE0626D1C3A
:1008E000761E002EF2D1302069460871666A002516
:1008F00008E0012301AA2100380000F02EFD0028A5
:1009000061D16D1CB542F4DBE669E068A169451868
:100910000AE02978A068B847A060002853D0E06AB0
:10092000401CE0626D1C761E002EF2D1302069461C
:100930000871A66A002508E0012301AA21003800F9
:1009400000F00BFD00283ED16D1CB542F4DB3820D1
:10095000205C400710D5202069460871002508E07A
:10096000012301AA2100380000F0F7FC00282AD159
:100970006D1C05988542F3DB00266661009A01A98B
:10098000491C03986369C01800F098FD60690099DC
:100990004018606118980088002800D022E7606B3A
:1009A0006169401A216A401AA169401A616A401AB5
:1009B000E169401AA16A401A02903820205C400781
:1009C00011D400250CE00026F6436EE02021A0683B
:1009D000B847A0600028F6D0E06A401CE0626D1CB9
:1009E00002988542F2DB6369039A2100380000F027
:1009F000B4FC0028E7D1206A0090002509E03021EE
:100A0000A068B847A0600028DDD0E06A401CE06222
:100A10006D1C00988542F2DBA369E2682100380072
:100A200000F09BFC0028CED1606A0090002509E010
:100A30003021A068B847A0600028C4D0E06A401CFC
:100A4000E0626D1C00988542F2DBE369E068A16911
:100A500042182100380000F080FC0028B3D1A06AC1
:100A60000090002509E03021A068B847A060002868
:100A7000A9D0E06A401CE0626D1C00988542F2DB60
:100A80003820205C40070ED5002509E02021A06811
:100A9000B847A060002896D0E06A401CE0626D1C58
:100AA00002988542F2DB66616663039808A9884272
:100AB00001D000F031FD300019B0F0BDF3B583B0C6
:100AC000006900906846027C6F2A01D1082406E084
:100AD00020211143782901D00A2400E010243C256C
:100AE000039803C806000F00642A01D0692A07D1C1
:100AF000002905DA00200021801BB94106000F0003
:100B0000002F12D1002E10D10398006B00280CD1B9
:100B1000082C3CD1039838300078000737D53B25A6
:100B2000302000993B31087031E06D1E0195300096
:100B300039002200E31700F033FD3032D2B23A2AF6
:100B400003DB6846007C513812180098425530008B
:100B500039002200E31700F023FD06000F0001D149
:100B6000002E05D00398C068009949198842DCD34B
:100B7000082C0CD1039838300078000707D500986E
:100B8000405D302803D06D1E3020009948553C2030
:100B9000401B0399886100994919039AD160039910
:100BA000096B884209DA081A039908620398008FD2
:100BB0000E4901400398018715E0002913D50399D8
:100BC0003831097814220A40102A0CD10399496B54
:100BD000039A5269891A039A126A891A0D1A012D09
:100BE00001DB0398056205B0F0BD0000EFFF0000D7
:100BF000F3B591B006AD03C802AA03C212A80078EB
:100C000020210143009161290BD01198006B00282D
:100C100001D5062003E004D1672902D101201199F2
:100C20000863119841684800400DAA4A904225D1B6
:100C3000080310D11198006800280CD103201199E5
:100C4000886112A8007861381A2842D32348784472
:100C50008A3000900BE003201199886112A8007877
:100C600061381A2831D31E4878447430009003222A
:100C700000991198C06800F021FCF7E1012817DA0B
:100C8000119800F0C2FC012812DB00270026009812
:100C9000612832D11198C06830210170401C411C7C
:100CA000119AD16012A9097861291FD178211EE01B
:100CB00011994968884A0A4088491143119A51603C
:100CC0008749461A0027FF43E1E706487844143075
:100CD000CCE7054878441030BBE700BFB0510000B6
:100CE000A45100009C510000A05100005821017047
:100CF00011984069801C11994861002F03D100248C
:100D000068468780A8E10098612800D09FE011988C
:100D1000046B002C01D5212400E0641C24B2601C6B
:100D20000090119803C804AA03C202A803C80022B5
:100D3000002300F08CFC04A803C802D28022120613
:100D4000514002AA03C2301F6946888000270F76EF
:100D500006AE761C00E0F61D0098012830DB02A8E4
:100D600003C80022002300F08BFC29D21C2102A81A
:100D700000F0A0FC02A803C800F02AFD05000098BE
:100D8000C01F009001280ADB280000F04BFD020084
:100D90000B0002A803C800F0BCFD02AA03C2F61DA6
:100DA000072004E0761E2907090F31702D11012D4F
:100DB00001DB401EF6D5401ECDD4761E3770FAE713
:100DC00006A8401C311A06AD6D1CA14200DA0C00C9
:100DD00024B2200032D4884205DA06A909184978DD
:100DE000082900DB0F2706A9091801E0641E491E27
:100DF000401E0A78BA42F9D00F2F04D106A909186B
:100E00004A78521C4A70002806D506AD641C019829
:100E100000B2001D6946888024B2601E0ED42918D5
:100E20000A783032D2B23A2A03DB12AB1B783A3B53
:100E3000D2180A70401E491E0028F1D51198006B87
:100E4000002800D408E1601E1199086304E102A89B
:100E500003C80022002300F0FAFB06D202A803C850
:100E600080221206514002AA03C236B28048704363
:100E7000804900F0DBFD694688800720019909B2AE
:100E8000421A00207C49012A20DB049202AA30CABF
:100E900000260F000498C00707D532003B00200051
:100EA000290000F01DFE04000D000498401004907D
:100EB0003000390032003B0000F012FE06000F0047
:100EC00004980028E6D102A830C028E05442002649
:100ED0006A4F18E0FF070000FFFF0F800000E03FAF
:100EE000FE030000E00707D504A803C832003B005A
:100EF00000F0F6FD06000F00641004A803C804AA61
:100F00000CCA00F0EDFD04AA03C2002CEAD102A82D
:100F100003C832003B0000F0A5FE02AA03C20098FD
:100F2000662803D1019800B20A3000E0062011992A
:100F3000096B08180490142801DB1320049030205A
:100F40006946087606AC641C0498012840DB02A8B8
:100F500003C800F04FFC0500083405940424280061
:100F60000A2100F066FD0F0028000A2100F061FD53
:100F7000050030370598401E077028000A2100F050
:100F800058FD0F0028000A2100F053FD05000598C8
:100F9000801E059030370770641EE0D1059C083430
:100FA0000498083804900128CEDB02A803C800F09A
:100FB00021FC00F041FC02000B0002A803C800F075
:100FC000A8FC00222E4B00F08BFD02AA03C2BEE754
:100FD00006A8401C201A06AD6D1C6A4605E0401E9E
:100FE000019909B2491E91806D1C29783029F6D0EB
:100FF0000099662903D1019909B2491C04E06529C9
:1010000001D1012100E00021119A126B541824B281
:10101000A04200DA040024B221001DD4814204DA87
:10102000685C352801DB392000E030206A1800E0D8
:10103000641E521E491E13788342F9D0392802D10A
:10104000685C401C6854002906D56D1E641C01981C
:1010500000B2401C69468880019800B2009023B21B
:101060002A0012A80178119800F00CF813B0F0BD16
:1010700097750000A0860100000024400000F03FAA
:1010800084D79741F3B589B015001C0000F065FEC8
:101090000190406A0078694608720998076B012C34
:1010A00001DA0124ACA50AA8017820200843109E8B
:1010B000662801D1761C18E0672800D09FE036B280
:1010C0000321C9438E4200DA9DE0BE4200DB9AE074
:1010D000761C099838300078000702D4BC4200DA48
:1010E000270036B2BF1B00D500270998C0680090C2
:1010F0000998806900990918019136B2012E2CDAFD
:10110000401C3021019A1170012F04DA09993831FD
:101110000978090704D56946097A009A1154401CD8
:10112000099988617042874200DA7E4236B2704285
:1011300009994862BF19A74200DA3C0024B2099815
:10114000C461220029000098099B9B69C01800F027
:10115000B5F9381B09998862E0E0B44220DA220030
:101160002900019800F0AAF9099989690919099AD1
:101170009161301B099A5062012F04DA09983830C6
:101180000078000709D56846007A099AD268505459
:101190000998C069401C0999C86109988762BDE037
:1011A00032002900019800F089F9099880698019B6
:1011B000A41B012F04DA099938310978090705D5EC
:1011C0006946097A099AD2681154401C09998861C4
:1011D00024B2A74200DA3C0024B22200A9190998DF
:1011E000C068099B9B69C01800F068F9099880697C
:1011F000001909998861381B099948628EE06129B4
:1012000014D1702015E0BC4205DA0999383109780B
:10121000090700D427007F1E00D500270AA8007800
:10122000672801D1652004E0452002E0412902D170
:1012300050200AA9087009988169481C099AD26847
:1012400000922A78009B5A54691C012F07DA099AE8
:1012500038321278120702D4099988611BE06A4675
:10126000127A009B1A54401C099A9061012F12DBDC
:10127000641E24B2A74200DA3C0024B22200009B84
:10128000181800F01BF909988069001909998861FC
:10129000381B099948620998C068099989694518F5
:1012A0000AA80078287036B2300003D42B2068706A
:1012B000AD1C03E02D216970AD1C4642002405AF32
:1012C00008E00A2203A800F063FD04983870039E2A
:1012D000641C7F1C31B20129F3DA022C08DA0AA857
:1012E000007820210143652902D1302028706D1C2F
:1012F000002C09D1302028706D1C07E0641E05A861
:10130000005D303028706D1C012CF7DA0998C06838
:10131000099989694018281A0999C86109983830CB
:10132000007814210140102914D1099840690999C5
:10133000896940180999496A40180999C96940188A
:101340000999896A40180999496B884202DA081A92
:10135000099908620BB0F0BD300079B50E00140099
:101360001D00002005E0F06A401CF0620020641CB3
:101370006D1E002D08D02178B068009A9047B060AB
:101380000028F0D10020C04376BDF8B504000F005E
:1013900015001E0000F00CFD33002A00390020006B
:1013A00000F01AFDF2BDC9B200E0401C02788A428A
:1013B00002D0002AF9D100207047010000E0491C4A
:1013C0000A78002AFBD1081A7047C9B201E0401C14
:1013D000521E002A03D003788B42F8D170470020B8
:1013E000704780B500F0E4FC012002BD70B5050037
:1013F0002C000F3407208443C046C046A54233D298
:10140000082C04D2082402E0083000F085F82448B3
:10141000026811000CD1011D0A68002A20D013684F
:10142000A34212D2111DF7E71D68A5420DD2191D66
:101430000B68002BF8D11268011D00E0191D0B6824
:1014400093420DD01D68A542F8D300290CD00D6839
:101450002A681300083BA3420AD26A680A600FE0B8
:1014600000F0D8FC0028CFD1C046C046002070BD97
:101470002B190B606E685E60121B0B681A602C6083
:101480000968002904D04A68002A01D0091D00E03B
:1014900000210160C046C0460835280070BD00002C
:1014A000A004002070B504000D00160000F080FCC0
:1014B00032002900200000F085FC70BD124207D0E8
:1014C0008B0706D00B78491C0370401C521EF7D8BE
:1014D0007047830706D00B78491C0370401C521ECE
:1014E000F9D1704770B4103A03D378C9103A78C074
:1014F000FBD2530701D318C918C001D508C908C0C9
:10150000D20704D30B880380891C801C002A01D5D4
:101510000B78037070BC7047002800D1704738B555
:10152000083804002068082836D3400734D1C04664
:10153000C0461A484168002901D08C4203D261603C
:10154000446019E019004B68002B01D0A342F9D385
:101550000B68CD18AC421DD3A54204D122689A185D
:101560000A600C0008E04A68002A03D02368E318E8
:101570009A420FD362604C60616800290AD02268E9
:10158000A3188B4206D1002303600868101820605E
:1015900048686060C046C04631BD0000A00400201D
:1015A000124224D0994228D970B500251B4202D09E
:1015B0000C00002109E000240126491864419442EE
:1015C00000D3A41A7641F8D33100012601E0764118
:1015D00009D2001864416D41A41A9D41F7D2A418A4
:1015E0005D41B619F5D3300022002B0070BD1B42BF
:1015F000D8D108B500F024FC08BD01D19042D3D267
:1016000002000B0000210020704730B401004B683D
:10161000802212061A4001201B031B0B4B600BD1CA
:101620000B68002B08D10DE00B686400DD0F25432B
:101630004D605B000B60401E4C68E302F4D5230351
:101640001B0B4B604B681A434A6030BC704730B488
:10165000012464054D00EC420BD85D00EC4208D833
:101660000C001C4364000443144304D2994200D18B
:10167000904230BC7047FCD08B42FAD18242F8E7EE
:1016800030B4012464054D00EC420BD85D00EC42FF
:1016900008D80C001C4364000443144304D28B425A
:1016A00000D1824230BC7047FCD09942FAD19042BE
:1016B000F8E7010070B504000D0060684000400DBF
:1016C0003F4EB04207D16068000302D12068002875
:1016D00016D0022070BD002804D12000FFF795FF2E
:1016E00001286BDA012D0DDB311A8D420AD36068B7
:1016F000002802D50020334901E00020310503C451
:10170000012070BD4142A942616806DA2E4A0A40B2
:10171000281800051043606047E08022120611403F
:1017200062681203120B80235B0313436360401E45
:101730002D1800202A003532352A02D3616020603E
:1017400070BD00221E23DB439D4204DA203522684F
:10175000636823606060684211D0521E9241D24398
:10176000D20F20231B1A25689D402A432568C540B7
:1017700066689E402E4326606368C340636060686D
:10178000084360601148824206D2802000068242EF
:101790000ED12078C0070BD52068401C206020683F
:1017A000002805D16068401C60600020C04370BD07
:1017B00060688842F9D120680028F6D1002070BD09
:1017C000FF0700000000F0FFFFFF0F800100008016
:1017D000F4464A1805D200F00FF801D580174008EA
:1017E000604700F009F80121C907884200D90800C4
:1017F000404260474A1812D2400DC90208430121F5
:10180000C9070843520D40210901521A521C06D43F
:1018100052421F3201D4D0407047C0177047002099
:1018200070472000010009D5F446404200F006F858
:101830000122D20711436047010000BF422212017A
:10184000D21E004207D002D4521E0018FCD5C10A95
:1018500040051205891870478B4200D1824205D994
:101860008446100062468C4619006346DF184C1807
:10187000640D7F0D3AD0661C760537D0E61B352EF9
:1018800034DCDB022B43DB0A0C0DC9022943C912ED
:10189000202E0DDB1700203E06D01F00F741F3403D
:1018A0005F400026012A7741C01871410DD217E030
:1018B0001700F741F2405740F3415A40B340F3401C
:1018C0005A400026801859410AD3A21C52050FD055
:1018D000C207012F724117004008CB07184349087F
:1018E000641C24054208AF4170416141F0BC70475F
:1018F000641C21050020F9E76B4010E06B40ABE76A
:10190000F742F3D1E943F1E72442EFD1002000216F
:10191000ECE7F0B40125ED070F005F40EED40C00BA
:10192000871A9C4105D2C01BA141D219634169406D
:101930006B40AE0ADF184C18F442E1D2640D7F0D03
:10194000E2D0E61B362ED1DCDB022B43DB0AA446B9
:101950000C0DC9022943C90A012E28DC04D1D6077F
:101960005208DF073A435B08EF0A764290419941FB
:1019700014D039423BD1B61940414941761C394215
:1019800004D1761C001849413942FAD0B943674660
:10199000B74208D9A41B24052143A7E70042EAD196
:1019A0003642E8D1A2E7E40AE10700209EE7202EB4
:1019B0000BDD203E1F00F340F7415F40012A00226B
:1019C00057417E42984191410BE01700F741F240A8
:1019D0005740F3415A40B340F3405A407E42904151
:1019E00099410A0303D2641EB619404149410027B8
:1019F000641E24054208AE4178416141F0BC704745
:101A0000F446002804D4494200F013F840426047ED
:101A10004042002905D45FD000F00BF84042494213
:101A20006047494200F005F84942604703460B43CE
:101A3000E6D40022030A8B420BD203098B4219D24F
:101A400043088B422ED2411A00D201465241104621
:101A50007047FF2209023FD012068B4205D31212B3
:101A600009028B4201D31212090203098B4219D3D6
:101A700000E0090AC3098B4201D3CB01C01A5241CD
:101A800083098B4201D38B01C01A524143098B4217
:101A900001D34B01C01A524103098B4201D30B0100
:101AA000C01A5241C3088B4201D3CB00C01A524125
:101AB00083088B4201D38B00C01A524143088B42EA
:101AC00001D34B00C01A5241884200D3401A524100
:101AD000CFD201461046704708B500F0B3F908BDF3
:101AE000F0B50E005E400125ED072E40B446AE0A6B
:101AF000DF184C18F44208D2F7420ED2640D01D020
:101B00007F0D12D100206146F0BD05D1F74201D80A
:101B10007F0D05D10020C143F0BDFBD1640DF9D08C
:101B20000020C143490549088FE0E419C902DB02DE
:101B300029432B43DB0A460DC00231438E4630B4A5
:101B400087B295B27D432E0CADB2140C7C43A41920
:101B5000260C240425439CB27C43A419190C794318
:101B6000270CC919A4B20F043C43090C000C97B20E
:101B700047432E0CBE193543ADB2170C4743360C04
:101B8000BF19A6B2BF193E043543240C3E0C3619CA
:101B90009FB24743BF19BCB23E0C89191F0C474383
:101BA0007F183E043443390C704680B297B24743E5
:101BB0002E0CBE193543ADB2170C4743360CBF1976
:101BC000A6B2BF193E043543240C3E0C36199FB211
:101BD0004743BF19BCB23E0C89191F0C47437F18FD
:101BE0003E043443390C77463F0C90B278432E0CB8
:101BF00080190604ADB22E43050CA0B22D18120CAC
:101C00007A435019020C80B2240CA4189AB27A4379
:101C1000121914042043120C89181B0C7B43C91899
:101C200030BCEF0A394203D1B61940414941641E24
:101C30006F12BF0DE41B0BDBFF19BC4211DA240548
:101C400000274208AE417841614166463143F0BD0C
:101C5000641C05D1401C6141CF0201D34908F4E75F
:101C600050E75DE7F0B40E005E400125ED072E4021
:101C7000B446AE0ADF184C18F4423BD2F74241D2C8
:101C8000640D43D07F0D38D0E41BC902DB02294329
:101C90002B43CF0ADB0A0600B61A9F4104D2641E0A
:101CA000B6197F41B6185F416812800D24180018DC
:101CB000844222DAE80C0021B6197F41B61A9F410E
:101CC00002D2B6185F413F1C40414941F4D3241C65
:101CD00021DD2405B6197F41B61A9F4105D337434C
:101CE000C60737430026012F7041614166463143E4
:101CF000F0BC7047FCD1F74205D20020C143490532
:101D00004908F3E704D00020C143F1E77F0DFAD082
:101D100000206146ECE72442FAD1401C61410F03E8
:101D2000F6D30020E2E7002080B5124800F08BF8DF
:101D300011A1016041608160C16001614161816107
:101D40000EA242628162C162016341630CA282639E
:101D50000DA2C2630164416401BD10B5054800F0E5
:101D600072F804002068002801D1FFF7DDFF200091
:101D700010BD000000000020000000002E00000048
:101D800066616C7365000000747275650000000088
:101D90007CB504000E00150030002900FFF746FE58
:101DA00000904543701B0190684603C803C476BD8C
:101DB00080B5034800F047F8806902BD00000000CC
:101DC00090000020002804D10EA003C803C2002008
:101DD0007047017001207047002904D10BA003C88F
:101DE00003C300207047002A02D10120C04370477E
:101DF000002801D00A7802800978481E8041C0433B
:101E0000C00F70470000000000000000000000004C
:101E10000000000007490868002801D00020704732
:101E2000054807229043086004499143091A01605C
:101E3000704700BFD8040020FF080020F80A0020E7
:101E40007047FEE770477047F8B50400002520781A
:101E5000C0076CD5984800680C210140082909D0BA
:101E6000954800680C2101400C290CD1924800686B
:101E7000C00308D591480068800358D560680028E1
:101E800055D1012098E2606880214902884207D13B
:101E90008A4800688021490201438848016025E0A2
:101EA0006068A021C902884214D184480068BB49F7
:101EB000014082480160814800688021C9020143D5
:101EC0007E4801607D4800688021490201437B48CB
:101ED00001600BE079480068B04901407748016033
:101EE00076480068AE490140744801606068002887
:101EF0000ED000F0A6FC050070480068800316D4E0
:101F000000F09FFC401BBE498842F5D3032053E2FA
:101F100000F097FC050069480068800307D500F0D1
:101F200090FC401BB6498842F5D3032044E2207858
:101F300080075BD5604800680C210140042909D066
:101F40005D4800680C2101400C2916D15A480068F0
:101F5000C00312D459480068400704D5E06801283E
:101F600001D0012028E2C3480068C349014020692C
:101F700000020843BF49086038E0E06800281FD02D
:101F80004E48006809218843E16801434B480160DD
:101F900000F057FC050049480068400706D400F0EF
:101FA00050FC401B6528F6D3032005E2B1480068C9
:101FB000B1490140206900020843AE49086015E0BC
:101FC0003E48006809218843E16801433B480160BD
:101FD00000F037FC050039480068400706D500F0DE
:101FE00030FC401B6528F6D30320E5E12078C006CD
:101FF00066D5314800680C21014000291DD12F48C9
:102000000068800504D5E069002801D10120D3E1F2
:1020100098480068B0490140606A084395490860E3
:10202000944800680002000A216A090601439148A9
:102030000160032000F0EDFB42E0E069002826D0BB
:102040001E4800688021490001431C48016000F0DF
:10205000F8FB050019480068800506D400F0F1FB84
:10206000401B6528F6D30320A6E1824800689A4900
:102070000140606A08437F4908607E4800680002AA
:10208000000A216A090601437A48016018E00B48FA
:102090000068BE4901400948016000F0D2FB05001C
:1020A0000648006880050BD500F0CBFB401B652877
:1020B000F6D3032080E100BF0C1002400010024064
:1020C000207800072AD56069002813D0BB48006833
:1020D00001210143B948016000F0B3FB0500B74896
:1020E000006880071AD400F0ACFB401B6528F6D3CB
:1020F000032061E1B148006801218843AF490860CD
:1021000000F09FFB0500AD480068800706D500F091
:1021100098FB401B6528F6D303204DE1207880060C
:1021200040D5A06900281FD0A548006801210143BF
:10213000A3480160A348006801210143A148016050
:10214000A1480068A14901439F48016000F079FB64
:1021500005009B480068800724D400F072FB401BF8
:102160006528F6D3032027E19548006801218843BC
:10217000934908609448006895490140924801607D
:1021800000F05FFB05008E48006880070AD500F06C
:1021900058FB401B6528F6D303200DE1FFFFFEFF2F
:1021A000FFFFFBFF2078400700D4A9E000270026AE
:1021B00088480068C00008D4864800688021490526
:1021C0000143844801600120070083480068C0057E
:1021D00018D4814800688021490001437E4801608D
:1021E0000120060000F02DFB05007B480068C005BB
:1021F00008D400F026FB401B6528F6D30320DBE063
:1022000089130000A06880214900884207D16B48EB
:102210000068802149000143684801603AE0A068F5
:1022200000280CD1654800685849014063480160A6
:102230006248006869490140604801602AE0A0687E
:10224000A021C900884219D15C4800684F4901406B
:102250005A480160594800688021C9000143574825
:1022600001605648006880214900014353480160DD
:1022700010E000BF04100240FFE0FFFF4F4800687D
:10228000424901404D4801604C48006853490140B3
:102290004A480160A06800280ED000F0D2FA05007C
:1022A00046480068800519D400F0CBFA401B4C4921
:1022B0008842F5D303207FE000F0C3FA05003F48D1
:1022C000006880050AD500F0BCFA401B44498842EA
:1022D000F5D3032070E000BFFF1FFFFFF6B2012E11
:1022E00005D13D480068294901403B480160FFB2E3
:1022F000012F05D1374800683A490140354801604F
:10230000A06A002857D0384800680C2101400C29E9
:102310004FD0A06A022834D13448006834490140C3
:102320003248016000F08DFA0500304800688001F5
:1023300006D500F086FA401B6528F6D303203BE063
:10234000294800682B490140206B0843616B014319
:10235000E06A084324490860244800688021490451
:1023600001432248016000F06CFA05001F48006834
:10237000800120D400F065FA401B6528F6D30320C5
:102380001AE01A4800681A4902E000BFFFFEFFFF8A
:1023900001401648016000F054FA05001348006837
:1023A000800108D500F04DFA401B6528F6D30320C4
:1023B00002E0012000E00020F2BD000050100240C9
:1023C00008100240341002402000014001200000AB
:1023D000FEDFFFFF3810024000700040FFFBFFFFF0
:1023E00089130000FFFFFFEF0C10024000100240B5
:1023F000FFFFFFFEFFFF02FF70B505000C00002687
:102400009F4800680100C907C90FA14200D38FE0AF
:102410009B480068012188432043994908609848F7
:1024200000680100C907C90FA14201D0012025E1C0
:102430002878800707D593480068F0218843A96869
:102440000143904801602878C00700D4FBE0686829
:10245000022805D18C480068800319D401200DE1C1
:102460006868002805D188480068800510D40120DC
:1024700004E16868032805D183480068800107D417
:102480000120FBE080480068400701D40120F5E00E
:102490007C480068032188436968014379480160EA
:1024A00000F0CFF90600686802280ED17548006870
:1024B0000C210140082900D1C5E000F0C2F9801BC1
:1024C00072498842F2D30320D8E0686803280ED10D
:1024D0006C4800680C2101400C2900D1B3E000F0E9
:1024E000B0F9801B69498842F2D30320C6E06868CE
:1024F00000280ED1634800680C210140002900D15A
:10250000A1E000F09EF9801B60498842F2D30320CD
:10251000B4E05C4800680C210140042900D192E03D
:1025200000F08FF9801B59498842F2D30320A5E0BF
:102530002878800707D553480068F0218843A968A8
:102540000143504801602878C0076CD568680228AC
:1025500005D14D480068800319D401208EE06868D9
:10256000002805D148480068800510D4012085E086
:102570006868032805D144480068800107D4012019
:102580007CE041480068400701D4012076E03D48E6
:10259000006803218843696801433A48016000F0FC
:1025A00050F90600686802280DD1364800680C21F1
:1025B0000140082937D000F044F9801B3349884294
:1025C000F3D303205AE0686803280DD12D48006832
:1025D0000C2101400C2926D000F033F9801B2B4937
:1025E0008842F3D3032049E0686800280DD12548CC
:1025F00000680C210140002915D000F022F9801B51
:1026000022498842F3D3032038E01E4800680C2199
:102610000140042907D000F014F9801B1B498842AF
:10262000F3D303202AE016480068012188432043A1
:1026300013490860124800680100C907C90FA14288
:1026400001D001201AE02878400707D50D4800681E
:102650005A490140E86808430A4908602878000799
:1026600008D508480068564901402869C000084359
:1026700004490860032000F0CCF8002070BD000081
:10268000002002400C10024000100240891300009C
:10269000F8B50024002500200090002600274B48B4
:1026A0000068400B4007400F0600464800680C21B8
:1026B0000140002906D004290DD0082915D00C2985
:1026C00016D049E001203100491C884080210902D0
:1026D0004843070048E03C480068C00602D53C4833
:1026E000070001E03B4807003EE03B4807003BE0B5
:1026F00034480068F021890301400C00314800682B
:10270000C021090401400D0034482100890C445CBB
:10271000AD0D6D1C2B4800688021490208400090D7
:102720000098002811D128480068C00606D528481E
:1027300060432900FFF77DF907000CE0254860435E
:102740002900FFF776F9070005E0234860432900D8
:10275000FFF76FF9070007E001203100491C8840AE
:1027600080210902484307003800F2BD80B5FFF719
:102770008FFF1B49134A126812091207120F895C56
:10278000C840184908601748006802BD80B5FFF7C7
:10279000EDFF13490B4A1268120A5207520F895C67
:1027A000C84002BD80B5FFF7E1FF0D49054A126838
:1027B000D20A5207520F895CC84002BDFFF8FFFFE2
:1027C000FFC7FFFF0C10024000100240041002403F
:1027D00000093D000024F40000127A00086200089D
:1027E000DC6100080401002080B51E48006840211B
:1027F00001431C4801601B480068022188431949B5
:102800000860032000F005F800F002F8002002BD87
:10281000704710B50400FFF7A9FFFA218900FFF700
:1028200008F900F0A7F8002221000020C04300F0C2
:1028300089F8002010BD0C480068401C0A49086057
:10284000704709480068704711B581B00024FFF750
:10285000F8FF0400FFF7F5FF001B01998842F9D348
:1028600013BD000000200240D00400200121C20658
:10287000D20E9140424A116070470121C206D20E29
:102880009140404A11607047F0B540B2002822D50F
:102890003D4C40B20207120F083A1500AD08042261
:1028A0005543394A40B203071B0F083B9B080426D7
:1028B0007343D258FF238607B60F08277E43B340E1
:1028C0009A438B01DBB28607B60F08277E43B340DD
:1028D000134363511CE02D4A40B203009B080424BB
:1028E0006343D258FF238407A40F08256C43A340F9
:1028F0009A438B01DBB28407A40F08256C43A340E5
:102900001343224A40B20400A40804256C43135127
:10291000F0BD10B50400601E80214904884201D337
:1029200001200EE0601E1A49086003210020C04308
:10293000FFF7AAFF00201749086007201649086022
:10294000002010BD70B504000D0016002900200005
:1029500040B2FFF799FF70BD10B50400200040B2EF
:10296000FFF784FF10BD10B50400200040B2FFF750
:1029700084FF10BD10B504002000FFF7CAFF10BD92
:1029800000E100E080E100E01CED00E000E400E098
:1029900014E000E018E000E010E000E010B592B0B4
:1029A0000EA87E491022FEF79DFD0AA87C49102240
:1029B000FEF798FD06A87B491022FEF793FD7A48A2
:1029C0000090072301220EA9022000F0E7FB04007B
:1029D000E4B2002C36D175480590012004901020F7
:1029E00003900020029000200190102000901423FA
:1029F0000AAA02216C48008800F02BFC0400E4B213
:102A0000002C1FD16A4805900120049010200390EB
:102A100001200290002001900C200090142306AAAF
:102A200002216148008800F014FC0400E4B2002C8C
:102A300008D15F4802885D4801885E4800F0D2FDF9
:102A4000002003E0C94800F0CDFD472012B010BDC2
:102A500010B58EB09F48007800282ED19E4800F017
:102A6000C1FD07A89D490CC90CC0083908380020D1
:102A700000F050FEFA20C0000690FA20C000059039
:102A80003C200490002003902820029028200190F0
:102A90000020009007AB00228021C9018020C001E6
:102AA00001F048F80400E4B2002C2CD08C4800F06F
:102AB00099FD642001F091F825E009A89A491022B7
:102AC000FEF710FD0021002001F0AAFA974800F05F
:102AD00089FD002006900020059000200490002031
:102AE000039009A802900D2001900020009000237F
:102AF00000220021002000F046FF0400E4B2210083
:102B0000BBA000F06FFD0EB010BD00B585B0B94898
:102B10000078002813D1964800F064FD01A895497B
:102B20001022FEF7DFFC01A800900223924A012147
:102B30009248008800F069FC0120AE49087005B099
:102B400000BD00B585B0AC480078002813D1994885
:102B500000F048FD01A898491022FEF7C3FC01A827
:102B600000900223844A01218448008800F04DFC33
:102B70000120A149087005B000BD70B506000C0029
:102B8000002000F0E7FD0025E4B2A54205DA715D02
:102B90009AA000F027FD6D1CF6E770BD6C6100087F
:102BA0007C6100088C610008E2040020E40400203D
:102BB000E6040020845D000870B588B005000C00B4
:102BC00044480078012878D18D480078002869D0E1
:102BD00003A88C491422FEF785FC8B48006803A9E2
:102BE000087489480068000A03A948748648006888
:102BF000000C03A9887484480068000E03A9C874F7
:102C000081480068002806D1804800F0EBFC00F005
:102C1000E0FF7F4908607F4801680A20414301A81E
:102C200001F034FA03A80090142300227A480188A6
:102C30007A48008800F08DFB642804D101A801F0D7
:102C40002DFA0028EED070480068401C6E490860DC
:102C50006D480068002824D06B480068FA214900BC
:102C6000FEF7E7FE00291CD100F0B3FF6C490860B5
:102C70006B48006866490968461A300001F01EFA80
:102C80000100684801F029FA01F07CFA03003200E3
:102C9000FA214900644800F0A5FC00F09AFF5C4965
:102CA000086095E700952300DBB200225A480188AE
:102CB0005A48008800F04DFB0AE02B002200D2B2F7
:102CC0005A480188491C89B2A448008800F050FC89
:102CD00008B070BDEA0400200C60000830620008F3
:102CE000DC5E0008E0B568469D490A8802804948D4
:102CF00001680A20414301A801F0C8F96B4602228D
:102D000098480188891C89B21C48008800F0DDFBC6
:102D1000462804D101A801F0C1F90028EED0012015
:102D20009149087007BD00009C61000828600008F8
:102D300070B504000E001500A4B28C480088401C39
:102D4000844205D13100C9B22800FFF716FF0BE01D
:102D5000A4B231480088801C844205D1287801281B
:102D600002D101208049087070BD0000B85E0008E3
:102D7000CC5F0008AC610008FFFF0000DC0400200D
:102D800070B504000E000120794908607348068080
:102D9000784800F027FC0525012D05DB615D7648AC
:102DA00000F020FC6D1EF7E72178744800F01AFC53
:102DB00070BD0000EC5F0008BC61000880B5002019
:102DC0006B4908606E4800F00DFC01206D490870E9
:102DD0000020654908700020064908700020064957
:102DE000087000206849087000206849087001BD1B
:102DF00025640A00EC040020ED0400202563000097
:102E00000801002044610008AC040020FC610008B7
:102E1000B004002060620008E4040020E204002006
:102E2000B404002000409C47C45D0008E00400207A
:102E3000F8B505000E00140055480078002800D1B0
:102E40007FE05448007800287BD1ADB2AF480088BD
:102E5000401C854200D07FE0AD480068002813D1B7
:102E60004D4800F0BFFB00F0B4FEAA490860207C8A
:102E7000617C09020143A07C00040843E17C09064F
:102E80000143491EA4480160207C617C0902014382
:102E9000A07C00040843E17C090601439F480160CF
:102EA0009E4800689C490968491C88420AD09C4891
:102EB00000689A490968401897490968401A401EF5
:102EC00097490860954800689349086090480068F1
:102ED000401C8F4908608E48006800283CD08C4810
:102EE0000068FA214900FEF7A4FD002934D100F062
:102EF00070FE8C4908608B48006886490968471A4B
:102F0000380001F0DBF80100874801F0E6F801F035
:102F100039F903003A00FA214900844800F062FBC5
:102F20007F480068002804D07D480168804800F090
:102F300059FB00F04EFE7749086000207849086090
:102F40000AE0ADB271480088401C854204D13100CE
:102F5000C9B22000FFF711FEF1BD0000DC04002023
:102F6000B2160008DE040020EB040020E604002076
:102F7000A8040020AC600008386200084062000825
:102F8000CC61000809010020EE040020EF040020BD
:102F900008010020EA040020FC610008F8B50700E1
:102FA0000097009D6D1C00980078042800D0ACE0CC
:102FB0002878052804D03E2805D0FF2815D0A4E0A5
:102FC000FFF7FCFEA1E02C00A41C207801280BD107
:102FD0002600761C7178B0780006000C014389B297
:102FE0003000401DFFF7CCFE8FE02C00A41C2078A1
:102FF00061780906090C084380B24E49401A06D090
:103000000E3824D0401E65D0801E30D07DE04A4866
:10301000007801280DD12600B61CB078F178090699
:10302000090C08433200D21D317980B2FFF780FECF
:103030000CE02600B61CB078F1780906090C0843AC
:103040003200521D317980B2FFF772FE5DE026003A
:10305000B61CF07831790906090C08433200521D7C
:10306000B178891EC9B280B2FFF7E2FE4DE0334865
:10307000007800282DD1324800F0B4FA2600B61CA2
:1030800030480078002810D02F48007800280CD154
:10309000F07831790906090C08431C4908801B485F
:1030A00001882A4800F09EFA13E029480078002899
:1030B0000FD02848007800280BD1F0783179090624
:1030C000090C08432449088023480188234800F05C
:1030D00089FA1AE019480078002816D119480078B2
:1030E000002807D018480078002803D1012016498D
:1030F00008700AE016480078002806D015480078C5
:10310000002802D1012013490870F1BDDE0400201F
:10311000C0040020B8040020C4040020C80400201B
:10312000CC040020BC04002000409C47C45D000883
:1031300058610008010C0000E9040020EA040020A6
:103140003C5E0008EC040020EE040020C46000088F
:10315000ED040020EF040020E0040020DC60000803
:1031600000B587B01822002101A801F033F83F20F4
:1031700069468880FF20801C01A948806846059028
:1031800001200690002101A800F01DFE002801D5B5
:10319000FF2001E06846007807B000BDFAB58DB0A9
:1031A00005001700149E002408A8E4B20555641C0D
:1031B000EDB2012D03D102206946087102E0102012
:1031C00069460871684602790D9908A8E4B20019A9
:1031D00000F0F5FF68460079241808A8E4B2075506
:1031E000641C0EA8007808A9E4B20855641C0322E8
:1031F0000021684600F0EEFF1822002102A800F02E
:10320000E9FF3F20694608818120400002A94880EB
:1032100008A80490E4B2059468460690032007903D
:10322000002102A800F0CFFD002801D5FF200EE00C
:1032300068460078002802D06846007807E06946B2
:1032400048788A781206120C1043308000200FB0A4
:10325000F0BDFFB58FB01B9F1C9E1D9D00246846CE
:10326000808F6946888702220FA902A8E4B200195C
:1032700000F0A5FFA41C10A8007802A9E4B208552C
:10328000641C10A80078012803D102206946087147
:1032900002E010206946087168460279119902A877
:1032A000E4B2001900F08BFF68460079241812A8D8
:1032B000007802A9E4B20855641C18A8007802A995
:1032C000E4B20855641C19A8007802A9E4B20855B4
:1032D000641C1AA8007802A9E4B20855641C02A86C
:1032E000E4B20755641C02A8E4B20655641C03222C
:1032F0000021684600F06EFF1822002109A800F0A6
:1033000069FF3F20694688848220400009A94880DF
:1033100002A80B90E4B20C9468460D9003200E9026
:10332000002109A800F04FFD002801D5FF200EE084
:1033300068460078002802D06846007807E06946B1
:1033400048788A781206120C10432880002013B0A7
:10335000F0BDF3B5A7B017001D002E9E0024EDB2FE
:103360002800801D812801DB42204CE027A800882E
:1033700027A90880022227A907A8E4B2001900F0B3
:103380001EFFA41C28A8008828A90880022228A9BA
:1033900007A8E4B2001900F012FFA41C07A8E4B2C9
:1033A0000755641C07A8E4B20555641CEDB22A0059
:1033B000310007A8E4B2001900F001FF64191822D7
:1033C000002101A800F006FF3F2069468880832085
:1033D000400001A9488007A80390E4B2049468461D
:1033E000059001200690002101A800F0ECFC0028C7
:1033F00001D5FF2007E068460078002802D0684623
:10340000007800E0002029B0F0BDF7B58EB01F00B5
:10341000169D00246846008F6946088702220EA97F
:1034200007A8E4B2001900F0CAFEA41C6846808F09
:103430006946888702220FA907A8E4B2001900F0A4
:10344000BEFEA41C10A8008810A90880022210A9A2
:1034500007A8E4B2001900F0B2FEA41C07A8E4B269
:103460000755641CFFB2012F02D10220060001E0C3
:1034700010200600F6B23200290007A8E4B20019B5
:1034800000F09DFEA4191822002101A800F0A2FE60
:103490003F20694688808B20400001A9488007A80A
:1034A0000390E4B204940F20029068460590012036
:1034B0000690002101A800F086FC002801D5FF201D
:1034C00001E06846007811B0F0BD73B5A8B01500F2
:1034D0001E000024EDB22800401D812801DB42209F
:1034E00044E028A8008828A90880022228A907A863
:1034F000E4B2001900F063FEA41C29A8008829A9E1
:103500000880022229A907A8E4B2001900F057FE9A
:10351000A41C07A8E4B20555641CEDB22A003100D2
:1035200007A8E4B2001900F04AFE6419182200212D
:1035300001A800F04FFE3F2069468880FF2022301E
:1035400001A9488007A80390E4B204940F200290D8
:103550006846059001200690002101A800F033FC88
:10356000002801D5FF2001E0684600782AB070BD30
:10357000F0B58FB006000D0014001F00E4B2152C4A
:1035800001D342202CE06846868307A8458007A81F
:103590000471E4B22200390007A8401D00F00FFEBC
:1035A0001822002101A800F015FE3F2069468880FE
:1035B000FF20243001A9488007A80390E4B220002E
:1035C000401D04906846059001200690002101A846
:1035D00000F0F9FB002801D5FF2001E068460078E3
:1035E0000FB0F0BD0EB470B5A1B0040025A8060060
:1035F000330022008021684600F0F8FD0500962384
:103600005B002A0092B26946054800F04BFE002894
:1036100001D001F03BFB21B0039870BC04B000471F
:10362000C8030020F0B540B2002822D5814C40B23A
:103630000207120F083A1500AD08042255437D4ACF
:1036400040B203071B0F083B9B0804267343D25864
:10365000FF238607B60F08277E43B3409A438B01AA
:10366000DBB28607B60F08277E43B340134363518E
:103670001CE0714A40B203009B0804246343D25803
:10368000FF238407A40F08256C43A3409A438B01B2
:10369000DBB28407A40F08256C43A3401343664A9A
:1036A00040B20400A40804256C431351F0BD10B5CA
:1036B00086B0040061480068012101435F48016051
:1036C0005E4800680100C907C90F009100985C4876
:1036D000E4B202216143405A01900120029001208E
:1036E00003900320049001A95648E4B204226243E7
:1036F000805801F0D3FA00225148E4B2022161431C
:10370000415A5048E4B204236343C05801F0C1FB5E
:1037100006B010BD10B5040001224948E4B20221F0
:103720006143415A4748E4B204236343C05801F05F
:10373000B0FB10BD10B5040000224148E4B20221E4
:103740006143415A3F48E4B204236343C05801F047
:10375000A0FB10BD10B504003948E4B2022161435A
:10376000415A3848E4B204226243805801F09BFB7E
:1037700010BD30B587B004000D003048006804214A
:1037800001432E4801602D48006804210840009044
:1037900000982D480068012101432B480160EDB2DB
:1037A000002D13D12948E4B202216143405A01900F
:1037B00000200290022003900320049001A92448D5
:1037C000E4B204226243805801F068FAEDB2012DA0
:1037D0001ED11E48E4B202216143405A01900020EC
:1037E00003901C48029001A91948E4B204226243E4
:1037F000805801F053FA03211748E4B2005D40B24B
:10380000FFF710FF1448E4B2005D40B2FFF7A4F8E0
:1038100007B030BD10B504000C48E4B2022161438A
:10382000415A0B48E4B204226243805801F023FB62
:1038300010BD00001CED00E000E400E02C10024090
:1038400022180008FC00002034100240261D000849
:10385000000100200000111084620008F9B589B051
:103860000F001600109D119C09A800786946087089
:1038700068464770684686700722002101A800F05C
:10388000A9FC1822002103A800F0A4FC3F206946EF
:1038900088818A2003A94880684605900320069005
:1038A00001A8079007200890002103A800F08BFAD8
:1038B000002801D5FF201DE068460079002802D0CD
:1038C0006846007916E001A948788A781206120C39
:1038D00010430A99088001A9C8780A791206120CC7
:1038E0001043288001A948798A791206120C1043E6
:1038F000208000200BB0F0BDF0B589B006000D00AF
:1039000014001F006846067207220021684600F076
:1039100061FC1822002103A800F05CFC3F206946EE
:1039200088818A2003A9488002A80590012006907A
:103930006846079007200890002103A800F043FA8A
:10394000002801D5FF201CE068460078002802D03E
:103950006846007815E0694648788A781206120CA5
:10396000104328806946C8780A791206120C104361
:103970002080694648798A791206120C10433880F3
:10398000002009B0F0BDFFB591B01B9E1D9D1E9F8C
:103990000024F6B2EDB270190E30292801D342206E
:1039A0007EE011A8007807A9E4B20855641C12A8AB
:1039B000008812A90880022212A907A8E4B20019FF
:1039C00000F0FDFBA41C13A8008813A908800222A4
:1039D00013A907A8E4B2001900F0F1FBA41C14A875
:1039E000007807A9E4B20855641C1AA8007807A952
:1039F000E4B20855641C07A8E4B20655641CF6B28C
:103A000032001C9907A8E4B2001900F0D8FBA419F1
:103A100007A8E4B20555641CEDB22A00390007A8D6
:103A2000E4B2001900F0CBFB64191FA800881FA99D
:103A3000088002221FA907A8E4B2001900F0BFFB0A
:103A4000A41C20A8008820A90880022220A907A879
:103A5000E4B2001900F0B3FBA41C1822002101A855
:103A600000F0B8FB3F2069468880832001A9488088
:103A700007A80390E4B204946846059001200690DC
:103A8000002101A800F09FF9002801D5FF2007E0E0
:103A900068460078002802D06846007800E00020E0
:103AA00015B0F0BDFFB58FB0189F199E1A9D1B9CD5
:103AB0000FA800786946087710A8007807A9487011
:103AC0001022119907A8801C00F079FB12A8007839
:103AD00007A9887407A8C77407A8067507A9153130
:103AE000280001F00BFA07A844761822002101A84B
:103AF00000F070FB3F2069468880862001A948803D
:103B000007A803901A2004906846059001200690AB
:103B1000002101A800F057F9002801D5FF2007E097
:103B200068460078002802D06846007800E000204F
:103B300013B0F0BDFFB58DB019A807881AA8068884
:103B40001B9D1C9C6846808E694688806846008F55
:103B500001A948800FA8007801A9087106221099D0
:103B600001A8401D00F02BFB16A8007801A9C8721F
:103B700017A8008801A9888118A8008801A9C88110
:103B800001A8078201A8468201A8858201A8C482F3
:103B90001822002107A800F01DFB3F2069468883FA
:103BA0009C2007A9488001A8099018200A900F209E
:103BB000089068460B9001200C90002107A800F0A7
:103BC00002F9002801D5FF2001E06846007811B015
:103BD000F0BD80B5FEF735FE02BD10B50400200033
:103BE000FEF732FE10BDFEE710B5544801F090F923
:103BF000534801F08DF900200400E4B2052C09DAE5
:103C00005048E4B28C21614341184C4801F0A2F9BC
:103C1000641CF2E710BD00B50200110008310878FD
:103C2000042801D0012008E088788823D35CDB1EBB
:103C3000984201D0022000E0002000BD30B5A1B0C4
:103C40000020009001F00BFC3D4801F064F90400F5
:103C5000E4B2002C14D16946394801F095F901F01D
:103C6000F9FB00980830FFF799F901F0F8FB00998B
:103C7000324801F06FF9324801F04DF90400E7E7EE
:103C8000BE480078002813D001F0C2FA00280CD0FA
:103C9000802201A9BA4801F0C7FA0500EDB2002D53
:103CA000F2D001A8FFF77AF9EEE70020B3490870D7
:103CB00001F0D0FB21B030BD80B5214801F02BF9D7
:103CC00002BD10B582B00020009001F0CDFB01F0E4
:103CD0009FFA002831D0194801F01DF9002826D19B
:103CE0006946164801F050F9802200990831A4482D
:103CF00001F09AFA0400E4B2002C11D00098883048
:103D000004700098FFF787FF002804D100990C4841
:103D100001F020F908E00099084801F00EF903E0ED
:103D20000099064801F009F901F09EFBCFE7012058
:103D30009249087001F098FBFFE713BD9004002042
:103D4000980400200C010020F8B504000F001600B4
:103D50001D00EDB22B00F6B232003900200001F058
:103D6000F6F9F1BDF0B583B007000E0014001D0098
:103D7000B005800DB90201436846818001A88470B6
:103D8000012069460870032201A96846401C00F022
:103D900016FA2300DBB2042229006846FFF7D4FF9D
:103DA000F7BD38B504000D00280001F0B4F8002874
:103DB00008D16946280001F0E7F80099200001F0D9
:103DC000C9F8F1E731BDF2B58CB004006088800518
:103DD000800D218889020143684601826948006894
:103DE0000A21FDF726FE01900020009007A801F0AF
:103DF0008FF8A368E268D2B261882088FFF7B2FF2B
:103E00000CA80078002800D0AAE00198002801D171
:103E10000120019001990AA800F038F90AA800F0E1
:103E20003DF9002800D092E0FFF746FF0028F5D1C9
:103E300001F015FB6946544801F0A6F800980830D7
:103E400007003878042806D0009907A801F082F806
:103E500001F000FBE2E73800401C099000980B30AD
:103E60000600009888300078C01E05000998007888
:103E70000E2827D00F2804D0102853D03E283CD03D
:103E800051E0039603998878CA781206120C104301
:103E90006946098A80B2884259D160680F2804D0E7
:103EA00003980078002852D13DE06069854201DA2C
:103EB000280000E06069606162693100206900F0FB
:103EC0007EF94DE00696069948788A781206120C1B
:103ED00010436946098A80B2884238D1F61CED1E2B
:103EE0006069854201DA280000E06069606162690A
:103EF0003100206900F063F932E002960298007800
:103F0000616888420FD16D1E6069854201DA280020
:103F100000E06069606162690299491C206900F0F3
:103F20004EF91DE013E0009907A801F013F81748B7
:103F300000F0F1FF002807D005A9134801F024F88C
:103F40000599124801F006F801F084FA66E707A91E
:103F50000D48FFF726FF01F07DFA0020C0430AE07C
:103F600000990A4800F0E9FF07A90748FFF719FF81
:103F700001F070FA00200DB0F0BD0000E804002050
:103F8000380400206062000898040020900400209B
:103F9000F8B58AB007000E001500109C0922002118
:103FA000684600F017F91822002103A800F012F962
:103FB000042069468881012003A9488000200590DB
:103FC000002006906846079009200890002103A869
:103FD000FFF7F9FE002801D5FF201FE068460078B2
:103FE000002802D06846007818E0684640783870AB
:103FF000684640883080684600792870694648796C
:104000008A791206120C10430A9908806946C87909
:104010000A7A1206120C1043208000200BB0F0BD6B
:1040200030B58FB004000D002022002107A800F059
:10403000D1F868460477E4B2202C01DB1F2201E0AE
:10404000E4B22200290007A8401C00F0B8F81822AA
:10405000002101A800F0BEF80820694688800920E8
:1040600001A9488007A80390202004906846059085
:1040700001200690002101A8FFF7A5FE002801D528
:10408000FF2001E0684600780FB030BD38B505006C
:104090000C006C60FFF79DFD286031BD10B5040079
:1040A000FFF797FD2168401A401C6168814201D2E8
:1040B000012000E00020C0B210BDFEE79D210200FB
:1040C0000AD002D4491E9218FCD5C905100A12065E
:1040D000524100D3012A4841704730B405004D4099
:1040E0000122D20715404B180418240E28D01B0EAD
:1040F0002FD0FF2C34D0FF2B37D0E41A0002090256
:104100001043114343084808D10D1B1A02D2641E04
:10411000DB181B18DB18834200D31B1A4941F9D363
:104120007F3426DDFE2C08DAE4054808C907194368
:1041300091416041284330BC7047FF20C005F9E73A
:1041400028001B0E03D0FF2BF5D14902F3D0D0433A
:10415000F1E7FF2C01D14002F9D1FF20C005E9E7CA
:104160004002F4D1FF2BF8D1F1E728004902E2D058
:10417000EDE70B0200202442DCD15B129B1CD9D955
:10418000D805D7E70122D2070118090E7F3910D4CC
:1041900049421F310FD4001805D2C0011043C84056
:1041A00000D5D0437047C0011043C84005D44042F9
:1041B0007047002070470042F3D51000704770B57B
:1041C00006000C0015002A0021003000FDF776F9EA
:1041D000300070BD70B506000C00150022002900EB
:1041E000300001F053F9300070BDFEE718B583B020
:1041F00000240294002902D10094019402E000906E
:10420000491E019103AB6946064878441630FBF716
:1042100057FF0099002900D00C70002800D40298A4
:1042200004B010BD211E000010B50400002C01D107
:10423000012033E0A0690028FFD16920205C00281C
:1042400005D1002068216054200000F06FFB02209F
:104250006921605420680068012188432168086052
:10426000200000F093F8606A002802D0200000F0DF
:104270005DFA206840680A49014020684160206872
:1042800080682A21884321688860206800680121AD
:10429000014320680160200000F016FA10BD000004
:1042A000FFB7FFFFF8B505000C0016001F006920DE
:1042B000285C012803D06920285C222863D1002CC7
:1042C00002D0B6B2002E01D101205DE06820285C4A
:1042D000012801D1022057E0012068216854002004
:1042E000E8666920285C222803D1322069216854BD
:1042F00002E012206921685450202E5252202E5282
:104300005220285A002824D05220285A401E5221D8
:1043100068523B0000228021280000F07FFA00282C
:1043200001D0032030E0A8688021490188420BD1E8
:104330002869002808D1009400980088C005C00DA5
:1043400029688862A41CDBE7207829688862641CDD
:10435000D6E73B0000224021280000F05FFA002849
:1043600001D0032010E06920285C322803D12220EC
:104370006921685402E00120692168540020682105
:104380006854002000E00220F2BD0000FEB50400E9
:10439000002002900025002600272068B7498842A7
:1043A000FFD0A0682169014360690843E1690143C6
:1043B000029120680068B2490140029808432168D0
:1043C000086020684068AF490140E0680843216800
:1043D0004860A06902902068A849884203D00298EA
:1043E000216A0143029120688068B3490140029824
:1043F0000843216888602068B049884218D1B048D5
:1044000000688007800F002805D0022806D008D356
:10441000032809D00BE0012005004BE00220050035
:1044200048E00420050045E00820050042E041E0A6
:104430002068A449884219D1A14800680C21014094
:10444000002906D004290AD0082905D00C2909D052
:104450000BE0002005002DE0022005002AE00420EA
:10446000050027E00820050024E023E020688349B8
:1044700088421FD192480068C021090101400029EB
:104480000CD08020C00081420ED0802000018142EB
:1044900007D0C0200001814209D00BE000200500B8
:1044A00008E00220050005E00420050002E00820E5
:1044B0000500FFE720687149884268D1280000287C
:1044C00006D002281CD004283AD0082850D05DE03D
:1044D000FEF75CF9FDF7B0F90022904BFDF700FB09
:1044E000009001916068FDF7A7F902000B000098A9
:1044F0000199FDF7B7FBFDF77DF92168C860DAE0A7
:1045000087480068C0060DD56068FDF795F9020080
:104510000B0000208349FDF7A5FBFDF76BF921682F
:10452000C8600CE06068FDF787F902000B0000200E
:104530007D49FDF797FBFDF75DF92168C860BAE09A
:10454000FEF7A6F8FDF778F90022744BFDF7C8FADC
:10455000009001916068FDF76FF902000B00009870
:104560000199FDF77FFBFDF745F92168C860A2E0DE
:104570006068FDF761F902000B000020A349FDF718
:1045800071FBFDF737F92168C86094E093E0E069BA
:104590008021090288424AD12800002808D0012839
:1045A0000FD0022816D0042824D008282BD031E0C0
:1045B000FEF7ECF8022148436168FDF73AFA07007C
:1045C00028E0FEF7EFF8022148436168FDF731FA71
:1045D00007001FE052480068C00605D58C48616896
:1045E000FDF727FA070004E08A486168FDF721FA21
:1045F00007000FE0FEF74CF8022148436168FDF721
:1046000018FA070006E0802040026168FDF711FA01
:104610000700FFE78048384006003807000FC0B2A7
:104620004008C0B20643B6B22068C66043E0280026
:10463000002808D001280ED0022814D004282AD03F
:10464000082830D037E0FEF7A1F86168FDF7F1F9EE
:104650002168C8602FE0FEF7A5F86168FDF7E9F969
:104660002168C86027E02E480068C0060CD5A24823
:104670006168FDF7DEF92168C8600BE00048004082
:10468000F369FFEFFFCFFFFF9C486168FDF7D1F9A9
:104690002168C8600FE0FDF7FBFF6168FDF7C9F90D
:1046A0002168C86007E0802000026168FDF7C1F959
:1046B0002168C860FFE7F7BDFFF4FFFF0038014045
:1046C0004C1002400044004010B50400206800680F
:1046D00000070AD58A4B002280218903200000F0C0
:1046E0009DF8002801D0032017E0206800684007EB
:1046F0000AD5834B00228021C903200000F08EF8E8
:10470000002801D0032008E0002068216054002028
:10471000E066012069216054002010BD0000704057
:10472000001002408084CE418084EE4100B52421F7
:10473000415CC90707D501684968724A0A40816A25
:104740001143026851602421415C890707D5016843
:1047500049686D4A0A40C16A1143026851602421C8
:10476000415C490707D501684968684A0A40016BFE
:104770001143026851602421415C090707D5016893
:104780004968634A0A40416B114302685160242121
:10479000415CC90607D5016889685E4A0A40816B99
:1047A0001143026891602421415C890607D50168A4
:1047B0008968594A0A40C16B1143026891602421FB
:1047C000415C490614D501684968544A0A40016CA5
:1047D000114302685160016C80225203914207D15B
:1047E000016849684E4A0A40416C114302685160B1
:1047F0002421415C090607D501684968494A0A40F5
:10480000816C11430268516000BD000000006041EE
:1048100000127A000048E801F0FF0000F4B504003F
:104820000F001D000026FEF70CF806006846007811
:1048300000282FD12068C0693840B8425AD00020E3
:10484000C0438542F6D0002D04D0FDF7FAFF801B4F
:104850008542EFD220680068802188432168086083
:10486000206800682021884321680860206800686B
:104870002D4901402068016020688068012188433B
:1048800021688860012069216054002068216054FB
:10489000032030E02068C0693840B8422AD10020A7
:1048A000C0438542F6D0002D04D0FDF7CAFF801B1F
:1048B0008542EFD220680068802188432168086023
:1048C000206800682021884321680860206800680B
:1048D00015490140206801602068806801218843F3
:1048E000216888600120692160540020682160549B
:1048F000032000E00020F2BD00093D000024F40088
:10490000F0550000FFFFFDFFFFFFFEFFFFFFFBFF75
:10491000FF7FFFFFFFEFFFFFFFDFFFFFFFFFEFFF67
:10492000FFFF9FFFFFFFF7FFFFFEFFFF10B586B001
:1049300004009348006801210143914801609048B8
:1049400000680100C907C90F009100988C480068F1
:10495000012101438A480160894800680100C907B4
:10496000C90F00910098B248006880218902014374
:10497000AF480160042001900220029001200390C2
:10498000022004900420059001A9A020C00500F099
:1049900085F9082001900420059001A9A020C005F8
:1049A00000F07CF906B010BD80B5A248A2490860AD
:1049B00096208001A049486000209F49886000201F
:1049C0009D49C86000209C49086100209A4988617F
:1049D0000C20994948619848FFF726FC002801D02F
:1049E00000F054F901BD10B58EB00BA893490CC965
:1049F0000CC00839083809A891490CC90CC00839FD
:104A00000838FDF7F1FE0020FEF751FE00210020DE
:104A1000FEF7AFFE00F064FDFFF7C6FF00F0B7FB46
:104A2000FFF7E2F800F0DEFB06A904A800F09CFD09
:104A300000F0D8FB6846028B6846017C8148FEF78F
:104A4000D1FD6846007C312802DB01207E490870D8
:104A50007E480078002805D106220BA907A8FFF799
:104A6000AEFB04E0062209A907A8FFF7A8FB07AAE6
:104A70000621002000F0AAFD0400002C03D0210034
:104A80007348FEF7AFFDFEF76BFB0400002C02D06D
:104A90007048FEF7A7FD6D48007801281BD16A48D1
:104AA000007801280DD104A8801C019005A8009071
:104AB00005AB9B1C072200210120FEF7CFFE04005E
:104AC00024E004AB9B1C05AA05A9891C0120FEF764
:104AD00013FF04001AE05C48007801280DD104A8F7
:104AE000801C019005A8009005AB9B1C07220021AB
:104AF0000420FEF7B3FE040008E004AB9B1C05AAEB
:104B000005A9891C0320FEF7F7FE0400002C02D043
:104B10005148FEF767FD01200390504802900020A5
:104B20000190102000900723002200210120FEF7B1
:104B3000B9FF0400002C02D14948FEF753FD434859
:104B4000007801280FD14748FEF74CFDFDF726FFFE
:104B50000400002C03D14448FEF744FD06E043481E
:104B6000FEF740FD02E04248FEF73CFD0421012033
:104B700000F06FFD0400FFF761F800F003F8FAE7BA
:104B80002C10024000B585B03A480078002804D0C7
:104B9000FDF75EFF0020374908702C480078002898
:104BA00029D135480068002806D03448007800280C
:104BB00002D1FDF7AAFF09E02F480068002805D0C0
:104BC0002F480078002801D1FDF7BBFF2A48006874
:104BD000002810D02948007800280CD028480078F8
:104BE000002808D027480078002804D10020FEF7CC
:104BF000A1FDFEF777F80020FEF70CFE002815D186
:104C00000020FEF707FE0028FAD01B4800680028A5
:104C10000CD01C480078002808D068461A49142295
:104C2000FCF760FC14216846FDF7C6FF05B000BD27
:104C30003810024000440040C803002020620008F1
:104C400028620008F4600008E9040020EA0400205B
:104C50002C5F0008086100081C61000840E20100A8
:104C6000946000084C5F00086C5F00088C5F0008CF
:104C7000AC5F000809010020A8040020EE04002019
:104C8000EF040020EB0400203061000880B5002014
:104C9000FEF760FD6420FDF7D7FDF8E7F0B50200F0
:104CA0000023002400250868D840002800D1E1E056
:104CB000086801269E4006403400002C00D1D7E051
:104CC0004868022802D0486812281DD11800C00880
:104CD000042670431018006A05000F201E00760796
:104CE000760F04277E43B040854308691E0076078F
:104CF000760F04277E43B040284305001800C00803
:104D000004267043101805624868012808D04868D6
:104D1000022805D04868112802D0486812281CD102
:104D20009068050003201E0002277E43B0408543A3
:104D3000C8681E0002277E43B040284305009560E6
:104D40005068050001209840854348680600F60633
:104D5000F60F9E402E433500556010680500032075
:104D60001E0002277E43B040854308798007800FEC
:104D70001E0002277E43B040284305001560D0681E
:104D8000050003201E0002277E43B040854388684B
:104D90001E0002277E43B04028430500D5604868C6
:104DA000C00065D54A4800680126064348480660A9
:104DB00048481E00B60804277E43805905000F208E
:104DC0001E00B607B60F04277E43B0408543A020DF
:104DD000C005824201D1002014E03F48824201D147
:104DE00001200FE03D48824201D102200AE03C4808
:104DF000824201D1032005E03A48824201D10520D8
:104E000000E006201E00B607B60F04277E43B04020
:104E1000284305002F481E00B60804277E4385510D
:104E2000314800680500A5434868C00300D5254304
:104E30002D4805602D4800680500A543486880039B
:104E400000D5254329480560294800680500A54389
:104E50004868C00200D525432548056025480068FC
:104E60000500A5434868800200D525432148056018
:104E70005B1C18E7F0BD00B50200136989B20B4056
:104E8000002B02D00123180001E000231800C0B25B
:104E900000BD00B5D2B2002A02D089B2816101E022
:104EA00089B2816200BD426989B24A40426170475D
:104EB00010B5040010480068A4B22040002806D0B5
:104EC000A4B20D480460200080B200F0EFFB10BDDA
:104ED0003410024008000140000400500008005057
:104EE000000C0050001C005000040140040401406C
:104EF000080401400C040140140401408446087079
:104F0000000A4870000A8870000AC870604670473E
:104F100000604060704700B50100EFF310831A0095
:104F200072B60B688B4202D10123180001E0002306
:104F3000180082F31088C0B200BDEFF310831A008E
:104F400072B603680B60486001600B68596082F3B9
:104F500010887047EFF310831A0072B60860436838
:104F60004B6041604B68196082F310887047EFF323
:104F70001082110072B6026843681A6042680368C2
:104F80005A6081F31088704770B505000C00EFF38C
:104F90001080060072B6286820602868FFF7E7FFD7
:104FA00000202168086000202168486086F310888E
:104FB00070BDFEE710B586B004002068CC49884279
:104FC00000D0C2E0CB48006801210143C94801601C
:104FD000C84800680100C907C90F00910098C5487A
:104FE000006802210143C3480160C24800680221F1
:104FF000084000900098BF48006801210143BD4867
:105000000160BC4800680100C907C90F0091009801
:10501000B848006801210143B6480160B5480068FE
:105020000100C907C90F00910098B248006801212A
:105030000143B0480160AF4800680100C907C90FCB
:1050400000910098AB48006801210143A948016024
:10505000A84800680100C907C90F00910098A64838
:105060000068802149010143A3480160802040007D
:105070000190012002900120039000200490002064
:10508000059001A9A020C005FFF708FE002280219D
:105090004900A020C005FFF7FCFE08200190022077
:1050A000029002200390032004900020059001A9A3
:1050B000C648FFF7F3FD4020019002200290002037
:1050C0000390032004900020059001A9A020C005B2
:1050D000FFF7E4FD80200190022002900020039061
:1050E000032004900020059001A9A020C005FFF72F
:1050F000D5FD0220019001200290012003900320A1
:1051000004900020059001A9A020C005FFF7C6FD6E
:1051100001220221A020C005FFF7BBFE0120019063
:10512000C4480290002003900320049000200590C2
:1051300001A9A020C005FFF7B1FD00220321052031
:10514000FDF700FC0520FDF707FC06B010BDFEB51D
:1051500007000E0015001C00C64800680A21FCF775
:1051600068FC010001A8FEF791FF2000C0B200908A
:105170002B00DBB232003900BF4800F0BFF8002836
:1051800004D001A8FEF78AFF0028EED0F7BD80B555
:105190005748B949086082204000B749486000205C
:1051A000B54988600020B449C8600020B249086150
:1051B0000020B149486180208000AF49886100200B
:1051C000AD4908620020AC4948620720AA49C8627C
:1051D0000820A949C8610020A7498862A64800F0B4
:1051E0006BFA01BD80B5002280214900A020C005D6
:1051F000FFF74FFE0520FDF727FB01228021490024
:10520000A020C005FFF745FE0520FDF71DFB01BDF1
:1052100080B50121A020C005FFF72DFE012801D196
:10522000012000E0002002BDF0B587B005000F00AE
:1052300016000024FF206946487104A88F490CC954
:105240000CC00839083800220221A020C005FFF751
:1052500020FE0F200090052302AA04A9280000F0D8
:1052600075FA6846007A02282DD102A8007900025A
:1052700002A9C97808436946C8806846C0880028E2
:1052800021D03000C0B26946C98880B2884202D2BB
:10529000F6B26846C680002004002000C0B269460D
:1052A000C98880B288420ED20F200090012301AA43
:1052B00001A9491C280000F049FA68460079E4B2C7
:1052C0003855641CE9E701220221A020C005FFF740
:1052D000E0FD002000900098022804DA00BF00984A
:1052E000401C0090F7E7E4B2200007B0F0BD0000DA
:1052F000003001402C10024034100240F6B5C7B017
:1053000007001E004E9D00240020019004A85C4967
:105310000CC90CC00839083802A85A490CC90CC07D
:105320000839083800F09BF80198002803D000F0F5
:105330004FF800F081F800220221A020C005FFF7FD
:10534000A8FD0F200090052302AA04A9380000F050
:10535000FDF90198002801D000F051F86846007A64
:10536000022825D102A84078F6B2EDB27119884220
:105370001ADBF6B2002E09D00F200090F6B23300EF
:105380009BB206AA4799380000F0E0F9EDB2002D73
:1053900011D00F200090EDB22B009BB206AA4899C5
:1053A000380000F0D3F906E00120C043040002E019
:1053B0000020C043040001220221A020C005FFF705
:1053C00068FD00F047F8200049B0F0BD000400502F
:1053D00000B585B0012000900120019003200390CA
:1053E000002002906946A020C005FFF757FC01226B
:1053F0000121A020C005FFF74CFD05B000BD00B5A0
:1054000085B0012000900B480190022002900320FB
:105410000390002004906946A020C005FFF73EFCE1
:10542000002002906946A020C005FFF737FC05B0B8
:1054300000BD00000000111080B500200090009811
:10544000D2214900884204DA00BF0098401C009035
:10545000F5E701BD80B50520FDF77EFA01BD80B5F9
:105460000520FDF780FA01BD01200749086070475B
:105470000000000060620008380400204862000854
:105480005062000858620008140401401206130A12
:105490001A43130C1A4300BF094205D0830705D0F5
:1054A0000270401C491EF9D170470000130030B44F
:1054B00014001500103902D310393CC0FCD2490742
:1054C00000D30CC000D504C0890002D30280801C28
:1054D000002900D5027030BC704700000022E5E7CB
:1054E00000B593B01C4800688021490501431A4863
:1054F00001601A4800681A490140802000010843F1
:10550000164908600220059001200890102009909B
:1055100002200F90002010908020C0021190802067
:10552000C003129005A8FCF78FFC01200090032017
:10553000019000200290002003900020049001219F
:105540006846FCF759FF07480068012101430548F8
:10555000016013B000BD00BF381002400070004071
:10556000FFE7FFFF3410024070B584B005000C0067
:1055700001A8009002AB9B1C02AA01A9891C02A8E9
:10558000401CFEF705FD0600F6B2002E18D1684655
:10559000C08880B2000A28706846C0880002208057
:1055A000208869468988C9B20909C9B2090101433D
:1055B00021802088694689880907090F01432180D5
:1055C000FEF73CFB3000C0B204B070BDF0B5A7B030
:1055D00007000D0016000024EDB22800801C812871
:1055E00001DB422033E007A8E4B20755641C07A89A
:1055F000E4B20555641CEDB22A00310007A8E4B2FC
:105600000019FEF7DCFD64191822002101A8FEF73D
:10561000E1FD3F20694688800C2001A9488007A849
:105620000390E4B20494684605900120069000219E
:1056300001A8FEF7C8FB002801D5FF2007E0684657
:105640000078002802D06846007800E0002027B0EB
:10565000F0BD30B589B005000C006846057101A8A1
:1056600044701822002102A8FEF7B4FD3F206946CD
:1056700008810F2002A9488001A80490022005900B
:105680006846069001200790002102A8FEF79BFBC8
:10569000002801D5FF2007E068460078002802D0E6
:1056A0006846007800E0002009B030BD10B5040065
:1056B000FEF707FB10BDFEE710B50400002C01D17A
:1056C00001203FE05120205C002805D1002050211E
:1056D00060542000FFF76EFC0220512160542068C6
:1056E000006840218843216808606068A168014320
:1056F000E06808432169014360690843A169802289
:10570000920011400143E0690843216A0143A06A05
:10571000084321680860A069000C04210840616A00
:10572000014320684160E06A216808612068C0691F
:10573000054901402068C1610020606501205121B8
:105740006054002010BD0000FFF7FFFFF2B582B0EB
:10575000040017001E00089D0020694608805120A3
:10576000205C012804D05120205C222800D0ABE12D
:105770000298002804D0002F02D0B6B2002E01D12A
:105780000120A2E15020205C012801D102209CE1EF
:105790000120502160545120205C012802D1322088
:1057A0005121605400206065A763A687E6870298B0
:1057B0002063A686E6860020A0640020E064A06A3C
:1057C0008021890188420CD120680068BF490140CE
:1057D00020680160206800688021890101432068F9
:1057E000016020680068400605D4206800684021F8
:1057F000014320680160E06880210901884200D0EF
:105800008CE06068002807D06068822149008842E7
:105810000CD1E08E012809D1206B00882168C86076
:10582000206B801C2063E08E401EE086E08E002806
:1058300020D1A06A80218901884206D120680068B1
:10584000802149010143206801602B0000220121D1
:10585000200000F03DF9002801D0032035E1206848
:10586000C068A16B0880A06B801CA063E08F401E05
:10587000E087DBE0E08E002837D02B0000220221F9
:10588000200000F025F9002801D003201DE1206B45
:1058900000882168C860206B801C2063E08E401E59
:1058A000E086E08E00280BD1A06A80218901884221
:1058B00006D1206800688021490101432068016009
:1058C0002B0000220121200000F002F9002801D065
:1058D0000320FAE02068C068A16B0880A06B801CE0
:1058E000A063E08F401EE087C4E76068002800D016
:1058F0009CE02B0000220121200000F0E9F80028A4
:1059000001D00320E1E02068C068A16B0880A06B93
:10591000801CA063E08F401EE08787E0606800285D
:1059200007D060688221490088420CD1E08E0128AE
:1059300009D1206B0100491C216300782168C860EF
:10594000E08E401EE086E08E00281DD1A06A8021F6
:105950008901884206D120680068802149010143FD
:10596000206801602B0000220121200000F0B0F827
:10597000002801D00320A8E02068C068A16B08704F
:10598000E08F401EE08751E0E08E002837D02B00EA
:1059900000220221200000F09BF8002801D0032003
:1059A00093E0206B0100491C216300782168C860E6
:1059B000E08E401EE086E08E00280BD1A06A802198
:1059C0008901884206D1206800688021490101438D
:1059D000206801602B0000220121200000F078F8EF
:1059E000002801D0032070E0A06B0100491CA163D6
:1059F0002168C9680170E08F401EE087C4E76068D5
:105A0000002813D12B0000220121200000F060F8B3
:105A1000002801D0032058E0A06B0100491CA163BD
:105A20002168C9680170E08F401EE087A06A80216C
:105A30008901884213D12B0000220121200000F0AF
:105A400047F8002805D0606D0221014361650320FD
:105A50003BE02068C06869460880684600882B00E3
:105A600001228021200000F033F8002805D0606D6D
:105A7000202101436165032027E00120512160546A
:105A8000A06A80218901884219D120688068C006F7
:105A900015D5606D022101436165206800680B49DE
:105AA000014020680160206800688021890101436D
:105AB00020680160002050216054012005E0002092
:105AC00050216054002000E00220FEBDFFDFFFFFF8
:105AD000F4B504000F001D000026FCF7B2FE06001E
