:020000040800F2
:10000000C8050020891B0008251A0008271A0008C7
:10001000A91B0008AD1B0008B11B00080000000070
:10002000000000000000000000000000291A000885
:100030002B1A0008000000002D1A00082F1A0008D3
:10004000B51B0008B91B0008BD1B0008C11B000838
:10005000C51B0008C91B00083F1A0008CD1B00087B
:10006000D11B0008D51B0008D91B0008DD1B0008A8
:10007000E11B0008E51B0008E91B0008ED1B000858
:10008000F11B0008F51B0008F91B00080000000028
:10009000000000000000000000000000FD1B000840
:1000A000011C0008051C0008091C00080D1C0008A4
:1000B000111C0008151C0008191C00081D1C000854
:1000C000211C0008251C0008291C00082D1C000804
:1000D000311C0008351C0008451A0008000000000B
:1000E0004B1A0008391C00083D1C000800000000E5
:1000F000000000000000000000000000411C00089B
:1001000000000000451C0008491C00084D1C0008A8
:1001100000000000000000000000000000000000DF
:10012000511C0008551C0008591C00085D1C0008E3
:10013000611C00080000000000000000000000003A
:10014000000000000000000000000000651C000826
:10015000691C00086D1C0008711C0008751C000853
:10016000791C00087D1C0008000000000000000051
:10017000000000000000000000000000000000007F
:1001800000000000811C00080000000000000000CA
:10019000851C000838B5050001D1012032BD00F0F2
:1001A000DBF818B92070284600F0EAFA00F016F8DB
:1001B00000F00CF821F02A01FFE74161286800F007
:1001C00018F8606001206070002032BD2868016965
:1001D00021F49041016128684169704702206070F4
:1001E0002868C16821F40051C160284600F0F0B9C8
:1001F0002068C16841F40051C16000207047F8B523
:1002000000F094F818BF22281E463ED1002D18BFDA
:10021000002A01D10120F2BD3878012835D000F044
:1002200090F822280CBF322012207870A284E28439
:1002300006E000F082F800BB216815F8010B486069
:10024000E08CA0B1401EE0843346A068B0F5805F2A
:10025000EFD100F072F880B928882168C005C00D80
:1002600048602069002814BF6D1CAD1CE8E73346C8
:100270000022402100F063F808B10320F2BD787835
:1002800032280CBF2220012061E00220F2BDF8B527
:1002900000F04CF818BF12281E4645D1002D18BF9B
:1002A000002A01D10120F2BD387801283CD000F0AD
:1002B00048F812280CBF322022207870A285E285EF
:1002C00003E0C005C00D25F8020BE08D30B3401EE1
:1002D000E0853346A068B0F5805F0DD10022202173
:1002E00000F02DF868B92069002820684068E8D03F
:1002F000C0B225F8010BE8E70022202100F01FF82A
:1003000008B10320F2BD206900282068406802D1AE
:1003100005F8010BD9E700F07F00F9E7787832287B
:100320000CBF1220012012E00220F2BD044604F1AD
:1003300038070D4678780128704700228021204632
:10034000A6E00120387000207860787870477870D7
:1003500000203870F2BD054605F13804607870471A
:1003600010B5044682B020680168C268C9070AD582
:10037000D10508D501680091416800910099E16BB1
:1003800041F00101E1630168426989070AD5D1079B
:1003900008D501680091416800910099E16B41F036
:1003A0000401E1630168426949070AD5D10708D50C
:1003B00001680091416800910099E16B41F00201F0
:1003C000E1630168426909070AD5D10708D50168C8
:1003D0000091416800910099E16B41F00801E163EF
:1003E0000168C068890604D5800644BF204600F035
:1003F0009FF820680168C268090626D5110624D531
:1004000094F83910122918BF32291ED1A168B1F50C
:10041000805F216A0BD10988C905C90D4160206937
:100420000028206A0CBF801C401C206203E04A1C8C
:10043000226209784160E08C401EE08480B220B9DD
:1004400000F062F841F04001C16020680168C268B4
:10045000490612D5510610D5C16821F04001C1608E
:1004600094F83900322808BF222001D000F054F857
:1004700084F83900204600F009F8E06B28B101202B
:1004800084F83900204600F01BFA13BD704770470E
:100490002DE9F84304460E4691461F4600F054FAF3
:1004A000B9F1000F804604F138050FD120680068CB
:1004B0003040B04225D017F1010FF7D0AFB100F0B6
:1004C00043FAA0EB08008742F0D20EE020680068F3
:1004D0003040B04215D117F1010FF7D02FB100F025
:1004E00033FAA0EB08008742F0D200F00DF821F0BB
:1004F0002001C16000F010F868700020287003200F
:1005000000E00020BDE8F2832068C16821F080018E
:10051000C1602068C16870472068C16821F480719B
:10052000C160206841694908490041610120704764
:1005300080B590F83910222918BF322946D1816838
:10054000B1F5805F11D10269816A002A02685268A0
:1005500005D1D205D20D0A80816A891C03E0D2B28E
:100560000A80816A491C81620FE001690029816A61
:1005700004D14A1C82620268526805E04A1C826209
:100580000268526802F07F020A70C18D491EC1855F
:1005900089B2C9B90168CA6822F02002CA6090F81D
:1005A0003910322908BF12210AD00168CA6822F422
:1005B0008072CA6001684A69520852004A6101218A
:1005C00080F83910FFF763FF002002BD022002BD52
:1005D0002DE9F0410446642520680169E26821F4B0
:1005E0004051114301611926C168314A1140A26886
:1005F00011432269114362691143E2691143C160E9
:100600004169A26921F4407111434161E3692949BB
:10061000294AB3F5004F17D1904218BF884208D13C
:1006200000F0EFFB804600F0ECFB074600F0E9FB32
:1006300007E000F0DEFB804600F0DBFB074600F041
:10064000D8FB61684A0016E0904218BF884208D182
:1006500000F0D7FB804600F0D4FB074600F0D1FB4A
:1006600007E000F0C6FB804600F0C3FB074600F041
:10067000C0FB61688A00704306FB07F3B0FBF2F031
:10068000B3FBF2F3B0FBF5F005FB1030000106FB05
:1006900008F13230B1FBF2F1B0FBF5F0B1FBF5F14E
:1006A00000F00F0040EA011021688860BDE8F08189
:1006B000F369FFFF001401400010014030B5C1B0E4
:1006C000FF218DF8001000AD0121697002244178EE
:1006D0002971002169710178FF2914D1407801281E
:1006E00004D0042809D005280AD00CE08DF80600B3
:1006F000042409208DF8070007E000F081FC04E0E5
:1007000000F08DFC01E0012068710020221DAC701A
:100710008DF80300D2B200E0401C9042FCDB4FF4A5
:10072000967300A95F48FFF76AFD08B100F0D4F89E
:1007300041B030BD80B55C485C4941604FF4E13167
:1007400081600021C16001614161C1610C21816151
:10075000001DFFF71FFD00281CBFBDE8014000F091
:10076000BBB801BD81B000200090514903E000BF3B
:100770000098401C009000988842F8D301B0704760
:1007800010B54C484C4C86B000F022F800F020F830
:10079000016941F40031016101A9006900F40030F0
:1007A0000090009804200190022002900120039004
:1007B0000220049000F007F80820019001A900F041
:1007C00002F806B010BD07200590204600F018BDC5
:1007D000016841F001010160016801F0010100912F
:1007E00000997047F0B5C1B000F07EF8002000F02D
:1007F00001FE0021002000F02DFE00F07CFEFFF73E
:1008000099FF00F0E4FB00F0FBFB2C4C264D0A2383
:1008100004222946281DFFF73AFD20B1032823D0E2
:1008200000F05AF820E0EE7856B14FF49673324655
:1008300005F14401281DFFF72AFD08B100F04CF82E
:10084000002000E0401CB042FCDB2878012807D1E2
:100850003346042205F14401284600F097FB03E0EB
:1008600004212846FFF72AFF0121134800F094FDD8
:100870000128CCD1FF2200A9204600F0D8FBC6B247
:10088000002EF1D0002700A839184FF496730122EA
:10089000281DFFF7B4FC08B100F01EF87F1CB7421A
:1008A000F1DBE1E7200000201C00002000440040B4
:1008B000400D03003038024000000240600100207B
:1008C00080B5002000F0BCFDFFF74CFF002000F0D9
:1008D000B7FDBDE8014045E780B5002000F0B0FD60
:1008E000642000F034F8F8E780B51F48016841F44F
:1008F00000710160016841F480610160016841F4A8
:1009000080710160032000F026FE0F2000F005F842
:1009100000F002F8002002BD704710B5044600F058
:1009200058FA4FF47A71B0FBF1F000F04DFE00225E
:1009300021464FF0FF3000F01BFE002010BD0B4899
:100940000168491C0160704708480068704711B58C
:1009500081B0FFF7F9FF0446FFF7F6FF0199001B8E
:100960008842F9D313BD0000003C0240B8010020CA
:100970002DE9F047044682B02078DFF8A864C0076C
:1009800041F289383BD5B06800F00C00042805D04E
:1009900000F02AF909D17068400206D5306880035A
:1009A0002DD5606858BB012017E10020B070FFF71B
:1009B000CBFF07463068800305D5FFF7C5FFC01B96
:1009C0004045F7D306E16068B070606858B1FFF742
:1009D000BBFF07463068800311D4FFF7B5FFC01B8B
:1009E0004045F7D3F6E0FFF7AFFF074630688003D6
:1009F00005D5FFF7A9FFC01B4045F7D3EAE02078F3
:100A0000DFF82494800716D5B06810F00C0F05D0DD
:100A100000F0EAF826D17068400223D430688007DD
:100A200002D5E0680128BED13068216920F0F800C5
:100A300040EAC10030602078DFF8F05300073DD570
:100A40006169DFF8EC0361B301210160FFF77CFF0E
:100A500007466868800731D4FFF776FFC01B65281A
:100A6000F7D3B7E0E06870B10120C9F80000FFF7E4
:100A70006BFF074630688007D6D4FFF765FFC01BC1
:100A80006528F7D3A6E0C9F80000FFF75DFF074629
:100A900030688007CFD5FFF757FFC01B6528F7D315
:100AA00098E00160FFF750FF07466868800705D5AA
:100AB000FFF74AFFC01B6528F7D38BE0207840077B
:100AC00047D5306CDFF86CA340F080503064306C58
:100AD00000F0805000900098DAF8000040F4807038
:100AE000CAF80000FFF730FF0746DAF80000C0053B
:100AF00005D4FFF729FFC01B6528F6D36AE0002064
:100B00002870FFF721FF07462868800705D5FFF703
:100B10001BFFC01B4045F7D35CE0A0682870A068AD
:100B200058B1FFF711FF07462868800711D4FFF777
:100B30000BFFC01B4045F7D34CE0FFF705FF07460E
:100B40002868800705D5FFF7FFFEC01B4045F7D397
:100B500040E0A06900283FD0B16801F00C010829ED
:100B60003FF421AF02282AD100F039F80746306857
:100B7000800105D5FFF7E8FEC01B6528F7D329E003
:100B8000E069216A0843616A40EA8110A16A891E0E
:100B9000C903090C40EA0140E16A40EA0160706063
:100BA0000120C9F86000FFF7CFFE074630688001DA
:100BB00012D4FFF7C9FEC01B6528F7D30AE000F086
:100BC0000EF807463068800106D5FFF7BDFEC01B52
:100BD0006528F7D3032000E00020BDE8F687002059
:100BE000C9F86000FFF7B0BEB06800F00C0008283C
:100BF00070472DE9F843DFF84042DFF828520646F7
:100C00002068894600F00F00484541F2893840D2FB
:100C100000F0A2F810D100F0ADF840F184807068C7
:100C2000012802D12968890305E0022818BF03289A
:100C300003D12968890103D473E02968890770D535
:100C400000F091F80746706801280AD1A86800F002
:100C50000C00042867D0FFF777FEC01B4045F5D392
:100C60005AE0022809D1A868FFF7BFFF5BD0FFF761
:100C70006BFEC01B4045F6D34EE003283CD0A8686D
:100C800010F00C0F4FD0FFF75FFEC01B4045F6D3AE
:100C900042E000F06FF841D57068012802D1296860
:100CA000890305E0022818BF032803D129688901B8
:100CB00003D436E02968890733D500F054F8074695
:100CC000706801280AD1A86800F00C00042825D01B
:100CD000FFF73AFEC01B4045F5D31DE0022809D1BD
:100CE000A868FFF782FF19D0FFF72EFEC01B404512
:100CF000F6D311E0032806D1A868FFF725FEC01B34
:100D00004045F9D308E0A86810F00C0F06D0FFF7B3
:100D10001BFEC01B4045F6D303201BE000F01CF86F
:100D200001D0012016E03078400705D5A868F168A9
:100D300020F4E0500843A8603078000706D5A86882
:100D4000316920F4604040EAC100A8600F20FFF73D
:100D5000E4FD0020BDE8F28384F80090206800F0F4
:100D60000F0048457047A968890840EA8100A860DB
:100D7000FFF7EABD3078800705D5A868B16820F094
:100D8000F0000843A8603078C00770472C484168DD
:100D900001F00C01042902D0082902D017E02948EB
:100DA000704701680268520201F03F014CBF254ABA
:100DB000254AB2FBF1F102680068C0F30140C2F3BA
:100DC0008812401C51434000B1FBF0F070471E48B0
:100DD000704780B5FFF7DAFF184B0FF274021B68FB
:100DE0001A49C3F303139A5C20FA02F30B600868F4
:100DF00002BD80B5FFF7EDFF00F00EF8C2F38222CE
:100E000006E080B5FFF7E5FF00F006F8C2F34232D6
:100E1000125C21FA02F002BD084A126801460FF284
:100E200030007047003802400000474270380240EE
:100E3000800E474200700040003C024008380240EB
:100E40000438024000127A000024F4001000002050
:100E50000000000001020304010203040607080960
:100E60000068DFF86813884200D0704710B5D84892
:100E7000D84C86B0016841F001010160016801F0C1
:100E8000010100910099016841F0020101600168CF
:100E900001F002010091009900F065F800F063F89C
:100EA000416941F48051416101A9406900F48050D9
:100EB000009000984FF48070019001200290039000
:100EC00000200490059000F066F900F031F8082049
:100ED000019001A9022002900390032004900520B4
:100EE0000590BD4800F08CF9402000F02FF88020DC
:100EF00000F02CF80220019001A90120029000F0DE
:100F00001DF801220221204600F04CFA0120019038
:100F100001A9B2480290002000F010F8002203213D
:100F2000062000F025FB062000F03FFB06B010BDB8
:100F300000224FF48071204600F034BA0390032061
:100F4000049000200590204600F05AB9019001A9B4
:100F500002200290002003900320049005200590B9
:100F6000204600F04DB9016841F0010101600168BF
:100F700001F0010100910099016841F00101016057
:100F8000016801F001010091009970472DE9F041DD
:100F900004469348DFF84C8200680D460A2184B06D
:100FA000B0FBF1F116461F4601A800F02FFBF8B286
:100FB0000090F3B22A462146404600F085F820B161
:100FC00001A800F02BFB0028F1D0BDE8FF81854887
:100FD0007E4901604FF48271416000218160C160EF
:100FE000016141614FF40071816100210162416240
:100FF0000721C1620821C1610021816200F01ABB92
:1010000010B5744CFFF794FF0520FFF7A0FC0122F8
:10101000FFF78FFFBDE810400520FFF798BC80B5B3
:1010200000F0A5F8FFF7ECFFBDE80140B6E02DE9C0
:10103000F04387B005460E46FF2017468DF80500A1
:1010400004A80FF2A411DFF88C810CC90CC0002297
:101050000221404600F0A6F90F200090052302AAC5
:1010600004A900F081F89DF808000024022819D195
:101070009DF80C009DF80B1051EA002912D04F4545
:101080000DDAB9460BE00F200090012301AA0DF103
:10109000050100F069F89DF80400A055641CE4B255
:1010A0004C45F0DB01220221404600F07BF9002094
:1010B00002E000BF0098401C009000980228F8DB76
:1010C000204607B0BDE8F0832DE9F04788469146F9
:1010D0001E460FF21C11C6B005460CC903A80FF23C
:1010E0001811DFF8F0A00CC00CC901A800270CC033
:1010F000062000F060FA00220221504600F052F96A
:101100000F200090052301AA03A900F02DF89DF8F7
:10111000040002281AD14E9C9DF8050054FA86F16D
:10112000884210DB36B10F200090334605AA4146B5
:1011300000F01AF864B10F200090234605AA494632
:1011400000F012F804E06FF0010701E04FF0FF3704
:1011500001220221504600F025F9062000F025FA70
:10116000384646B0BDE8F087284600F0B5BA10B55D
:1011700086B001200090019003200390002002908F
:1011800000A9144C00F007F801220121204600F0CC
:1011900009F906B010BD204600F032B810B586B08F
:1011A0000120009000A90D480A4C019002200290F5
:1011B0000320039000200490FFF7EDFF0020029031
:1011C00000A9FFF7E8FF06B010BD000000300140A5
:1011D00030380240000002400004024000001110BC
:1011E000A41B0008600100200B00000000000000AC
:1011F0000A00000000000000AA000000000000003B
:101200002DE9F8470022714BDFF8C481DFF8C49163
:101210004FF00F0A012707FA02FC0F680CEA0707D4
:10122000674540F0B3804C68022C18BF122C10D1D7
:10123000D40800EB840E02F00704DEF82050A4006E
:101240000AFA04F6B5430E6906FA04F42C43CEF804
:1012500020404FEA420E032405680E7904FA0EF48A
:10126000E44306F00306254006FA0EF63543056012
:101270004D68012D18BF022D03D0112D18BF122D5E
:1012800011D18568CE68254006FA0EF63543856093
:10129000456825EA0C0C4D68C5F30015954045EAF4
:1012A0000C0CC0F804C0D0F80CC004EA0C0C8C681C
:1012B00004FA0EFE4EEA0C0CC0F80CC0D1F804C0C3
:1012C0005FEACC0C62D5D9F8004044F48044C9F8F8
:1012D00000404FEA920CD9F8004004F48044009496
:1012E00002F00305009C58F82C404FEA850E0AFADC
:1012F0000EF5AC43384DA84208BF002513D0374D3A
:10130000A84208BF01250ED0354DA84208BF0225CE
:1013100009D0344DA84208BF032504D0324DA8425D
:101320000CBF0425052505FA0EFE4EEA040448F814
:101330002C406FEA070C1C680CEA040E4C68E403AE
:1013400048BF47EA0E0EC3F800E05C680CEA040EE2
:101350004C68A40348BF47EA0E0EC3F804E09C683B
:101360000CEA040E4C68E40248BF47EA0E0EC3F8CC
:1013700008E0D3F80CE00CEA0E0CD1F804E05FEAC8
:101380008E2E48BF47EA0C0CC3F80CC0521C102A22
:10139000FFF440AFBDE8F1870069084018BF0120A5
:1013A000C0B2704702B90904816170474269514077
:1013B000416170470D4A1368034200D1704780B500
:1013C000106000F015F801BD00000000003C014075
:1013D0000838014044380240000002400004024046
:1013E00000080240000C024000100240143C014082
:1013F0007047000070B5040086B008D1DFF8DC004B
:10140000016841F001010160006800F061F80FF22D
:10141000DC00DFF8CC6030F8145001950120029018
:10142000039001A90220049056F82400FFF7E8FE7B
:1014300056F8240000222946FFF7B4FF06B070BD1D
:101440000FF2A801DFF8982031F8101052F82000B0
:10145000FFF7ACBFF0B5050087B00E460AD1DFF844
:101460007C00016841F004010160006800F00400A4
:1014700000900098DFF86C400FF274074EB900F04E
:1014800021F8029002200390049054F82500FFF701
:10149000B7FE012E14D100F015F80390DFF84800D4
:1014A000029054F82500FFF7ABFE0FF248002C5CC9
:1014B00000220F2160B200F05BF860B200F075F816
:1014C00007B0F0BD37F81500019001A90020704762
:1014D00000F0010000900098704700003038024092
:1014E000140000201800002000002110200000003F
:1014F00000200000280000B591B0022000900120DB
:1015000003900620049002200690002007901020EF
:1015100008904FF48070099008200A9004200B90E6
:1015200000A8FFF725FA01200C90012102200D9060
:101530000CA8FFF75EFB11B000BD000009010028F8
:1015400006D52B4A00F00F00801800F8041C7047E5
:10155000284A8154704728490A684FF6FF031A4009
:1015600000F0070042EA0020244A10430860704758
:1015700070B5214B1B68C3F302230124C3F1070597
:10158000052D2EBF0F2504FA05F56D1E1E1D072E15
:1015900034BF0023DB1E2940994004FA03F3BDE861
:1015A00070405B1E1A401143C8E7012100F01F0282
:1015B0009140134A04E0012100F01F029140114ABA
:1015C000400942F82010704710B5401EB0F1807FEE
:1015D00001D3012010BD0C4C60600F214FF0FF3093
:1015E000FFF7ACFF0020A06007202060002010BDA6
:1015F00018ED00E000E400E00CED00E00000FA056A
:1016000000E100E080E100E010E000E010B50446F9
:101610006160FFE700F0DBF9206010BD10B5044603
:1016200000F0D5F922686168801A401C814280412F
:10163000C00F10BD38B5050001D1012032BD05F144
:101640005004607818B920702846FFF709FC022082
:101650006070286800F02CF86868A9680843E96899
:1016600008432969084369690843A96901F40071BD
:101670000843E9690843296A0843A96A08432968B5
:101680000860A869696A000C00F004000843296832
:1016900048602968E86A08612868C16921F4006126
:1016A000C1610020606001206070002032BD2068B0
:1016B000016821F0400101607047A06AB0F5005F49
:1016C00004D12068016841F4805101603346002252
:1016D0000121204600F03EB970B5044604F15005E2
:1016E00082B06878012818BF222840F0B88000290D
:1016F0001CBF002A002B00F0AF802878012800F0E2
:10170000AE80012028706878012804BF32206870FC
:1017100000206860A064E064A263A387E38721637C
:10172000A386E38600F0FDF820680168490601D42D
:1017300000F0F2F8E068069EB0F5006F606836D100
:1017400028B1B0F5827F04BFE08E012801D100F0FE
:101750008FF8E08E00281DD100F0F3F820D120682A
:10176000016841F4805101601AE0334600220221F1
:1017700000F0EEF800284AD100F07AF880B2002894
:1017800004BFA06AB0F5005FFFF79AFF00283ED1C2
:1017900000F09CF8E08E0028E7D1606800283DD179
:1017A00000F0D3F8002832D100F088F833E028B1F7
:1017B000B0F5827F04BFE08E012801D100F063F80C
:1017C000E08E00281BD1FFF778FF00281FD120688A
:1017D000C068A16B08701EE033460022022100F0B1
:1017E000B7F8A0B900F04FF880B2002804BFA06A93
:1017F000B0F5005FFFF764FF48B900F04EF8E08EE7
:101800000028E9D1606848B900F09FF808B10320CA
:1018100076BD00F026F8E08F401EE08700F091F8DA
:1018200009D100F092F820B1686840F002006860C9
:10183000EDE700F03CF833460122802100F088F803
:1018400018B1686840F02000F1E700F05AF805D1BF
:10185000C90603D500F045F8012076BD59E0022005
:1018600076BDA06B411CA1632168C96801707047F7
:10187000206B21680088C860206B801C2063E08E8C
:10188000401EE0867047206B411C21632168007870
:10189000C860E08E401EE0867047A06B411CA163CB
:1018A0002168C9680170E08F401EE087704720689A
:1018B000C068ADF80000BDF8000070472068C0683F
:1018C000A16B0880A06B801CA06370472068C06873
:1018D000A16B0880A06B801CA063E08F401EE08796
:1018E0007047696841F002016960016821F40051A4
:1018F00001602068016841F40051016000202870F7
:1019000070470120687020688168A26AB2F5005FA4
:1019100070470020287076BD016841F040010160E9
:101920007047A06AB0F5005F09D12068016821F412
:10193000005101602068016841F400510160704766
:10194000E087A06AB0F5005F7047334600220121AE
:101950002046FFE72DE9F04104460D4690461E461D
:10196000FEF7F2FFB8F1000F07460ED1206880683D
:101970002840A84228D016F1010FF7D09EB1FEF7FB
:10198000E3FFC01B8642F1D20DE02068806828404A
:10199000A84219D116F1010FF7D026B1FEF7D4FFF6
:1019A000C01B8642F1D22068416821F0E00141600D
:1019B000FFF77DFEFFF7B5FF04F1500001214170F4
:1019C00000210170032000E00020BDE8F081FEF757
:1019D000BBBF00000E480F4A016841F4700101606E
:1019E0000D48016841F0010101600021816001683A
:1019F0001140016009494160016821F480210160C2
:101A00000021C1604FF00060054908607047000088
:101A100088ED00E0FFFFF6FE0038024010300024A1
:101A200008ED00E07047FEE770477047704780B5EB
:101A3000FEF785FF09480168491C016001BD0120CE
:101A4000FFF7B8BC0648FEF78BBC80B54FF40050DA
:101A5000FFF7B0FC03490120087001BDBC01002064
:101A600020000020C001002019E050F8041BCB0723
:101A700044BFA9F101035918121F0023042A41F899
:101A8000043BF9D25FEA827C0B4604D54FF0000C90
:101A9000A1F800C09B1CD10744BF0021197050F869
:101AA000042B002AE1D1704710B450F8041B79B11F
:101AB0000268436812180830DC0744BFA9F101042A
:101AC000E31852F8044B43F8044B091FF9D1ECE733
:101AD00010BC704710B5074979441831064C7C4456
:101AE000163404E00A68081D511888470146A142CF
:101AF000F8D110BD2C0000004C0000004EF68851BB
:101B0000CEF20001086840F470000860BFF34F8F08
:101B1000BFF36F8F4FF00070E1EE100A70470000C6
:101B200049FFFFFFA80100001C000020000000008A
:101B300079FFFFFF1C0000005001000000000020A2
:101B40000000000000F00BF8002801D0FFF7C2FFF2
:101B50000020C046C046FEF745FE00F002F8012016
:101B6000704700F001B800000746384600F002F860
:101B7000FBE7000080B5C046C046024A11001820AD
:101B8000ABBEFBE726000200014880470148004742
:101B9000D5190008991B0008C046C046FFF7AEFFE4
:101BA000FFF7D0FFE8030000FFF7FEBFFFF7FEBF1F
:101BB000FFF7FEBFFFF7FEBFFFF7FEBFFFF7FEBF59
:101BC000FFF7FEBFFFF7FEBFFFF7FEBFFFF7FEBF49
:101BD000FFF7FEBFFFF7FEBFFFF7FEBFFFF7FEBF39
:101BE000FFF7FEBFFFF7FEBFFFF7FEBFFFF7FEBF29
:101BF000FFF7FEBFFFF7FEBFFFF7FEBFFFF7FEBF19
:101C0000FFF7FEBFFFF7FEBFFFF7FEBFFFF7FEBF08
:101C1000FFF7FEBFFFF7FEBFFFF7FEBFFFF7FEBFF8
:101C2000FFF7FEBFFFF7FEBFFFF7FEBFFFF7FEBFE8
:101C3000FFF7FEBFFFF7FEBFFFF7FEBFFFF7FEBFD8
:101C4000FFF7FEBFFFF7FEBFFFF7FEBFFFF7FEBFC8
:101C5000FFF7FEBFFFF7FEBFFFF7FEBFFFF7FEBFB8
:101C6000FFF7FEBFFFF7FEBFFFF7FEBFFFF7FEBFA8
:101C7000FFF7FEBFFFF7FEBFFFF7FEBFFFF7FEBF98
:101C8000FFF7FEBFFFF7FEBF0000000000000000EE
:101C900001020304060708090024F40000000240C2
:041CA00000080240F6
:00000001FF
