:020000040800F2
:1000000000090020F9420008754000087740000808
:1000100000000000000000000000000000000000E0
:100020000000000000000000000000007B4000080D
:100030007D400008000000007F400008814000086B
:100040009335000863420008934000086F4200089F
:10005000414300089B40000843430008A5400008B6
:100060004543000847430008BD40000849430008D5
:100070004B4300084D430008000000004F430008B8
:1000800000000000514300080000000000000000D4
:100090005343000800000000554300085743000880
:1000A000594300085B4300085D4300085F430008B4
:1000B0006143000863430008654300086743000884
:1000C000002093490870704780B5924800688047C7
:1000D00001BD80B590480068006C0068006801218F
:1000E00088438D490968096C096808608A48006876
:1000F000406C006800680121884387490968496CA1
:100100000968086072B68548007801280BD1002084
:100110008249087001208049087100F0DEF862B65B
:1001200000F0B0F903E000207B49087162B601BD20
:1001300080B5FFF7CEFF78484189C9B2784800689A
:1001400000F070FC01BD80B5012000F09BFA002199
:10015000002000F00DFE01BD80B5724800F020F8CF
:1001600070486D49086000206B49087100206B4998
:1001700008706C48006840680321014369480068C2
:100180004160684800680068402101436548006894
:100190000160654B0022BA49032001F075F901BDE9
:1001A00080B5C14901608221490041600021816020
:1001B0000021C1600021016100214161802189008D
:1001C000816100210162002141620721C162002199
:1001D000C1610021816201F013FA01BD00B587B051
:1001E00080204000019000200490B04B002269461E
:1001F000032001F049F9AE48006801210143AC48F1
:100200000160002280214900A020C00501F033FBDD
:10021000012002900020039001A9A020C00501F058
:1002200037FA01216846007801F09FF9012038492A
:100230000870374800780128FBD00122802149004E
:10024000A020C00501F017FB5D216846007801F091
:100250008CF901202E4908702D4800780128FBD028
:100260006846007801F049F907B000BD10B52A4C86
:10027000A0612948C161A7480270A7480370002007
:10028000B949087072B624480079002808D10120C5
:100290002149087100F021F862B600F0F3F803E09C
:1002A00001201E49087062B610BD80B50120AF491B
:1002B0000860052001F07FFB052001F06DFB0121A6
:1002C000A020C00501F0CCFA012805D1A84800689B
:1002D00001210143A648016001BD80B5052001F060
:1002E00060FB01BD80B500220221A020C00501F005
:1002F000C2FA01BD80B59F480068006880680006AA
:10030000F9D401220221A020C00501F0B4FA01BDF8
:10031000F8040020B0040020340400205804002019
:100320009C04002068030020C900000880B5FFF786
:10033000E1FF002003E0802189050968401CC0B26C
:100340000D28F8DBFFF7CEFF01BD80B52020C8499E
:10035000086080208000C64908608648007A00282E
:1003600003D0022829D037D389E0C248007900029F
:10037000C049C9780843BF49097880B2002802D033
:10038000C9B2022915D00121A020C00501F068FAE8
:10039000002808D1FFF7AEFF0621012000F0E8FC9D
:1003A000FFF797FE08E0FFF7C1FF002000F06AF9B1
:1003B00002E0022000F066F961E0FFF79BFF0621F2
:1003C000012000F0D5FCAC48AC49086002212C4863
:1003D000007801F0CAF852E0A64880780002A549EA
:1003E00049780843A349097880B2002802D0C9B2ED
:1003F000022905D0FFF79AFF012000F043F93DE004
:100400005949097801291FD080B242490978424AE6
:100410001278891888420FDA3E490978401A9849BB
:1004200008703D48007896490978401A3A490870A2
:1004300001204D49087003E0374800789049087062
:10044000002000F099F819E03349097880B289B2A8
:10045000884209D28A4908702F480078884909786B
:10046000401A2D49087006E02B480078844908702E
:10047000002029490870012000F07EF8FFE701BD47
:10048000F704002080B5FFF728FFCD487B490860BE
:10049000FFF728FF0621CB48007801F066F8062117
:1004A000002000F065FC01BD00300140C1000008E3
:1004B0002C10024080B5802080006D4908602D48D6
:1004C000007D002802D001280BD022E06C48007883
:1004D000002803D0012000F04FF801E000F01EF8E2
:1004E00017E021480078012810D10B480078002837
:1004F0000CD02048C0696249097840181D49C8617C
:10050000FFF714FF012000F0BDF801E000F006F84D
:10051000FFE701BD540400205504002080B50621EA
:10052000002000F025FC002012490871FFF7E2FED0
:1005300010480068006C00680068012188430D497C
:100540000968096C096808600A480068406C00681E
:1005500000680121884307490968496C09680860F7
:10056000FFF7A3FE01BD0000570400201404014062
:10057000100401403404002010B50400B4480068A1
:10058000006C0068006801218843B1490968096C62
:1005900009680860AE480068406C00680068012186
:1005A0008843AB490968496C09680860A848006835
:1005B000406C0068006802218843A5490968496CBD
:1005C0000968086080208000294908600A2001F03D
:1005D000F2F99F480068006C00680068022101433E
:1005E0009B480068006C0068016099480068006CD6
:1005F000006800688021014395480068006C00682D
:100600000160E4B2002C02D0012C12D023E00020C3
:100610008F4908758F4800788D490968096C096809
:1006200048608B4880698A490968096C0968C86014
:1006300011E001208649087511480078844909684D
:10064000096C096848608248C06981490968096C79
:100650000968C860FFE77E480068006C00680068B1
:10066000012101437A480068006C0068016010BDF8
:10067000040002409004002031010008B004002072
:100680005604002080B572490968096C0968096838
:10069000012291436E4A1268126C126811606C4913
:1006A0000968496C0968096801229143684A12681F
:1006B000526C12681160002104E0654A12681268E9
:1006C000127B491CC9B20429F7DB61490968496CEE
:1006D0000968096802220A435D490968496C09688A
:1006E0000A605B490968096C09680968022291433C
:1006F000574A1268126C12681160C0B2002803D009
:1007000002280BD005D342E05349002000F05CF8EA
:100710003DE05249012000F057F838E002204C49F2
:1007200008724F48007900024D49C978084348498A
:10073000097C89B280B2814201D24548007C44499B
:10074000488143490968096C096809688022914316
:100750003F4A1268126C1268116080B23C49096805
:10076000496C0968486080B239490968096C0968B0
:1007700048603748C06836490968496C0968C860EC
:10078000384833490968096C0968C860FFE7304890
:100790000068406C00680068012101432C48006833
:1007A000406C006801602A480068006C00680068BE
:1007B0000121014326480068006C0068016001BD0A
:1007C00047010008F7040020214A10722048006801
:1007D000006C00680068802202431D480068006CBD
:1007E0000068026005201A4A1268126C1268506094
:1007F0000520174A1268526C126850601848144A53
:100800001268526C1268D06011480068006C006871
:10081000C160704780B50E4AD0600D480174FFF783
:1008200044FD01BD80B572B60948007900280DD19C
:1008300001200749087162B6FFF754FD0020FFF759
:1008400021FF0021012000F093FA00E062B601BD13
:100850003404002054040020344300082C430008D2
:1008600090040020684300080120914908707047F7
:1008700010B5904801F0B0F88F4801F0ADF80024B1
:1008800008E08E48E4B28C2161434118894801F0A8
:10089000B6F8641CE4B2052CF3DB10BD80B5002073
:1008A00000906946834801F0B8F88021009801F073
:1008B000C9F801BD82490860704738B500220300BD
:1008C0000833804C2360804B1B78002B06D100231B
:1008D0007E4C238002E003237B4C23707B4B1B88E0
:1008E000802B6ADA794B1B881C00641C774D2C80A6
:1008F000744C24689BB2E35C734C2478002C06D1C2
:10090000DBB2042BE7D000206F49087055E06E4C35
:100910002478032C03D106236B4C2370DEE76A4C4A
:100920002478042C03D10523674C2370D6E7664C4A
:100930002478052C03D10723634C2370CEE7624C47
:100940002478072C03D108235F4C2370C6E75E4C44
:100950002478082C0CD15B490A68521C9178D37812
:100960001B061B0C194300220923574C2370B5E7C3
:10097000554C2478062C06D1DBB21900002209233D
:10098000514C2370AAE7504B1B78092BA6D1521C5F
:1009900092B289B28A42A1D300214B4A117000F071
:1009A0000DF847480068002807D04848018889B2F8
:1009B00044480068424A1268904731BD80B5020041
:1009C00008321100491C1278042A05D10A780E2A2F
:1009D00002D009780F2904D10100364801F00FF840
:1009E00005E00100344801F00AF801F00DF901BDFD
:1009F00080B500200090304800F0F1FF0EE069461D
:100A00002D4801F00AF80098083001F0B9FB009970
:100A1000284800F0F4FF284800F0E1FFC0B20028A9
:100A2000EDD001BD38B504000D00002000908248D3
:100A300000F0D5FF002807D169467F4800F0EDFFA0
:100A40008021009800F0FEFFEDB2002D03D02000C1
:100A5000FFF733FF03E02100774800F0C9FF31BD05
:100A600080B59BB292B200F0E7FF01BD38B514002B
:100A70001D008905890D8002084369460880684683
:100A8000847001206D490870032269466C4801F0AA
:100A900045FCE4B223009BB2042229006748FFF71B
:100AA000DFFF31BD0120674908707047000000007A
:100AB000F004002080040020880400200C000020A6
:100AC000A8040020A0040020F1040020E00400207D
:100AD000F8B5040060888005800D218889020143F3
:100AE00068460180584800680A2101F028FC060089
:100AF000002054490870002001F03AF95348FFF7EC
:100B0000D9FEA368E268D2B261882088FFF7AEFF01
:100B10000A2502E000204B4908702800451E0028E5
:100B200015D0002E00D10126002049490870494AFD
:100B30004949300001F05AFC01E001F015F9444840
:100B4000007800280CD04348007801F065FC0020B4
:100B5000FFF7B0FE012001F00BF90020C0433FE099
:100B6000384800780028E8D03A48007801F054FC72
:100B70003A48026810780428CCD1521C37480168E2
:100B8000C91C37480088C01E12780E2A29D00F2AA7
:100B900004D0102A4BD03E2A39D049E00A0093787D
:100BA000D7783F063F0C3B436F463F889BB2BB4222
:100BB0003ED163680F2B03D010780028C7D137E0EF
:100BC0006269904200DB606960616269206901F0DE
:100BD000A5FB0020FFF76EFE012001F0C9F8002000
:100BE000F2BD4A788B781B061B0C1A436B461B8898
:100BF00092B29A421CD1C91CC01E6269904200DBAD
:100C0000606960616269206901F088FBE1E70A7848
:100C100063689A420CD1401E6269904200DB6069B1
:100C200060616269491C206901F078FBD1E78EE7B9
:100C300000200449087070E780040020A40400200C
:100C4000A5040020F20400203C430008A50A000887
:100C5000F0040020EF04002069080008A004002030
:100C6000E0040020F0B589B006000D0014001F005C
:100C700009220021684601F058FB1822002103A830
:100C800001F053FB042069468881012003A94880B4
:100C900000200590002006906846079009200890E3
:100CA000002103A8FFF714FF002802D50020C0434D
:100CB0001FE068460078002802D00020C04318E0FA
:100CC00068464078307068464088288068460079D9
:100CD0002070694648798A791206120C10433880D0
:100CE0006946C8790A7A1206120C10430E990880D8
:100CF000002009B0F0BD30B58FB004000D002022F7
:100D0000002107A801F011FB68460477E4B2202C0B
:100D100001DB1F2201E0E4B22200290007A8401CE9
:100D200001F0FCFA1822002101A801F0FEFA0820C7
:100D300069468880092001A9488007A803902020DF
:100D400004906846059001200690002101A8FFF755
:100D5000BFFE002802D50020C04307E068460078A7
:100D6000002802D00020C04300E000200FB030BDBA
:100D700010B5EFF3108272B6C9B2082907D1434902
:100D80000968012383400B434048036040E03F4B28
:100D90001B6801248440A3433C4C23604B0707D5C8
:100DA0003B4B1B6801248440A343394C236006E07D
:100DB000374B1B68012484401C43354B1C608B0758
:100DC00007D5344B1B6801248440A343314C236076
:100DD00006E0304B1B68012484401C432D4B1C60F3
:100DE000C90707D52C4909680123834099432A4B39
:100DF000196006E028490968012383400B4326490E
:100E00000B60224909680123834099431F48016010
:100E100082F3108810BD10B5EFF3108472B61B4832
:100E2000006800282ED11A480068002804D001214B
:100E3000002001F0FFFA25E01748006800280CD1D7
:100E4000C046C046154800680421014313480160AC
:100E500001F028FBC046C04614E010480068042199
:100E600001430E4801600B480068002804D00121AE
:100E7000002001F0F8FA03E00121012001F0F3FA6B
:100E800001F0EAFB84F3108810BD0000CC040020C0
:100E9000C0040020C4040020C804002000700040EA
:100EA00010B5BE4AC9B214234B43D218127CD2B239
:100EB000082A05D0B94BD2B2142454431B19D87355
:100EC000B64BC0B2142444431B191A74B34AC0B2BF
:100ED00014234343D218D173B04AC9B214235943DF
:100EE0005118087410BD10B5AD4A1278C9B29142BC
:100EF0001ED0AA4AC9B214234B43D218D27BA74BA7
:100F0000D2B2142454431B191874A44BC0B2142435
:100F100044431B191974A14BC0B2142444431B1938
:100F2000DA739E4AC9B2142359435118C8730BE0AF
:100F30009A4AC0B214234343D2181174974AC9B2D3
:100F4000142359435118C87310BD38B50400944890
:100F50000078082810D1924800789249087090488B
:100F6000047008208D49E4B214225443091908740E
:100F70008D488E49088051E000F0ACF88749E4B212
:100F8000142262438918896880B208188349E4B240
:100F900014226243891888608048E4B214216143B6
:100FA000401880687E4909787C4AC9B214235943A5
:100FB00051188968884225D379490978774AC9B296
:100FC00014234B43D218127C0BE0744AC9B2142389
:100FD00059435118097C714AC9B214234B43D218A2
:100FE000127CD2B2082A07D06C4BD2B214256A43C5
:100FF0009A1892689042E8D2C9B22000C0B2FFF7B6
:101000004FFF0BE0664801782000C0B2FFF76BFF8E
:1010100063480078634908706148047031BD70B559
:101020005F4A1278C0B290420CD15D4A12785D4B93
:101030001A705A4AC0B214234343D218127C584B38
:101040001A7026E0554AC0B214234343D218D27B0B
:10105000524BC0B2142444431B191B7C4F4CC0B2EA
:10106000142545436419247C4C4DD2B21426724396
:10107000AA181474DBB2082B0BD0484AC0B214244F
:1010800044431219D27B454CDBB214256B43E31861
:10109000DA730122414BC0B2142460431818027362
:1010A0003F480078082805D1C9B2002902D13E483E
:1010B000A949088070BD00B53B4803E0A748006817
:1010C0000068806AA54909680968896A8842F5D17B
:1010D00080B200BD80B5354800886949884217D084
:1010E000FFF7E9FF31490988814203D32F49098875
:1010F000081A06E09A490988081A401C2B490988F1
:10110000081898490978484397490978C84000E089
:10111000002080B202BD10B50400A4B2002C07D19B
:10112000FFF7C9FF21490880022000F03FFC34E0AE
:10113000A4B2022C03DA8C480078012800D0641E87
:10114000864800680068C0684007F9D58348006891
:101150000068C06880210840844901437F480068D6
:101160000068C1608020400381490860022000F0CF
:1011700022FCA4B27948006800684461FFF79BFF35
:101180007549088075480068006880688021C9003A
:101190000143724800680068816010BDC8020020E9
:1011A000F9040020FA040020FFFF0000E204002000
:1011B00038B56A48006800688068400505D567480A
:1011C00000680068C0684007F9D464480068006897
:1011D000806868490140614800680068816029486A
:1011E0000478CD48E4B21421614340188568FFF7C4
:1011F00071FF80B2854204D200210122A04B1A70F7
:1012000024E080B29F4909884118A94205D29D492E
:10121000098800229A4B1A7018E0291A0122984B6B
:101220001A7013E0BC4AE4B214236343D2189268E4
:1012300080B2121AB84BE4B2142565435B199A6068
:10124000B54AE4B214235C431219147CE4B2082CAE
:1012500010D0B14AE4B214236343D218926880B22A
:101260008242DFD20022AC4BE4B2142565435B1905
:101270009A60E5E7080080B2FFF74DFF31BD00003E
:10128000FFFF0000F9040020F8B5EFF3108572B6F7
:101290003248006800688068364901402F4800687D
:1012A000006881602D4800680068C068802108409F
:1012B0002E490143294800680068C160802040032E
:1012C0002B490860C0480478C048E4B21421614347
:1012D0004018007B02283BD1BC48E4B21421614392
:1012E0004658BA48E4B2142161434018877B6448E9
:1012F0000078002827D0B548E4B214216143401893
:10130000407B012811D101212000C0B2FFF787FEE8
:1013100085F31088AD48E4B2142161434018416858
:101320002000C0B200F021F905E085F3108820000C
:10133000C0B200F0F3F832002100C9B23800C0B2E8
:1013400000F0FCFC06E0FFF733FF85F3108801E0B6
:1013500085F31088F1BD0000E2040020D0040020D5
:10136000E4040020FD040020FC0400207FFBFFFFBC
:1013700014040140FFFBFFFF80B59549086004207D
:1013800093490968096889684907490F401A9149D2
:1013900008708F48006800680069000C4006400E25
:1013A000401C8D4908708A48006800680069400444
:1013B000400C8A49088089480088401E864909787F
:1013C000484384490978084113388549884203D342
:1013D00083482C49088001E02A49088001202849D7
:1013E00008707F487F490880002007E000214A4AB2
:1013F000C0B214234343D2181173401CC0B2082852
:10140000F4DB082070490870714800680068806843
:10141000754901406E480068006881606C4800684A
:101420000068C0688021084070490143684800682E
:101430000068C160802040036D490860022000F010
:10144000BAFA63480068006880688021C9010143D6
:101450005F48006800688160664800688021490331
:1014600001436448016064480068802149030143E6
:101470006148016000220321022000F088FA01BDCA
:10148000FB040020E6040020F0B50025EFF31084F3
:1014900072B600E06D1CEDB2082D07DA4B4EEDB2CE
:1014A00014276F43F619367B002EF3D1EDB2082DC9
:1014B0001ED00127BC46454FEDB214266E43BE191F
:1014C0006746377384F31088404CEDB214266E43A0
:1014D000A419A0733D48EDB214246C430019427363
:1014E0003A48EDB214226A4383500D70002002E0A6
:1014F00084F310880120C0B2F0BD10B504002000B4
:10150000C0B200F00BF800203049E4B2142254437A
:101510000919087310BD0000C802002038B5050085
:10152000EFF3108472B6022000F03BFA2748EDB2C8
:10153000142169434018007B022810D100212800A3
:10154000C0B2FFF76CFD204800782C490978C0B282
:10155000814204D0C0B2082801D0FFF729FE022042
:1015600000F01AFA84F3108831BD70B505000C0044
:10157000EFF3108672B6022000F013FA022013492E
:10158000EDB214226A43891808731048EDB2142191
:101590006943401884600D48EDB214216943401836
:1015A00044602800C0B2FFF7D0FC07480078134918
:1015B0000978C0B2814201D0FFF7FAFD022000F0A5
:1015C000EBF986F3108870BDF9040020C8020020F2
:1015D000D0040020FC040020FD040020E4040020CE
:1015E000FFFF0000E2040020FFFBFFFF7FFBFFFF87
:1015F000140401400804014000040140FA040020E2
:1016000010B50400002C01D101203DE05120205CE8
:10161000002802D1200001F021F80220512160545D
:101620002068006840218843216808606068A168DC
:101630000143E06808432169014360690843A169E7
:101640008022920011400143E0690843216A01436E
:10165000A06A084321680860A069000C04210840C2
:10166000616A014320684160E06A2168086120687E
:10167000C069064901402068C161002052216054C0
:10168000012051342070002010BD0000FFF7FFFF43
:10169000F0B50200002000240026002334E00520DD
:1016A0001D00AD07AD0F04277D43A8403043060061
:1016B0007D481D00AD0804277D43465167480668F4
:1016C000A6434868C00300D52643644806607748AF
:1016D0000668A6434868800300D526437348066021
:1016E00073480668A6434868C00200D52643704880
:1016F000066070480668A6434868800201D53443F6
:1017000026006C4806605B1C102B00D3A5E001206E
:1017100098400C6804408442F5D14868022802D001
:10172000486812281CD11800C00804256843101806
:10173000066A0F201D006D076D0F04277D43A8402A
:10174000864308691D006D076D0F04277D43A8407F
:10175000304306001800C0080425684310180662CC
:101760004868012808D04868022805D04868112830
:1017700002D0486812281AD1966803201D0002275B
:101780007D43A8408643C8681D0002277D43A840CA
:101790003043060096605668012098408643350025
:1017A00048680600F606F60F9E402E4356601668FF
:1017B00003201D0002277D43A84086430879800747
:1017C000800F1D0002277D43A840304306001660AD
:1017D000D66803201D0002277D43A84086433500BC
:1017E00088681E0002277E43B0402E00304306006A
:1017F000D6604868C00086D52F480068012505439B
:101800002D48056028481D00AD080426754346593B
:1018100030000F26F6431D00AF07BF0F04256F43AE
:10182000BE400640A020C005824201D1002037E71B
:101830002248824201D1012032E72148824201D16F
:1018400002202DE71F48824201D1032028E71E48CD
:10185000824200D023E7042022E7F0BD00040140CB
:1018600000B5006989B20840002801D0012000E0DD
:101870000020C0B200BD00B5D2B2002A02D089B2A9
:10188000816101E089B2816200BD80B50F490968BC
:1018900080B20140002905D080B20C49086080B2B6
:1018A00000F0DAF801BD0000080001400404014026
:1018B000080401400C0401403410024000040050B0
:1018C00000080050000C0050001C0050140401409F
:1018D0000121C006C00E81403948016070470121D6
:1018E000C006C00E81403748016070470121C00624
:1018F000C00E81403448016070470121C006C00E0F
:101900008140324801607047F0B540B2002821D5CF
:101910002F4B40B20207120F083A92080424624388
:101920002B4C40B205072D0F083DAD08042675432A
:101930006459FF258607B60F08277E43B540AC43A0
:101940008901C9B28007800F08256843814021437F
:1019500099501BE01F4A40B203009B0804246343D4
:10196000D258FF238407A40F08256C43A3409A4351
:101970008901C9B283079B0F08246343994011432F
:10198000144A40B28008042358431150F0BD80B57A
:1019900040B2FFF7B9FF01BD80B540B2FFF798FF35
:1019A00001BD80B540B2FFF79AFF01BD80B540B2DE
:1019B000FFF79CFF01BD80B540B2FFF79EFF01BD60
:1019C00000E100E080E100E000E200E080E200E011
:1019D0001CED00E000E400E000604060704700B5EE
:1019E0000168814201D1012000E00020C0B200BDA9
:1019F00002680A60486001600868416070470860DA
:101A000042684A6041604868016070470168426806
:101A10001160416800684160704710B50C000168B2
:101A200021600068FFF7F2FF0020216808600020B5
:101A30002168486010BD010080B5DBB2D2B2FEF76C
:101A400015FC01BD80B5034A1060C9B20830FEF72D
:101A5000E1FE01BD9C04002080B580B2012802D1C6
:101A6000FEF7E0FE08E080B280218901884203D1C0
:101A700008210220FFF77CF901BD200000207047FB
:101A800080B500F0E9FE00F009FF00F01DFDBE4842
:101A90000078002802D1002000F069FF0121002019
:101AA00000F0A6FF00F078F9A148FFF765FC0023DD
:101AB0000122B6490020FFF7E7FC06210220FFF7CC
:101AC00057F9FEF749FB00F003F800F0A7F8FCE730
:101AD00000B58DB00BA897490CC90CC0083908385F
:101AE00009A895490CC90CC008390838FEF7C0FE92
:101AF000FEF774FBFEF7D2FE06A904A800F0E2FF91
:101B0000FEF76CFB6846007C312802DB0120A0490F
:101B100008709D480078002805D106220BA907A867
:101B200000F0FCFB04E0062209A907A800F0F6FB80
:101B300007AA0621002000F0F7FF01F061F89248A3
:101B40000078012819D19248007801280CD104A806
:101B5000801C019005A8009005AB9B1C072200216A
:101B6000012001F073FA21E004AB9B1C05AA05A932
:101B7000891C012001F0B4FA18E08548007801289A
:101B80000CD104A8801C019005A8009005AB9B1CFB
:101B900007220021042001F059FA07E004AB9B1C46
:101BA00005AA05A9891C032001F09AFA01200390D7
:101BB0007848029000200190102000900723002216
:101BC0000021012001F05CFB6F480078012801D161
:101BD00000F05AF90421012000F0E7FF0DB000BD2C
:101BE00072B694490968012282400A439148026012
:101BF00062B6704772B68F490968012282409143EC
:101C00008C48016062B6704780B50020FFF7E8FF9E
:101C100001BD80B50120FFF7E3FF01BD80B5854818
:101C20000078800708D584480078002804D1012076
:101C3000FFF7E0FF00F020F87E480078C00708D5E5
:101C40007D480078002804D10020FFF7D3FFFEF77D
:101C5000CFFE72B677480068002809D07548006842
:101C600003218843002805D173480078012801D159
:101C7000FFF7D1F862B601BD00B585B06F480078B6
:101C800000280DD041480078FFF748FC00F049F9E2
:101C900000206A4908706A493C480078FFF765FCF3
:101CA00039480078002829D166480068002806D005
:101CB00065480078002802D100F07EF909E061480B
:101CC0000068002805D061480078002801D100F0A4
:101CD0008CF95C480068002810D05B480078002828
:101CE0000CD05A480078002808D0594800780028BD
:101CF00004D1002000F06DFE00F0CCF955480078CA
:101D0000012812D168465449142201F055FB1421D0
:101D1000684600F0A3F900204E49087000204F49A2
:101D2000087006210220FFF723F805B000BD00006F
:101D30005C0400201C4300082443000880B5C0B2A6
:101D4000002804D0022806D0032806D007E001208E
:101D5000FFF746FF07E0904705E0904703E01000DB
:101D6000002800D0904701BD80B5FFF757FF01BDA7
:101D700000B5C0B2002803D101202F49087002E04D
:101D800000202D49087000BDF4040020F604002056
:101D9000F304002040E2010080B5314800680121D1
:101DA00001432F4801602F48006880214905014305
:101DB0002C48016000F036FB00F034FB2A48006834
:101DC0002A49014028480160254800682849014007
:101DD0008020800208432249086021480068802151
:101DE000C90201431E4801602248234908600020BF
:101DF000224908700120224908701F4801F0F6FAB4
:101E000001201D4988601F481B49C8601A4801F01D
:101E100011FBCA201849096848625320164909680D
:101E200048620321144801F07FFB0D4800688007D9
:101E3000FBD501BDAC040020F50400200800002003
:101E40000547000098040020EB040020EC0400206B
:101E5000E8040020BC04002084420008EE040020B6
:101E6000501002403810024000100240FFFFCFFF28
:101E7000FFFFFCFF002800405C0400207C040020E1
:101E80007D040020FF7F000000B593B00EA89D499F
:101E9000102201F091FA0AA89B49102201F08CFA55
:101EA00006A89A49102201F087FAAC48009007234F
:101EB00001220EA9022000F0C1FEC0B2002802D00B
:101EC000472013B000BD92480590012004901020D7
:101ED0000390002002900020019010200090142315
:101EE0000AAA02219D48008800F0FAFEC0B200282C
:101EF000E6D1934805900120049010200390012022
:101F00000290002001900C200090142306AA0221C8
:101F10009248008800F0E4FEC0B20028D0D1002032
:101F2000CFE700B58DB08E480078002822D107A8F1
:101F30008C490CC90CC008390838002000F03AFD63
:101F4000082006900820059096208000049000202C
:101F50000390C82040000290C8204000019000205B
:101F6000009007AB00228021C9018020C00101F050
:101F7000CAF91FE009A87C49102201F01DFA0021CE
:101F80000020FEF7B8FE00200690002005900020FB
:101F900004900020039009A802900D2001900020D9
:101FA0000090002300220021002001F0DFF8012032
:101FB00000F08EF90DB000BD00B585B06B4800781B
:101FC000002810D101A86A49102201F0F5F901A8F2
:101FD00000900223674A01216748008800F050FF03
:101FE00001206249087005B000BD00B585B0B74852
:101FF0000078002810D101A86049102201F0DCF916
:1020000001A8009002235B4A01215B48008800F090
:1020100037FF0120AD49087005B000BD10B50C00B8
:1020200000F007F8002000E0401CE4B2A042FBDB17
:1020300010BD80B5AB480078002807D108210220E8
:10204000FEF796FE0120A749087006E0062102204F
:10205000FEF78EFE0020A349087001BD80B5404AFE
:102060001278012A0AD100900B00DBB20022284826
:1020700001883A48008800F0A8FE0AE003000A0040
:10208000D2B299480188491C89B23B48008800F0C7
:10209000A7FF01BD80B5684694490A8802806B4657
:1020A000022293480188891C89B23348008800F0D5
:1020B00044FF01208F49087001BD80B580B2204BDC
:1020C0001B885B1C984204D1C9B21000FFF7A6FF21
:1020D0000BE080B20E490988891C884205D110782E
:1020E000012802D101208349087001BD00B50120FB
:1020F000814A106020480180052000E0401E012830
:10210000FCDA00BD98420008A8420008B842000866
:10211000DC0400200020784908600120774908701D
:102120000020744908700020104908700020674999
:1021300008700020724908700020724908707047CA
:10214000DE04002080B580B2694B1B885B1C98427E
:1021500003D1C9B21000FFF761FF01BDDA0400200E
:10216000F404002014430008C8420008E9040020D9
:10217000D8420008FFFF0000D4040020E842000815
:1021800038B505002C00641C012000F0A1F8287867
:10219000042800D098E02078052804D03E2805D0F7
:1021A000FF2813D090E0FFF7B5FF8DE0A41C207846
:1021B00001280AD1641C6178A0780006000C014354
:1021C00089B2641D2000FFF791FF7DE0A41C2078F8
:1021D00061780906090C084380B24B49401A06D0C1
:1021E0000E3822D0401E54D0801E2DD06CE04748BF
:1021F000007801280CD1A41CA078E1780906090C0C
:1022000008432200D21D217980B2FFF756FF0BE070
:10221000A41CA078E1780906090C08432200521D8D
:10222000217980B2FFF749FF4EE0A41CE0782179C4
:102230000906090C08432200521DA178891EC9B263
:1022400080B2FFF77FFF3FE03148007800281FD1C0
:10225000A41C3048007800280BD0294800780028BA
:1022600007D1E07821790906090C08432049088044
:102270000EE01648007800280AD02248007800288E
:1022800006D1E07821790906090C0843164908802F
:102290001AE01F480078002816D11E480078002850
:1022A00007D017480078002803D10120144908708E
:1022B0000AE006480078002806D012480078002876
:1022C00002D101200F49087031BD0000EA0400204E
:1022D00080B511490870C0B2012801D1FFF799FCFF
:1022E00001BD0000EE040020D8040020361A0008CA
:1022F000D6040020E80400209804002008000020F4
:10230000EB040020EC040020010C0000F30400208A
:10231000F4040020E9040020ED04002010B50400BE
:10232000200001F035F8200010BD10B504001000A9
:102330000A000100200001F001F9200010BD002278
:10234000030A8B420BD203098B4219D243088B42FA
:102350002ED2411A00D20146524110467047FF2248
:1023600009023FD012068B4205D3121209028B429A
:1023700001D31212090203098B4219D300E0090AA2
:10238000C3098B4201D3CB01C01A524183098B424E
:1023900001D38B01C01A524143098B4201D34B0137
:1023A000C01A524103098B4201D30B01C01A52419A
:1023B000C3088B4201D3CB00C01A524183088B4221
:1023C00001D38B00C01A524143088B4201D34B000A
:1023D000C01A5241884200D3401A5241CFD201461E
:1023E0001046704708B501F0D3F808BD38B50400B1
:1023F00015000B00002229000220FFF745F8FA2003
:102400008000444320003721FFF799FF010028781E
:10241000FFF7ABF8002032BD80B5C0B2FFF76DF812
:10242000002002BD2648006880214900014324485D
:102430000160704700B50022214A126803239A43C5
:10244000104302001E4802601E48006804229043A8
:102450001C4A1060C9B2012901D130BF02E040BF5F
:1024600020BF20BF00BD00B50022154A126803231B
:102470009A43104302001248026012480068042286
:10248000024310480260C9B2012901D130BF02E005
:1024900040BF20BF20BF0B48006804218843094982
:1024A000086000BD0648006802210143044801603D
:1024B00004480068042101430248016030BF7047AE
:1024C0000070004010ED00E000B585B0584800688D
:1024D000082101435648016001F064F801F05AF800
:1024E0005448006880210902014352480160524863
:1024F000006801218843504908604F480068022164
:1025000088434D4908604C480068042188434A4983
:1025100008604948006808218843474908604648E0
:1025200000688021884344490860444800680121CC
:1025300001434248016041480068022101433F488D
:1025400001603E480068042101433C4801603B486B
:10255000006808210143394801603848006880213B
:102560000143364801600320019000200290344866
:10257000009069463348FFF78BF869463248FFF709
:1025800087F869463148FFF783F869463048FFF716
:102590007FF86946A020C005FFF77AF82748006851
:1025A00001218843254908602448006802218843A6
:1025B0002249086021480068042188431F490860B7
:1025C0001E480068082188431C4908601B480068B1
:1025D000802188431949086005B000BD00B597B057
:1025E000082008900020129001200D9008A800F00B
:1025F000E3FF002800D0FEE720200090802080022A
:102600000590684601F09CFB002800D0FEE71148C9
:1026100000688021C90201430E48016000220021A8
:102620000220FFF7B4F90220FFF7B6F917B000BD9A
:10263000002002400C1002403C1002402C100240CE
:10264000FFFF00000004005000080050000C005084
:10265000001C0050501002407047002010B586B09A
:10266000040020687249884200D0DFE071480068A9
:10267000022101436F4801606E4800680121014357
:102680006C4801606B4800680121014369480160A2
:102690006848006801210143664801606548006898
:1026A00001210143634801606348006880214901BA
:1026B0000143614801600820009002200190002041
:1026C0000290032003900020049069465B48FEF7C7
:1026D000DFFF4020009002200190002002900320A4
:1026E0000390002004906946A020C005FEF7D0FFAB
:1026F000802000900220019000200290032003908F
:10270000002004906946A020C005FEF7C1FF02200A
:1027100000900120019000200290032003900020EF
:1027200004906946A020C005FEF7B2FF01220221F5
:10273000A020C005FFF79FF80120009040480190BD
:102740000220029003200390002004906946A020FC
:10275000C005FEF79DFF3B48006801210143394851
:102760000160012038494860102037498860002006
:102770003549C860802034490861002032494861E9
:1027800000203149886100202F49C86180208001E4
:102790002D4908622D482C4908602B4801F0A4FB04
:1027A00020680C302849096888602748206426483A
:1027B0008462012026494860002025498860002065
:1027C0002349C860802022490861002020494861CF
:1027D00000201F49886100201D49C86180208001B8
:1027E0001B4908621B481A490860194801F07CFB24
:1027F00020680C30164909688860154860641448E0
:102800008462002201210A20FFF7C1F80A20FFF7A5
:10281000C3F8002201210A20FFF7B9F80A20FFF7C8
:10282000BBF8002202210520FFF7B1F806B010BD69
:10283000003001402C1002403410024000040050CF
:102840000000111030100240BC0300203000024094
:10285000F80300201C00024080B50E4800684021AB
:1028600001430C4801600B480068022101430948FC
:1028700001600320FFF702F900F002F8002002BD1A
:10288000704705480068401C0349086070470248CB
:102890000068704700200240B404002000B593B0E7
:1028A000104800688021490501430E48016002205C
:1028B0000590102009900120089001200F9005A894
:1028C00000F07AFE0F20009001200190002002907D
:1028D00000200390002004900021684601F0E0F8F9
:1028E00013B000BD38100240F0B540B2002821D529
:1028F0006A4B40B20207120F083A9208042462435E
:10290000664C40B205072D0F083DAD0804267543FF
:102910006459FF258607B60F08277E43B540AC43B0
:102920008901C9B28007800F08256843814021438F
:1029300099501BE05B4A40B203009B0804246343A8
:10294000D258FF238407A40F08256C43A3409A4361
:102950008901C9B283079B0F08246343994011433F
:10296000504A40B28008042358431150F0BD00B5CE
:1029700085B0C0B2002806D149490A680121114337
:10298000474A116000E000214749C0B20222424399
:10299000895A0091012101910121029102210391A3
:1029A0006946424AC0B2042358431058FEF770FEED
:1029B00005B000BD10B501223B49C0B2022343431C
:1029C000C95A3A4BC0B2042460431858FEF753FF6B
:1029D00010BD10B500223449C0B202234343C95A86
:1029E000324BC0B2042460431858FEF744FF10BDB8
:1029F00030B585B004000D00E4B2002C06D12848A3
:102A00000168042008432649086000E000202848A7
:102A100000680121014326480160EDB2002D13D169
:102A20002448E4B202216143405A00900020019002
:102A3000002002900220039069461F48E4B204225D
:102A400062438058FEF724FEEDB2012D24D11948CF
:102A5000E4B202216143405A00900020029002201B
:102A600003901648019069461348E4B20422624379
:102A70008058FEF70DFE03211148E4B202226243A2
:102A8000805A40B2FFF730FF0D48E4B202214C43B8
:102A9000005B40B2FEF780FF05B030BD1CED00E0EA
:102AA0002C10024000E400E07A1A00080000002028
:102AB000341002405A2600080400002000002110B3
:102AC0003A35000870B584B005000C0001A80090EC
:102AD00002AB9B1C02AA01A9891C02A8401CFEF79C
:102AE000C1F80600F6B2002E18D16846C08880B240
:102AF000000A28706846C088000220802088694645
:102B00008988C9B20909C9B2090101432180208815
:102B1000694689880907090F01432180FDF768FF8D
:102B20003000C0B204B070BD30B5A7B00D001100C8
:102B30000024EDB22A00921C812A01DB422032E0FF
:102B400007AAE4B21055641C07A8E4B20555641C3A
:102B5000EDB22A0007A8E4B20019FFF7DFFB641901
:102B60001822002101A8FFF7E0FB3F20694688807A
:102B70000C2001A9488007A80390E4B20494684699
:102B8000059001200690002101A8FDF7A1FF002873
:102B900001D5FF2007E068460078002802D068468B
:102BA000007800E0002027B030BD00B589B06A464B
:102BB000107101A841701822002102A8FFF7B5FB8F
:102BC0003F20694608810F2002A9488001A804908F
:102BD000022005906846069001200790002102A877
:102BE000FDF776FF002801D5FF2007E06846007852
:102BF000002802D06846007800E0002009B000BD3F
:102C000000B587B01822002101A8FFF78EFB3F20F6
:102C100069468880FF20801C01A94880684605908D
:102C200001200690002101A8FDF752FF002801D5E0
:102C3000FF2001E06846007807B000BDF0B58DB018
:102C400016001F00002407AAE4B21055641CC0B28D
:102C5000012801D1022500E01025EDB22A0007A8C5
:102C6000E4B20019FFF75AFB641907A8E4B206554D
:102C7000641C07A8E4B20755641C032200216846BF
:102C8000FFF753FB1822002101A8FFF74EFB3F205E
:102C9000694688808120400001A9488007A80390E8
:102CA000E4B204946846059003200690002101A830
:102CB000FDF70EFF002801D5FF200FE068460078E1
:102CC000002802D06846007808E0694648788A788B
:102CD0001206120C10431299088000200DB0F0BDAE
:102CE000F1B58EB00D0017001E0000246846008F5D
:102CF0006946088702220EA901A8E4B20019FFF76D
:102D00000DFBA41C01A8E4B20555641CEDB2012D15
:102D100001D1022500E01025EDB22A00390001A8FA
:102D2000E4B20019FFF7FAFA641901A8E4B20655F3
:102D3000641C149801A9E4B20855641C159801A9F3
:102D4000E4B20855641C169801A9E4B20855641C45
:102D5000179801A9E4B20855641C189801A9E4B2B7
:102D60000855641C032200216846FFF7DEFA18228A
:102D7000002108A8FFF7D9FA3F206946088482207D
:102D8000400008A9488001A80A90E4B20B94684664
:102D90000C9003200D90002108A8FDF799FE002853
:102DA00001D5FF200FE068460078002802D0684671
:102DB000007808E0694648788A781206120C1043B9
:102DC0001999088000200FB0F0BD73B5A8B01500A8
:102DD0001E000024F6B23000801D812801DB422055
:102DE0004CE028A8008828A90880022228A907A862
:102DF000E4B20019FFF792FAA41C29A8008829A9B7
:102E00000880022229A907A8E4B20019FFF786FA70
:102E1000A41C07A8E4B20555641C07A8E4B2065533
:102E2000641CF6B232002E9907A8E4B20019FFF72D
:102E300075FAA4191822002101A8FFF776FA3F209D
:102E4000694688808320400001A9488007A8039034
:102E5000E4B204946846059001200690002101A880
:102E6000FDF736FE002801D5FF2007E06846007810
:102E7000002802D06846007800E000202AB070BD2B
:102E800037B58EB01D0000246846008F694608875C
:102E900002220EA907A8E4B20019FFF73FFAA41C0A
:102EA0006846808F6946888702220FA907A8E4B286
:102EB0000019FFF733FAA41C10A8008810A9088095
:102EC000022210A907A8E4B20019FFF727FAA41CF0
:102ED00007A8E4B20555641CEDB2012D01D102250D
:102EE00000E01025EDB22A00149907A8E4B20019F9
:102EF000FFF714FA64191822002101A8FFF715FA48
:102F00003F20694688808B20400001A9488007A89F
:102F10000390E4B204940F200290684605900120CB
:102F20000690002101A8FDF7D3FD002801D5FF2060
:102F300001E06846007811B030BD73B5A8B0150047
:102F40001E000024EDB22800401D812801DB422034
:102F500044E028A8008828A90880022228A907A8F8
:102F6000E4B20019FFF7DAF9A41C29A8008829A9FE
:102F70000880022229A907A8E4B20019FFF7CEF9B8
:102F8000A41C07A8E4B20555641CEDB22A00310068
:102F900007A8E4B20019FFF7C1F96419182200214B
:102FA00001A8FFF7C2F93F2069468880FF20223040
:102FB00001A9488007A80390E4B204940F2002906E
:102FC0006846059001200690002101A8FDF780FDCC
:102FD000002801D5FF2001E0684600782AB070BDC6
:102FE00010B58EB01400E4B2152C01D342202BE0B2
:102FF0006A46908307A8418007A80471E4B22200C2
:10300000190007A8401DFFF789F91822002101A81F
:10301000FFF78BF93F2069468880FF20243001A903
:10302000488007A80390E4B2641D049468460590A4
:1030300001200690002101A8FDF74AFD002801D5D6
:10304000FF2001E0684600780EB010BD10B58AB0D0
:103050001C006B46187068464170684682700722F3
:10306000002101A8FFF761F91822002103A8FFF74A
:103070005CF93F20694688818A2003A94880684618
:1030800005900320069001A80790072008900021D2
:1030900003A8FDF71DFD002801D5FF201EE06846AE
:1030A0000079002802D06846007917E001A9487825
:1030B0008A781206120C1043208001A9C8780A7978
:1030C0001206120C10430C99088001A948798A79DC
:1030D0001206120C10430D99088000200AB010BD92
:1030E00070B58AB00D0014001E00694608720722F0
:1030F00000216846FFF719F91822002103A8FFF7FD
:1031000014F93F20694688818A2003A9488002A8D3
:10311000059001200690684607900720089000213E
:1031200003A8FDF7D5FC002801D5FF201CE0684668
:103130000078002802D06846007815E06946487893
:103140008A781206120C104328806946C8780A79DA
:103150001206120C10432080694648798A791206BB
:10316000120C1043308000200AB070BDF6B591B04B
:103170001F000024199E1B9DF6B2EDB271190E318D
:10318000292901D3422079E007A9E4B20855641C3B
:1031900011A8008811A90880022211A907A8E4B289
:1031A0000019FFF7BBF8A41C12A8008812A9088018
:1031B000022212A907A8E4B20019FFF7AFF8A41C75
:1031C00007A8E4B20755641C189807A9E4B208558B
:1031D000641C07A8E4B20655641CF6B232001A99C2
:1031E00007A8E4B20019FFF799F8A41907A8E4B2F8
:1031F0000555641CEDB22A001C9907A8E4B2001919
:10320000FFF78CF864191DA800881DA90880022208
:103210001DA907A8E4B20019FFF780F8A41C1EA896
:1032200000881EA9088002221EA907A8E4B200197E
:10323000FFF774F8A41C1822002101A8FFF775F805
:103240003F2069468880832001A9488007A8039011
:10325000E4B204946846059001200690002101A87C
:10326000FDF736FC002801D5FF2007E0684600780E
:10327000002802D06846007800E0002013B0F0BDBE
:1032800030B58FB00D0011001C006A46107707A8FA
:103290004570102207A8801CFFF740F807A8847427
:1032A000129807A9C874139807A9087507A91531BA
:1032B000149800F0D5FE159807A948761822002129
:1032C00001A8FFF732F83F2069468880862001A9CF
:1032D000488007A803901A200490684605900120B2
:1032E0000690002101A8FDF7F3FB002801D5FF207F
:1032F00007E068460078002802D06846007800E0C1
:1033000000200FB030BD10B58EB06C46A08001A873
:10331000418001A802710622190001A8401DFEF794
:10332000FDFF109801A9C872119801A9888112A8FF
:10333000008801A9C881139801A90882149801A9DD
:103340004882159801A98882169801A9C882182276
:10335000002107A8FEF7E9FF3F20694688839C20EB
:1033600007A9488001A8099018200A900F2008900A
:1033700068460B9001200C90002107A8FDF7A8FBE0
:10338000002801D5FF2001E0684600780EB010BD8E
:10339000124207D08B0706D00B78491C0370401CE3
:1033A000521EF7D87047830706D00B78491C03706C
:1033B000401C521EF9D1704770B4103A03D378C93B
:1033C000103A78C0FBD2530701D318C918C001D5F1
:1033D00008C908C0D20704D30B880380891C801C4D
:1033E000002A01D50B78037070BC704700B520210E
:1033F000415C012901D102201BE0012120228154DE
:10340000022121228154CA2102685162532102689B
:1034100051620168896820220A4301688A60FF219D
:103420000268516201212122815400212030017063
:10343000002000BD10B50400002C01D1012051E096
:103440002120205C002802D12000FFF7C7F80220CD
:1034500021216054CA2021684862532021684862B3
:10346000200000F043F8002807D0FF2021684862C0
:10347000042021342070012034E0206880681A493B
:1034800001402068816020688068616822690A4381
:10349000A1691143014320688160E06821680861E7
:1034A00020680069A168090401432068016120685F
:1034B000C068802188432168C8602068C06C0321EF
:1034C00088432168C8642068C06CE16962690A4366
:1034D00002432068C264FF20216848620120213431
:1034E0002070002010BD0000BFFF8FFF38B5040022
:1034F0002068C068400612D40020C0432168C8601C
:10350000FFF7C5F905002068C068400607D4FFF73B
:10351000BEF9401B03498842F5D3032000E0002098
:1035200032BD0000E90300000268926807239A4355
:1035300011430A0000688260704707001206130AF0
:103540001A43130C1A4300BF094205D0830705D064
:103550000270401C491EF9D170470000130030B4BE
:1035600014001500103902D310393CC0FCD24907B1
:1035700000D30CC000D504C0890002D30280801C97
:10358000002900D5027030BC704700000022E5E73A
:103590007047FEE7074800688021C90001430548DD
:1035A0000160704703480068802189000143014899
:1035B000016070470070004038B504000025207895
:1035C000C0075AD5A34800680C210140082909D03A
:1035D000A04800680C2101400C290ED19D480068CC
:1035E000C0030AD5BC480068800346D560688021C6
:1035F0004902884241D0012030E2B7480068B7490B
:103600000140B5480160FFF742F90500B248006883
:10361000800307D5FFF73BF9401BB1498842F5D33A
:1036200003201BE2AC480068AC49014060680843D5
:10363000A949086060688021490288420ED1FFF7DD
:1036400026F90500A4480068800316D4FFF71FF987
:10365000401BA3498842F5D30320FFE1FFF717F988
:1036600005009D480068800307D5FFF710F9401B4F
:103670009B498842F5D30320F0E12078800721D5CB
:10368000744800680C210140042909D07148006881
:103690000C2101400C2927D16E480068C00323D4B7
:1036A0008D480068400704D5E068012801D001205A
:1036B000D4E1BC480068BC490140206900020843CD
:1036C000B84908602078C00658D5624800680C21C7
:1036D000014000296CD18048006880053DD5E06933
:1036E00001283AD00120B9E1E06800281FD07A48CB
:1036F000006809218843E168014377480160FFF7CA
:10370000C6F8050074480068400706D4FFF7BFF804
:10371000401B6528F6D30320A0E1A2480068A24917
:1037200001402069000208439E490860CAE76A48D0
:10373000006809218843E168014367480160FFF799
:10374000A6F80500644800684007BBD5FFF79FF85E
:10375000401B6528F6D3032080E192480068C049E9
:103760000140606A08438F4908608E480068000283
:10377000000A216A090601438A480160207800078F
:103780006AD56069002851D0B6480068012101431C
:10379000B4480160FFF77BF80500B2480068800775
:1037A0005AD4FFF774F8401B6528F6D3032055E17F
:1037B000E069002826D0484800688021490001437C
:1037C00045480160FFF763F805004348006880053D
:1037D00006D4FFF75CF8401B6528F6D303203DE1D3
:1037E000704800689E490140606A08436D4908605E
:1037F0006C4800680002000A216A09060143694812
:103800000160BBE7344800689749014032480160D5
:10381000FFF73DF80500304800688005AED5FFF79A
:1038200036F8401B6528F6D3032017E18D48006861
:10383000012188438B490860FFF729F80500894872
:103840000068800708D5FFF722F8401B6528F6D3EB
:10385000032003E10C1002402078800642D5A069C5
:1038600000281FD081480068012101437F48016082
:103870007F480068012101437D4801607D48006860
:103880007D4901437B480160FFF701F80500774857
:103890000068800726D4FEF7FAFF401B6528F6D3A0
:1038A0000320DBE071480068012188436F4908600C
:1038B00070480068714901406E480160FEF7E7FFFB
:1038C00005006A48006880070CD5FEF7E0FF401B42
:1038D0006528F6D30320C1E000100240FFFFFAFF85
:1038E000891300002078400760D565480068802172
:1038F000490501436248016062480068802149002F
:10390000014360480160FEF7C2FF05005D480068A2
:10391000C00506D4FEF7BBFF401B6528F6D3032085
:103920009CE050480068584901404E480160FEF74D
:10393000AEFF05004B480068800507D5FEF7A7FFDE
:10394000401B52498842F5D3032087E04548006870
:103950004D490140A068084342490860A0688021A1
:10396000490088420ED1FEF792FF05003D480068ED
:1039700080051BD4FEF78BFF401B44498842F5D3DA
:1039800003206BE0FEF783FF0500364800688005E2
:103990000CD5FEF77CFF401B3C498842F5D3032041
:1039A0005CE000BF04100240FFE0FFFFA06A0028B7
:1039B00053D0374800680C2101400C294BD0A06A35
:1039C000022834D13348006833490140314801604E
:1039D000FEF75DFF05002F480068800106D5FEF761
:1039E00056FF401B6528F6D3032037E028480068BF
:1039F0002A490140206B0843616B0143E06A084398
:103A00002349086023480068802149040143214874
:103A10000160FEF73CFF05001E48006880011CD4D1
:103A2000FEF735FF401B6528F6D3032016E0194842
:103A300000681949014017480160FEF728FF05009A
:103A400014480068800108D5FEF721FF401B652857
:103A5000F6D3032002E0012000E0002032BD00BFC9
:103A6000FF1FFFFF50100240FFFEFFFF0810024043
:103A7000341002402000014001200000FEDFFFFF63
:103A80003810024000700040FFFAFFFF8913000069
:103A90000C10024000100240FFFFFFFEFFFF02FF7C
:103AA00070B505000C0000269F4800680100C9079A
:103AB000C90FA14200D38FE09B48006801218843D1
:103AC000204399490860984800680100C907C90F58
:103AD000A14201D0012025E12878800707D593482D
:103AE0000068F0218843A968014390480160287864
:103AF000C00700D4FBE06868022805D18C48006844
:103B0000800319D401200DE16868002805D1884898
:103B10000068800510D4012004E16868032805D1FD
:103B200083480068800107D40120FBE080480068DA
:103B3000400701D40120F5E07C4800680321884358
:103B40006968014379480160FEF7A1FE06006868D4
:103B500002280ED1754800680C210140082900D1C7
:103B6000C5E0FEF794FE801B72498842F2D3032021
:103B7000D8E0686803280ED16C4800680C21014029
:103B80000C2900D1B3E0FEF782FE801B6949884210
:103B9000F2D30320C6E0686800280ED163480068AD
:103BA0000C210140002900D1A1E0FEF770FE801B2E
:103BB00060498842F2D30320B4E05C4800680C21DD
:103BC0000140042900D192E0FEF761FE801B5949B3
:103BD0008842F2D30320A5E02878800707D5534810
:103BE0000068F0218843A9680143504801602878A3
:103BF000C0076CD56868022805D14D48006880036D
:103C000019D401208EE06868002805D14848006872
:103C1000800510D4012085E06868032805D1444858
:103C20000068800107D401207CE04148006840071B
:103C300001D4012076E03D4800680321884369688B
:103C400001433A480160FEF722FE06006868022838
:103C50000DD1364800680C210140082937D0FEF705
:103C600016FE801B33498842F3D303205AE068686C
:103C700003280DD12D4800680C2101400C2926D0C5
:103C8000FEF705FE801B2B498842F3D3032049E051
:103C9000686800280DD1254800680C2101400029E2
:103CA00015D0FEF7F4FD801B22498842F3D3032090
:103CB00038E01E4800680C210140042907D0FEF7B7
:103CC000E6FD801B1B498842F3D303202AE01648F7
:103CD00000680121884320431349086012480068A6
:103CE0000100C907C90FA14201D001201AE02878BC
:103CF000400707D50D4800680F490140E8680843B0
:103D00000A4908602878000708D5084800680B4968
:103D100001402869C0000843044908600320FDF7FA
:103D2000ADFE002070BD0000002002400C100240DB
:103D30000010024089130000FFF8FFFFFFC7FFFFDC
:103D400038B50400002500202078C00707D5594861
:103D50000068032188436168014356480160207868
:103D6000800707D5534800680C218843A1680143A8
:103D7000504801602078400707D54E4800684E49FA
:103D80000140E06808434B4908602078000707D5E8
:103D9000484800684949014020690843454908608E
:103DA000207880066ED54648006880214905014389
:103DB000434801604348006880214900014341486D
:103DC0000160FEF764FD05003E480068C00506D4AA
:103DD000FEF75DFD401B6528F6D3032069E03A48F5
:103DE0000068C021890201406069C022920202403D
:103DF000914212D034480168344808403249096879
:103E0000802212030A4330490A602F490968304A68
:103E10000A402D490A602C490860606980214902E6
:103E200088420ED1FEF733FD050027480068800563
:103E300007D4FEF72CFD401B26498842F5D303200A
:103E400037E06069C02189020140C02080028142C0
:103E50000AD1214800682149014062691B4810408D
:103E600008431D49086005E01B4801681B480840DD
:103E70001949086014480068144901406069084302
:103E8000114908602078400607D50A48006814499F
:103E90000140A0690843074908602078000607D55B
:103EA000044800680F490140E0690843014908607F
:103EB000002032BD4C100240FFF3FFFFFFCFFFFF99
:103EC000381002400070004050100240FFFFFCFF1D
:103ED000FFFFF7FF8913000000100240FFFFCFFF34
:103EE000FFFFFFFBFFFFF3FF00B50022002801D119
:103EF000012098E002212522815401680A681100FE
:103F0000494A0A4011008268C368134302691A4390
:103F10004369134382691A43C3691343026A1A430C
:103F20000A4301680A600168404A91420CD1404945
:103F300009680F2291433E4A11603D490968426871
:103F40000A433B490A606AE001683A4A91420DD14E
:103F500037490968F0229143354A116034490968AC
:103F6000426812010A4332490A6058E00168324A45
:103F700091420DD12E490968304A0A402C490A6005
:103F80002B490968426812020A4329490A6046E03F
:103F900001682B4A91420DD125490968294A0A40F6
:103FA00023490A6022490968426812030A432049EA
:103FB0000A6034E00168244A91420DD11C49096825
:103FC000224A0A401A490A601949096842681204DB
:103FD0000A4317490A6022E001681D4A91420DD147
:103FE000134909681B4A0A4011490A6010490968C7
:103FF000426812050A430E490A6010E00168164A39
:1040000091420CD10A490968144A0A4008490A60D9
:1040100007490968426812060A4305490A600121F6
:1040200025300170002000BD0FC0FFFF08000240D6
:10403000A80002401C00024030000240FFF0FFFFD9
:1040400044000240FF0FFFFF58000240FFFFF0FF57
:104050006C000240FFFF0FFF80000240FFFFFFF0F7
:1040600084460870000A4870000A8870000AC87008
:1040700060467047704700B5FEE77047704770476D
:1040800080B5FEF7FEFB1B480068401C194908601C
:1040900001BD80B5FDF7F8F801BD80B50120FDF741
:1040A000F4FB01BD80B50120134908600120FEF733
:1040B0000FF980208001FDF7E8FB01BD80B50F48B6
:1040C000406C00680068800706D50D4800688006CF
:1040D00002D5FCF73AF90BE00848006C006800686C
:1040E000800705D506480068800501D5FCF7E2F990
:1040F00001BD0000B8040020BC04002068030020BB
:10410000000002401648006880214900014314481D
:1041100001601448006814490140124801601048C9
:104120000068124901400E480160114800680121F1
:1041300088430F4908600A4800680E490140084852
:104140000160084800680C490140064801600020F1
:104150000A4908608020000509490860704700008E
:10416000001002400C1002400C40FF88F6FFF6FEE3
:1041700008100240FFFFFBFFFFFF02FF101002408C
:1041800008ED00E070B40121002313E00468001D75
:104190000C4202D04D466D1E64192360241D121F6F
:1041A000042AFAD22500960701D52380AD1C0A40C7
:1041B00000D02B700268001D002AE7D170BC704748
:1041C00030B401210268001D002A0FD00368C31813
:1041D000446808300C4202D04D466D1E64191D68BB
:1041E00025601B1D241D121FECD0F8E730BC704762
:1041F00010B5074979441831064C7C44163404E064
:10420000081D0A68891888470100A142F8D110BD2D
:1042100008000000280000006DFFFFFFF40400000C
:104220000C0000200000000099FFFFFF0C000000C0
:104230003C010000000000200000000000F00BF82E
:10424000002801D0FFF7D4FF0020C046C046FDF78C
:1042500017FC00F002F80120704780B500F002F86A
:1042600001BDFEE70746384600F002F8FBE7FEE72F
:1042700080B5C046C046024A11001820ABBEFBE71D
:104280002600020030313233343536373839414276
:10429000434445464748494A669A0C200008969E82
:1042A000E2119EB1E0F273D9669A0C200008969E46
:1042B000E2119EB1E1F273D9669A0C200008969E35
:1042C000E2119EB1E2F273D909426C75654E524714
:1042D0005F43686174000000669A0C200008969E97
:1042E000E2119EB1E1F273D9669A0C200008969E05
:1042F000E2119EB1E2F273D90148804701480047BC
:104300000541000809430008C046C046C046C046F3
:10431000FFF794FFAA0000E180020000BB0000E16B
:1043200080020000AA0000E1800200000A000000F4
:10433000000000000B00000000000000E803000087
:10434000FEE7FEE7FEE7FEE7FEE7FEE7FEE7FEE745
:10435000FEE7FEE7FEE7FEE7FEE7FEE7FEE7FEE735
:10436000FEE7FEE7FEE7FEE7FF000000000000506A
:084370000008005001000000EC
:00000001FF
