:020000040800F2
:1000000020090020B93B0008B1390008B3390008C5
:10001000D93B0008DD3B0008E13B00080000000080
:10002000000000000000000000000000B5390008DA
:10003000B739000800000000B9390008BB390008D2
:10004000E53B0008E93B0008ED3B0008CB39000820
:10005000F13B0008F53B0008CF390008F93B0008E8
:10006000FD3B0008013C0008053C0008093C000875
:10007000ED390008113A00080D3C0008113C000859
:10008000153C0008193C00081D3C0008213C0008F4
:10009000253C0008293C00082D3C0008313C0008A4
:1000A000353C0008393C00083D3C0008413C000854
:1000B000453C0008493C00084D3C0008513C000804
:1000C000553C0008593C00085D3C0008613C0008B4
:1000D000653C0008693C00086D3C0008713C000864
:1000E000D5390008753C0008793C00087D3C0008C3
:1000F000813C0008853C0008893C00088D3C0008D4
:10010000913C0008953C0008993C00089D3C000883
:10011000A13C0008A53C0008A93C0008AD3C000833
:10012000B13C0008B53C0008B93C0008BD3C0008E3
:10013000C13C0008C53C0008C93C0008CD3C000893
:10014000D13C0008D53C0008D93C0008DD3C000843
:10015000E13C0008E53C0008E93C0008ED3C0008F3
:10016000F13C0008F53C0008F93C0008FD3C0008A3
:10017000013D0008053D0008093D000800000000A1
:100180000D3D0008113D00082DE9F047044682B0FE
:100190002078DFF8BC56DFF8B466C00625D5B06815
:1001A00010F00C0F3AD13068C0F3400010B1A069D4
:1001B000002831D0306800074EBF306868680009F9
:1001C00000F0F001206A814206D200F002FB002814
:1001D00022D100F0DDF905E000F0DAF9206A00F044
:1001E000F8FAC8B90F2000F03DFB2078C00741F2B3
:1001F000893876D500F0D7FA07D000F0D9FA02BFD7
:10020000F06800F0030003282ED100F0BDF90028AB
:1002100067D06068002864D10120A3E1A0690028AC
:10022000306811D040F0010000F0A5F907463068B1
:10023000C0F3400028B900F0C9FCC01B6528F6D304
:100240008DE100F0A5F9D0E74008400000F093F9F7
:1002500007463068C0F340000028C6D000F0B6FC66
:10026000C01B6528F5D37AE100F088F920F48020DE
:1002700000F081F9074600F087F928B100F0A6FCEC
:10028000C01B4045F7D36AE16068B0F5803F07D0F6
:10029000B0F5A02F00F072F906D140F48020306054
:1002A000306840F4803001E020F4802030606068E5
:1002B00058B100F08BFC074600F066F988B900F0F1
:1002C00085FCC01B4045F7D349E100F07FFC0746A1
:1002D00000F05AF928B100F079FCC01B4045F7D373
:1002E0003DE12078800718D500F058FA07D000F0DB
:1002F0005FFA02BFF06800F00300022825D13068E1
:10030000C0F3802010B1E068002885D070682169B2
:1003100020F0F85040EA016070602078000748D56E
:1003200060690028686834D040F00100686000F01F
:100330004DFC07466868C0F34000002839D100F042
:1003400045FCC01B6528F5D309E1E068002830684A
:100350000FD040F4807000F00EF907463068C0F30B
:1003600080200028D2D100F031FCC01B6528F5D3D5
:10037000F5E020F4807000F0FEF807463068C0F326
:1003800080200028C9D000F021FCC01B6528F5D3CF
:10039000E5E040084000686000F018FC0746686827
:1003A000C0F3400028B100F011FCC01B6528F6D353
:1003B000D5E02078400773D5B06DC0004FF000093C
:1003C0000AD4B06D40F08050B0654FF00109B06DB7
:1003D00000F0805000900098DFF878A4DAF8000070
:1003E000C00512D4DAF8000040F48070CAF80000AA
:1003F00000F0ECFB0746DAF80000C00505D400F079
:10040000E5FBC01B6528F6D3A9E0286800F0ACF82E
:10041000286000F0DBFB07462868C0F3400028B1E5
:1004200000F0D4FBC01B4045F6D398E0A06801283B
:100430000CD008B928680DE0052828680AD14008C2
:1004400040002860286840F004002860286840F0D8
:10045000010001E000F088F82860A06860B100F0B9
:10046000B5FB07462868C0F3400090B900F0AEFB2A
:10047000C01B4045F6D372E000F0A8FB0746286891
:10048000C0F3400028B100F0A1FBC01B4045F6D3EB
:1004900065E0B9F1000F03D0B06D20F08050B06579
:1004A000606A00285DD0B16801F00C010C293FF4AE
:1004B000B3AE0228306820F0807030603AD100F08E
:1004C00085FB07463068C0F3406028B100F07EFB32
:1004D000C01B6528F6D342E0E06A216B401E09028A
:1004E00041EA0010616B090940EA4140A16A0843F2
:1004F000A16B891E0905490D40EA4150E16B891E37
:10050000090601F07E410843F060306840F08070D9
:100510003060F06840F08070F06000F057FB0746F4
:100520003068C0F34060E0B900F050FBC01B6528A4
:10053000F6D314E0F068DFF8201380088000F06044
:10054000F0680840F06000F041FB07463068C0F3F7
:10055000406030B100F03AFBC01B6528F6D30320A1
:1005600000E00020BDE8F6874008400028602868C9
:1005700020F004007047306000F028BB306820F4A1
:1005800080303060306870473068C0F3404070475A
:10059000306840F0080030603068216A20F0F000D8
:1005A000084330607068E16920F47F4040EA012030
:1005B000706070472DE9F843DFF8A052DFF88C62D5
:1005C000044628680F4600F00700B84241F2893817
:1005D0005BD2002F18BF012F04D0022F1CBF032FA6
:1005E000042F04D12868C00847EAC00000E028684A
:1005F00000F0C7F816D100F0E0F840F1A98060687B
:10060000022803D13168C1F340410AE0032803D135
:100610003168C1F3406104E00028316803D1C1F3BF
:10062000400121B992E0C1F380210029FAD000F005
:10063000AEF805466068022808D100F0B4F809D089
:1006400000F0C4FA401B4045F7D36BE0032808D103
:1006500000F0AEF87CD000F0B9FA401B4045F7D36B
:1006600060E048B9B06810F00C0F71D000F0AEFA3D
:10067000401B4045F6D355E000F090F868D000F0FC
:10068000A5FA401B4045F7D34CE000F096F84BD557
:100690006068022803D13168C1F3404109E018B90C
:1006A0003168C1F3400104E00328316803D1C1F38C
:1006B000406121B94AE0C1F38021002946D000F011
:1006C00066F881466068022809D100F06CF82BD0EA
:1006D00000F07CFAA0EB09004045F6D322E00328A5
:1006E00009D100F065F81FD000F070FAA0EB090006
:1006F0004045F6D316E060B9B06810F00C0F13D087
:1007000000F064FAA0EB090041F288318842F3D38B
:1007100008E000F043F807D000F058FAA0EB090019
:100720004045F6D303202AE0002F18BF012F04D044
:10073000022F1CBF032F042F04D12868C00847EAEA
:10074000C00000E0286800F01CF801D0012016E08D
:100750002078400705D5B068E16820F4E0600843E0
:10076000B0602078000706D5B068216920F4605099
:1007700040EAC100B0600F2000F074F80020BDE82E
:10078000F2832860286800F00700B8427047B1681B
:10079000890840EA8100B06000F018BAB06800F043
:1007A0000C0004287047B06800F00C00082870475F
:1007B000B06800F00C000C2870472078800705D541
:1007C000B068A16820F0F0000843B0602078C0074E
:1007D000704770B5224E82B0054630680024C000D4
:1007E00002D500F0FBF90EE0306840F08050306038
:1007F000306800F080500090009800F0EFF9316808
:1008000021F080513160B0F5007F04D1812D0DD3EE
:10081000A12D06D209E0812D28BF032406D2802D08
:1008200001D1022402E0702D00D101240B4801689F
:10083000C90844EAC1010160006800F00700A04255
:1008400001D0012076BD002076BD000000100240DE
:100850009010024000700040FFFFEEFE00200240BA
:10086000581002400020704770B582B000F098F92F
:1008700000F014FA00F076FAB34C607808B900F092
:1008800073FB0121002000F0A9FBB04DB04EE86BD6
:1008900040F00100E863286840F080502860286834
:1008A00000F080500090009800F0F2FB00F0F0FBA8
:1008B000A86B20F4407040F40070A863A86B40F46B
:1008C0000040A863A3483060002086F82000012083
:1008D00086F82100304600F01FFC0120B06047F68A
:1008E000FF70F060304600F02FFC3168CA2048628B
:1008F0005320316848620321304600F095FCE86BD4
:10090000C0F340000028FAD0304600F0D5FD0023A7
:100910000122A11C002000F02BFE0621022000F085
:100920009FFE00F038FF00F003F800F08DF8FCE7C0
:1009300010B50FF24821844C8EB00CC90BA80FF2F1
:1009400044210CC00CC909A80CC001F0D7F900F073
:1009500061FF01F0E9F906A904A801F0D0FB00F05D
:1009600059FF9DF810003128A4BF01202070607845
:10097000002807BF06220BA9062209A907A801F033
:10098000E9FB07AA0621002001F0F4FB01F052FC6C
:1009900061782078012909D1012803D100F032F8CB
:1009A000012008E000F028F801200AE0012805D124
:1009B00000F028F8042001F0BBFD04E000F01CF872
:1009C000032001F0E3FD0120039007236248029019
:1009D000002200200190002110200090012001F051
:1009E00077FE6078012808BF01F014FF0421012080
:1009F00001F0E7FB0EB010BD0DF1120305AA0DF1D9
:100A0000160170470DF1120001900DF1160305A8B3
:100A1000009007220021704772B650494A680123AE
:100A200003FA00F0104307E072B64C494A6801230C
:100A300003FA00F022EA0000486062B67047002026
:100A4000EAE700BF0120E7E710B5444C20798007B2
:100A500006D5207820B90120FFF7E6FF00F016F850
:100A60002079C00705D5207818B9FFF7DDFF01F020
:100A7000C7F972B6606828B18008800004BF20788A
:100A8000012801D100F019FE62B610BD70B5344DD9
:100A90002D4C86B0287858B1A07800F098FD01F070
:100AA000FFFE0020287043F60161A07800F0AAFD47
:100AB0006078F0B92B4E2C4C30682C4D20B1287842
:100AC00010B901F02EFF05E0306818B1207808B9A0
:100AD00001F03AFF306800281CBF2878002808D0B1
:100AE000207830B12248007818B900F06CFA01F093
:100AF00073FF204C2078012811D100A80FF28C013F
:100B0000142202F069F8142100A801F04DFF002022
:100B10001949207008700621022000F0A1FD06B0DE
:100B200070BD20B1022818BF032803D000E089E778
:100B3000100000D01047704786E7411E89410748E2
:100B4000C90F0170704700001405002058100240C2
:100B5000B40400200028004040E20100F804002016
:100B600000000020140000200500002004000020E8
:100B7000010000201005002018050020BB0000E146
:100B800080020000AA0000E1800200003031323310
:100B90003435363738394142434445464748494A57
:100BA00080B50C48016841F480710160032002F0B7
:100BB0004CF80F20FFF756FE00F002F8002002BDAF
:100BC000704705480168491C016070470248006889
:100BD000704700000020024008050020DFF8AC004C
:100BE000006800F4C06070472848016841F4804103
:100BF000016070472548264A016821F48041016060
:100C000024490968B1FBF2F13222514300E0491E48
:100C100011B142699205FAD44069800501D50320DB
:100C2000704700207047194A0028106802D1C00898
:100C3000C00003E0C008C00040F0010010600129BE
:100C40001548026842F0040202600FBF30BF40BF87
:100C500020BF20BF016821F00401016070470B49EB
:100C60000A68D208D20042F002020A6001280A494A
:100C70000A6842F004020A600FBF30BF40BF20BFC5
:100C800020BF086820F00400086070470070004032
:100C900040420F002000002010ED00E000B597B0AA
:100CA00001A8142102F026F80FF2780106A891ECB1
:100CB000100B80EC100B1A48016841F08051016064
:100CC000006800F0805000900098102006900120ED
:100CD0000C9060200E9000200D9002200F900120BB
:100CE0001090119028201290022015900720139048
:100CF0000420149006A8FFF747FA00B1FEE70F2082
:100D0000019004210320029000200390049005909C
:100D100001A8FFF74FFC00B1FEE717B000BD0000CF
:100D20005810024000000000000000000000000019
:100D300000000000000000000000000000000000B3
:100D400000000000000000000000000000000000A3
:100D50000000000000000000000000000000000093
:100D60000000000010B57548754C86B0016841F46C
:100D70008041016001A9206D40F080502065206D08
:100D800000F0805000900098206840F400402060FF
:100D9000606E400840006066606E20F00200606691
:100DA000606E20F004006066606E20F008006066EF
:100DB000606E20F010006066606E20F020006066BB
:100DC000606E20F040006066606E20F0800060661B
:100DD000606C40F001006064606C00F0010000F0A5
:100DE00082F840F002006064606C00F0020000F0E5
:100DF0007AF840F004006064606C00F0040000F0D9
:100E000072F840F008006064606C00F0080000F0C8
:100E10006AF840F010006064606C00F0100000F0B0
:100E200062F840F020006064606C00F0200000F088
:100E30005AF840F040006064606C00F0400000F040
:100E400052F840F080006064606C00F08000009018
:100E50000098032002900490002003904FF6FF704A
:100E60000190384801F04AFF01A9374801F046FFD8
:100E700001A9364801F042FF01A9354801F03EFFC3
:100E800001A9344801F03AFF01A9334801F036FFC7
:100E900001A9324801F032FF01A94FF0904001F062
:100EA0002DFF606C400840006064606C20F0020020
:100EB0006064606C20F004006064606C20F00800E6
:100EC0006064606C20F010006064606C20F02000B2
:100ED0006064606C20F040006064606C20F0800012
:100EE000606406B010BD00900098606C704700B55B
:100EF000AFB008201E9000202790012023901EA84C
:100F0000FFF742F900B1FEE74FF4003000904FF4D4
:100F100000701D9000A801F0F9FF00B1FEE7104835
:100F2000016841F40041016000220F21032001F01B
:100F300099FE032001F0B3FE2FB000BD0020024057
:100F4000081002400004004800080048000C004857
:100F5000001000480014004800180048001C004819
:100F6000901002407047000010B586B0044600F0B3
:100F70007CF83CB9DFF8FC00016841F00101016038
:100F800000F010F80FF2FC0030F8140000F066F8E2
:100F900002200490DFF8E00050F8240001F0AEFEDB
:100FA00006B010BD006800F0010000900098704786
:100FB0000FF2D001DFF8C03031F8101053F82000E4
:100FC000012201F07FBF0FF2BC01DFF8AC3031F835
:100FD000101053F82000002201F074BF30B587B024
:100FE00004460D4600F041F854B9DFF88800016866
:100FF00041F004010160006800F0040000900098D6
:10100000DFF878000FF280013DB931F8141001913A
:101010000021029100F01AF816E0012D14D131F8E8
:1010200014100191DFF858100291002100F00EF821
:101030000FF2580030F8144000220F2160B201F086
:1010400011FE60B201F02BFE07B030BD039102210A
:10105000049101A950F8240001F050BE019001A9AB
:101060000120029000200390704701A8142101F094
:1010700041BE00004C100240180000201C0000205F
:1010800000002110200000000020000028000000C7
:101090001848016841F480710160704710B50C4632
:1010A00015490028086804D1800506D5FFF7A2FD80
:1010B00003E0800558BFFFF797FD1048016821F055
:1010C0000401012C016001D130BF10BD40BF20BF21
:1010D00020BF10BDFFF7A7BD06480168C908C900B9
:1010E00041F0030101600548016841F0040101601D
:1010F00030BF7047007000401470004010ED00E0F9
:101100008A60FF2102685162012180F821100021CC
:1011100080F820100020704790F82010012901D19C
:1011200002207047012180F82010022180F8211050
:10113000CA210268516253210268516201688A68BB
:1011400042F02002FFF7DCBF38B5040011D094F85C
:10115000210020B984F820002046FFF7C8FE00F0E7
:1011600038F8FF250028206805D04562042084F85F
:101170002100012032BD8168DFF87420114000F0A9
:1011800033F8626823691A43A3691A4311438160E3
:101190002168E068086120680169A26841EA0241AB
:1011A00001612068C16821F08001C1602068C16CC4
:1011B00089088900C1642068C16CE26963691A43C7
:1011C0001143C16420684562012084F82100002099
:1011D00032BD022084F82100CA20216848625320D1
:1011E00021684862204605E0816020688168704778
:1011F000BFFF8FFF38B504462068C168490611D487
:101200004FF0FF31C160FFF7E1FC05462068C06880
:10121000400607D4FFF7DAFC401BB0F57A7FF5D91A
:10122000032032BD002032BD00688268D20841EA46
:10123000C2018160704700002DE9F041DFF80464CD
:10124000DFF80484044630781425082815FB048749
:1012500008D1307870703470082038744FF6FF7001
:10126000F0803AE000F06BF8B96811FA80F0B860ED
:10127000B868317815FB0181896888421BD33178C1
:1012800002E015FB0181097C15FB0182127C082A12
:1012900004D015FB028292689042F2D215FB0180C5
:1012A000027C1346082B1CBF15FB0383DC733A74C6
:1012B000F973047411E030783278904215FB0081A4
:1012C00006D0CA7B15FB02831C743874FA7300E0E5
:1012D0003874CC73307870703470BDE8F081F0B53C
:1012E000D84BD94D1E781424B04214FB005204D1BF
:1012F00018785870107C18700BE0D07B167C177C27
:1013000014FB0050082E077403D0D07B14FB065446
:10131000E073012010731878082802BF00294FF6E7
:10132000FF70D880F0BDC749C96809684FF6FF70E3
:1013300000E0886A8A6A9042FBD180B2704710B59B
:10134000C04CE0884FF6FF71884212D0FFF7EBFFE8
:10135000E1888142E18828BF081A04D2228912FA62
:1013600081F1081A401C2179E278414321FA02F008
:1013700000E0002080B210BD2DE9F843B14CE568D3
:1013800028688168490502D5C1684907FCD481688D
:10139000DFF8B48221F4806181604FF0140927786E
:1013A00019FB07808668FFF7CAFF864238BF002610
:1013B00008D3618910FA81F1B14202D26689002115
:1013C00001E0361A0121A17001E08A600F7C082F2C
:1013D00008D019FB07818A68824232BF00228A68DE
:1013E000121AF2E7B6B23EB9FFF79DFFE080032084
:1013F000BDE8F24301F062BC022E02DAE078012877
:1014000000D0761E2868C1684907FBD500F0A7F810
:101410008E490860032001F057FCE5682868B6B2E1
:101420004661FFF780FFE0802868816841F48061B1
:101430008160BDE8F1832DE9F041EFF3108872B6C9
:101440008048C16809688A6822F480628A60CA6834
:1014500002F0800262F49062CA604FF480117B4A0D
:10146000116014220578784912FB0516317B022998
:101470001ED13768B47B8078C0B1707B01280AD157
:1014800001212846FFF72BFF88F310887168284652
:1014900000F0B8F804E088F31088284600F097F8C8
:1014A0003A4629462046FFF73CFB03E0FFF764FF7E
:1014B00088F31088BDE8F08138B5624CE0600168BF
:1014C000896801F00701C1F10401E1700268126945
:1014D000120C02F07F02521C2271D2B203681B6907
:1014E0005B045B0C23815B1E5A4342FA01F3A3F1B8
:1014F00010014FF6FF7291422CBF62816181012180
:10150000A170E2800021504A0023142515FB01251B
:10151000491C08292B73F8DB0821217000684C4D09
:10152000816821F48061816000F019F8686103200E
:1015300001F0CAFBE0680068816841F48041816085
:101540000022A86840F48010A8600321286840F4B5
:10155000801028600320BDE8384001F083BBC168DB
:1015600001F0800161F49061C1604FF48010704718
:10157000F0B50024EFF3108572B61426324F16FB37
:10158000047C9CF80CC0BCF1000F03D0641CE4B2D6
:10159000082CF4DB082C0BD016FB047601273773DC
:1015A00085F31088B073727333600C700020F0BD47
:1015B00085F310880120F0BD10B5044600F007F84F
:1015C0002149142212FB04110020087310BD38B504
:1015D000054600F03FF800F030F8007B02280BD100
:1015E00000212846FFF77BFE1648017840788842A4
:1015F0001CBF0829FFF7C0FE032001F050FB84F355
:10160000108831BD70B505460E4600F023F800F095
:1016100014F802210173866046602846FFF70CFE2D
:10162000084801784078884218BFFFF7A5FE0320DC
:1016300001F035FB84F3108870BD0348142111FBC1
:1016400005007047E8040020000300201404014056
:1016500000040140EFF3108472B6032001F025BBB3
:10166000F0B5EFF3108272B6294BDF681D685E6833
:101670009C684FF0010C0CFA00F0082908BF0743E2
:1016800014D05FEA417E6FEA000C4CBF0CEA0505FE
:1016900005435FEA817E4CBF0CEA06060643C90794
:1016A0000CEA07074CBF0CEA040404439C605E602C
:1016B0001D60DF6082F31088F0BD38B5EFF3108451
:1016C00072B61348C16801BB016821B10121002035
:1016D000FFF7E4FC19E081680E4D41B9C046C046F1
:1016E0001F202860FFF7F8FCC046C0460DE01F2110
:1016F0002960406820B101210020FFF7EBFC02E0E7
:101700000120FFF7ACFAFFF72DFC84F3108831BD00
:10171000D804002018700040DFF88C1500200870F5
:101720007047DFF88805006F004780B5DFF8800557
:1017300001684A6D126800F026FA896D00F0DBF945
:1017400072B690F8241001290BD1002180F82410E2
:1017500001210171062001F0A8FA62B6BDE801403E
:1017600073E10021017162B601BD80B5FFF7DDFFB5
:10177000DFF83C054189DFF83C050068BDE804401E
:10178000C9B200F056BB80B5012000F001FABDE8F7
:101790000440002169E110B5DFF8104504F10C00A8
:1017A00000F01CF8DFF80805DFF80C3504F10C0137
:1017B000016000220021017180F82410E068416876
:1017C00041F003014160016841F0400101600320E4
:1017D00004F10801BDE81040FFF7CABEDFF8DC14D1
:1017E00001604FF482714160002181604FF4E0613B
:1017F000C1600021016141614FF4007181610021EC
:10180000016241620721C1620821C1610021816238
:1018100001F02EBE10B588B04FF480700290002009
:1018200005900022DFF8983400A90320FFF7A0FEFE
:10183000DFF89004DFF8704400F000FA002200683E
:1018400000F0010001904FF4807101984FF090403A
:1018500001F038FB0120039002A9002004904FF012
:10186000904001F04BFA9DF800000121FFF7CAFEFD
:1018700000F014F801224FF480714FF0904001F015
:1018800021FB9DF800005D21FFF7BCFE00F006F88B
:101890009DF80000FFF790FE08B010BD01202070F9
:1018A00020780128FCD0704738B5DFF80444251DA6
:1018B00068610020A9612A776B77E87772B628788B
:1018C00040B901202870062001F0EFF962B6BDE8AA
:1018D0003140BAE0012084F8240062B631BD10B571
:1018E000DFF8E44301206060062001F0EDF90620F6
:1018F00001F0D5F900F0A4F8012803D1206840F0E8
:101900000100206010BD002207E0DFF8A40300689A
:10191000006880680006F8D4012202214FF0904050
:1019200001F0D0BA80B5FFF7F0FF0D204FF0005165
:10193000401E0968FAD1BDE80140E4E738B5DFF898
:101940007003DFF888430368DFF884239D6DDFF8B8
:1019500084132D68A54204D30D6845F020050D6061
:1019600003E0156845F0200515605B6D1B68A34218
:1019700004D30A6842F400720A6003E0116841F47B
:1019800000711160C94C027A21781AB1022A1AD06A
:1019900027D331BD2079E27852EA002001D0022914
:1019A0000FD000F04DF840B9FFF7AFFF062101203E
:1019B000FFF756FEBDE83140B7E6FFF7B3FF002062
:1019C00019E0022017E0FFF7A0FF06210120FFF732
:1019D00047FEC14820670221207ABDE83440FFF766
:1019E00011BEA278637853EA022201D0022905D001
:1019F000FFF798FF0120BDE83240C9E000F1210166
:101A00008D780B78012D1C460FD090F8200054FAE9
:101A100080F4A24205DA101A1A1A0A7001228A709A
:101A200000E018464870002007E0A242B2BF981AB2
:101A30001A46002008704A700120BDE8324060E07C
:101A400001214FF0904001F037BA10B5062001F0A7
:101A50002CF9964CA1482067FFF755FF207A062104
:101A6000FFF7D0FDBDE8104006210020FFF7F8BDCC
:101A700080B58F48954A0168496D096891422CBF2D
:101A8000944993490A6842F400720A6000F1210106
:101A9000027D12B1012A06D001BD487890B1BDE89F
:101AA000024001202DE08A78012A0BD10A784AB140
:101AB000C26949788918C161FFF734FFBDE8024067
:101AC000012065E0BDE8014010B506210020FFF7C8
:101AD000C7FD774C00202071FFF717FF2068416D8C
:101AE00000F009F8806D006801684908490001604C
:101AF000BDE81040F3E609680A68520852000A601F
:101B0000704738B56A4D04462868416D0A6800F090
:101B10003AF8806D026800F036F80068026822F03A
:101B2000020202600868694988422CBF6948684817
:101B3000016841F4007101600D2001F0C5F82868CA
:101B4000406D01680A6842F002020A6001680A6892
:101B500042F080020A6014B1012C08D010E000218C
:101B60002975026895F820105160A96906E00121E5
:101B70002975026895F822105160E9690268D16000
:101B800000F05BF831BD13685B085B0013607047C1
:101B900070B5474C2268516D0B681D686D086D006B
:101BA0001D60936D1D682E68760876002E600425F2
:101BB0001668367B6D1EFBD11A68136843F002036A
:101BC000136009680A6822F002020A6018B102284C
:101BD0000AD003D326E00FF2101102E00FF2001139
:101BE000012000F030F81DE0207230480179C07803
:101BF00040EA0120217C814238BF0846216860818B
:101C00004A6D13681D6825F080051D60896D0B689D
:101C10005860136858600968E068C86011680FF27E
:101C2000D000C8602068816D09680A6842F001022E
:101C30000A60406D00F001F870BD0068016841F075
:101C400001010160704710B5194A10721068426DA9
:101C500013681C6844F080041C60052314686360EA
:101C6000806D046863600068104BC3601068C160D9
:101C700010BD0F4AD060117431E680B572B60C48C1
:101C8000017969B90121017162B6FFF73CFE0020BC
:101C9000FFF77EFFBDE8044000210120FFF7E0BC14
:101CA00062B601BD000000001905002018040020E4
:101CB0008C0400200005002023170008003001409C
:101CC000191700084C100240100401408100024026
:101CD00004000240040402406B1700088717000844
:101CE0000A000000000000000B00000000000000DF
:101CF000FF000000B34901204870704738B5B14C6F
:101D000004F1100001F010FC04F1180001F00CFCCB
:101D100000258C2010FB054000F1200100F06CF83C
:101D20006D1C052DF5DB31BD80B50020009000A9AC
:101D3000A54801F018FC0098802101F027FC01BDA6
:101D400070B5A04C00F10803A3600021A3782BB963
:101D5000A38003E0042B4ED10323A370A388802B20
:101D600049DAA3885D1CA580A568A6785B5D002E76
:101D7000F0D0032E08BF0623EFD0042E08BF0523A2
:101D8000EBD0052E08BF0723E7D0072E08BF082396
:101D9000E3D0082E04D1B5F8032000210923DCE7A5
:101DA000062E01D11A46F8E7092ED7D1491C89B26F
:101DB00092B29142D2D30021A17000F108014A1CD5
:101DC000097804290CD111780E2918BF0F2907D0E2
:101DD000014604F1180001F0B8FBFEF730FE02E006
:101DE000014600F009F8E06828B1A188A068E2681F
:101DF000BDE87040104770BD04F1100001F0A5BBB4
:101E000010B582B0002000906E4C0BE000A904F1E8
:101E1000180001F0A8FB0098083000F01CFE0099A3
:101E2000FFF7EAFF04F1180001F081FB0028EDD074
:101E300013BD70B582B00446002000900D46614E7F
:101E400006F1100001F073FB40B900A906F1100083
:101E500001F089FB0098802101F098FB1DB120461C
:101E6000FFF76EFF73BD214606F1100001F066FB1F
:101E700073BD01F087BB70B5890582B0890D41EA59
:101E80008020ADF800000120504E307014461D46F1
:101E90008DF80240032200A9701C00F05BF9234674
:101EA000042229463046FFF7E4FF73BD454901206F
:101EB000C87070472DE9F8430446424F6088218876
:101EC000DFF80C918005800D40EA812541480068CB
:101ED0000A21B0FBF1F60020F8704FF00A08FEF777
:101EE0002CFE3D48F860E268A36861882088D2B281
:101EF000FFF7C1FF2FE0FEF71FFE787838B1387882
:101F000001F06CFB00F06AF84FF0FF3057E0F87812
:101F10000028F0D0387801F061FBB86802461178EB
:101F2000042916D1C11CB8885278C01E0E2A26D0AA
:101F30000F2A04D0102AE5D03E2A2ED009E04A8884
:101F4000ADB2AA4205D162680F2A13D008780028E2
:101F5000D8D10020F8705FEA0800A8F10108D1D0BC
:101F600006B90126002078703A464946304601F00D
:101F700021FBC2E762699042C8BF10460AE0B1F88F
:101F80000120ADB2AA42E4D16269C91CC01E9042D0
:101F9000C8BF1046606102460BE00A7863689A4247
:101FA000D7D16269401E9042C8BF104660610246A8
:101FB000491C206900F0CEF800F010F80020BDE8C0
:101FC000F2830000240000203400002004050020DB
:101FD000F51C0008D43B0008AD1E00080020F86086
:101FE0000120FEF7AABDF0B589B000F02CF800F092
:101FF00071F800F07FF8042000F078F8012000F07C
:102000002CF800A807900920089003A8FFF752FFBA
:10201000002802D49DF8000010B14FF0FF3010E00E
:102020009DF801002070BDF8020028809DF8040092
:102030003070BDF8050038800E99BDF807000880A3
:10204000002009B0F0BD04460D4616461F467047F5
:102050001822002101A800F083B8ADF80E0000207E
:1020600005900690704730B58FB000F01EF88DF8DF
:102070001C40202CA8BF1F2400F011F8FFF7E8FF38
:1020800000F022F80920ADF8060007A803902020F0
:10209000049000F024F800F00FF80FB030BD224695
:1020A00029460DF11D0000F055B804460D462022CA
:1020B000002107A800F054B8002802D49DF80000C1
:1020C00008B14FF0FF3070470820ADF80400002140
:1020D000704704460922002100A800F041B800A87A
:1020E00005900120069001A8E4E60820ADF80C0058
:1020F000002170471822002103A800F031B870B504
:1021000084B0064601A800900C460DF10A0302AA0D
:102110000DF106010DF10900FFF765FFC5B2A5B984
:10212000BDF80600000A3070BDF8060000022080ED
:10213000BDF804100906090F40EA01102080BDF81F
:10214000041001F00F0108432080FFF759FE2846D4
:1021500004B070BD10B5044600F02EFD204610BD41
:1021600010B5044610460A460146204601F03CFAE6
:10217000204610BD10B50C461146A21C812AA8B0FD
:10218000A8BF42201BDA8DF81C008DF81D402246A6
:102190000DF11E00FFF7DEFF00F036F800F02FF81B
:1021A0000C20ADF8060007A80390A01CC0B2049054
:1021B00000F031F800284CBFFF209DF8000028B047
:1021C00010BD00B589B08DF804008DF805101822F7
:1021D000002102A8FFF7C4FF3F20ADF8080000214E
:1021E0000F20ADF80A0001A80490022000F01AF8B0
:1021F00000284CBFFF209DF8000009B000BD3F2023
:10220000ADF80400002170471822002101A8FFF753
:10221000A7BFADF8060000A805900120069001A810
:10222000FFF748BE059000A806900120079002A87D
:10223000FFF740BE00B587B000F014F900F003F9D5
:1022400040F20110ADF8060000F005F900284CBF7F
:10225000FF209DF8000007B000BD70B58CB00128CC
:102260008DF81C0014460CBF022610261D4632466F
:102270000DF11D00FFF76EFF701C07A9C0B203220D
:102280004454441CE4B200A865540021FFF768FFE1
:1022900000F0E8F800F0D7F84FF4817000F093F800
:1022A000601C00F059F800F0D9F8002848BFFF2062
:1022B00005D49DF8000010B9109900F048F80CB052
:1022C00070BDF1B58EB00D4616461F4602220EA90E
:1022D00000F0D7F807AC012DA57031460CBF0225E0
:1022E00010252A4600F07AF8E81CC0B2411C0755B8
:1022F000C9B214980855491C1598C9B2032208554B
:10230000491C1698C9B20855491C1798C9B24D1CEA
:102310000855EDB21898285500F024F800F0A2F8FE
:1023200000F091F84FF4827000F04DF8681C00F056
:1023300013F800F093F8002848BFFF2005D49DF85B
:10234000000010B9199900F002F80FB0F0BDBDF807
:102350000100088000207047C0B2049000A80590DA
:1023600003207047002100A8FFF7FABE33B51C46D2
:10237000A01D8128A7B01546A8BF422021DA02225D
:1023800027A900F07EF8022228A900F0A3F82C99D2
:102390008DF820508DF82140224600F019F800F009
:1023A00061F800F050F84FF4837000F00CF8A01DB5
:1023B000C0B2049000F04FF800284CBFFF209DF8F9
:1023C000000029B030BDADF8060007A803907047A3
:1023D0000DF12200FFF7BEBE224619460DF11F0087
:1023E000FFF7B8BE17B58DB01C4602220DA900F04C
:1023F00048F802220EA900F06DF802220FA908A8E1
:10240000FFF7A8FE8DF82240012C0CBF02241024F7
:102410001299224600F013F800F024F800F013F8A7
:102420004FF48B70FFF7CFFFE01DC0B200F010F843
:1024300000284CBFFF209DF8000010B010BD0DF12A
:102440002300FFF787BE3F20ADF80400002170474E
:1024500004900F20029000A805900120069001A88A
:10246000FFF728BD1822002101A8FFF779BE8DF8DB
:102470002040224629460DF12100FFF76BBE0222C3
:1024800028A907A8FFF766BE33B51446601D81284A
:10249000A7B01D46A8BF422018DA022227A9FFF7DD
:1024A000F0FF022228A900F015F8FFF7E0FFFFF780
:1024B000D9FFFFF7C8FF40F2211000F00FF8FFF737
:1024C000C7FF00284CBFFF209DF8000029B030BD99
:1024D000022229A90DF11E00FFF73CBEADF806004F
:1024E00007A80390601DC0B2704710B5152A8EB0C2
:1024F000144628BF422019D2ADF81C00ADF81E10BA
:102500008DF820401946FFF7B6FFFFF7ABFFFFF746
:102510009AFF40F22310FFF756FF601D0490FFF76B
:102520009AFF00284CBFFF209DF800000EB010BDA0
:1025300010B58AB08DF800008DF801108DF80220DA
:102540001C46072200F007F900F0F1F800F048F807
:1025500000A805900320069001A80790072000F02E
:1025600055F9002848BFFF200ED49DF8040058B943
:10257000BDF8050020800C99BDF8070008800D9972
:10258000BDF80900088000200AB010BD70B58AB0FF
:102590000C468DF8080015461E46072200F0D1F8BB
:1025A00000F0C5F800F01CF802A805900120069084
:1025B00000A80790072000F029F9002848BFFF2055
:1025C0000CD49DF8000048B9BDF801002080BDF88A
:1025D00003002880BDF80500308000200AB070BDDF
:1025E0003F20ADF80C0000218A20ADF80E007047A6
:1025F00076B592B000F057F828BF42201DD200F007
:102600005AF800F04AF89DF8600000F018F800F061
:1026100021F800F03AF800F030F800F09BF800F0F4
:1026200094F8832000F023F8C0B2049000F097F8EB
:1026300000284CBFFF209DF8000014B070BD1A990F
:102640008DF822008DF821608DF823502A4609A8C4
:10265000FFF780BD05F10800C0B207A9451C44542E
:10266000EDB21C9907A822462818FFF773BDADF8F4
:10267000060007A80390A01C7047A41CE4B207A89A
:1026800002221EA92018FFF765BD6419E4B207A84D
:1026900002221DA92018FFF75DBD022213A90DF12A
:1026A0001F00FFF757BD199D1B9C54FA85F10E3191
:1026B00029291E4670478DF81C00022212A90DF12F
:1026C0001D00FFF747BD3F20ADF810000021704707
:1026D00030B58FB08DF81C008DF81D1014461D46C6
:1026E0001022214600F042F812988DF82F008DF844
:1026F0002E50182213988DF8300000211498CDF830
:10270000310015988DF8350001A8FFF729FD00F07C
:102710001CF8862000F010F81A20049000F01FF832
:1027200000284CBFFF209DF800000FB030BD1822DC
:10273000002103A8FFF714BDADF8060007A8039019
:102740007047002100A8FFF70BBD3F20ADF8040043
:10275000002170471822002101A8FFF701BD00A841
:1027600005900120069001A8FFF7A4BB0DF11E0003
:10277000FFF7F0BC00B58DB000F01AF80E988DF898
:102780000F001822BDF83C00FFF79EFFBDF8400087
:1027900000F01AF83F20ADF81C0000219C2000F04A
:1027A00024F800284CBFFF209DF800000DB000BDAC
:1027B000ADF80400ADF806108DF808201946062281
:1027C0000DF10900FFF7C6BCADF812001198ADF885
:1027D00014001298ADF816001398ADF8180014986C
:1027E000ADF81A0007A8FFF7BBBCADF81E0001A8A2
:1027F000099018200A900F20089000A80B90012043
:102800000C9007A8FFF756BB07900120089003A87B
:10281000FFF750BB10B592B00EA80FF23031C64C86
:1028200000F08FF80AA80FF2343100F08AF806A8F9
:102830000FF2383100F085F804F10C000090072306
:1028400001220EA90220FFF708FD30BB04F10E00A3
:1028500005901423012004900AAA1020039002215D
:1028600000200290019010200090A089FFF729FD20
:1028700098B904F11000059014230120049006AAD1
:1028800010200390022101200290002001900C20D2
:102890000090A089FFF715FD00B1472012B010BDD0
:1028A000A64800B500788BB0002807A81CD10FF20D
:1028B000CC210CC90CC00020FEF77AFB0820069042
:1028C00005904FF480414FF41670049007AB002040
:1028D000039000224FF4C8700290019000200090F5
:1028E0000846FFF747FF1AE00FF2982100F029F899
:1028F00000210020FFF7B7FB002006900590049010
:10290000039007A802900D2001900020009003463C
:1029100002460146FFF76CFE012000F006F90BB0FD
:1029200000BD10B5844C86B0A07840B901A80FF264
:10293000642100F006F800F017F80120A07006B03E
:1029400010BD102200F048B910B57B4C86B0E0787D
:1029500040B901A80FF24C21FFF7F3FF00F004F893
:102960000120E07006B010BD01A800900223E088AD
:102970004FF6FF720121FFF735BD38B5704D28784D
:102980000C4628B908210220FEF76AFE012004E067
:1029900006210220FEF764FE00202870002000E0DF
:1029A000401CA042FCDB31BD80B5644A127803466E
:1029B000012A614807D1009300220B46C189808912
:1029C000FFF7D4FC01BD0A464189C088BDE800502C
:1029D000491C89B2FFF789BD10B50FF2D810564CCB
:1029E000008882B000ABADF8000002222089811C73
:1029F000E08889B2FFF748FD0120607013BD10B573
:102A00004D4B1C8A641CA04203D1BDE81040104607
:102A1000B3E7D989891C884202BF10780128587011
:102A200010BD454801224261C180704742480021E3
:102A3000416101210170002141708170C1700171FB
:102A4000417170473C4B1B895B1C984204BF104688
:102A5000FFF793BF704738B50446012000F065F8D2
:102A60002078651C04285FD12878052804D03E28EA
:102A700005D0FF280ED031BDBDE83140D6E7A81CF7
:102A80000178012950D1401CBDE83440B0F8011054
:102A9000401DC6E7A91C29480B880278264840F645
:102AA00001441B1B06D00E3B14D05B1E2ED09B1E78
:102AB0001AD031BD23480078012803D1881C831C1B
:102AC000C21D02E0881C831C421D99781888BDE84D
:102AD000384094E7BDE83840881C421D8178B0F842
:102AE0000300891EC9B2ADE7F2B98278891C2AB108
:102AF00002791AB9B1F80310018131BDC2789AB1D7
:102B000042798AB9B1F80310418131BD62B9817847
:102B100021B1017911B90121017131BDC17819B11A
:102B2000417909B90121417131BD07490870012876
:102B300008BFFDF786BF7047000000201505002084
:102B4000180500201405002017050020669A0C20A7
:102B50000008969EE2119EB1E0F273D9669A0C20AD
:102B60000008969EE2119EB1E1F273D9669A0C209C
:102B70000008969EE2119EB1E2F273D9AA0000E12C
:102B80008002000009426C75654E52475F436861E0
:102B900074000000669A0C200008969EE2119EB117
:102BA000E1F273D9669A0C200008969EE2119EB15C
:102BB000E2F273D90100000062B38B0708D0521E05
:102BC00011F8013B00F8013B00F024808B07F6D19F
:102BD000830740F0208000BF103A07D330B4B1E83B
:102BE0003810103AA0E83810F9D230BC530724BF8F
:102BF000B1E80810A0E8081044BF51F8043B40F8C1
:102C0000043BD20724BF31F8022B20F8022B44BF2B
:102C10000B7803707047083A07D3B1E80810083AF8
:102C200040F8043B40F804CBF7D25307E4E7000038
:102C30000901002806D5274A00F00F00801800F887
:102C4000041C7047244A8154704724490A684FF68F
:102C5000FF031A4000F0070042EA0020204A104318
:102C60000860704770B51D4B1B68C3F30223012435
:102C7000C3F10705052D2EBF0F2504FA05F56D1EBE
:102C80001E1D072E34BF0023DB1E2940994004FA85
:102C900003F3BDE870405B1E1A401143C8E70121F1
:102CA00000F01F0291400F4A04E0012100F01F02D2
:102CB00091400D4A400942F820107047012100F070
:102CC0001F029140094AF5E7012100F01F029140DF
:102CD000074AEFE718ED00E000E400E00CED00E04B
:102CE0000000FA0500E100E080E100E000E200E021
:102CF00080E200E0002200F0ABBC00002DE9F847C4
:102D00000022784BDFF8E081DFF8E0914FF00F0A06
:102D100030E005FA0EFE4EEA040448F82C406FEA53
:102D2000070C1C680CEA040E4C68E40348BF47EA31
:102D30000E0EC3F800E05C680CEA040E4C68A403B5
:102D400048BF47EA0E0EC3F804E09C680CEA040E84
:102D50004C68E40248BF47EA0E0EC3F808E0DC689E
:102D60000CEA040C4C68A40248BF47EA0C0CC3F8F8
:102D70000CC0521C0F6837FA02F400F09B804FF031
:102D8000010C0CFA02F42740F3D04D68022D18BF55
:102D9000122D11D1D50800EB850C02F00706DCF8E6
:102DA00020504FEA860E0AFA0EF6B5430E6906FA6F
:102DB0000EF63543CCF820504FEA420C0326056846
:102DC00006FA0CF66FEA060E0E7906F003060EEA16
:102DD000050506FA0CF635430560E4434D68012D00
:102DE00018BF022D03D0112D18BF122D0FD18568E9
:102DF000CE680EEA050506FA0CF63543856045688F
:102E00004E68C6F3001625409640354345604D6830
:102E100005F00306032E06D1C66AC5F3C00534408B
:102E200095402C43C462C4680EEA040E8C6804FA10
:102E30000CF444EA0E04C4604C68E40099D5D9F857
:102E4000004044F00104C9F800404FEA920CD9F860
:102E5000004004F00104009402F00305009C58F8BF
:102E60002C404FEA850E0AFA0EF5AC43B0F1904FB4
:102E700008BF00251DD01E4DA84208BF012518D04F
:102E80001C4DA84208BF022513D01B4DA84208BF05
:102E900003250ED0194DA84208BF042509D0184DAE
:102EA000A84208BF052504D0164DA8420CBF062530
:102EB00007252EE7BDE8F1870069084018BF01200B
:102EC000C0B270470AB181617047816270470E4A93
:102ED0001368034200D1704780B5106000F05EFBBC
:102EE00001BD0000000401400800014060100240E4
:102EF0000004004800080048000C0048001000488A
:102F00000014004800180048140401402DE9F84F4F
:102F1000044600272068DFF8DC6400250005A84689
:102F200023D5606D70B1B0F5800F17D0B0F5000FEC
:102F300003D0B0F5400F09D015E0306840F4803080
:102F4000306004E0201D00F08DF9074667B9F06F8E
:102F5000616D20F440000843F06706E004F11800BA
:102F600000F00FFAF1E70127B8462068C00423D526
:102F7000A06DA8B1B0F1807F17D0B0F1007F03D071
:102F8000B0F1407F04D015E0306840F4803030600C
:102F90008FB9F06FA16D20F040700843F0670BE02F
:102FA000201D00F05FF90746F2E704F1180000F079
:102FB000E8F9F8E70127B846206880032DD5F06CC2
:102FC000C000A9460AD4F06C40F08050F0644FF085
:102FD0000109F06C00F0805000900098DFF818B400
:102FE000DBF8000040F48070CBF80000FDF7EEFD48
:102FF0008246DBF80000C00500F18080FDF7E6FDA9
:10300000A0EB0A006528F4D30327B846B9F1000FF6
:1030100003D0F06C20F08050F0642078C00705D514
:10302000F06FA16A800841EA8000F067207880078D
:1030300005D5F06FE16A20F00C000843F0672078B6
:10304000400705D5F06F216B20F030000843F06792
:103050002078000705D5F06F616B20F0C0000843B1
:10306000F0672078C00605D5F06FA16B20F44070A2
:103070000843F0672078800605D5F06FE16B20F4F7
:1030800040600843F0672068800505D5F06FE16C6B
:1030900020F440200843F0672068400505D5F06F14
:1030A000216D20F440100843F0672078400605D5D4
:1030B000F06F216C20F440500843F0672078000640
:1030C00005D5F06F616C20F440400843F06720683C
:1030D000C00505D5F06FA16C20F440300843F067BF
:1030E0002068800443D5F06FE16D00F09EF8E06D3C
:1030F000B0F1006F32D100F09DF838E0002F84D19C
:10310000DFF8F8723868616F00F4407088420BD0C5
:10311000386820F44075386840F48030386038688A
:1031200020F4803038603D60A80710D5FDF74EFDD3
:1031300005463868C0F3400048B9FDF747FD401B1D
:1031400041F289318842F4D34FF003085EE73868D2
:10315000616F20F440700843386057E7B0F1806F2A
:1031600005D1201D00F0A1F8070018BF8046206897
:10317000000313D5F06F216E00F057F8206EB0F108
:10318000006F02D100F056F808E0B0F1806F05D171
:10319000201D00F08AF8070018BF80462068400311
:1031A00013D5F06F616E00F040F8606EB0F1006F03
:1031B00002D100F03FF808E0B0F1806F05D1201D8A
:1031C00000F073F8070018BF80462068400417D548
:1031D000F06FA16E20F040500843F067A06EB0F190
:1031E000805F03D1201D00F0A8F806E0B0F1005F79
:1031F00006D104F1180000F005F9070018BF804659
:103200002068000405D5F06FE16E20F0804008438F
:10321000F0672068C00305D5F06F216F400051EAC8
:103220005000F0674046BDE8F28F20F04060084350
:10323000F0677047306840F4801030607047084392
:103240003061306840F080603060FDF7BFBC2846D8
:10325000BDE8F08108437061306840F08050306014
:10326000FDF7B4BC2DE9F04100F05EF800F054F831
:1032700000F056F828B1FDF7A9FCC01B4045F7D374
:103280000EE000F040F800F0A1F8FFF7D9FF074684
:1032900000F046F830B9FDF799FCC01B4045F7D364
:1032A000032501E000F02AF8D1E72DE9F04100F014
:1032B0003BF800F031F800F033F828B1FDF786FC58
:1032C000C01B4045F7D314E000F01DF8A168891E2B
:1032D000090520F4C000490D40EA4150FFF7B0FF56
:1032E000074600F01DF830B9FDF770FCC01B4045E3
:1032F000F7D3032501E000F001F8A8E73069216960
:103300000843306170473069216820F4FE4040EA8C
:103310000120306130697047074640F2E938704754
:103320003068C0F3C0607047354E0446306820F006
:10333000806030600025FDF749BC2DE9F041FFF7C2
:10334000F3FFFFF7E9FFFFF7EBFF28B1FDF73EFCC6
:10335000C01B4045F7D30FE0FFF7D5FFE16800F051
:1033600077F8FFF76CFF0746FFF7DAFF30B9FDF794
:103370002DFCC01B4045F7D3032501E0FFF7BEFF3E
:1033800065E72DE9F04100F02CF8FFF7C5FF00F0EC
:1033900024F828B1FDF71AFCC01B4045F7D30EE016
:1033A00000F05DF800F012F8FFF755FF074600F057
:1033B00014F830B9FDF70AFCC01B4045F7D30325CC
:1033C00003E07069E1680843706140E7616820F4D8
:1033D0000030090940EA414070473068C0F340704E
:1033E0007047074E0446306820F08050306000255A
:1033F000FDF7ECBB0C100240007000409010024042
:10340000001002402DE9F041FFF7EBFFFFF784FFCA
:10341000FFF7E3FF28B1FDF7D9FBC01B4045F7D309
:103420000FE000F01CF8A16800F012F8FFF712FF9F
:103430000746FFF7D2FF30B9FDF7C8FBC01B404578
:10344000F7D3032503E07069E16808437061FEE685
:10345000891E090620F0C06001F07E417047706946
:10346000216820F4FE4040EA0120706170697047D5
:1034700070B5040001D1012070BD04F15C056878CD
:1034800018B92870204600F0FDF80220687040F25C
:10349000017300F043F8E2689A4204D30021B2F5C8
:1034A000706F05D106E0B2F5E06F4FF4805101D0A6
:1034B0000026A662266B26B99A422CBF0222012260
:1034C00022636268A3681A4323691A4363691A4333
:1034D000A36903F400731A43E3691A43236A1A4386
:1034E000A36A1A430260226B022A03D1026842F4E3
:1034F00000620260A269636A120C02F004021A43BD
:10350000636B1A43E3681A4311434160E16A016146
:103510000020686001206870002070BD206801688C
:1035200021F0400101607047006040607047016811
:10353000814201D1012070470020704702680A6073
:1035400048600160086841607047086042684A60EE
:1035500041604868016070474268016811604168D5
:1035600000684160704710B50C4601682160006832
:10357000FFE7FFF7F1FF216800200860216848603D
:1035800010BD0000DBB2D2B2FEF78EB9024A106065
:103590000830FEF76EBB000000050020012808BFC0
:1035A000FEF76BBBB0F5005F03D108210220FEF7E8
:1035B00057B8704738B5044615460B4600222946D1
:1035C0000220FDF7D5FF4FF47A7060433F21B0FB36
:1035D000F1F12878FEF716F8002032BD80B5FDF72E
:1035E000EBFF002002BD000062F30F2262F31F42D6
:1035F000401810F0030308D0C91A1FD3DB0748BFD7
:1036000000F8012D28BF20F8022D130030B4144615
:103610001546103928BF20E93C00FAD8490728BFD1
:1036200020E90C0048BF40F8042D890028BF20F88D
:10363000022D48BF00F8012D30BC7047C91818BFD3
:1036400000F8012DCB0728BF00F8012D70470000BE
:1036500000B500BF130096469446103928BFA0E875
:103660000C50FAD85FEA417C28BF0CC048BF40F834
:10367000042BC90728BF20F8022B48BF00F8012BF4
:1036800000BD0000F0B5044687B020684D4988426F
:1036900040F095804C4D686840F00200686001A9D8
:1036A000686800F002000090009800F0AEF800F0AA
:1036B000ACF8A86940F48050A861A86900F4805073
:1036C00000900098082001900220029000200390B2
:1036D00003200490052005903C48FFF70FFB402095
:1036E00000F085F8802000F082F80220019001A906
:1036F00001200290002000F071F8012202214FF019
:103700009040FFF7DFFB0120019001A930480290B3
:10371000022000F063F8286840F001002860286863
:103720002C4D00F0010000900098012068601020EE
:10373000A8600020E8608020286100206861A861FE
:10374000E8614FF40056244F2E6207F11400286000
:10375000284600F06DF8206829680C30886065659F
:1037600001202864AC6200206864A864EE658020B3
:10377000E864EF63002028656865A86505F13C00F2
:1037800000F056F82068E96B0C308860002205F1E3
:103790003C00A0656C6601210D20FFF763FA0D2047
:1037A000FFF77DFA002201210C20FFF75BFA0C20C5
:1037B000FFF775FA002202210620FFF753FA07B03F
:1037C000F0BD0000003001404810024000040048F5
:1037D00000001110A00300201C00024003900320F1
:1037E0000490002005904FF09040FFF787BA0190B9
:1037F00001A90220029000200390032004900520DC
:1038000005904FF09040FFF779BA686840F00100EA
:103810006860686800F0010000900098686840F0F7
:1038200001006860686800F001000090009870472F
:1038300010B508B9012010BD00F124014A7802B981
:103840000A7002224A700268136884686FF30D13CD
:103850002343C4682343046923434469234384699D
:103860002343C4692343046A234313608268B2F587
:10387000804F73D00368DFF8F840DFF8F820A342E8
:103880001DD0DFF8F440A34224D0DFF8F040A3427B
:103890002CD0DFF8EC40A34234D0DFF8E840A3425C
:1038A0003CD0DFF8E440A34244D0DFF8E040A3423C
:1038B0004CD0DFF8DC40DFF8DC20A34206D11368EF
:1038C0001B091B0100F050F8184346E0DFF8C84020
:1038D000A34207D1136823F0F00300F045F843EA50
:1038E00000103AE0DFF8B440A34207D1136823F494
:1038F000706300F039F843EA00202EE0DFF8A040C2
:10390000A34207D1136823F4704300F02DF843EA73
:10391000003022E0DFF88C40A34207D1136823F483
:10392000702300F021F843EA004016E0DFF8784009
:10393000A34207D1136823F4700300F015F843EA9B
:1039400000500AE0DFF86440A34207D1136823F077
:10395000706300F009F843EA0060106000204861DD
:1039600001204870002010BD136013684068704744
:1039700008000240A80002401C0002403000024043
:1039800044000240580002406C00024080000240A7
:1039900008040240A80402401C0402403004024013
:1039A00044040240580402406C0402408004024077
:1039B0007047FEE770477047704780B5FDF701F923
:1039C0001C480168491C016001BDFDF734BD0120A0
:1039D000FFF77DBA80B5184901200860FFF7A5F808
:1039E000BDE802404FF40050FFF771BA1348806DF4
:1039F0000068016889070AD5114988422CBF11481F
:103A00001148006810F0200018BFFDF797BF7047FD
:103A10000A48406D0068016889070AD5084988424C
:103A20002CBF08480848006810F4007018BFFEF763
:103A30001FB870470C05002010050020240400204A
:103A40008100024000040240000002400E480F4A7C
:103A5000016841F4700101600D48016841F0010105
:103A60000160002181600168114001604FF4006134
:103A7000C160016821F480210160002181614FF063
:103A8000006004490860704788ED00E0FFFFF6EA37
:103A90000010024008ED00E019E050F8041BCB07CD
:103AA00044BFA9F101035918121F0023042A41F849
:103AB000043BF9D25FEA827C0B4604D54FF0000C40
:103AC000A1F800C09B1CD10744BF0021197050F819
:103AD000042B002AE1D1704710B450F8041B79B1CF
:103AE0000268436812180830DC0744BFA9F10104DA
:103AF000E31852F8044B43F8044B091FF9D1ECE7E3
:103B000010BC704710B5074979441831064C7C4405
:103B1000163404E00A68081D511888470146A1427E
:103B2000F8D110BD2C0000004C0000004EF688516A
:103B3000CEF20001086840F470000860BFF34F8FB8
:103B4000BFF36F8F4FF00070E1EE100A7047000076
:103B500049FFFFFFF80400002400002000000000DF
:103B600079FFFFFF24000000AC01000000000020EE
:103B70000000000000F00BF8002801D0FFF7C2FFA2
:103B80000020C046C046FCF76FFE00F002F801209E
:103B9000704700F001B800000746384600F002F810
:103BA000FBE7000080B5C046C046024A110018205D
:103BB000ABBEFBE7260002000148804701480047F2
:103BC0004D3A0008C93B0008C046C046FFF7AEFFAB
:103BD000FFF7D0FFE8030000FFF7FEBFFFF7FEBFCF
:103BE000FFF7FEBFFFF7FEBFFFF7FEBFFFF7FEBF09
:103BF000FFF7FEBFFFF7FEBFFFF7FEBFFFF7FEBFF9
:103C0000FFF7FEBFFFF7FEBFFFF7FEBFFFF7FEBFE8
:103C1000FFF7FEBFFFF7FEBFFFF7FEBFFFF7FEBFD8
:103C2000FFF7FEBFFFF7FEBFFFF7FEBFFFF7FEBFC8
:103C3000FFF7FEBFFFF7FEBFFFF7FEBFFFF7FEBFB8
:103C4000FFF7FEBFFFF7FEBFFFF7FEBFFFF7FEBFA8
:103C5000FFF7FEBFFFF7FEBFFFF7FEBFFFF7FEBF98
:103C6000FFF7FEBFFFF7FEBFFFF7FEBFFFF7FEBF88
:103C7000FFF7FEBFFFF7FEBFFFF7FEBFFFF7FEBF78
:103C8000FFF7FEBFFFF7FEBFFFF7FEBFFFF7FEBF68
:103C9000FFF7FEBFFFF7FEBFFFF7FEBFFFF7FEBF58
:103CA000FFF7FEBFFFF7FEBFFFF7FEBFFFF7FEBF48
:103CB000FFF7FEBFFFF7FEBFFFF7FEBFFFF7FEBF38
:103CC000FFF7FEBFFFF7FEBFFFF7FEBFFFF7FEBF28
:103CD000FFF7FEBFFFF7FEBFFFF7FEBFFFF7FEBF18
:103CE000FFF7FEBFFFF7FEBFFFF7FEBFFFF7FEBF08
:103CF000FFF7FEBFFFF7FEBFFFF7FEBFFFF7FEBFF8
:103D0000FFF7FEBFFFF7FEBFFFF7FEBFFFF7FEBFE7
:103D1000FFF7FEBF010000000000000000000000EF
:103D2000000000000000000000000000000000484B
:083D30000008004800093D00F5
:00000001FF
