:020000040800F2
:10000000000800201D27000801260008032600081C
:100010003D27000841270008452700080000000090
:10002000000000000000000000000000052600089D
:100030000726000800000000092600080B2600081B
:10004000492700084D2700085127000855270008B8
:10005000592700085D2700081B26000861270008B3
:1000600065270008692700086D2700087127000828
:1000700075270008792700087D27000881270008D8
:1000800085270008892700088D2700080000000048
:1000900000000000000000000000000091270008A0
:1000A00095270008992700089D270008A127000828
:1000B000A5270008A9270008AD270008B1270008D8
:1000C000B5270008B9270008BD270008C127000888
:1000D000C5270008C9270008CD2700080000000038
:1000E00021260008D1270008D527000800000000BD
:1000F000000000000000000000000000D9270008F8
:1001000000000000DD270008E1270008E5270008BF
:1001100000000000000000000000000000000000DF
:10012000E9270008ED270008F1270008F527000857
:10013000F927000800000000000000000000000097
:10014000000000000000000000000000FD27000883
:100150000128000805280008092800080D280008C3
:100160001128000815280008000000000000000009
:10017000000000000000000000000000000000007F
:100180000000000019280008000000000000000026
:100190001D28000830B58BB01B208DF8180006AC68
:1001A000C520607000F0ADF9B420A0719A2000F075
:1001B00066F83A2000F05DF86E2060733620A07378
:1001C0000220E0730723DFF87C54281D00900122F1
:1001D00006A9022000F079FA002847D11B208DF8EB
:1001E0001800012300F051F800F08DF9FC20A071F7
:1001F0008F2000F044F84A20A072CF20E072A020A7
:100200002073782060733E20A073E220E073A81D65
:10021000059000200490102003900020029001908F
:1002200010200090A88800F084FAF8B91B208DF8FF
:100230001800062300F029F800F065F93620A071B7
:10024000AC2000F01CF84B2000F013F81B2060736A
:100250000A20A0733420E07305F1080000F00DF9C6
:1002600012200090A88800F064FA00B147200BB07B
:1002700030BDA072CF20E072802020737047E07103
:10028000E1202072112060727047C520607006AABC
:10029000D520A07002217047E0B501688DF80410E8
:1002A0000623016809128DF80510002241688DF8B7
:1002B0000610416809128DF8071081688DF8081042
:1002C00001A98068009100128DF80900DD480189BC
:1002D00080882EE1F0B591B01B208DF830000CAC79
:1002E000C520607000F00DF9D020A071822000F0D0
:1002F000CEF8402020731A2060738220A073422021
:10030000E0730A23CF4D05F10A00009001220CA9E9
:10031000022000F0DAF9002825D100F0EBF8E32004
:10032000A071A92000F0B3F820202073552060733D
:100330002E20A073A320E07305F10C0000F0CBF891
:10034000002810D10E208DF828004FF0FF3642F221
:100350002F70ADF82A0042F6041700F0A2F8A98920
:1003600000F07EF8002878D11B208DF830000323A0
:10037000C52060700CAAD520A070022100F0C3F83F
:100380000B20A071842000F072F88B20A072E42072
:10039000E07280202073C42060732020A073CD20E1
:1003A000E07305F10E0000F068F802200090688903
:1003B00000F0BFF9002850D10F208DF828006FF011
:1003C00004008DF829004FF41E50ADF82A000020DB
:1003D0008DF82C00ADF82D000DF1260008900020BE
:1003E0000790102006900020059001200490002026
:1003F00003900AA80290072001900090ADF82470A5
:10040000E989688909AB012200F0E8F9002824D1C4
:1004100000F070F87320A071A02000F028F88C2064
:10042000A072E420E072602020730B206073C5206E
:10043000A0730120E07305F1100000F04CF860B9E2
:1004400006208DF828004FF41C50ADF82A0000F06B
:1004500028F8298A00F004F800B1472011B0F0BD57
:100460006889ADF8247009AB012200F0B7B9E071DA
:10047000E2202072112060727047059000200490E5
:100480001020039004200290002001907047E0713A
:10049000E2202072112060727720A072E420E072C6
:1004A000704700208DF82C00ADF82D000DF12600CE
:1004B0000890002007901020069000200590012051
:1004C0000490002003900AA8029007200190009059
:1004D0008DF829607047059000200490102003904B
:1004E00004200290002001900220009001466889BB
:1004F00000F01FB91B208DF830000223C52060706A
:100500000CAAD520A070A520E07002202071002048
:100510006071704701B582B000F010F80223818944
:1005200005E001B582B000F009F80323C1894089D4
:10053000002200F0ABF900B147200EBD02A94148EE
:100540000091704701B582B0FFF7F8FF0223018ADE
:10055000EDE700B50FF2441189B00CC907A80021DE
:100560000CC0002000F0D0FB002006900590049005
:10057000039007A8029008200190002000900346F5
:100580000246014600F062FC09B000BD2D48012280
:100590004261418070472B48002141610121017077
:1005A00000214170704730B5264C2189491C884292
:1005B00083B004D104F11800FFF76EFE3BE0A1897F
:1005C000491C884211D100F001FD054604F11800D4
:1005D000FFF762FE0F2080FB050100F039F800F5FF
:1005E000877000B2FFF796FF25E0E189491C884239
:1005F00013D1154800680A21B0FBF1F100A800F002
:1006000055FD00F0E3FC4FF47A7100F01FF800F59F
:10061000C330A030FFF785FF0DE0218A491C8842D6
:1006200009D100F0D3FC642100F010F800F5E1706E
:1006300080B2FFF787FF608810B1608800F0A2F9F0
:1006400037BD00008C0000203827000881FB000126
:100650006FF04042002300F03DBD411C00780428AB
:100660001AD10878052804D03E2803D0FF280AD0E4
:10067000704790E7881C017801290DD1401CB0F823
:100680000110401D82E7881C40F614420188914207
:1006900004BF8088FFF787BF7047000009426C7570
:1006A000654E524700B587B000F047F900F036F9C3
:1006B00040F20110ADF8060000F038F900284CBFF8
:1006C000FF209DF8000007B000BD70B58CB0012878
:1006D0008DF81C0014460CBF022610261D4632461B
:1006E0000DF11D0000F06DFD701C07A9C0B20322C2
:1006F0004454441CE4B200A86554002100F067FD96
:1007000000F01BF900F00AF94FF4817000F0EBF8EB
:10071000601C00F059F800F00CF9002848BFFF20D9
:1007200005D49DF8000010B9109900F048F80CB0FD
:1007300070BDF1B58EB00D4616461F4602220EA9B9
:1007400000F00AF907AC012DA57031460CBF022557
:1007500010252A4600F0DEF8E81CC0B2411C0755FF
:10076000C9B214980855491C1598C9B203220855F6
:10077000491C1698C9B20855491C1798C9B24D1C96
:100780000855EDB21898285500F024F800F0D5F877
:1007900000F0C4F84FF4827000F0A5F8681C00F077
:1007A00013F800F0C6F8002848BFFF2005D49DF8D4
:1007B000000010B9199900F002F80FB0F0BDBDF8B3
:1007C0000100088000207047C0B2049000A8059086
:1007D00003207047002100A800F0F9BC73B5A8B051
:1007E00014461D4600F0B6F800F0B9F88DF8204028
:1007F000012C0CBF0224102400F0A6F8611D07ADE7
:100800002E98C9B24855481C2F9CC0B2461CF6B25F
:1008100056FA84F14455491D8129A8BF422033DA94
:10082000309907AB2246F01800F0CBFCA1193198A3
:10083000C9B203224855491C3298C9B24855491CCF
:100840003398C9B24855491C3498C9B24E1C485512
:10085000F6B235987055FFF7BDFF00F06EF800F066
:100860005DF840F2051000F03EF8701CFFF7ACFF99
:1008700000F05FF8002848BFFF2005D49DF8000075
:1008800010B93699FFF79BFF2AB070BD33B51C46EF
:10089000A01D8128A7B01546A8BF422021DA022258
:1008A00027A900F059F8022228A900F05AF82C993B
:1008B0008DF820508DF82140224600F019F800F004
:1008C0003CF800F02BF84FF4837000F00CF8A01DFA
:1008D000C0B2049000F02AF800284CBFFF209DF819
:1008E000000029B030BDADF8060007A8039070479E
:1008F0000DF1220000F065BC3F20ADF8080000219A
:1009000070471822ADF80400002102A800F05FBC77
:10091000224619460DF11F0000F053BC3F20ADF8F0
:1009200004000021704704900F20029000A8059059
:100930000120069001A800F0F8B81822002101A8B3
:1009400000F045BC8DF82040224629460DF12100DB
:1009500000F037BC022228A907A800F032BC02220E
:1009600029A90DF11E0000F02CBCADF80A0001A869
:1009700004900220059000A806900120079002A88C
:1009800000F0D3B800B589B0FFF7BBFFFFF7B4FFA5
:1009900040F22710FFF7E9FF00284CBFFF209DF829
:1009A000000009B000BD000038B5B14C201D00F0BA
:1009B00018FC04F10C0000F014FC00258C2010FB46
:1009C000054000F11401201D00F01CFC6D1C052DDC
:1009D000F4DB31BD00F108010A78042A01D00120BE
:1009E000704790F888008978C01E814201D00220AB
:1009F00070470020704710B5A2B00020009000F0B2
:100A0000ABFD9B4C10E000A904F10C0000F008FCC9
:100A100000F09FFD00980830FFF71FFE00F09CFDDE
:100A20000099201D00F0EEFB04F10C0000F0DCFB4F
:100A30000028E8D0207850B90EE0802201A98D4826
:100A400000F0E4FCC0B210B101A8FFF706FE00F010
:100A5000D4FC0028F1D1207000F07BFD22B010BD45
:100A600038B50020009000F07AFD824C804D04E003
:100A7000281D00F0C0FB00F072FD00F0BEFC18B3B2
:100A8000281D00F0B1FBD8B900A9281D00F0C8FB53
:100A9000009800F108018022204600F0B7FCC0B2A7
:100AA00000280099E4D081F888000098FFF792FFB1
:100AB00000280099DCD105F10C0000F0A3FBDAE777
:100AC0000120287000F04BFD31BD00F04DBC30B569
:100AD000890583B0890D41EA8020ADF804001446F1
:100AE00001208DF800001D468DF80640032201A963
:100AF0000DF1010000F065FB23460422294600A801
:100B0000FFF7E3FF37BD38B504460D4607E000A9FF
:100B1000284600F085FB0099204600F073FB28462C
:100B200000F062FB0028F2D031BD2DE9F04104460F
:100B300086B060884E4F884680052188800D40EA47
:100B400081254D4800680A21B0FBF1F60020009095
:100B5000ADB202A800F045FBE268A3686188208876
:100B6000D2B2FFF7B4FFB8F1000F59D106B9012690
:100B7000314604A800F09AFA05E0009902A800F0B6
:100B800041FB00F0E6FC04A800F098FA002867D1C9
:100B900007F10C0000F028FB0028F4D100F0DCFC89
:100BA00000A907F10C0000F03BFB009800F10802DF
:100BB00010780428E1D10098527800F10B0190F8E8
:100BC0008800C01E0E2A37D00F2A04D0102A47D022
:100BD0003E2A38D008E04A88AA4241D162680F2AEA
:100BE00015D0087800283BD1009902A800F00AFB34
:100BF000381D00F0F9FA0028C3D001A907F10C0054
:100C000000F00EFB0199381D00F0FCFAB9E76269AB
:100C10009042C8BF104660610246206900F0D1FAD8
:100C20000099381D00F0E7FA00F028F800F091FC78
:100C3000002006B0BDE8F081B1F80120AA420FD132
:100C4000C91CC01EE3E70A7863689A42CCD1626986
:100C5000401E9042C8BF104660610246491CDCE756
:100C600000F00CF800F075FC4FF0FF30E1E70000F9
:100C7000C8000020980300203827000802A907F1C7
:100C80000C0040E7F0B589B000F02EF800F06FF8E6
:100C900000F077F8042000F070F8012000F029F847
:100CA000002848BFFF2013D49DF8000080B99DF8AC
:100CB00001002070BDF8020028809DF8040030700B
:100CC000BDF8050038800E99BDF8070008800020A7
:100CD00009B0F0BD07A803902020049000A805905B
:100CE0000120069001A820E704460D4616461F463F
:100CF0007047ADF80E0000200590069000A8079000
:100D00000920089003A810E730B58FB000F017F85D
:100D10008DF81C40202CA8BF1F2400F017F800F00D
:100D20001BF800F01EF80920ADF80600FFF7D2FF0F
:100D300000284CBFFF209DF800000FB030BD0446D6
:100D40000D462022002107A800F041BA224629467C
:100D50000DF11D0000F035BA1822002101A800F0A5
:100D600036BA0820ADF80400002170470446092275
:100D7000002100A800F02BBA0820ADF80C000021DB
:100D800070471822002103A800F021BA10B58AB0DC
:100D90008DF800008DF801108DF802201C46072206
:100DA00000F005F900F0EFF800F048F800A8059011
:100DB0000320069001A80790072000F0B1F8002852
:100DC00048BFFF200ED49DF8040058B9BDF80500B7
:100DD00020800C99BDF8070008800D99BDF8090026
:100DE000088000200AB010BD70B58AB00C468DF89E
:100DF000080015461E46072200F0CFF800F0C3F8A1
:100E000000F01CF802A805900120069000A80790A9
:100E1000072000F085F8002848BFFF200CD49DF87B
:100E2000000048B9BDF801002080BDF8030028800B
:100E3000BDF80500308000200AB070BD3F20ADF83D
:100E40000C0000218A20ADF80E00704776B592B0F4
:100E500000F056F828BF42201BD200F059F800F0ED
:100E600049F800F018F800F022F800F03BF800F024
:100E700031F800F09BF800F094F8832000F024F89B
:100E8000C0B2049000F097F800284CBFFF209DF8F6
:100E9000000014B070BD18981A998DF822008DF8D2
:100EA00021608DF823502A4609A800F08AB905F17F
:100EB0000800C0B207A9451C4454EDB21C9907A80C
:100EC0002246281800F07DB9ADF8060007A8039067
:100ED000A01C7047A41CE4B207A802221EA9201877
:100EE00000F06FB96419E4B207A802221DA9201806
:100EF00000F067B9022213A90DF11F0000F061B9DB
:100F0000199D1B9C54FA85F10E3129291E46704704
:100F10008DF81C00022212A90DF11D0000F051B93C
:100F2000089003A8FFF701BE30B58FB08DF81C0004
:100F30008DF81D1014461D461022214600F042F87F
:100F400012988DF82F008DF82E50182213988DF8D6
:100F5000300000211498CDF8310015988DF8350037
:100F600001A800F034F900F01CF8862000F010F819
:100F70001A20049000F01FF800284CBFFF209DF8B5
:100F800000000FB030BD1822002103A800F01FB9E7
:100F9000ADF8060007A803907047002100A800F0F4
:100FA00016B93F20ADF80400002170471822002137
:100FB00001A800F00CB900A805900120069001A836
:100FC000FFF7B3BD0DF11E0000F0FBB8F8B5344FCC
:100FD000384600F0E5FA0446381D00F0E1FA05460F
:100FE00007F1080000F0DCFA064607F10C0000F0FB
:100FF000D7FA23782B492C4A002B40D12B6802FBCF
:1010000003132B60082702FB03132B6002FB03135F
:101010002B6002FB03132B6002FB03132B6002FB0C
:1010200003132B6002FB03132B6002FB03132B60E3
:101030000346D5F800C002FB0C1CC5F800C043F8FD
:1010400004CB7F1ED5F800C002FB0C1CC5F800C005
:1010500043F804CBD5F800C002FB0C1CC5F800C057
:1010600043F804CBD5F800C002FB0C1CC5F800C047
:1010700043F804CBDDD1C36F3360012323702B68A9
:1010800002FB03112960317801F01F0150F8212083
:1010900032602A6840F82120306880008008F2BD64
:1010A000000000205FF36E3C0D66190010B5044689
:1010B0006160FFE700F075FA206010BD10B50446CE
:1010C00000F06FFA22686168801A401C81428041FA
:1010D000C00F10BD1B4213D1094236D12AB184463C
:1010E000B0FBF2F002FB10C2704700F05DBAFCD317
:1010F0000022002370470B000200002100207047EF
:10110000904271EB030CF6D370B5B1FA81F4B3FAE7
:1011100083F52C1BA340C4F1200532FA05F63343B6
:10112000A2405FF00046E64002E05B085FEA320260
:10113000841A71EB030524BF204629467641F4D377
:1011400002000B003000002170BD012ACFD970B51C
:10115000140C20D0B1FA81F4B2FA82F5C4F1200463
:101160006419B4F12006D6D3B2405FF00044F440D5
:10117000002502E052085FEA3303C61A71EB020E43
:1011800024BF3046714664416D41F3D302000B0029
:101190002000290070BD0C46B1FBF2F102FB1145A5
:1011A0002D0445EA1045B5FBF2F402FB145580B25C
:1011B00040EA0545B5FBF2F002FB105240EA04405C
:1011C00070BD10B5044600F0F1F9204610BD10B511
:1011D000044610460A460146204600F023FA2046FF
:1011E00010BD0060406070470168814201D101205C
:1011F00070470020704702680A6048600160086814
:1012000041607047086042684A6041604868016018
:10121000704742680168116041680068416070472A
:1012200010B50C46016821600068FFE7FFF7F1FF89
:101230002168002008602168486010BD0068DFF860
:101240002813884200D0704710B5C848C84C86B0F3
:10125000016841F001010160016801F001010091A4
:101260000099016841F002010160016801F002018A
:101270000091009900F065F800F063F8416941F4CD
:101280008051416101A9406900F4805000900098AC
:101290004FF4807001900120029003900020049090
:1012A000059000F053F900F031F80820019001A9F1
:1012B0000220029003900320049005200590AD4881
:1012C00000F0E4F9402000F02FF8802000F02CF826
:1012D0000220019001A90120029000F01DF80122D6
:1012E0000221204600F0A4FA0120019001A9A248A1
:1012F0000290002000F010F800220321062000F0E8
:10130000D3FA062000F0EDFA06B010BD00224FF42B
:101310008071204600F08CBA0390032004900020D6
:101320000590204600F0B2B9019001A90220029078
:10133000002003900320049005200590204600F033
:10134000A5B9016841F001010160016801F00101E6
:1013500000910099016841F001010160016801F00C
:1013600001010091009970472DE9F041044683483E
:10137000DFF80C8200680D460A2184B0B0FBF1F161
:1013800016461F4601A8FFF791FEF8B20090F3B28F
:101390002A462146404600F086F820B101A8FFF712
:1013A0008DFE0028F1D0BDE8FF8175486E490160CF
:1013B0004FF48271416000218160C160016141612F
:1013C0004FF4007181610021016241620721C16215
:1013D0000821C1610021816200F0B4BA10B5644CEB
:1013E000FFF794FF052000F0AEFC0122FFF78FFF0E
:1013F000BDE81040052000F0A6BC80B501215C4886
:1014000000F010FA012818BF002002BD2DE9F043BA
:1014100087B005460E46FF2017468DF8050004A844
:101420000FF26411DFF848810CC90CC000220221C0
:10143000404600F0FDF90F200090052302AA04A900
:1014400000F081F89DF808000024022819D19DF8C9
:101450000C009DF80B1051EA002912D04F450DDA0F
:10146000B9460BE00F200090012301AA0DF1050100
:1014700000F069F89DF80400A055641CE4B24C45E6
:10148000F0DB01220221404600F0D2F9002002E008
:1014900000BF0098401C009000980228F8DB20460E
:1014A00007B0BDE8F0832DE9F047884691461E4617
:1014B0000FF2DC01C6B005460CC903A80FF2D80133
:1014C000DFF8ACA00CC00CC901A800270CC0062096
:1014D00000F00DFA00220221504600F0A9F90F2079
:1014E0000090052301AA03A900F02DF89DF804003F
:1014F00002281AD14E9C9DF8050054FA86F18842C4
:1015000010DB36B10F200090334605AA414600F0AB
:101510001AF864B10F200090234605AA494600F04E
:1015200012F804E06FF0010701E04FF0FF370122ED
:101530000221504600F07CF9062000F0D2F938462E
:1015400046B0BDE8F087284600F04EBA204600F0CD
:101550009DB8062000F0C5B9062000F0C8B90949B9
:101560000120086070470000003001403038024020
:10157000000002400004024000001110382700085B
:1015800098030020143C01400B0000000000000004
:101590000A00000000000000AA0000000000000097
:1015A000704700F0CDBB00007047000062B38B07AE
:1015B00008D0521E11F8013B00F8013B00F02480D6
:1015C0008B07F6D1830740F0208000BF103A07D385
:1015D00030B4B1E83810103AA0E83810F9D230BC75
:1015E000530724BFB1E80810A0E8081044BF51F821
:1015F000043B40F8043BD20724BF31F8022B20F80B
:10160000022B44BF0B7803707047083A07D3B1E848
:101610000810083A40F8043B40F804CBF7D25307CF
:10162000E4E7000062F30F2262F31F42401810F05B
:10163000030308D0C91A1FD3DB0748BF00F8012DE8
:1016400028BF20F8022D130030B414461546103977
:1016500028BF20E93C00FAD8490728BF20E90C0040
:1016600048BF40F8042D890028BF20F8022D48BF4C
:1016700000F8012D30BC7047C91818BF00F8012DC3
:10168000CB0728BF00F8012D704700002DE9F8476F
:1016900000226F4BDFF8BC81DFF8BC914FF00F0ADE
:1016A000012707FA02FC0F680CEA0707674540F0BC
:1016B000B3804C68022C18BF122C10D1D40800EB58
:1016C000840E02F00704DEF82050A4000AFA04F6A3
:1016D000B5430E6906FA04F42C43CEF820404FEAD5
:1016E000420E032405680E7904FA0EF4E44306F072
:1016F0000306254006FA0EF6354305604D68012DB8
:1017000018BF022D03D0112D18BF122D11D18568DD
:10171000CE68254006FA0EF635438560456825EA11
:101720000C0C4D68C5F30015954045EA0C0CC0F84B
:1017300004C0D0F80CC004EA0C0C8C6804FA0EFE4D
:101740004EEA0C0CC0F80CC0D1F804C05FEACC0C17
:1017500062D5D9F8004044F48044C9F800404FEA0B
:10176000920CD9F8004004F48044009402F0030580
:10177000009C58F82C404FEA850E0AFA0EF5AC434F
:10178000364DA84208BF002513D0354DA84208BFEA
:1017900001250ED0334DA84208BF022509D0324D95
:1017A000A84208BF032504D0304DA8420CBF042531
:1017B000052505FA0EFE4EEA040448F82C406FEAAF
:1017C000070C1C680CEA040E4C68E40348BF47EAA7
:1017D0000E0EC3F800E05C680CEA040E4C68A4032B
:1017E00048BF47EA0E0EC3F804E09C680CEA040EFA
:1017F0004C68E40248BF47EA0E0EC3F808E0D3F88D
:101800000CE00CEA0E0CD1F804E05FEA8E2E48BF23
:1018100047EA0C0CC3F80CC0521C102AFFF440AF6E
:10182000BDE8F1870069084018BF0120C0B27047C9
:1018300002B90904816170470D4A1368034200D15F
:10184000704780B5106000F08FFA01BD0000000005
:10185000003C01400838014044380240000002408A
:101860000004024000080240000C02400010024048
:10187000143C01400901002806D52B4A00F00F0056
:10188000801800F8041C7047284A81547047284982
:101890000A684FF6FF031A4000F0070042EA0020F2
:1018A000244A10430860704770B5214B1B68C3F38E
:1018B00002230124C3F10705052D2EBF0F2504FACD
:1018C00005F56D1E1E1D072E34BF0023DB1E2940AB
:1018D000994004FA03F3BDE870405B1E1A401143BF
:1018E000C8E7012100F01F029140134A04E00121E2
:1018F00000F01F029140114A400942F82010704741
:1019000010B5401EB0F1807F01D3012010BD0C4CFA
:1019100060600F214FF0FF30FFF7ACFF0020A060A8
:1019200007202060002010BD18ED00E000E400E07A
:101930000CED00E00000FA0500E100E080E100E0CD
:1019400010E000E038B5050001D1012032BD05F1FD
:101950005004607818B920702846FFF76FFC022009
:101960006070286800F02CF86868A9680843E96886
:1019700008432969084369690843A96901F40071AA
:101980000843E9690843296A0843A96A08432968A2
:101990000860A869696A000C00F00400084329681F
:1019A00048602968E86A08612868C16921F4006113
:1019B000C1610020606001206070002032BD20689D
:1019C000016821F0400101607047A06AB0F5005F36
:1019D00004D12068016841F480510160334600223F
:1019E0000121204600F03EB970B5044604F15005CF
:1019F00082B06878012818BF222840F0B8800029FA
:101A00001CBF002A002B00F0AF802878012800F0CE
:101A1000AE80012028706878012804BF32206870E9
:101A200000206860A064E064A263A387E387216369
:101A3000A386E38600F0FDF820680168490601D41A
:101A400000F0F2F8E068069EB0F5006F606836D1ED
:101A500028B1B0F5827F04BFE08E012801D100F0EB
:101A60008FF8E08E00281DD100F0F3F820D1206817
:101A7000016841F4805101601AE0334600220221DE
:101A800000F0EEF800284AD100F07AF880B2002881
:101A900004BFA06AB0F5005FFFF79AFF00283ED1AF
:101AA00000F09CF8E08E0028E7D1606800283DD166
:101AB00000F0D3F8002832D100F088F833E028B1E4
:101AC000B0F5827F04BFE08E012801D100F063F8F9
:101AD000E08E00281BD1FFF778FF00281FD1206877
:101AE000C068A16B08701EE033460022022100F09E
:101AF000B7F8A0B900F04FF880B2002804BFA06A80
:101B0000B0F5005FFFF764FF48B900F04EF8E08ED3
:101B10000028E9D1606848B900F09FF808B10320B7
:101B200076BD00F026F8E08F401EE08700F091F8C7
:101B300009D100F092F820B1686840F002006860B6
:101B4000EDE700F03CF833460122802100F088F8F0
:101B500018B1686840F02000F1E700F05AF805D1AC
:101B6000C90603D500F045F8012076BD59E00220F2
:101B700076BDA06B411CA1632168C96801707047E4
:101B8000206B21680088C860206B801C2063E08E79
:101B9000401EE0867047206B411C2163216800785D
:101BA000C860E08E401EE0867047A06B411CA163B8
:101BB0002168C9680170E08F401EE0877047206887
:101BC000C068ADF80000BDF8000070472068C0682C
:101BD000A16B0880A06B801CA06370472068C06860
:101BE000A16B0880A06B801CA063E08F401EE08783
:101BF0007047696841F002016960016821F4005191
:101C000001602068016841F40051016000202870E3
:101C100070470120687020688168A26AB2F5005F91
:101C200070470020287076BD016841F040010160D6
:101C30007047A06AB0F5005F09D12068016821F4FF
:101C4000005101602068016841F400510160704753
:101C5000E087A06AB0F5005F70473346002201219B
:101C60002046FFE72DE9F04104460D4690461E460A
:101C700000F066F8B8F1000F07460ED120688068C2
:101C80002840A84228D016F1010FF7D09EB100F0ED
:101C900057F8C01B8642F1D20DE0206880682840CA
:101CA000A84219D116F1010FF7D026B100F048F87B
:101CB000C01B8642F1D22068416821F0E0014160FA
:101CC000FFF77DFEFFF7B5FF04F1500001214170E1
:101CD00000210170032000E00020BDE8F081000039
:101CE00080B51F48016841F400710160016841F44A
:101CF00080610160016841F4807101600320FFF799
:101D0000C6FD0F2000F005F800F002F8002002BD2B
:101D1000704710B5044600F05AFA4FF47A71B0FBE0
:101D2000F1F0FFF7EDFD002221464FF0FF30FFF705
:101D3000BBFD002010BD0B480168491C01607047C5
:101D400008480068704711B581B0FFF7F9FF0446F5
:101D5000FFF7F6FF0199001B8842F9D313BD00007D
:101D6000003C0240F0030020FEF77ABE2DE9F04768
:101D7000044682B02078DFF87864C00741F28938E1
:101D80003BD5B06800F00C00042805D000F02AF91B
:101D900009D17068400206D5306880032DD560688F
:101DA00058BB012017E10020B070FFF7C9FF0746BC
:101DB0003068800305D5FFF7C3FFC01B4045F7D34C
:101DC00006E16068B070606858B1FFF7B9FF074678
:101DD0003068800311D4FFF7B3FFC01B4045F7D331
:101DE000F6E0FFF7ADFF07463068800305D5FFF743
:101DF000A7FFC01B4045F7D3EAE02078DFF8F49353
:101E0000800716D5B06810F00C0F05D000F0EAF886
:101E100026D17068400223D43068800702D5E0687C
:101E20000128BED13068216920F0F80040EAC100E5
:101E300030602078DFF8C05300073DD56169DFF8D6
:101E4000BC0361B301210160FFF77AFF07466868B0
:101E5000800731D4FFF774FFC01B6528F7D3B7E0C4
:101E6000E06870B10120C9F80000FFF769FF07467C
:101E700030688007D6D4FFF763FFC01B6528F7D30F
:101E8000A6E0C9F80000FFF75BFF0746306880074F
:101E9000CFD5FFF755FFC01B6528F7D398E0016049
:101EA000FFF74EFF07466868800705D5FFF748FF34
:101EB000C01B6528F7D38BE02078400747D5306CEE
:101EC000DFF83CA340F080503064306C00F080506C
:101ED00000900098DAF8000040F48070CAF8000022
:101EE000FFF72EFF0746DAF80000C00505D4FFF71C
:101EF00027FFC01B6528F6D36AE000202870FFF793
:101F00001FFF07462868800705D5FFF719FFC01B8C
:101F10004045F7D35CE0A0682870A06858B1FFF78F
:101F20000FFF07462868800711D4FFF709FFC01B81
:101F30004045F7D34CE0FFF703FF074628688007CA
:101F400005D5FFF7FDFEC01B4045F7D340E0A06973
:101F500000283FD0B16801F00C0108293FF421AFFF
:101F600002282AD100F039F807463068800105D5EB
:101F7000FFF7E6FEC01B6528F7D329E0E069216A78
:101F80000843616A40EA8110A16A891EC903090CED
:101F900040EA0140E16A40EA016070600120C9F84E
:101FA0006000FFF7CDFE07463068800112D4FFF7CE
:101FB000C7FEC01B6528F7D30AE000F00EF80746FD
:101FC0003068800106D5FFF7BBFEC01B6528F7D33C
:101FD000032000E00020BDE8F6870020C9F860007B
:101FE000FFF7AEBEB06800F00C00082870472DE97E
:101FF000F843DFF81042DFF8F851064620688946BA
:1020000000F00F00484541F2893840D200F0A2F8B4
:1020100010D100F0ADF840F184807068012802D141
:102020002968890305E0022818BF032803D129681D
:10203000890103D473E02968890770D500F091F80D
:102040000746706801280AD1A86800F00C0004282F
:1020500067D0FFF775FEC01B4045F5D35AE0022854
:1020600009D1A868FFF7BFFF5BD0FFF769FEC01B6F
:102070004045F6D34EE003283CD0A86810F00C0F82
:102080004FD0FFF75DFEC01B4045F6D342E000F0A5
:102090006FF841D57068012802D12968890305E0ED
:1020A000022818BF032803D12968890103D436E028
:1020B0002968890733D500F054F80746706801286D
:1020C0000AD1A86800F00C00042825D0FFF738FEDC
:1020D000C01B4045F5D31DE0022809D1A868FFF7D1
:1020E00082FF19D0FFF72CFEC01B4045F6D311E04C
:1020F000032806D1A868FFF723FEC01B4045F9D38B
:1021000008E0A86810F00C0F06D0FFF719FEC01BFE
:102110004045F6D303201BE000F01CF801D001205D
:1021200016E03078400705D5A868F16820F4E05043
:102130000843A8603078000706D5A868316920F404
:10214000604040EAC100A8600F20FFF7E2FD0020D8
:10215000BDE8F28384F80090206800F00F00484545
:102160007047A968890840EA8100A860FFF7E8BDC8
:102170003078800705D5A868B16820F0F0000843E2
:10218000A8603078C00770472048416801F00C0112
:10219000042902D0082902D017E01D4870470168C1
:1021A0000268520201F03F014CBF194A194AB2FBC2
:1021B000F1F102680068C0F30140C2F38812401CCC
:1021C00051434000B1FBF0F070471248704780B5B2
:1021D000FFF7DAFF0C4B0FF244021B680E49C3F302
:1021E00003139A5C20FA02F30B60086802BD00003A
:1021F000003802400000474270380240800E4742DB
:1022000000700040003C02400838024004380240A0
:1022100000127A000024F400C0000020000000003A
:1022200001020304010203040607080910B50FF2B6
:102230003C118CB00CC909A800240CC0FFF750FD5C
:102240000021084600F096F800F0E5F8FFF7ADF839
:10225000FEF7AAFBFFF7C2F806A904A800F0FDF8F4
:10226000FFF7BCF89DF81000312803DB02200124A1
:102270008DF82900062209A907A8FEF7A2FF07AAE0
:102280000621002000F014F9FEF70CFA64B10DF1FC
:102290001600019005AB0DF11200009007220021FD
:1022A0000120FEF773FD07E00DF116030DF1120298
:1022B00005A90120FEF798FD0FF2A800BDF8121045
:1022C00000900723BDF814000022FEF7DFFA00B1EA
:1022D000FEE70120039007231E481F4C02900022B6
:1022E000002001900021102000900120FEF71CFE2C
:1022F000FDF750FFFDF7EEFF0421012000F0FFF88D
:10230000FEF779FB204600F001F8F9E738B5134DE8
:102310000446287818B1FEF71CF900202870002028
:1023200000F066F8A8B9002000F062F80028FAD0A2
:102330000B48006868B120686430206060686430D1
:102340006060A0686430A0602046BDE83240FDF7C0
:10235000A3BF31BD40E20100A40000208C0000209A
:10236000A0000020426C75654E524700123400E117
:1023700080030000F0B5050087B00E460AD1DFF8F3
:102380008400016841F004010160006800F004006D
:1023900000900098DFF870400FF274074EB900F01B
:1023A00021F8029002200390049054F82500FFF7D2
:1023B0006DF9012E14D100F015F80390DFF84C00F0
:1023C000029054F82500FFF761F90FF248002C5CE9
:1023D00000220F2160B2FFF767FA60B2FFF781FABF
:1023E00007B0F0BD37F81500019001A90020704733
:1023F0000FF21C01DFF8102031F8101052F8200005
:10240000FFF710BA30380240C4000020000021104D
:1024100000200000280000B591B0022000900120AB
:1024200003900620049002200690002007901020C0
:1024300008904FF48070099008200A9004200B90B7
:1024400000A8FFF793FC01200C90012102200D90C1
:102450000CA8FFF7CCFD11B000BD70B584B00646E6
:1024600001A800900C460DF10A0302AA0DF1060125
:102470000DF10900FEF706FCC5B2A5B9BDF80600CE
:10248000000A3070BDF8060000022080BDF804107C
:102490000906090F40EA01102080BDF8041001F080
:1024A0000F0108432080FEF7A6FA284604B070BD4D
:1024B00010B50C461146A21C812AA8B0A8BF422024
:1024C0001BDA8DF81C008DF81D4022460DF11E0010
:1024D000FEF777FE00F036F800F02FF80C20ADF88C
:1024E000060007A80390A01CC0B2049000F031F8C9
:1024F00000284CBFFF209DF8000028B010BD00B59B
:1025000089B08DF804008DF805101822002102A86A
:10251000FEF75DFE3F20ADF8080000210F20ADF86A
:102520000A0001A80490022000F01AF800284CBF0D
:10253000FF209DF8000009B000BD3F20ADF8040069
:10254000002170471822002101A8FEF740BEADF817
:10255000060000A805900120069001A8FEF7E5BA44
:10256000059000A806900120079002A8FEF7DDBAAA
:102570000E480F4A016841F4700101600D4801687E
:1025800041F001010160002181600168114001609A
:1025900009494160016821F4802101600021C16086
:1025A0004FF00060054908607047000088ED00E0CA
:1025B000FFFFF6FE003802401030002408ED00E076
:1025C00019E050F8041BCB0744BFA9F101035918C7
:1025D000121F0023042A41F8043BF9D25FEA827CEF
:1025E0000B4604D54FF0000CA1F800C09B1CD1078E
:1025F00044BF0021197050F8042B002AE1D1704724
:102600007047FEE770477047704780B5FFF793FB50
:1026100008480168491C016001BD0120FFF70CB9A1
:1026200080B54FF40050FFF707F903490120087007
:1026300001BD0000F4030020F803002010B450F89E
:10264000041B79B10268436812180830DC0744BFE4
:10265000A9F10104E31852F8044B43F8044B091F95
:10266000F9D1ECE710BC704710B50749794418312F
:10267000064C7C44163404E00A68081D511888474B
:102680000146A142F8D110BD2C0000004C00000012
:102690004EF68851CEF20001086840F470000860E0
:1026A000BFF34F8FBFF36F8F4FF00070E1EE100A52
:1026B000704700000DFFFFFF34030000C80000203A
:1026C0000000000079FFFFFFC80000005401000077
:1026D000000000200000000000F00BF8002801D0EE
:1026E000FFF7C2FF0020C046C046FFF79FFD00F085
:1026F00002F80120704700F001B800000746384694
:1027000000F002F8FBE7000080B5C046C046024A70
:1027100011001820ABBEFBE72600020001488047ED
:1027200001480047712500082D270008C046C04613
:10273000FFF7AEFFFFF7D0FFE8030000FFF7FEBF93
:10274000FFF7FEBFFFF7FEBFFFF7FEBFFFF7FEBFBD
:10275000FFF7FEBFFFF7FEBFFFF7FEBFFFF7FEBFAD
:10276000FFF7FEBFFFF7FEBFFFF7FEBFFFF7FEBF9D
:10277000FFF7FEBFFFF7FEBFFFF7FEBFFFF7FEBF8D
:10278000FFF7FEBFFFF7FEBFFFF7FEBFFFF7FEBF7D
:10279000FFF7FEBFFFF7FEBFFFF7FEBFFFF7FEBF6D
:1027A000FFF7FEBFFFF7FEBFFFF7FEBFFFF7FEBF5D
:1027B000FFF7FEBFFFF7FEBFFFF7FEBFFFF7FEBF4D
:1027C000FFF7FEBFFFF7FEBFFFF7FEBFFFF7FEBF3D
:1027D000FFF7FEBFFFF7FEBFFFF7FEBFFFF7FEBF2D
:1027E000FFF7FEBFFFF7FEBFFFF7FEBFFFF7FEBF1D
:1027F000FFF7FEBFFFF7FEBFFFF7FEBFFFF7FEBF0D
:10280000FFF7FEBFFFF7FEBFFFF7FEBFFFF7FEBFFC
:10281000FFF7FEBFFFF7FEBFFFF7FEBFFFF7FEBFEC
:1028200000000000010000000000000000000000A7
:102830000000000000000000000000000000000098
:102840000000000000000000000000000000000088
:102850000000000000000000000000000000000078
:102860000000000000000000000000000000000068
:102870000000000000000000000000000000000058
:102880000000000000000000000000000000000048
:102890000000000000000000000000000000000038
:1028A0000000000000000000000000000100000027
:1028B0000000000000000000000000000000000018
:1028C0000000000000000000000000000000000008
:1028D00000000000000000000102030406070809D0
:0828E0000024F400000802408E
:00000001FF
