:020000040800F2
:10000000400800208D390008713800087338000856
:10001000AD390008B1390008B5390008000000000A
:10002000000000000000000000000000753800081B
:100030007738000800000000793800087B38000895
:10004000B9390008BD390008C1390008C5390008B0
:10005000C9390008CD3900088B380008D1390008AB
:10006000D5390008D9390008DD390008E139000820
:10007000E5390008E9390008ED390008F1390008D0
:10008000F5390008F9390008FD39000800000000C2
:10009000000000000000000000000000013A00081D
:1000A000053A0008093A00080D3A0008113A00081C
:1000B000153A0008193A00081D3A0008213A0008CC
:1000C000253A0008293A00082D3A0008313A00087C
:1000D000353A0008393A00083D3A000800000000AF
:1000E00091380008413A0008453A00080000000035
:1000F000000000000000000000000000493A000875
:10010000000000004D3A0008513A0008553A000836
:1001100000000000000000000000000000000000DF
:10012000593A00085D3A0008613A0008653A00084B
:10013000693A000800000000000000000000000014
:100140000000000000000000000000006D3A000800
:10015000713A0008753A0008793A00087D3A0008BB
:10016000813A0008853A0008000000000000000005
:10017000000000000000000000000000000000007F
:1001800000000000893A00080000000000000000A4
:100190008D3A000810B592B00EA80FF23051DFF87A
:1001A000184500F0B1F80AA80FF2305100F0ACF891
:1001B00006A80FF2385100F0A7F804F10C000090E7
:1001C000072301220EA9022000F0CBFB70BB04F133
:1001D0000E0005901423012004900AAA1020039019
:1001E000022100200290019010200090A08900F0D0
:1001F000ECFBD8B904F11000059014230120049001
:1002000006AA1020039002210120029000200190F4
:100210000C200090A08900F0D8FB38B9228AE1892F
:100220000FF2D84000F008FD002004E00FF20C505F
:1002300000F002FD472012B010BDDFF8800400B5C9
:1002400000788BB040BB0FF2185000F0F5FC0FF2B5
:100250002C510CC907A80CC0002000F02BFD4FF456
:10026000FA60069005904FF480413C20049007AB63
:10027000002003900022282002900190002000908E
:10028000084600F0AEFE40B30FF2F84000F0D4FC98
:10029000642000F0FCFE20E007A80FF20C5100F0F3
:1002A00033F80021002001F0B1F80FF20C5000F0FB
:1002B000C3FC0020069005900490039007A80290CC
:1002C0000D2001900020009003460246014600F0F8
:1002D000CCFD0146BCA000F0AFFC0BB000BD10B5DA
:1002E000DFF8D44386B0A07860B90FF2E84000F0A0
:1002F000A3FC01A80FF2FC4100F006F800F01CF886
:100300000120A07006B010BD102201F0D1B810B5C8
:10031000DFF8A44386B0E07860B90FF2E84000F05F
:100320008BFC01A80FF2FC41FFF7EEFF00F004F890
:100330000120E07006B010BD01A800900223E08803
:100340004FF6FF72012100F0D1BBF8B504460D460F
:10035000002000F0C5FC00269CA704E0315D384673
:1003600000F06AFC761CAE42F8DBF1BDD34A10B552
:100370001278D14C012A88B047D1D14A1278002A8C
:100380003CD003A80FF2AC41142201F091F8A0690F
:100390008DF81C00010A8DF81D10010C8DF81E103F
:1003A000010E8DF81F1030B90FF29C4000F044FC94
:1003B00000F06BFEE0610A2100F04EF803A8009007
:1003C0001423E189A089002200F054FB642804D1A1
:1003D00001A801F0A0F80028F0D0A069401CA0619D
:1003E000CFD000F0D1F80028CBD100F04EFEE1696B
:1003F00000F0D4F800F049FEE061C2E700900B463F
:10040000E189A08900F036FB07E0034660890A46CF
:10041000411CE08889B200F0ECFB08B010BD10B5BB
:100420000FF26C40A44C008884B00A21ADF80000A3
:1004300000F012F82089811CE08800AB022289B20A
:1004400000F0A6FB462804D101A801F064F80028BA
:10045000F0D0012060701FBD9A480068414301A898
:1004600001F051B810B5944B1C8A641CA04203D112
:10047000BDE81040104668E7D989891C884202BF50
:1004800010780128587010BD70B504468A480FF2E4
:100490001C4601224261C18005250FF2F83000F0B0
:1004A000CBFB295D304600F0C7FB6D1E012DF8DA4D
:1004B00021780FF20040BDE8704000F0BDBB10B5E0
:1004C0007D4C002060610FF2F43000F0B5FB01209C
:1004D000207000206070A070E0702071607110BD0D
:1004E00038B5754C764B1B7815462289521C002B6B
:1004F0003AD0724B1B78002B36D190423AD1606AC9
:1005000060B90FF2443000F097FB00F0BEFD2062AE
:10051000697C287C00F02FF8401EA062287C697C52
:1005200000F029F8A16A4A1C904204D0E26A8218BD
:10053000511A491EE162A062606A401C606219D0D3
:1005400000F022F8B0B900F0A0FD216A00F026F812
:10055000E16A19B10FF2743000F06EFB00F095FD06
:1005600020620020E06231BD904203D12846BDE800
:100570003440EAE631BD40EA0120A97C40EA01406E
:10058000E97C40EA016070474FF4FA71B0FBF1F189
:100590004FF4FA7202FB110070470000401A00EE9F
:1005A000100AF8EE400A9FED431AC1EE200AFDEE54
:1005B000E00A10EE903A10EE102A4FF4FA710FF2A2
:1005C000942000F039BB000025640A002563000078
:1005D000411C0078042800D0704738B508780528F9
:1005E00004D03E2805D0FF280ED031BDBDE83140F3
:1005F00065E7881C017801295BD1401CBDE83440C7
:10060000B0F80110401D3FE78D1C2C482988007868
:10061000294C40F60142891A06D00E3914D0491EE1
:1006200039D0891E1AD031BD27480078012803D15E
:10063000A81C831CC21D02E0A81C831C421D9978C3
:100640001888BDE838400DE7A81CBDE8384081781F
:10065000421D891EB0F80300C9B241E748BB0FF242
:10066000802000F0E9FAA178A81C39B1217929B9D4
:10067000B0F803100FF29420218108E0E178C1B1B5
:100680006179B1B9B0F803100FF298206181BDE82B
:10069000344000F0D1BA60B9A07820B1207910B907
:1006A0000120207131BDE07818B1607908B90120CE
:1006B000607131BD00409C47740000203D04002063
:1006C0003E040020A83900083C040020669A0C2053
:1006D0000008969EE2119EB1E0F273D9669A0C2052
:1006E0000008969EE2119EB1E1F273D9669A0C2041
:1006F0000008969EE2119EB1E2F273D953616D70CB
:100700006C65205365727669636520616464656415
:100710002E0A545820436861722048616E646C65EB
:1007200020253034582C20525820436861722048CC
:10073000616E646C6520253034580A004572726F12
:1007400072207768696C6520616464696E67205304
:10075000616D706C6520536572766963652E0A0061
:10076000436C69656E742043726561746520436FE4
:100770006E6E656374696F6E0A000000AA0000E186
:10078000800200004572726F72207768696C652084
:100790007374617274696E6720636F6E6E656374E3
:1007A000696F6E2E0A00000009426C75654E524753
:1007B0005F4368617400000047656E6572616C207C
:1007C000446973636F76657261626C65204D6F6416
:1007D0006520000053746172742072656164696EF3
:1007E0006720545820436861722048616E646C65CC
:1007F0000A000000669A0C200008969EE2119EB145
:10080000E1F273D953746172742072656164696E28
:100810006720525820436861722048616E646C659D
:100820000A000000669A0C200008969EE2119EB114
:10083000E2F273D930313233343536373839414208
:10084000434445460000000054657374207374618E
:1008500072740A002564207061636B6574732E20C6
:10086000456C61707365642074696D653A20256418
:10087000206D732E20417070207468726F756768E8
:100880007075743A202564206B6270732E0A000024
:1008900001000000436F6E6E656374656420746FC1
:1008A000206465766963653A00000000253032589F
:1008B0002D000000253032580A000000446973639F
:1008C0006F6E6E65637465640A0000002564206CB9
:1008D0006F7374207061636B65742873290A00005C
:1008E0004556545F424C55455F474154545F444917
:1008F00053435F524541445F434841525F42595F11
:10090000555549445F524553500A000054582043FE
:100910006861722048616E646C6520253034580A25
:1009200000000000525820436861722048616E64E4
:100930006C6520253034580A0000000000B587B0EF
:1009400000F014F900F003F940F20110ADF80600D0
:1009500000F005F900284CBFFF209DF8000007B00B
:1009600000BD70B58CB001288DF81C0014460CBF7A
:10097000022610261D4632460DF11D0000F0D7FD5F
:10098000701C07A9C0B203224454441CE4B200A85E
:100990006554002100F0D1FD00F0E8F800F0D7F830
:1009A0004FF4817000F093F8601C00F059F800F0EB
:1009B000D9F8002848BFFF2005D49DF8000010B9E1
:1009C000109900F048F80CB070BDF1B58EB00D462E
:1009D00016461F4602220EA900F0D7F807AC012DDB
:1009E000A57031460CBF022510252A4600F07AF882
:1009F000E81CC0B2411C0755C9B214980855491CDF
:100A00001598C9B203220855491C1698C9B2085551
:100A1000491C1798C9B24D1C0855EDB218982855B5
:100A200000F024F800F0A2F800F091F84FF4827082
:100A300000F04DF8681C00F013F800F093F800285F
:100A400048BFFF2005D49DF8000010B9199900F0A7
:100A500002F80FB0F0BDBDF801000880002070471B
:100A6000C0B2049000A8059003207047002100A8A0
:100A700000F063BD33B51C46A01D8128A7B0154604
:100A8000A8BF422021DA022227A900F07EF8022224
:100A900028A900F0A3F82C998DF820508DF821405A
:100AA000224600F019F800F061F800F050F84FF419
:100AB000837000F00CF8A01DC0B2049000F04FF855
:100AC00000284CBFFF209DF8000029B030BDADF8D4
:100AD000060007A8039070470DF1220000F027BD23
:100AE000224619460DF11F0000F021BD17B58DB04B
:100AF0001C4602220DA900F048F802220EA900F0BF
:100B00006DF802220FA908A800F011FD8DF822400F
:100B1000012C0CBF022410241299224600F013F875
:100B200000F024F800F013F84FF48B70FFF7CFFFBC
:100B3000E01DC0B200F010F800284CBFFF209DF867
:100B4000000010B010BD0DF1230000F0F0BC3F20FC
:100B5000ADF804000021704704900F20029000A817
:100B600005900120069001A800F061BB1822002129
:100B700001A800F0E2BC8DF82040224629460DF184
:100B8000210000F0D4BC022228A907A800F0CFBCA5
:100B900033B51446601D8128A7B01D46A8BF42206A
:100BA00018DA022227A9FFF7F0FF022228A900F095
:100BB00015F8FFF7E0FFFFF7D9FFFFF7C8FF40F296
:100BC000211000F00FF8FFF7C7FF00284CBFFF20EF
:100BD0009DF8000029B030BD022229A90DF11E00A8
:100BE00000F0A5BCADF8060007A80390601DC0B2D8
:100BF000704710B5152A8EB0144628BF422019D26E
:100C0000ADF81C00ADF81E108DF820401946FFF716
:100C1000B6FFFFF7ABFFFFF79AFF40F22310FFF795
:100C200056FF601D0490FFF79AFF00284CBFFF207D
:100C30009DF800000EB010BD0EB400B5A0B0024685
:100C400021AB802100A800F083FC82B24FF49673A0
:100C500000A9044800F0CFFC08B100F04BFF20B021
:100C60005DF810FBE803002070B5040086B008D1E1
:100C7000DFF81C01016841F001010160006800F02B
:100C800081F80FF21C10DFF80C6130F81450019558
:100C900001200290039001A90220049056F824003C
:100CA00000F0BCFF56F824000022294601F088F825
:100CB00006B070BD0FF2E801DFF8D83031F810103F
:100CC00053F82000012201F07BB80FF2D401DFF8C5
:100CD000C43031F8101053F82000002201F070B831
:100CE0000FF2BC01DFF8AC2031F8101052F82000F0
:100CF00001F06AB8F0B5050087B00E460AD1DFF8FA
:100D00009000016841F004010160006800F00400F7
:100D100000900098DFF880400FF288074EB900F08D
:100D200021F8029002200390049054F8250000F06E
:100D300075FF012E14D100F015F80390DFF85C0068
:100D4000029054F8250000F069FF0FF25C002C5C63
:100D500000220F2160B201F073F860B201F08DF84B
:100D600007B0F0BD37F81500019001A900207047C9
:100D70000FF23001DFF8202031F8101052F8200077
:100D800001F018B800F001000090009870470000D2
:100D900030380240B8000020BC00002000002110C4
:100DA0002000000000200000280010B58AB08DF857
:100DB00000008DF801108DF802201C46072200F07B
:100DC00001F900F0EBF800F048F800A805900320C6
:100DD000069001A80790072000F053F9002848BFAB
:100DE000FF200ED49DF8040058B9BDF805002080FE
:100DF0000C99BDF8070008800D99BDF8090008801E
:100E000000200AB010BD70B58AB00C468DF80800FD
:100E100015461E46072200F0CBF800F0BFF800F0A0
:100E20001CF802A805900120069000A80790072052
:100E300000F027F9002848BFFF200CD49DF80000DF
:100E400048B9BDF801002080BDF803002880BDF836
:100E50000500308000200AB070BD3F20ADF80C00C6
:100E600000218A20ADF80E00704776B592B000F0F0
:100E700056F828BF42201BD200F059F800F049F87C
:100E800000F018F800F022F800F03BF800F031F81C
:100E900000F097F800F090F8832000F024F8C0B23A
:100EA000049000F093F800284CBFFF209DF800004C
:100EB00014B070BD18981A998DF822008DF8216031
:100EC0008DF823502A4609A800F031BB05F108002F
:100ED000C0B207A9451C4454EDB21C9907A822468C
:100EE000281800F024BBADF8060007A80390A01C4A
:100EF0007047A41CE4B207A802221EA9201800F023
:100F000016BB6419E4B207A802221DA9201800F03C
:100F10000EBB022213A90DF11F0000F008BB199DA2
:100F20001B9C54FA85F10E3129291E4670478DF815
:100F30001C00022212A90DF11D0000F0F8BA30B514
:100F40008FB08DF81C008DF81D1014461D46102220
:100F5000214600F042F812988DF82F008DF82E509F
:100F6000182213988DF8300000211498CDF8310024
:100F700015988DF8350001A800F0DFFA00F01CF894
:100F8000862000F010F81A20049000F01FF80028C6
:100F90004CBFFF209DF800000FB030BD182200218B
:100FA00003A800F0CABAADF8060007A8039070477E
:100FB000002100A800F0C1BA3F20ADF804000021D4
:100FC00070471822002101A800F0B7BA00A80590C8
:100FD0000120069001A800F02AB90DF11E0000F0D2
:100FE000A6BA00B58DB000F018F800F022F8BDF8F0
:100FF0004000ADF81200BDF8440000F023F83F2097
:10100000ADF81C0000219C2000F02AF800284CBFFD
:10101000FF209DF800000DB000BDADF80400ADF854
:1010200006108DF80820194606220DF1090000F07F
:101030007EBA0E988DF80F0018220F98ADF81000A8
:1010400000217047ADF814001298ADF816001398FF
:10105000ADF818001498ADF81A0007A800F06DBAA2
:10106000ADF81E0001A8099018200A900F200890E2
:1010700000A80B9001200C9007A800F0D8B80790AA
:101080000120089003A800F0D2B800F057BF00F08C
:1010900058BF8268521C8260426832B10268531C99
:1010A000036011704168491E4160704738B5B14C0A
:1010B000201D00F057FF04F10C0000F053FF002545
:1010C0008C2010FB054000F11401201D00F05BFF97
:1010D0006D1C052DF4DB31BD00F108010A78042AEE
:1010E00001D00120704790F888008978C01E8142A5
:1010F00001D0022070470020704710B5A2B0002038
:10110000009001F0EBF89B4C10E000A904F10C00FA
:1011100000F047FF01F0DFF800980830FFF758FAB9
:1011200001F0DCF80099201D00F02DFF04F10C0007
:1011300000F01BFF0028E8D0207850B90EE0802294
:1011400001A98D4801F024F8C0B210B101A8FFF741
:101150003FFA01F014F80028F1D1207001F0BBF83B
:1011600022B010BD38B50020009001F0BAF8824CD2
:10117000804D04E0281D00F0FFFE01F0B2F800F001
:10118000FEFF18B3281D00F0F0FED8B900A9281DF5
:1011900000F007FF009800F108018022204600F0CF
:1011A000F7FFC0B200280099E4D081F888000098C9
:1011B000FFF792FF00280099DCD105F10C0000F048
:1011C000E2FEDAE70120287001F08BF831BD00F073
:1011D0008DBF30B5890583B0890D41EA8020ADF817
:1011E0000400144601208DF800001D468DF80640CD
:1011F000032201A90DF1010000F099F92346042210
:10120000294600A8FFF7E3FF37BD38B504460D4671
:1012100007E000A9284600F0C4FE0099204600F02F
:10122000B2FE284600F0A1FE0028F2D031BD2DE923
:10123000F041044686B060884E4F8846800521887C
:10124000800D40EA81254D4800680A21B0FBF1F687
:1012500000200090ADB202A800F084FEE268A3680E
:1012600061882088D2B2FFF7B4FFB8F1000F59D1DE
:1012700006B90126314604A800F045F905E00099B9
:1012800002A800F080FE01F026F804A800F043F95F
:10129000002867D107F10C0000F067FE0028F4D1A8
:1012A00001F01CF800A907F10C0000F07AFE00988C
:1012B00000F1080210780428E1D10098527800F17A
:1012C0000B0190F88800C01E0E2A37D00F2A04D0D8
:1012D000102A47D03E2A38D008E04A88AA4241D195
:1012E00062680F2A15D0087800283BD1009902A81F
:1012F00000F049FE381D00F038FE0028C3D001A9D7
:1013000007F10C0000F04DFE0199381D00F03BFE86
:10131000B9E762699042C8BF104660610246206921
:1013200000F005F90099381D00F026FE00F028F8BD
:1013300000F0D1FF002006B0BDE8F081B1F8012037
:10134000AA420FD1C91CC01EE3E70A7863689A421B
:10135000CCD16269401E9042C8BF1046606102460F
:10136000491CDCE700F00CF800F0B5FF4FF0FF304F
:10137000E1E70000C000002090030020A839000829
:1013800002A907F10C0040E7F0B589B000F02EF893
:1013900000F06FF800F077F8042000F070F80120FA
:1013A00000F029F8002848BFFF2013D49DF8000062
:1013B00080B99DF801002070BDF8020028809DF8DA
:1013C00004003070BDF8050038800E99BDF80700A4
:1013D0000880002009B0F0BD07A8039020200490E9
:1013E00000A805900120069001A820E704460D46BC
:1013F00016461F467047ADF80E0000200590069077
:1014000000A807900920089003A810E730B58FB016
:1014100000F017F88DF81C40202CA8BF1F2400F006
:1014200017F800F01BF800F01EF80920ADF80600D0
:10143000FFF7D2FF00284CBFFF209DF800000FB03F
:1014400030BD04460D462022002107A800F075B8E3
:10145000224629460DF11D0000F069B8182200212E
:1014600001A800F06AB80820ADF804000021704718
:1014700004460922002100A800F05FB80820ADF85A
:101480000C00002170471822002103A800F055B875
:1014900062B38B0708D0521E11F8013B00F8013BE4
:1014A00000F024808B07F6D1830740F0208000BF36
:1014B000103A07D330B4B1E83810103AA0E8381029
:1014C000F9D230BC530724BFB1E80810A0E80810D7
:1014D00044BF51F8043B40F8043BD20724BF31F825
:1014E000022B20F8022B44BF0B7803707047083A98
:1014F00007D3B1E80810083A40F8043B40F804CBA1
:10150000F7D25307E4E710B504466160FFE7FFF741
:10151000BCFD206010BD10B50446FFF7B6FD226883
:101520006168801A401C81428041C00F10BD10B517
:101530000446FFF7ADFF204610BD10B50446104627
:101540000A460146204600F0EDFE204610BD000090
:1015500008B584B00023029311B90093019302E00F
:101560000090481E019004AB00A907487844183049
:1015700000F00CFF009911B1009A002111700028B1
:1015800058BF029805B000BD0BFBFFFF38B5050042
:1015900001D1012032BD00F08CF818B92070284626
:1015A00000F052F900F016F800F00CF821F02A01D2
:1015B000FFE74161286800F018F860600120607062
:1015C000002032BD2868016921F49041016128683A
:1015D00041697047022060702868C16821F4005199
:1015E000C160284600F0B9B82068C16841F40051D4
:1015F000C16000207047F8B500F045F818BF2228F8
:101600001E463ED1002D18BF002A01D10120F2BD97
:101610003878012835D000F041F822280CBF32205C
:1016200012207870A284E28406E000F033F800BB58
:10163000216815F8010B4860E08CA0B1401EE084E1
:101640003346A068B0F5805FEFD100F023F880B991
:1016500028882168C005C00D48602069002814BF93
:101660006D1CAD1CE8E733460022402100F014F861
:1016700008B10320F2BD787832280CBF2220012067
:1016800012E00220F2BD044604F138070D467878D6
:10169000012870470022802120460EE0012038708A
:1016A0000020786078787047787000203870F2BD3C
:1016B000054605F13804607870472DE9F843044683
:1016C0000E4691461F4600F039FCB9F1000F8046E6
:1016D00004F138050FD1206800683040B04225D0B1
:1016E00017F1010FF7D0AFB100F028FCA0EB080014
:1016F0008742F0D20EE0206800683040B04215D139
:1017000017F1010FF7D02FB100F018FCA0EB080083
:101710008742F0D200F00DF821F02001C16000F006
:1017200010F8687000202870032000E00020BDE859
:10173000F2832068C16821F08001C1602068C1681F
:1017400070472068C16821F48071C16020684169D8
:10175000490849004161012070472DE9F0410446E4
:10176000642520680169E26821F440511143016158
:101770001926C168314A1140A268114322691143F8
:1017800062691143E2691143C1604169A26921F4B0
:10179000407111434161E36929492A4AB3F5004F79
:1017A00017D1904218BF884208D101F00AFC804648
:1017B00001F007FC074601F004FC07E001F0F9FB2B
:1017C000804601F0F6FB074601F0F3FB61684A0032
:1017D00016E0904218BF884208D101F0F2FB804623
:1017E00001F0EFFB074601F0ECFB07E001F0E1FB45
:1017F000804601F0DEFB074601F0DBFB61688A00F2
:10180000704306FB07F3B0FBF2F0B3FBF2F3B0FB5F
:10181000F5F005FB1030000106FB08F13230B1FB9A
:10182000F2F1B0FBF5F0B1FBF5F100F00F0040EA8A
:10183000011021688860BDE8F0810000F369FFFFB6
:10184000001401400010014010B59F489F4C86B025
:1018500000F022F800F020F8016941F40031016144
:1018600001A9006900F40030009000980420019064
:1018700002200290012003900220049000F007F85B
:101880000820019001A900F002F806B010BD072061
:101890000590204600F0C2B9016841F001010160E5
:1018A000016801F0010100910099704780B58848F6
:1018B000884901604FF41651416000218160C16088
:1018C000016181610C214161FFF760FE00281CBFAE
:1018D000BDE8014000F00EB901BD10B50FF22421A2
:1018E0007D4C8EB00CC90BA80FF220210CC00CC986
:1018F00009A80CC000F0F2FA0020FFF7B5F90021AA
:101900000020FFF7F7F901F08BFBFFF7CFFF00F0A6
:101910000EFCFFF7CBFB00F023FC06A904A801F0A6
:10192000A1FB00F01DFCBDF818209DF810100FF26F
:10193000E410FFF781F99DF810003128A4BF0120C1
:1019400020706078002807BF06220BA9062209A98B
:1019500007A8FFF7ECFD07AA0621002001F0ADFB68
:1019600020B101460FF2C010FFF766F9FEF7E6FF5F
:1019700018B10FF2D410FFF75FF9617820780129D0
:1019800009D1012803D100F04EF8012008E000F051
:1019900044F801200AE0012805D100F044F80420B1
:1019A000FFF703FA04E000F038F80320FFF72BFA02
:1019B00018B10FF2A810FFF73FF901200390072399
:1019C0004648029000220020019000211020009043
:1019D0000120FFF7B4FA18B90FF29410FFF72CF9B1
:1019E000607801280CD10FF2A010FFF725F9FEF75F
:1019F000D1FB002814BF0FF2D0100FF2AC1001E0A1
:101A00000FF2E410FFF718F90421012001F07CFB2C
:101A1000FFF773FB00F011F8FAE70DF1120305AAC6
:101A20000DF1160170470DF1120001900DF1160332
:101A300005A80090072200217047F0B5284C85B01A
:101A4000207818B1FEF7F9FB002020702248254CC1
:101A50004078254DE0B92868244E254F20B13878CC
:101A600010B9FEF73CFC05E0286818B1307808B9D9
:101A7000FEF74DFC286800281CBF3878002807D0E6
:101A8000307828B1207818B9FFF71FF9FEF7C7FCA6
:101A90000020FFF76DF9A0B90020FFF769F90028D1
:101AA000FAD0286800281CBF2078002809D000A898
:101AB0000FF254111422FFF7FBFC142100A8FEF7CB
:101AC00055FC05B0F0BD0000303802400000024077
:101AD000E8030020004400403C04002040E20100F4
:101AE000740000207500002088000020790000208C
:101AF0007800002080B50020FFF7F2F8642000F0A5
:101B000020FAF8E7BB0000E180020000AA0000E133
:101B10008002000048577665722025642C204657C5
:101B2000766572202564000053657474696E6720C1
:101B300042445F41444452206661696C65642030D0
:101B400078253032782E0A00474154545F496E6937
:101B500074206661696C65642E0A00004741505F1D
:101B6000496E6974206661696C65642E0A00000024
:101B7000424C4520537461636B20496E69746961FE
:101B80006C697A65642E0A005345525645523A20D4
:101B9000424C4520537461636B20496E69746961DE
:101BA0006C697A65640A0000536572766963652022
:101BB0006164646564207375636365737366756CD3
:101BC0006C792E0A000000004572726F72207768EF
:101BD000696C6520616464696E67207365727669FB
:101BE00063652E0A00000000434C49454E543A20DC
:101BF000424C4520537461636B20496E697469617E
:101C00006C697A65640A0000303132333435363716
:101C100038394142434445464748494A2DE9F84747
:101C20000022714BDFF8C481DFF8C4914FF00F0A36
:101C3000012707FA02FC0F680CEA0707674540F026
:101C4000B3804C68022C18BF122C10D1D40800EBC2
:101C5000840E02F00704DEF82050A4000AFA04F60D
:101C6000B5430E6906FA04F42C43CEF820404FEA3F
:101C7000420E032405680E7904FA0EF4E44306F0DC
:101C80000306254006FA0EF6354305604D68012D22
:101C900018BF022D03D0112D18BF122D11D1856848
:101CA000CE68254006FA0EF635438560456825EA7C
:101CB0000C0C4D68C5F30015954045EA0C0CC0F8B6
:101CC00004C0D0F80CC004EA0C0C8C6804FA0EFEB8
:101CD0004EEA0C0CC0F80CC0D1F804C05FEACC0C82
:101CE00062D5D9F8004044F48044C9F800404FEA76
:101CF000920CD9F8004004F48044009402F00305EB
:101D0000009C58F82C404FEA850E0AFA0EF5AC43B9
:101D1000384DA84208BF002513D0374DA84208BF50
:101D200001250ED0354DA84208BF022509D0344DFB
:101D3000A84208BF032504D0324DA8420CBF042599
:101D4000052505FA0EFE4EEA040448F82C406FEA19
:101D5000070C1C680CEA040E4C68E40348BF47EA11
:101D60000E0EC3F800E05C680CEA040E4C68A40395
:101D700048BF47EA0E0EC3F804E09C680CEA040E64
:101D80004C68E40248BF47EA0E0EC3F808E0D3F8F7
:101D90000CE00CEA0E0CD1F804E05FEA8E2E48BF8E
:101DA00047EA0C0CC3F80CC0521C102AFFF440AFD9
:101DB000BDE8F1870069084018BF0120C0B2704734
:101DC00002B909048161704742695140416170471D
:101DD0000D4A1368034200D1704780B5106001F0CE
:101DE000CCF901BD00000000003C01400838014072
:101DF0004438024000000240000402400008024053
:101E0000000C024000100240143C0140090100286F
:101E100006D52B4A00F00F00801800F8041C70470C
:101E2000284A8154704728490A684FF6FF031A4030
:101E300000F0070042EA0020244A1043086070477F
:101E400070B5214B1B68C3F302230124C3F10705BE
:101E5000052D2EBF0F2504FA05F56D1E1E1D072E3C
:101E600034BF0023DB1E2940994004FA03F3BDE888
:101E700070405B1E1A401143C8E7012100F01F02A9
:101E80009140134A04E0012100F01F029140114AE1
:101E9000400942F82010704710B5401EB0F1807F15
:101EA00001D3012010BD0C4C60600F214FF0FF30BA
:101EB000FFF7ACFF0020A06007202060002010BDCD
:101EC00018ED00E000E400E00CED00E00000FA0591
:101ED00000E100E080E100E010E000E080B51F4894
:101EE000016841F400710160016841F480610160A2
:101EF000016841F4807101600320FFF794FF0F2017
:101F000000F005F800F002F8002002BD704710B59F
:101F1000044601F03EF84FF47A71B0FBF1F0FFF7A0
:101F2000BBFF002221464FF0FF30FFF789FF002062
:101F300010BD0B480168491C0160704708480068E3
:101F4000704711B581B0FFF7F9FF0446FFF7F6FFC0
:101F50000199001B8842F9D313BD0000003C0240E8
:101F6000300400200060406070470168814201D168
:101F7000012070470020704702680A6048600160D5
:101F8000086841607047086042684A60416048687C
:101F900001607047426801681160416800684160F3
:101FA000704710B50C46016821600068FFE7FFF735
:101FB000F1FF2168002008602168486010BD000022
:101FC0000068DFF82813884200D0704710B5C84871
:101FD000C84C86B0016841F001010160016801F060
:101FE000010100910099016841F00201016001685E
:101FF00001F002010091009900F065F800F063F82B
:10200000416941F48051416101A9406900F4805067
:10201000009000984FF4807001900120029003908E
:1020200000200490059000F053F900F031F80820EA
:10203000019001A902200290039003200490052042
:102040000590AD48FFF7EAFD402000F02FF8802012
:1020500000F02CF80220019001A90120029000F06C
:102060001DF8012202212046FFF7AAFE012001905F
:1020700001A9A2480290002000F010F800220321DC
:102080000620FFF7DDFE0620FFF7F7FE06B010BDC5
:1020900000224FF480712046FFF792BE0390032088
:1020A0000490002005902046FFF7B8BD019001A9DB
:1020B0000220029000200390032004900520059048
:1020C0002046FFF7ABBD016841F0010101600168E6
:1020D00001F0010100910099016841F001010160E6
:1020E000016801F001010091009970472DE9F0416C
:1020F00004468348DFF80C8200680D460A2184B04C
:10210000B0FBF1F116461F4601A8FFF7FCF9F8B243
:102110000090F3B22A462146404600F086F820B1EE
:1021200001A8FFF7F8F90028F1D0BDE8FF81754854
:102130006E4901604FF48271416000218160C1608D
:10214000016141614FF400718161002101624162CE
:102150000721C1620821C1610021816201F010B82C
:1021600010B5644CFFF794FF0520FFF7EAFE01224B
:10217000FFF78FFFBDE810400520FFF7E2BE80B5F6
:1021800001215C48FFF716FE012818BF002002BDA0
:102190002DE9F04387B005460E46FF2017468DF81F
:1021A000050004A80FF26411DFF848810CC90CC0C7
:1021B000002202214046FFF703FE0F200090052376
:1021C00002AA04A900F081F89DF808000024022862
:1021D00019D19DF80C009DF80B1051EA002912D07E
:1021E0004F450DDAB9460BE00F200090012301AAFC
:1021F0000DF1050100F069F89DF80400A055641C7C
:10220000E4B24C45F0DB012202214046FFF7D8FD45
:10221000002002E000BF0098401C009000980228B7
:10222000F8DB204607B0BDE8F0832DE9F04788468B
:1022300091461E460FF2DC01C6B005460CC903A844
:102240000FF2D801DFF8ACA00CC00CC901A8002720
:102250000CC00620FFF717FE002202215046FFF7B0
:10226000AFFD0F200090052301AA03A900F02DF86F
:102270009DF8040002281AD14E9C9DF8050054FADE
:1022800086F1884210DB36B10F200090334605AA54
:10229000414600F01AF864B10F200090234605AAC9
:1022A000494600F012F804E06FF0010701E04FF03A
:1022B000FF37012202215046FFF782FD0620FFF77B
:1022C000DCFD384646B0BDE8F087284600F0AABFDE
:1022D0002046FFF7A3BC0620FFF7CFBD0620FFF77F
:1022E000D2BD09490120086070470000003001405C
:1022F000303802400000024000040240000011108B
:10230000A839000890030020143C01400B00000095
:10231000000000000A00000000000000AA00000009
:102320000000000062F30F2262F31F42401810F019
:10233000030308D0C91A1FD3DB0748BF00F8012DDB
:1023400028BF20F8022D130030B41446154610396A
:1023500028BF20E93C00FAD8490728BF20E90C0033
:1023600048BF40F8042D890028BF20F8022D48BF3F
:1023700000F8012D30BC7047C91818BF00F8012DB6
:10238000CB0728BF00F8012D704700002DE9F04F62
:1023900080460FF2847095B092461D46D0E9002326
:1023A000CDE9132303AE00200391B0610DF1340990
:1023B00000E0A2440020ADF8020013AB4FF0FF3262
:1023C00051460DF1020001F0A8F80446012C05DA8F
:1023D0009AF80000441EA441E443E40FBDF8020053
:1023E00025280CBFA4F1010BA346BBF1010F0EDBA6
:1023F000574617F8011B0398C0470028039000F0C8
:10240000CE81B069401CBBF1010BB061F1D1BDF8C8
:102410000200252804D10020F0603061706105E0E1
:102420000028C6D1B069BCE140F001001AF8011FD4
:102430002029F9D023290DD02B2904D02D2906D00D
:1024400030290AD00CE040F0020080B2EEE740F004
:102450000400FAE740F00800F7E740F01000F4E766
:102460002A290FD12968296051F8042B2960002AF4
:10247000326204D5514240F00400316280B20AF168
:10248000010A15E0002131620CE0316A6FF000436F
:10249000994205D001EB810302EB430130393162EF
:1024A0000AF1010A9AF80020A2F130010A29ECD3BE
:1024B0009AF800102E2903D04FF0FF31F16122E08D
:1024C0001AF8011F2A2908D1296829600AF1010A8E
:1024D00051F8042B2960F26115E00021F1610CE054
:1024E000F1696FF00043994205D001EB810302EBE3
:1024F00043013039F1610AF1010A9AF80020A2F192
:1025000030010A29ECD3B0840FF214609AF800105D
:1025100001F014F808B11AF8010B8DF832009DF89B
:102520003200682804BF9AF80000682804D16220AD
:102530008DF832000AF1010A0DA8B0601AF8014BBB
:10254000252C13D0582C40D0632C00F09880642C9C
:1025500018BF692C71D06F2C37D0702C2BD0732CF6
:102560000AD0752C18BF782C2FD0ABE00120F0607A
:1025700025208DF83400AFE09DF832006C282868E3
:10258000286014D050F8044B28607460F769002F5D
:1025900004D5204600F0DEFF074606E03A4600215B
:1025A000204600F0F3FF00B1071B376194E050F8BC
:1025B000042B28607FE02868286050F8041B2860FE
:1025C00002910DA87060782155E09DF832006C28CA
:1025D0000DD0712818BF6A2809D12868C01D20F0C5
:1025E00007022A60D2E9000108322A6004E0296863
:1025F000296051F8040B296002909DF83200682888
:1026000002D102A8008803E0622802D102A8007863
:10261000029096F82400000728D5029830B344F0C1
:102620002000782822D1F068302100F80910401CE1
:10263000411CF16000F8094018E09DF8320029467D
:1026400000F0B2F80028029002D5F0682D2109E0D0
:10265000B08C810702D5F0682B2103E0C00705D5B7
:10266000F068202100F80910401CF0600DA8F16806
:1026700008187060214602A800F0CFF92CE09DF800
:1026800032006C2809D00120F0602868286050F8DA
:10269000041B28608DF834101EE02868286001AA09
:1026A00050F8041B2860ADF804100020ADF80600B7
:1026B0004FF0FF30F06102A9404600F09BF800287F
:1026C0000AD56CE00120F06025208DF834001CB1A3
:1026D0000220F06089F80140306AF168401A71699F
:1026E000401A3169441A96F8240040070FD420207C
:1026F0008DF80000002708E0012300AA02A9404647
:1027000000F0F2F900284AD17F1CA742F4DBF768F9
:102710000DF1340B0AE01BF8011B0398C047002899
:1027200003903CD0B069401CB0617F1E002FF2D1F5
:1027300030208DF800004FF0000B776908E001238E
:1027400000AA02A9404600F0CFF940BB0BF1010BF3
:10275000BB45F4DB3769D6F804B009E01BF8011B70
:102760000398C0470390D0B1B069401CB0617F1E90
:10277000002FF3D196F8240040077FF51BAE2020F0
:102780008DF8000000E07F1CA742BFF613AE0123C6
:1027900000AA02A9404600F0A7F90028F3D04FF0A4
:1027A000FF3015B0BDE8F08F622815D068280CD036
:1027B0006C2818BF742816D07A2814D10A680A60C9
:1027C00052F8040B0A60002170470A680A6052F848
:1027D000040B0A6000B20BE00A680A6052F8040BAE
:1027E0000A6040B204E00A680A6052F8040B0A600A
:1027F000C11770472DE9F44F0D4694B0D5F820A0CD
:10280000BAF1000F804648BF6FF0004A00F0EAFEC0
:10281000696A401801900FF21030D0E90023CDE929
:10282000022395F82800400702D40198412805D2D8
:1028300040200DF110090190002607E000F0D8FEBD
:102840005FEA0009F8D1AAE7AAEB040ABAF1010F7E
:10285000C0F28B801498018802AA0DF1010000F0EB
:102860001FFF0028044600F18E801498008810B9DC
:10287000641E00F18880A24577DB2869019922183F
:10288000914260D26E624042A969401A6969461A53
:1028900095F8280040070FD420208DF8000000276D
:1028A00008E0012300AA2946404600F01DF900284F
:1028B00069D17F1CB742F4DB2F69CB460AE01BF8D5
:1028C000011B6868C047002868605CD0E869401C4C
:1028D000E8617F1E002FF2D130208DF800004FF00C
:1028E000000BAF6909E0012300AA2946404600F029
:1028F000FBF8002847D10BF1010BBB45F3DB6F69F7
:10290000D5F808B009E01BF8011B6868C04768608B
:10291000C8B3E869401CE8617F1E002FF3D195F829
:10292000280040070DD520208DF8000007E0012386
:1029300000AA2946404600F0D7F820BB7F1CB742CA
:10294000F5DB00262E61224628690DF1010148447D
:10295000FEF79EFD2869201828611498801C1490A9
:10296000801E008800287FF46FAF686A2969401ACA
:10297000A969401A6969A0EB010A95F82800400787
:1029800010D400240CE04FF0FF363EE068682021B0
:10299000C04700286860F6D0E869401CE861641C04
:1029A0005445F3DB2B694A462946404600F09CF823
:1029B0000028E8D1AC69002709E068683021C047E9
:1029C00000286860DFD0E869401CE8617F1CA742EE
:1029D000F3DB6B69AA682946404600F085F80028B9
:1029E000D1D195F8280040070DD5002409E068688A
:1029F0002021C04700286860C5D0E869401CE86114
:102A0000641C5445F3DB2E616E6204A881451CBF33
:102A1000484600F053FE3046C3E6F0B4C2686F2962
:102A200008BF082405D041F02003782B14BF0A24E6
:102A3000102418230668642918BF6929374602D173
:102A4000002E48BF7F425FB9056A4DB9082C27D1D7
:102A500090F82810090723D530211723D1751FE0DE
:102A6000B7FBF4F604FB16773037FFB25D1E3A2F42
:102A7000A4BFA1F1510C6744AF542B46370003D0DB
:102A800085689E18B542EBD3082C09D190F8281020
:102A9000090705D5995C302902D05B1E3021995475
:102AA0009A188260C3F11801026A4161914208DA02
:102AB000511A81614FF6EF72018D11400185F0BC12
:102AC0007047002A0ED590F8282002F01402102A30
:102AD00008D1426A0369D21A8369D21A531A012BA8
:102AE000A8BF8361F0BC7047F8B504460D46164692
:102AF0001F46002004E0E869401CE8617F1E0020BA
:102B000047B116F8011B6868A04700286860F2D139
:102B10004FF0FF30F2BD0000000000000000000098
:102B2000686C747A4C000000000000000000000097
:102B30002DE9F047044682B02078DFF8A864C0078A
:102B400041F289383BD5B06800F00C00042805D06C
:102B500000F02AF909D17068400206D53068800378
:102B60002DD5606858BB012017E10020B070FFF739
:102B7000E5F907463068800305D5FFF7DFF9C01B8C
:102B80004045F7D306E16068B070606858B1FFF760
:102B9000D5F907463068800311D4FFF7CFF9C01B81
:102BA0004045F7D3F6E0FFF7C9F9074630688003E0
:102BB00005D5FFF7C3F9C01B4045F7D3EAE02078FD
:102BC000DFF82494800716D5B06810F00C0F05D0FC
:102BD00000F0EAF826D17068400223D430688007FC
:102BE00002D5E0680128BED13068216920F0F800E4
:102BF00040EAC10030602078DFF8F05300073DD58F
:102C00006169DFF8EC0361B301210160FFF796F918
:102C100007466868800731D4FFF790F9C01B652824
:102C2000F7D3B7E0E06870B10120C9F80000FFF702
:102C300085F9074630688007D6D4FFF77FF9C01BB7
:102C40006528F7D3A6E0C9F80000FFF777F9074633
:102C500030688007CFD5FFF771F9C01B6528F7D31F
:102C600098E00160FFF76AF907466868800705D5B4
:102C7000FFF764F9C01B6528F7D38BE02078400785
:102C800047D5306CDFF86CA340F080503064306C76
:102C900000F0805000900098DAF8000040F4807056
:102CA000CAF80000FFF74AF90746DAF80000C00545
:102CB00005D4FFF743F9C01B6528F6D36AE000206E
:102CC0002870FFF73BF907462868800705D5FFF70E
:102CD00035F9C01B4045F7D35CE0A0682870A068B8
:102CE00058B1FFF72BF907462868800711D4FFF782
:102CF00025F9C01B4045F7D34CE0FFF71FF9074605
:102D00002868800705D5FFF719F9C01B4045F7D3A0
:102D100040E0A06900283FD0B16801F00C0108290B
:102D20003FF421AF02282AD100F039F80746306875
:102D3000800105D5FFF702F9C01B6528F7D329E00C
:102D4000E069216A0843616A40EA8110A16A891E2C
:102D5000C903090C40EA0140E16A40EA0160706081
:102D60000120C9F86000FFF7E9F8074630688001E4
:102D700012D4FFF7E3F8C01B6528F7D30AE000F090
:102D80000EF807463068800106D5FFF7D7F8C01B5C
:102D90006528F7D3032000E00020BDE8F687002077
:102DA000C9F86000FFF7CAB8B06800F00C00082846
:102DB00070472DE9F843DFF84042DFF82852064615
:102DC0002068894600F00F00484541F2893840D21A
:102DD00000F0A2F810D100F0ADF840F184807068E6
:102DE000012802D12968890305E0022818BF0328B9
:102DF00003D12968890103D473E02968890770D554
:102E000000F091F80746706801280AD1A86800F020
:102E10000C00042867D0FFF791F8C01B4045F5D39C
:102E20005AE0022809D1A868FFF7BFFF5BD0FFF77F
:102E300085F8C01B4045F6D34EE003283CD0A86877
:102E400010F00C0F4FD0FFF779F8C01B4045F6D3B8
:102E500042E000F06FF841D57068012802D129687E
:102E6000890305E0022818BF032803D129688901D6
:102E700003D436E02968890733D500F054F80746B3
:102E8000706801280AD1A86800F00C00042825D039
:102E9000FFF754F8C01B4045F5D31DE0022809D1C7
:102EA000A868FFF782FF19D0FFF748F8C01B40451C
:102EB000F6D311E0032806D1A868FFF73FF8C01B3E
:102EC0004045F9D308E0A86810F00C0F06D0FFF7D2
:102ED00035F8C01B4045F6D303201BE000F01CF87A
:102EE00001D0012016E03078400705D5A868F168C8
:102EF00020F4E0500843A8603078000706D5A868A1
:102F0000316920F4604040EAC100A8600F20FEF75C
:102F1000FEFF0020BDE8F28384F80090206800F0F6
:102F20000F0048457047A968890840EA8100A860F9
:102F3000FFF704B83078800705D5A868B16820F09D
:102F4000F0000843A8603078C00770472C484168FB
:102F500001F00C01042902D0082902D017E0294809
:102F6000704701680268520201F03F014CBF254AD8
:102F7000254AB2FBF1F102680068C0F30140C2F3D8
:102F80008812401C51434000B1FBF0F070471E48CE
:102F9000704780B5FFF7DAFF184B0FF274021B6819
:102FA0001A49C3F303139A5C20FA02F30B60086812
:102FB00002BD80B5FFF7EDFF00F00EF8C2F38222EC
:102FC00006E080B5FFF7E5FF00F006F8C2F34232F5
:102FD000125C21FA02F002BD084A126801460FF2A3
:102FE000300070470038024000004742703802400D
:102FF000800E474200700040003C0240083802400A
:103000000438024000127A000024F400B4000020CA
:10301000000000000102030401020304060708097E
:1030200000B591B00220009001200390062004908A
:103030000220069000200790102008904FF4807026
:10304000099008200A9004200B9000A8FFF770FD5B
:1030500001200C90012102200D900CA8FFF7A9FE81
:1030600011B000BD70B584B0064601A800900C46B2
:103070000DF10A0302AA0DF106010DF10900FEF798
:1030800083F9C5B2A5B9BDF80600000A3070BDF8D5
:10309000060000022080BDF804100906090F40EA6E
:1030A00001102080BDF8041001F00F0108432080BA
:1030B000FEF723F8284604B070BD10B50C46114643
:1030C000A21C812AA8B0A8BF42201BDA8DF81C00E0
:1030D0008DF81D4022460DF11E00FEF728FA00F083
:1030E00036F800F02FF80C20ADF8060007A8039082
:1030F000A01CC0B2049000F031F800284CBFFF20A3
:103100009DF8000028B010BD00B589B08DF804000E
:103110008DF805101822002102A8FEF70EFA3F20B4
:10312000ADF8080000210F20ADF80A0001A80490B6
:10313000022000F01AF800284CBFFF209DF8000084
:1031400009B000BD3F20ADF80400002170471822EF
:10315000002101A8FEF7F1B9ADF8060000A805901E
:103160000120069001A8FEF762B8059000A806901D
:103170000120079002A8FEF75AB8FDF7F3BF000040
:1031800038B5050001D1012032BD05F15004607849
:1031900018B920702846FEF713FF022060702868D7
:1031A00000F02CF86868A9680843E96808432969B1
:1031B000084369690843A96901F400710843E96992
:1031C0000843296A0843A96A084329680860A8696E
:1031D000696A000C00F00400084329684860296807
:1031E000E86A08612868C16921F40061C1610020B2
:1031F000606001206070002032BD2068016821F00D
:10320000400101607047A06AB0F5005F04D12068FA
:10321000016841F4805101603346002201212046BB
:1032200000F03EB970B5044604F1500582B06878EC
:10323000012818BF222840F0B88000291CBF002AAE
:10324000002B00F0AF802878012800F0AE8001202C
:1032500028706878012804BF3220687000206860F8
:10326000A064E064A263A387E3872163A386E38667
:1032700000F0FDF820680168490601D400F0F2F87A
:10328000E068069EB0F5006F606836D128B1B0F5F1
:10329000827F04BFE08E012801D100F08FF8E08E1C
:1032A00000281DD100F0F3F820D12068016841F416
:1032B000805101601AE033460022022100F0EEF84E
:1032C00000284AD100F07AF880B2002804BFA06A32
:1032D000B0F5005FFFF79AFF00283ED100F09CF8A0
:1032E000E08E0028E7D1606800283DD100F0D3F8D7
:1032F000002832D100F088F833E028B1B0F5827FA1
:1033000004BFE08E012801D100F063F8E08E0028B0
:103310001BD1FFF778FF00281FD12068C068A16B80
:1033200008701EE033460022022100F0B7F8A0B971
:1033300000F04FF880B2002804BFA06AB0F5005F2B
:10334000FFF764FF48B900F04EF8E08E0028E9D19D
:10335000606848B900F09FF808B1032076BD00F01E
:1033600026F8E08F401EE08700F091F809D100F0C8
:1033700092F820B1686840F002006860EDE700F064
:103380003CF833460122802100F088F818B16868C3
:1033900040F02000F1E700F05AF805D1C90603D546
:1033A00000F045F8012076BD59E0022076BDA06B03
:1033B000411CA1632168C96801707047206B2168B6
:1033C0000088C860206B801C2063E08E401EE08671
:1033D0007047206B411C216321680078C860E08E33
:1033E000401EE0867047A06B411CA1632168C9683C
:1033F0000170E08F401EE08770472068C068ADF81C
:103400000000BDF8000070472068C068A16B08800C
:10341000A06B801CA06370472068C068A16B088007
:10342000A06B801CA063E08F401EE0877047696836
:1034300041F002016960016821F4005101602068D7
:10344000016841F40051016000202870704701209C
:10345000687020688168A26AB2F5005F704700203A
:10346000287076BD016841F0400101607047A06A94
:10347000B0F5005F09D12068016821F400510160B6
:103480002068016841F4005101607047E087A06A3C
:10349000B0F5005F70473346002201212046FFE768
:1034A0002DE9F04104460D4690461E46FEF746FDC6
:1034B000B8F1000F07460ED1206880682840A84266
:1034C00028D016F1010FF7D09EB1FEF737FDC01BD3
:1034D0008642F1D20DE0206880682840A84219D1C8
:1034E00016F1010FF7D026B1FEF728FDC01B86426A
:1034F000F1D22068416821F0E0014160FFF77DFED4
:10350000FFF7B5FF04F15000012141700021017067
:10351000032000E00020BDE8F081F8B504460D4628
:1035200016461F4600F00AF93B4632462946204619
:1035300001B0BDE8F04000F018B900000278C9B24F
:103540008A421AB11CBF10F8012FF9E718BF0020FA
:103550007047000000F10103810704D010F8011B3F
:1035600089B18107FAD10268B2F10131914311F0BA
:10357000803F04BF50F8042FF6E710F8011B11B18B
:1035800010F8011BFBE7C01A70470000C9B283079F
:1035900006D0521E22D310F8013B9942F7D11FE00A
:1035A000083A13D302F1040241EA012141EA014140
:1035B00050F8043B121F21BF4B40A3F1013C2CEA01
:1035C000030C1CF0803FF3D0C9B2001F083210F882
:1035D000013B521E28BF91EA030FF8D818BF012003
:1035E000401E704780B500F0A9F8012002BD000020
:1035F00070B5054605F10F00C408C046C046E4009A
:10360000A54232D2082C04D2082402E0083000F08F
:1036100055F82248026811000CD1011D0A6802B356
:103620001368A34238BF111DF8D310E01D68A542EE
:103630000DD2191D0B68002BF8D11268011D00E096
:10364000191D0B6893420CD01D68A542F8D361B1D7
:103650000D682A68A2F10803A3420AD26A680A60C8
:103660000FE000F0A5F80028D0D1C046C0460020E9
:1036700070BD63190B60121B6E685E600B681A6088
:103680002C60096800291DBF4A68002A091D002115
:103690000160C046C04605F1080070BD2804002046
:1036A00070B504460D46164600F048F832462946E5
:1036B0002046BDE8704000F04BB8000000B97047EC
:1036C00038B5A0F108042068082833D310F0070F9C
:1036D00030D1C046C0461848416809B18C4203D277
:1036E0006160446017E019464B680BB1A342FAD3FE
:1036F0000B685D18AC421BD3A54204D12268D218D6
:103700000A600C4607E04A681AB123681B199A42FE
:103710000ED362604C60616851B1226813198B420C
:1037200006D1002303600868801820604868606044
:10373000C046C04631BD00002804002080B5DFF837
:103740000C0000F04BF8806902BD0000080000206A
:1037500030B430B90FF24800D0E90045C2E9004565
:103760001BE00170012030BC704730B431B90FF25A
:103770003800D0E90045C3E900450EE01AB930BC75
:103780006FF00100704708B10A7802800978481E7E
:10379000804130BCC043C00F7047002030BC704730
:1037A0000000000000000000000000000000000019
:1037B0000749086808B1002070470648C008C000E3
:1037C00008600549C908C900091A0160704700BFAF
:1037D0003804002047080020400A002070470000FD
:1037E0000E480F4A016841F4700101600D480168FC
:1037F00041F0010101600021816001681140016018
:1038000009494160016821F4802101600021C16003
:103810004FF00060054908607047000088ED00E047
:10382000FFFFF6FE003802401030002408ED00E0F3
:1038300019E050F8041BCB0744BFA9F10103591844
:10384000121F0023042A41F8043BF9D25FEA827C6C
:103850000B4604D54FF0000CA1F800C09B1CD1070B
:1038600044BF0021197050F8042B002AE1D17047A1
:103870007047FEE770477047704780B5FEF759FB09
:1038800008480168491C016001BD0120FEF7A0BA8B
:1038900080B54FF40050FEF79BFA034901200870F1
:1038A00001BD0000340400203F04002010B450F893
:1038B000041B79B10268436812180830DC0744BF62
:1038C000A9F10104E31852F8044B43F8044B091F13
:1038D000F9D1ECE710BC704710B5074979441831AD
:1038E000064C7C44163404E00A68081D51188847C9
:1038F0000146A142F8D110BD2C0000004C00000090
:103900004EF68851CEF20001086840F4700008605D
:10391000BFF34F8FBFF36F8F4FF00070E1EE100ACF
:10392000704700000DFFFFFF80030000C000002073
:103930000000000079FFFFFFC000000054010000FC
:10394000000000200000000000F00BF8002801D06B
:10395000FFF7C2FF0020C046C046FDF7BEFF00F0E3
:1039600002F80120704700F001B800000746384611
:1039700000F002F8FBE7000080B5C046C046024AEE
:1039800011001820ABBEFBE726000200014880476B
:1039900001480047E13700089D390008C046C0468D
:1039A000FFF7AEFFFFF7D0FFE8030000FFF7FEBF11
:1039B000FFF7FEBFFFF7FEBFFFF7FEBFFFF7FEBF3B
:1039C000FFF7FEBFFFF7FEBFFFF7FEBFFFF7FEBF2B
:1039D000FFF7FEBFFFF7FEBFFFF7FEBFFFF7FEBF1B
:1039E000FFF7FEBFFFF7FEBFFFF7FEBFFFF7FEBF0B
:1039F000FFF7FEBFFFF7FEBFFFF7FEBFFFF7FEBFFB
:103A0000FFF7FEBFFFF7FEBFFFF7FEBFFFF7FEBFEA
:103A1000FFF7FEBFFFF7FEBFFFF7FEBFFFF7FEBFDA
:103A2000FFF7FEBFFFF7FEBFFFF7FEBFFFF7FEBFCA
:103A3000FFF7FEBFFFF7FEBFFFF7FEBFFFF7FEBFBA
:103A4000FFF7FEBFFFF7FEBFFFF7FEBFFFF7FEBFAA
:103A5000FFF7FEBFFFF7FEBFFFF7FEBFFFF7FEBF9A
:103A6000FFF7FEBFFFF7FEBFFFF7FEBFFFF7FEBF8A
:103A7000FFF7FEBFFFF7FEBFFFF7FEBFFFF7FEBF7A
:103A8000FFF7FEBFFFF7FEBFFFF7FEBFFFF7FEBF6A
:103A90000000000000000000000000000000000026
:103AA0000000000000000000000000000000000016
:103AB0000000000000000000000000000000000006
:103AC00000000000000000000000000000000000F6
:103AD00000000000000000000000000000000000E6
:103AE00000000000000000000000000000000000D6
:103AF00000000000000000000000000000000000C6
:103B000000000000010000000000000000000000B4
:103B100000000000000000000000000000000000A5
:103B20000000000000000000000000000000000095
:103B3000000000000000000000000000010203047B
:103B4000060708090024F4000000024000080240B3
:00000001FF
