:020000040800F2
:100000004008002031490008B1440008B34400080A
:100010009D490008A1490008A5490008000000000A
:10002000000000000000000000000000B5440008CF
:10003000B744000800000000B9440008BB440008B1
:10004000A9490008AD490008B1490008B5490008B0
:10005000B9490008BD490008CD440008C14900085D
:10006000C5490008C9490008CD490008D149000820
:10007000D5490008D9490008DD490008E1490008D0
:10008000E5490008E9490008ED49000800000000C2
:10009000000000000000000000000000F14900081E
:1000A000F5490008F9490008FD490008014A00081F
:1000B000054A0008094A00080D4A0008114A0008CC
:1000C000154A0008194A00081D4A0008214A00087C
:1000D000254A0008294A00082D4A000800000000AF
:1000E000D7440008314A0008354A000800000000E3
:1000F000000000000000000000000000394A000875
:10010000000000003D4A0008414A0008454A000836
:1001100000000000000000000000000000000000DF
:10012000494A00084D4A0008514A0008554A00084B
:10013000594A000800000000000000000000000014
:100140000000000000000000000000005D4A000800
:10015000614A0008654A0008694A00086D4A0008BB
:10016000714A0008754A0008000000000000000005
:10017000000000000000000000000000000000007F
:1001800000000000794A00080000000000000000A4
:100190007D4A000810B592B00EA8DFF8381710227B
:1001A00000F010FC0AA8DFF83017102200F00AFC5B
:1001B00006A8DFF82817102200F004FCDFF820075B
:1001C0000090072301220EA9022000F044FC040045
:1001D000E4B2002C3DD1DFF80C070590012004901B
:1001E0001020039000200290002001901020009029
:1001F00014230AAA0221DFF8E806008800F092FC26
:100200000400E4B2002C24D1DFF8DC0605900120C4
:1002100004901020039001200290002001900C20F7
:100220000090142306AA0221DFF8B406008800F02B
:1002300079FC0400E4B2002C0BD1DFF8AC06028894
:10024000DFF8A0060188DFF8A40600F04DFE0020CC
:1002500004E0DFF89C0600F047FE472012B010BD16
:1002600010B58EB0DFF88C060078002831D1DFF8A9
:10027000880600F039FE07A8DFF880160CC90CC00C
:1002800008390838002000F087FE4FF4FA60069025
:100290004FF4FA6005903C20049000200390282041
:1002A0000290282001900020009007AB00224FF41C
:1002B00080414FF4804001F08EF80400E4B2002C3D
:1002C0002FD0DFF83C0600F00FFE642001F0D7F8D5
:1002D00027E009A8DFF82C16102200F073FB00219C
:1002E000002001F0EFFADFF8200600F0FDFD00200D
:1002F000069000200590002004900020039009A89B
:1003000002900D2001900020009000230022002187
:10031000002000F065FF0400E4B22100C9A000F055
:10032000E3FD0EB010BD00B585B0DFF8E005007844
:10033000002818D1DFF8D80500F0D6FD01A8DFF8B5
:10034000D415102200F03EFB01A8009002234FF6C6
:10035000FF720121DFF8C005008800F0DAFC0120FF
:10036000DFF8A815087005B000BD00B585B0DFF84E
:10037000AC050078002818D1DFF8A40500F0B4FD22
:1003800001A8DFF8A015102200F01CFB01A80090C6
:1003900002234FF6FF720121DFF87C05008800F090
:1003A000B8FC0120DFF87415087005B000BD70B509
:1003B00004000D00002000F00FFE0026EDB2AE425A
:1003C00005DA315DA0A000F08FFD761CF6E770BD68
:1003D00038B52DED028B88B004000D00DFF8140550
:1003E0000078012840F09A80DFF83C05007800286A
:1003F00000F0878003A8DFF83415142200F0E2FA39
:10040000DFF82C0500688DF81C00DFF82405006873
:10041000000A8DF81D00DFF818050068000C8DF843
:100420001E00DFF80C050068000E8DF81F00DFF8D5
:1004300000050068002808D1DFF8F80400F054FD3A
:1004400001F019F8DFF8F0140860DFF8F004006834
:100450000A2101FB00F101A801F06AFA03A800904B
:1004600014230022DFF87C040188DFF8740400887C
:1004700000F0F4FB642804D101A801F061FA00281F
:10048000ECD0DFF8AC040068401CDFF8A41408606E
:10049000DFF89C040068002832D04FF4FA70DFF8CF
:1004A00090140968DFF888241268B2FBF0F200FBB0
:1004B0001210002824D100F0DEFFDFF88414086059
:1004C000DFF87C040068DFF870140968401A08EE51
:1004D000100AB8EE480ADFED5D0A80EE800ABDEE34
:1004E000C00A10EE103A18EE102A4FF4FA71DFF835
:1004F000540400F0F9FC00F0BEFFDFF83C14086083
:1005000078E700942B00DBB20022DFF8D8030188E3
:10051000DFF8CC03008800F0A1FB0CE023002A00E8
:10052000D2B2DFF824040088411C89B2DFF8E80366
:10053000008800F0A0FC08B0BDEC028B31BDE0B536
:10054000DFF808040088ADF80000DFF8F003006869
:100550000A2101FB00F101A801F0EAF900AB022237
:10056000DFF8EC030088811C89B2DFF8AC03008857
:1005700000F02FFC462804D101A801F0E1F9002881
:10058000ECD00120DFF8CC13087007BD70B5040073
:100590000D001600A4B2DFF850030088401C84420E
:1005A00005D12900C9B23000FFF701FF0DE0A4B268
:1005B000DFF830030088801C844206D1307801289F
:1005C00003D10120DFF88C13087070BD70B50400F2
:1005D0000D000120DFF880130860DFF83C03058080
:1005E000DFF8780300F080FC0526012E06DB315D84
:1005F000DFF86C0300F078FC761EF6E72178DFF870
:10060000640300F071FC70BD80B50020DFF8481372
:100610000860DFF8540300F067FC0120DFF84C139A
:1006200008700020CB4908700020B84908700020ED
:10063000BA4908700020CE4908700020CD490870E2
:1006400001BD000025640A002563000000409C47AE
:1006500070B52DED028B04000D001600B248007835
:10066000002800F08880A3480078002840F08380AC
:10067000A4B2B7480088401C844240F08780BE483E
:100680000068002813D1AB4800F02EFC00F0F3FE08
:10069000BA490860307C717C50EA0120B17C50EA94
:1006A0000140F17C50EA0160401EB5490860307C91
:1006B000717C50EA0120B17C50EA0140F17C50EAA3
:1006C0000160B0490860AF480068AD490968491C3D
:1006D00088420AD0AC480068AA4909680818A849A5
:1006E0000968401A401EA8490860A6480068A44945
:1006F0000860A1480068401C9F4908609E48006847
:10070000002843D04FF4FA709B4909689A4A12684E
:10071000B2FBF0F200FB1210002837D100F0ABFE64
:100720009A4908609948006894490968401A08EE97
:10073000100AB8EE480ADFED660A80EE800ABDEEC8
:10074000C00A10EE103A18EE102A4FF4FA717D48E4
:1007500000F0CAFB8C480068002804D08A48016871
:100760008B4800F0C1FB00F086FE84490860002041
:10077000854908600AE0A4B275480088401C84429C
:1007800004D12900C9B23000FFF711FEBDEC028B85
:1007900070BD2DE9F041040025006E1C2878042866
:1007A00040F094803078052804D03E2805D0FF28FA
:1007B00010D08BE0FFF728FF88E0B71C38780128BD
:1007C00007D117F10108B8F8011018F10500FFF77B
:1007D000FDFE7BE0B71C388840F60141401A06D088
:1007E0000E381ED0401E56D0801E27D06EE06948BD
:1007F000007801280AD117F1020818F1070298F8C9
:100800000410B8F80200FFF7C1FE09E017F1020872
:1008100018F1050298F80410B8F80200FFF7B6FEC8
:1008200054E017F1020818F1050298F80200811E41
:10083000C9B2B8F80300FFF70BFF47E02D48007876
:10084000002827D1544800F04FFB17F102082F4829
:10085000007800280DD046480078002809D1B8F863
:1008600003003B4908803A4801884C4800F03CFBB3
:1008700010E02A48007800280CD03E480078002874
:1008800008D1B8F80300304908802F48018844484F
:1008900000F02AFB1AE017480078002816D11B4800
:1008A0000078002807D032480078002803D10120C2
:1008B0002F4908700AE019480078002806D02D4812
:1008C0000078002802D101202A490870BDE8F08193
:1008D00000409C47B0480008C0480008D0480008C5
:1008E0002A0400202C0400202E040020704400085C
:1008F000EC450008320400205C4700086849000805
:1009000010460008E048000878470008340400203A
:100910001C470008F048000824040020350400208B
:100920003C47000800490008800000208848000873
:10093000F403002040490008F8030020984900080B
:10094000FC03002030450008280400208A19000814
:100950002604002033040020F0030020F0470008A4
:1009600070490008784900081049000881000020FB
:100970003604002037040020080400200004002072
:100980000C040020100400201404002004040020A3
:100990009C480008310400206C4500080848000805
:1009A0002048000862B38B0708D0521E11F8013BA3
:1009B00000F8013B00F024808B07F6D1830740F05C
:1009C000208000BF103A07D330B4B1E83810103A95
:1009D000A0E83810F9D230BC530724BFB1E80810A2
:1009E000A0E8081044BF51F8043B40F8043BD2078C
:1009F00024BF31F8022B20F8022B44BF0B78037080
:100A00007047083A07D3B1E80810083A40F8043BA9
:100A100040F804CBF7D25307E4E700B587B01822BB
:100A2000002101A800F0A6FF3F20ADF8040040F22D
:100A30000110ADF8060000A80590012006900021E5
:100A400001A800F01CFE002801D5FF2001E09DF860
:100A5000000007B000BD2DE9F0478CB004000D0088
:100A600016001F00DDF850805FF0000A07A85FFA4B
:100A70008AFA0AF800401AF1010AE4B2012C02D104
:100A80000220814601E0102081465FFA89F94A463A
:100A9000290007A85FFA8AFA1AEB000000F05FFF4E
:100AA00019EB0A0A07A85FFA8AFA0AF800601AF135
:100AB000010A07A85FFA8AFA0AF800701AF1010A17
:100AC0000322002100A800F055FF1822002101A8F0
:100AD00000F050FF3F20ADF804004FF48170ADF8F6
:100AE000060007A803905FFA8AFACDF810A000A8C4
:100AF000059003200690002101A800F0C0FD002809
:100B000001D5FF200BE09DF80000002802D09DF8E1
:100B1000000004E0BDF80100A8F8000000200CB0BF
:100B2000BDE8F0872DE9FD4F90B089461C9C1D9DC6
:100B30001E9E1F9FDDF88080DDF884A05FF0000B13
:100B4000BDF84000ADF84000022210A902A85FFAEB
:100B50008BFB1BEB000000F002FF1BF1020B02A855
:100B60005FFA8BFB0BF800901BF1010B5FFA89F920
:100B7000B9F1010F03D102208DF8040002E010202A
:100B80008DF804009DF80420119902A85FFA8BFBF0
:100B90001BEB000000F0E3FE9DF8040010EB0B0BD4
:100BA0009DF8480002A95FFA8BFB0BF801001BF1CE
:100BB000010B02A85FFA8BFB0BF800401BF1010B45
:100BC00002A85FFA8BFB0BF800501BF1010B02A887
:100BD0005FFA8BFB0BF800601BF1010B02A85FFAB8
:100BE0008BFB0BF800701BF1010B02A85FFA8BFB6B
:100BF0000BF800801BF1010B0322002100A800F07C
:100C0000B9FE1822002109A800F0B4FE3F20ADF87B
:100C100024004FF48270ADF8260002A80B905FFA12
:100C20008BFBCDF830B000A80D9003200E90002172
:100C300009A800F024FD002801D5FF200BE09DF855
:100C40000000002802D09DF8000004E0BDF801007B
:100C5000AAF80000002013B0BDE8F08FF3B5A7B0EC
:100C600014001D002E9E0027EDB2A81D812801DB77
:100C700042204CE0BDF89C00ADF89C00022227A960
:100C800007A8FFB2381800F06AFEBF1CBDF8A0002C
:100C9000ADF8A000022228A907A8FFB2381800F07A
:100CA0005EFEBF1C07A8FFB23C547F1C07A8FFB222
:100CB0003D547F1CEDB22A00310007A8FFB238185E
:100CC00000F04DFEEF191822002101A800F052FE9D
:100CD0003F20ADF804004FF48370ADF8060007A87C
:100CE0000390FFB2049700A8059001200690002110
:100CF00001A800F0C4FC002801D5FF2007E09DF802
:100D00000000002802D09DF8000000E0002029B07B
:100D1000F0BDF7B58EB01C00169D0027BDF8380059
:100D2000ADF8380002220EA907A8FFB2381800F06B
:100D300016FEBF1CBDF83C00ADF83C0002220FA916
:100D400007A8FFB2381800F00AFEBF1CBDF840002B
:100D5000ADF84000022210A907A8FFB2381800F031
:100D6000FEFDBF1C07A8FFB23C547F1CE4B2012C5F
:100D700002D10220060001E010200600F6B2320087
:100D8000290007A8FFB2381800F0E9FDF71918226A
:100D9000002101A800F0EEFD3F20ADF804004FF463
:100DA0008B70ADF8060007A80390FFB204970F20E0
:100DB000029000A8059001200690002101A800F0F3
:100DC0005EFC002801D5FF2001E09DF8000011B075
:100DD000F0BD73B5A8B014001D000026E4B2601D7C
:100DE000812801DB422044E0BDF8A000ADF8A0005E
:100DF000022228A907A8F6B2301800F0B0FDB61CF0
:100E0000BDF8A400ADF8A400022229A907A8F6B2F3
:100E1000301800F0A4FDB61C07A8F6B23454761CB6
:100E2000E4B22200290007A8F6B2301800F097FDBE
:100E3000A6191822002101A800F09CFD3F20ADF862
:100E4000040040F22110ADF8060007A80390F6B2A6
:100E500004960F20029000A8059001200690002122
:100E600001A800F00CFC002801D5FF2001E09DF84E
:100E700000002AB070BDF0B58FB004000D00160060
:100E80001F00F6B2152E01D342202BE0ADF81C4016
:100E9000ADF81E508DF82060F6B2320039000DF129
:100EA000210000F05CFD1822002101A800F062FD85
:100EB0003F20ADF8040040F22310ADF8060007A86B
:100EC0000390F6B2701D049000A8059001200690D2
:100ED000002101A800F0D3FB002801D5FF2001E08C
:100EE0009DF800000FB0F0BD0EB470B5A1B00400C5
:100EF00025A805002B002200802100A800F046FD57
:100F000006004FF49673320092B200A9054800F033
:100F100093FD002801D001F035F921B070BC5DF8D7
:100F200010FB00009803002010B586B00400E4B266
:100F3000002C0ED1DFF88801006850F00100DFF8C6
:100F400080110860DFF87801006810F0010000905F
:100F50000098DFF87001E4B230F81400019001202D
:100F60000290012003900220049001A9DFF85801AB
:100F7000E4B250F8240001F00DF90022DFF844013A
:100F8000E4B230F81410DFF84001E4B250F8240065
:100F900001F0EDF906B010BD10B504000122DFF834
:100FA0002401E4B230F81410DFF81C01E4B250F868
:100FB000240001F0DCF910BD10B504000022DFF8B8
:100FC0000401E4B230F81410DFF8FC00E4B250F889
:100FD000240001F0CCF910BD10B50400DFF8E400E6
:100FE000E4B230F81410DFF8E000E4B250F8240066
:100FF00001F0C7F910BD30B587B004000D00E4B2B0
:10100000002C0ED1DFF8B800006850F00400DFF8C3
:10101000B0100860DFF8A800006810F0040000902D
:101020000098EDB2002D13D1DFF8A000E4B230F843
:1010300014000190002002900220039002200490EE
:1010400001A9DFF88C00E4B250F8240001F0A2F806
:10105000EDB2012D22D1DFF87400E4B230F81400B3
:10106000019000200390DFF86C00029001A9DFF8E6
:101070006000E4B250F8240001F08CF800220F2147
:10108000DFF85400E4B2205640B201F01FFADFF856
:101090004800E4B2205640B201F02BFA07B030BD50
:1010A00010B50400DFF82400E4B230F81410DFF8C3
:1010B0002000E4B250F8240001F04DF910BD00000A
:1010C0003038024032260008740000209A2B0008B5
:1010D0007800002000002110764100082DE9F0433F
:1010E00089B004000D0016001F00DDF84080DDF817
:1010F00044908DF800408DF801508DF80260072271
:10110000002101A800F036FC1822002103A800F0FD
:1011100031FC3F20ADF80C008A20ADF80E0000A88D
:1011200005900320069001A8079007200890002151
:1011300003A800F0A4FA002801D5FF2012E09DF8D2
:101140000400002802D09DF804000BE0BDF8050063
:101150003880BDF80700A8F80000BDF80900A9F81C
:101160000000002009B0BDE8F083F0B589B00400AC
:101170000D0016001F008DF808400722002100A86E
:1011800000F0F8FB1822002103A800F0F3FB3F2039
:10119000ADF80C008A20ADF80E0002A805900120E1
:1011A000069000A8079007200890002103A800F0EF
:1011B00066FA002801D5FF2010E09DF80000002805
:1011C00002D09DF8000009E0BDF801002880BDF8BC
:1011D00003003080BDF805003880002009B0F0BD64
:1011E0002DE9F64F91B0070098461C9C1D9DDDF837
:1011F00078901F9EDDF880A05FF0000BF6B256FAE3
:1012000085F00E30292801D342209BE007A85FFA21
:101210008BFB0BF800701BF1010BBDF84400ADF81F
:101220004400022211A907A85FFA8BFB1BEB000008
:1012300000F095FB1BF1020BBDF84800ADF848002B
:10124000022212A907A85FFA8BFB1BEB000000F03B
:1012500086FB1BF1020B07A85FFA8BFB0BF80080E3
:101260001BF1010B07A85FFA8BFB0BF800401BF189
:10127000010B07A85FFA8BFB0BF800501BF1010B69
:10128000EDB22A00494607A85FFA8BFB1BEB000072
:1012900000F065FB15EB0B0B07A85FFA8BFB0BF857
:1012A00000601BF1010BF6B23200514607A85FFA4D
:1012B0008BFB1BEB000000F052FB16EB0B0BBDF899
:1012C0008400ADF88400022221A907A85FFA8BFBF5
:1012D0001BEB000000F043FB1BF1020BBDF8880084
:1012E000ADF88800022222A907A85FFA8BFB1BEB4E
:1012F000000000F034FB1BF1020B1822002101A8B2
:1013000000F038FB3F20ADF804008320ADF8060064
:1013100007A803905FFA8BFBCDF810B000A80590EA
:1013200001200690002101A800F0A9F9002801D5AC
:10133000FF2007E09DF80000002802D09DF8000083
:1013400000E0002013B0BDE8F08F2DE9F04F8FB022
:101350000700884691469A46189C199DDDF868B0AA
:101360001B9E8DF81C708DF81D80102249460DF1D2
:101370001E0000F0F4FA8DF82EA08DF82F408DF8A5
:101380003050CDF831B08DF835601822002101A819
:1013900000F0F0FA3F20ADF804008620ADF806001A
:1013A00007A803901A20049000A805900120069039
:1013B000002101A800F063F9002801D5FF2007E013
:1013C0009DF80000002802D09DF8000000E00020F9
:1013D0000FB0BDE8F08F2DE9F74F8EB099461A9CFB
:1013E0001B9D1C9EBDF874A0BDF878B01F9FDDF852
:1013F0008080BDF83800ADF80400BDF83C00ADF8C1
:1014000006009DF840008DF80800062249460DF1BF
:10141000090000F0A4FA8DF80F40ADF81050ADF8B7
:101420001260ADF814A0ADF816B0ADF81870ADF8B4
:101430001A801822002107A800F09CFA3F20ADF87E
:101440001C009C20ADF81E0001A8099018200A90ED
:101450000F20089000A80B9001200C90002107A8F5
:1014600000F00DF9002801D5FF2001E09DF80000F3
:1014700011B0BDE8F08F80B501F098F802BD10B54D
:101480000400200001F095F810BD8268521C8260B3
:10149000426832B10268531C036011704168491EF2
:1014A0004160704710B5DFF87C0301F093F8DFF876
:1014B000780301F08FF800200400E4B2052C0BDA69
:1014C000DFF86803E4B28C2101FB0401DFF8540368
:1014D00001F092F8641CF0E710BD010011F1080260
:1014E0001078042801D0012008E0907891F8883025
:1014F000DB1E984201D0022000E00020704730B58A
:10150000A1B00020009001F0F3FAC74801F065F89F
:101510000500EDB2002D14D100A9C34801F07AF8FE
:1015200001F0E1FA00980830FFF733F901F0E0FA32
:101530000099BC4801F060F8BB4801F04EF8050086
:10154000E7E7BB480078002813D001F0B4F9002881
:101550000CD0802201A9B74801F0B8F90400E4B228
:10156000002CF2D001A8FFF714F9EEE70020B049F3
:10157000087001F0B8FA21B030BD80B5AA4801F07A
:101580002CF802BD10B582B00020009001F0B5FA31
:1015900001F091F9002832D0A24801F01EF800288D
:1015A00027D100A99F4801F035F88022009810F15A
:1015B0000801A04801F08AF90400E4B2002C11D01F
:1015C000009880F888400098FFF787FF002804D132
:1015D0000099954801F010F808E00099914801F051
:1015E00004F803E000998F4800F0FFFF01F085FA4E
:1015F000CEE701208E49087001F07FFAFFE713BDA6
:10160000F8B504000D0016001F00FFB23B00F6B253
:1016100032002900200001F0F0F8F1BDF0B583B0F0
:1016200004000D0016001F00A805800D50EA84205C
:10163000ADF804008DF8066001208DF8000003224B
:1016400001A90DF1010000F08AF93300DBB2042298
:10165000390000A8FFF7D4FFF7BD38B504000D002E
:10166000280000F0BAFF002808D100A9280000F0E7
:10167000D1FF0099200000F0BFFFF1E731BD2DE957
:10168000F04F89B004000D0060888005800D21882E
:1016900050EA8126684800680A21B0FBF1F8002072
:1016A000009004A800F096FFA368E268D2B26188B7
:1016B0002088FFF7B3FFEDB2002D40F0A480B8F111
:1016C000000F01D101208046414607A800F030F903
:1016D00007A800F035F9002840F08C80FFF74DFF97
:1016E0000028F5D101F004FA00A94F4800F092FF5C
:1016F0000098083007003878042806D0009904A81C
:1017000000F07AFF01F0EFF9E2E7781C069000980C
:101710000B308246009890F88800C01E83460698D9
:1017200000780E2821D00F2804D010284DD03E2854
:1017300034D04BE0D146B9F80200B6B2B04259D12C
:1017400060680F2804D099F80000002852D13DE0CD
:101750006069834501DA584600E06069606162694A
:101760005146206900F0FBF84DE0CDF80CA003983D
:10177000B0F80100B6B2B0423CD11AF1030ABBF195
:10178000030B6069834501DA584600E060696061D7
:1017900062695146206900F0E2F834E0CDF804A017
:1017A000019800786168884210D1BBF1010B606933
:1017B000834501DA584600E060696061626901981A
:1017C000411C206900F0CBF81DE013E0009904A84B
:1017D00000F012FF134800F000FF002807D002A914
:1017E000114800F017FF02990E4800F005FF01F0C4
:1017F0007AF96DE704A90C48FFF72FFF01F073F9A0
:101800005FF0FF300AE00099064800F0EEFE04A900
:101810000548FFF722FF01F066F9002009B0BDE896
:10182000F08F0000D8030020E00300208400002097
:101830003004002040030020984900082DE9F041C1
:101840008AB004000D0016001F00DDF84080092258
:10185000002100A800F08EF81822002103A800F053
:1018600089F80420ADF80C000120ADF80E0000202E
:1018700005900020069000A80790092008900021FC
:1018800003A8FFF7FCFE002801D5FF2017E09DF814
:101890000000002802D09DF8000010E09DF8010033
:1018A0002070BDF8020028809DF804003070BDF85B
:1018B00005003880BDF80700A8F8000000200AB035
:1018C000BDE8F08130B58FB004000D00202200216A
:1018D00007A800F04FF88DF81C40E4B2202C01DB83
:1018E0001F2201E0E4B2220029000DF11D0000F0EA
:1018F00036F81822002101A800F03CF80820ADF8C5
:1019000004000920ADF8060007A8039020200490E9
:1019100000A8059001200690002101A8FFF7AFFE66
:10192000002801D5FF2001E09DF800000FB030BD78
:1019300038B504000D006560FFF79DFD206031BDE6
:1019400010B50400FFF797FD2168401A401C61683C
:10195000814201D2012000E00020C0B210BD70B56C
:1019600004000D001600320029002000FFF71AF8CD
:10197000200070BD70B504000D0016002A00310073
:10198000200001F0D7F8200070BD010008B584B038
:101990000023029311B90093019302E00090481EC6
:1019A000019004AB00A907487844183001F0F6F81C
:1019B000009911B1009A00211170002858BF0298B7
:1019C00005B000BDC7FAFFFF10B50400002C01D11F
:1019D000012030E0A0690028FFD194F839000028E8
:1019E00005D1002084F83800200000F017FA02200A
:1019F00084F839002068C06830F400502168C8605D
:101A0000200000F008F92068006930F49040216857
:101A100008612068406930F02A0021684861206828
:101A2000C06850F400502168C8600020E0630120C5
:101A300084F83900002010BD2DE9F84304000D00A2
:101A400016001F005FF0000994F839008146B9F1D3
:101A5000010F02D0B9F1220F69D1002D02D0B6B228
:101A6000002E01D1012063E094F83800012801D153
:101A700002205DE0012084F838000020E06394F843
:101A80003900222803D1322084F8390002E01220E4
:101A900084F83900A684E684E08C00282DD0E08C00
:101AA000401EE084A068B0F5805F17D13B000022A3
:101AB0008021200000F03EF8002801D0032037E00C
:101AC000A846B8F80000C005C00D2168486020692C
:101AD000002801D1AD1CDFE76D1CDDE73B000022D3
:101AE0008021200000F026F8002801D003201FE00C
:101AF0002878216848606D1CCEE73B000022402119
:101B0000200000F017F8002801D0032010E094F81E
:101B10003900322803D1222084F8390002E0012064
:101B200084F83900002084F83800002000E002200A
:101B3000BDE8F2832DE9F04104000D0016001F00FE
:101B40005FF0000800F032FD8046F6B2002E2FD183
:101B5000206800682840A8425AD017F1010FF7D03A
:101B6000002F05D000F022FDB0EB08008742EFD235
:101B70002068C06830F080002168C8602068C068B4
:101B800030F020002168C8602068C06830F48070A0
:101B90002168C860206840694008400021684861A9
:101BA000012084F83900002084F83800032030E058
:101BB000206800682840A8422AD117F1010FF7D009
:101BC000002F05D000F0F2FCB0EB08008742EFD206
:101BD0002068C06830F080002168C8602068C06854
:101BE00030F020002168C8602068C06830F4807040
:101BF0002168C86020684069400840002168486149
:101C0000012084F83900002084F83800032000E027
:101C10000020BDE8F081F8B50400002520680069C7
:101C2000050035F44055E0680543206805612068EB
:101C3000C068050076480540A068216908436169CD
:101C40000843E169084305432068C560206840698E
:101C5000050035F44075A069054320684561E069D9
:101C6000B0F5004F69D120686A49884203D02068E6
:101C70006949884230D101F0EDFE070001F0EAFE2B
:101C8000060001F0E7FE192101FB07F1626852002E
:101C9000B1FBF2F16422B1FBF2F1192202FB06F270
:101CA00063685B00B2FBF3F21923584363685B007F
:101CB000B0FBF3F06423B0FBF3F0642303FB1020CC
:101CC000000132306422B0FBF2F010F00F0050EA55
:101CD00001102168886099E001F0A9FE070001F079
:101CE000A6FE060001F0A3FE192101FB07F16268C0
:101CF0005200B1FBF2F16422B1FBF2F1192202FBB6
:101D000006F263685B00B2FBF3F219235843636881
:101D10005B00B0FBF3F06423B0FBF3F0642303FB40
:101D20001020000132306422B0FBF2F010F00F00FE
:101D300050EA01102168886068E0206835498842CF
:101D400003D020683449884230D101F083FE070077
:101D500001F080FE060001F07DFE192101FB07F174
:101D600062689200B1FBF2F16422B1FBF2F1192238
:101D700002FB06F263689B00B2FBF3F2192358439F
:101D800063689B00B0FBF3F06423B0FBF3F06423C3
:101D900003FB1020000132306422B0FBF2F010F09F
:101DA0000F0050EA0110216888602FE001F03FFE2B
:101DB000070001F03CFE060001F039FE192101FB8D
:101DC00007F162689200B1FBF2F16422B1FBF2F11B
:101DD000192202FB06F263689B00B2FBF3F219239F
:101DE000584363689B00B0FBF3F06423B0FBF3F04F
:101DF000642303FB1020000132306422B0FBF2F0B8
:101E000010F00F0050EA011021688860F1BD000059
:101E1000F369FFFF001001400014014010B586B0C7
:101E20000400BF48006850F00100BD490860BC488C
:101E3000006810F0010000900098B948006850F068
:101E40000100B7490860B648006810F00100009032
:101E50000098B448006850F40030B2490860B148B6
:101E6000006810F4003000900098042001900220D7
:101E7000029001200390022004900720059001A900
:101E8000A94800F087F9082001900720059001A9D2
:101E9000A54800F07FF906B010BD80B5A348A4495D
:101EA00008604FF41650A24948600020A04988609D
:101EB00000209F49C86000209D49086100209C497E
:101EC00088610C209A4948619948FFF77DFD0028F8
:101ED00001D000F057F901BD10B58EB00BA895499F
:101EE0000CC90CC00839083809A893490CC90CC0A2
:101EF0000839083800F024FB0020FFF715F800210E
:101F00000020FFF778F801F0DBFDFFF7C6FF00F0D7
:101F100093FCFFF7C7FA00F0BAFC06A904A801F089
:101F2000F1FD00F0B4FCBDF818209DF810108348B6
:101F3000FEF7DAFF9DF81000312802DB012080490E
:101F4000087080480078002805D106220BA907A850
:101F5000FFF705FD04E0062209A907A8FFF7FFFC2B
:101F600007AA0621002001F0FFFD0400002C03D089
:101F700021007548FEF7B8FFFEF74FFD0400002C66
:101F800002D07248FEF7B0FF6E48007801281BD1DE
:101F90006B48007801280DD10DF11200019005A8C1
:101FA00000900DF11603072200210120FFF796F89B
:101FB000040024E00DF1120305AA0DF11601012021
:101FC000FFF7D3F804001AE05D48007801280DD12E
:101FD0000DF11200019005A800900DF116030722E3
:101FE00000210420FFF77AF8040008E00DF1120345
:101FF00005AA0DF116010320FFF7B7F80400002C25
:1020000002D05348FEF770FF012003905148029020
:1020100000200190102000900723002200210120C1
:10202000FFF793F90400002C02D14B48FEF75CFF48
:102030004448007801280FD14848FEF755FFFEF7C5
:10204000A9F80400002C03D14548FEF74DFF06E037
:102050004448FEF749FF02E04348FEF745FF0421EC
:10206000012001F0C3FD0400FFF749FA00F001F878
:10207000FAE700B585B03D480078002804D0FEF7A7
:10208000EFF80020394908702E480078002829D13F
:1020900037480068002806D036480078002802D16A
:1020A000FEF741F909E032480068002805D03248BF
:1020B0000078002801D1FEF758F92D480068002863
:1020C00010D02C48007800280CD02B48007800282D
:1020D00008D02A480078002804D10020FEF76CFFC1
:1020E000FEF72DFA0020FEF7DBFF002815D10020B7
:1020F000FEF7D6FF0028FAD01D48006800280CD053
:102100001E480078002808D000A81D491422FEF7B8
:1021100059FC142100A8FEF75BF905B000BD0000D2
:102120003038024040380240000002400044004085
:102130009803002058490008604900083848000802
:1021400031040020320400207C4600084C4800087E
:102150006048000840E20100D84700089C4600089B
:10216000BC460008DC460008FC4600088100002050
:10217000F003002036040020370400203304002040
:102180007448000880B50020FEF726FF642000F0A8
:1021900010FAF8E7F8B400230024002500263200E6
:1021A000102A80F0D6800126964033000E681E402B
:1021B00034009C4240F0CB804E68022E02D04E6824
:1021C000122E16D1D60810EB8606366A35000F2679
:1021D00012F00707FFB2BF00BE40B5430E6912F010
:1021E0000707FFB2BF00BE403543D60810EB860696
:1021F00035620668350003261700FFB27F00BE4037
:10220000B5430E7916F003061700FFB27F00BE40FB
:10221000354305604E68012E08D04E68022E05D069
:102220004E68112E02D04E68122E19D186683500E4
:1022300003261700FFB27F00BE40B543CE681700EB
:10224000FFB27F00BE4035438560466835000126F9
:102250009640B5434E68C6F3001696403543456038
:10226000C668350003261700FFB27F00BE40B543A5
:102270008E681700FFB27F00BE403543C5604E68D0
:10228000F60064D5494E366856F48046474F3E60A6
:10229000464E366816F480460096009E444E9708D7
:1022A00056F8276035000F2612F00307FFB2BF0073
:1022B000BE40B5433F4EB04201D1002614E03E4E31
:1022C000B04201D101260FE03C4EB04201D10226BE
:1022D0000AE03B4EB04201D1032605E0394EB04240
:1022E00001D1042600E00526F6B212F00307FFB282
:1022F000BF00BE4035432E4E970846F82750324E59
:1023000036683500A5434E68F60300D525432E4EAA
:1023100035602E4E36683500A5434E68B60300D5AD
:1023200025432A4E35602A4E36683500A5434E684F
:10233000F60200D52543264E3560264E3668350018
:10234000A5434E68B60200D52543224E3560521C87
:1023500026E7F1BC70470200136989B20B4202D034
:102360000123180001E000231800C0B27047D2B268
:10237000002A02D089B2816102E089B20B04836134
:102380007047426989B24A404261704710B5040003
:1023900011480068A4B2204206D0A4B20E480460DE
:1023A000200080B201F04FFC10BD00004438024014
:1023B00008380140000002400004024000080240CA
:1023C000000C024000100240003C0140043C01406F
:1023D000083C01400C3C0140143C014010F0070255
:1023E0004E4B1B6819004FF6FF0319404C4B53EA44
:1023F00002231943494B1960704748480068C0F3ED
:1024000002207047012110F01F029140454A40B25E
:10241000430942F823107047012110F01F02914038
:10242000414A40B2430942F82310704710B440B209
:10243000002808D50A013D4B40B210F00F04E31804
:1024400003F8042C03E00A01394B40B2C25410BC1B
:10245000704770B4030013F00704D4F10706052E8B
:1024600001D3042001E0D4F10700261D072E01D27C
:10247000002500E0E51E012616FA00F0401E084087
:10248000A8400121A940491E1140084370BC704773
:1024900010B50400601EB0F1807F01D301200EE072
:1024A000601E244908600F215FF0FF30FFF7BEFF78
:1024B000002021490860072020490860002010BD45
:1024C00010B504002000FFF789FF10BDF8B5040027
:1024D0000D0016000027FFF790FF070032002900CB
:1024E0003800FFF7B6FF0100200040B2FFF79EFF63
:1024F000F1BD10B50400200040B2FFF783FF10BD0E
:1025000010B50400200040B2FFF786FF10BD10B5E3
:1025100004002000FFF7BCFF10BD00000CED00E040
:102520000000FA0500E100E080E100E018ED00E0C5
:1025300000E400E014E000E018E000E010E000E05B
:1025400080B52248006850F40070204908601F4898
:10255000006850F480601D4908601C48006850F411
:1025600080701A4908600320FFF7AAFF0F2000F0CF
:1025700005F800F002F8002002BD704710B5040015
:1025800001F03FFA4FF47A71B0FBF1F0FFF7BFFFB3
:10259000002221005FF0FF30FFF798FF002010BD00
:1025A0000B480068401C0A490860704708480068EA
:1025B000704711B581B00024FFF7F8FF0400FFF762
:1025C000F5FF001B01998842F9D313BD003C02407E
:1025D000180400200060406070470168814201D10A
:1025E000012000E00020C0B2704702680A60486025
:1025F00001600A6851607047086042684A60416043
:102600004A68116070470168426811604168026859
:102610005160704738B504000D00206828602068BC
:10262000FFF7F1FF00202968086000202968486052
:1026300031BD200010B586B004002068DFF8C41456
:10264000884240F0D880DFF8C004006850F00100F4
:10265000DFF8B4140860DFF8B004006810F001007F
:1026600000900098DFF8A004006850F00200DFF846
:1026700098140860DFF89004006810F002000090E1
:102680000098DFF88404006850F00100DFF8781447
:102690000860DFF87404006810F0010000900098F2
:1026A000DFF86404006850F00100DFF85C14086093
:1026B000DFF85404006810F0010000900098DFF883
:1026C0004804006850F00100DFF83C140860DFF8AF
:1026D0003804006810F0010000900098DFF828042A
:1026E000006850F00100DFF820140860DFF81804DB
:1026F000006810F0010000900098DFF810040068F6
:1027000050F48050DFF804140860DFF8000400681B
:1027100010F48050009000984FF4807001900120D8
:10272000029001200390002004900020059001A950
:10273000DFF8DC03FFF72EFD00224FF48071DFF895
:10274000D003FFF714FE082001900220029002201F
:102750000390032004900520059001A9DFF8B4033D
:10276000FFF718FD40200190022002900020039006
:10277000032004900520059001A9DFF89403FFF7DA
:1027800009FD802001900220029000200390032088
:1027900004900520059001A9DFF87403FFF7FAFC07
:1027A0000220019001200290012003900320049058
:1027B0000020059001A9DFF85803FFF7EBFC012288
:1027C0000221DFF84C03FFF7D2FD01200190D2482F
:1027D000029000200390032004900020059001A99E
:1027E000CB48FFF7D7FC002203210620FFF76EFE3F
:1027F0000620FFF77EFE06B010BDFEB504000D00FA
:1028000016001F00C54800680A21B0FBF1F101A8BD
:10281000FFF78EF83800C0B200903300DBB22A0018
:102820002100BF4800F0B5F8002804D001A8FFF748
:1028300087F80028EED0F7BD80B5B248B8490860E7
:102840004FF48270B64948600020B5498860002086
:10285000B349C8600020B24908610020B04948610E
:102860004FF40070AE4988610020AD490862002035
:10287000AB4948620720AA49C8620820A849C86134
:102880000020A7498862A64801F0E2F901BD80B5A1
:1028900000224FF480719E48FFF769FD0520FFF785
:1028A00088FE01224FF480719948FFF760FD0520F2
:1028B000FFF77FFE01BD80B501219548FFF74BFD75
:1028C000012801D1012000E0002002BD2DE9F041E6
:1028D00086B004000D0016005FF00008FF208DF8A0
:1028E000050004A88F490CC90CC00839083800221B
:1028F00002218748FFF73BFD0F200090052302AA25
:1029000004A9200001F0EAF99DF8080002282BD163
:102910009DF80C009DF80B1051EA00200700BFB293
:10292000002F21D03000C0B280B2BFB2B84201D275
:10293000F6B23700002080464046C0B280B2BFB237
:10294000B84211D20F200090012301AA0DF1050118
:10295000200001F0C3F99DF804005FFA88F808F838
:10296000050018F10108E7E7012202216848FFF796
:10297000FEFC002000900098022804DA00BF0098B6
:10298000401C0090F7E75FFA88F8404606B0BDE8C3
:10299000F0812DE9F047C6B005000E0017009846FB
:1029A0004E9C5FF000095FF0000A03A85E490CC965
:1029B0000CC00839083801A85C490CC90CC008399A
:1029C000083800F095F8BAF1000F03D000F04FF886
:1029D00000F07AF8002202214D48FFF7C8FC0F20D2
:1029E0000090052301AA03A9280001F077F9BAF1A4
:1029F000000F01D000F050F89DF80400022828D103
:102A00009DF80500E4B254FA88F188421DDB5FFAB4
:102A100088F8B8F1000F0AD00F2000905FFA88F80C
:102A200043469BB205AA3100280001F057F9E4B2F1
:102A3000002C11D00F200090E4B223009BB205AA15
:102A40003900280001F04AF906E07FF001008146D4
:102A500002E05FF0FF308146012202212C48FFF79F
:102A600086FC00F040F8484646B0BDE8F08700B567
:102A700085B00120009001200190032003900020E8
:102A8000029000A92248FFF785FB0122012120487E
:102A9000FFF76DFC05B000BD00B585B001200090CA
:102AA0001D48019002200290032003900020049012
:102AB00000A91748FFF76EFB0020029000A91448F8
:102AC000FFF768FB05B000BD81B0002000900098C2
:102AD00040F26541884204DA00BF0098401C009033
:102AE000F5E701B0704780B50620FFF702FD01BD94
:102AF00080B50620FFF704FD01BD01200C490860E8
:102B00007047000000300140303802404438024035
:102B10000000024000040240000011109849000823
:102B200040030020804900088849000890490008B7
:102B3000143C014062F30F2262F31F42401810F070
:102B4000030308D0C91A1FD3DB0748BF00F8012DC3
:102B500028BF20F8022D130030B414461546103952
:102B600028BF20E93C00FAD8490728BF20E90C001B
:102B700048BF40F8042D890028BF20F8022D48BF27
:102B800000F8012D30BC7047C91818BF00F8012D9E
:102B9000CB0728BF00F8012D704700202DE9F04F2A
:102BA00080460FF2847095B092461D46D0E900230E
:102BB000CDE9132303AE00200391B0610DF1340978
:102BC00000E0A2440020ADF8020013AB4FF0FF324A
:102BD00051460DF1020001F0B3FA0446012C05DA6A
:102BE0009AF80000441EA441E443E40FBDF802003B
:102BF00025280CBFA4F1010BA346BBF1010F0EDB8E
:102C0000574617F8011B0398C0470028039000F0AF
:102C1000CE81B069401CBBF1010BB061F1D1BDF8B0
:102C20000200252804D10020F0603061706105E0C9
:102C30000028C6D1B069BCE140F001001AF8011FBC
:102C40002029F9D023290DD02B2904D02D2906D0F5
:102C500030290AD00CE040F0020080B2EEE740F0EC
:102C60000400FAE740F00800F7E740F01000F4E74E
:102C70002A290FD12968296051F8042B2960002ADC
:102C8000326204D5514240F00400316280B20AF150
:102C9000010A15E0002131620CE0316A6FF0004357
:102CA000994205D001EB810302EB430130393162D7
:102CB0000AF1010A9AF80020A2F130010A29ECD3A6
:102CC0009AF800102E2903D04FF0FF31F16122E075
:102CD0001AF8011F2A2908D1296829600AF1010A76
:102CE00051F8042B2960F26115E00021F1610CE03C
:102CF000F1696FF00043994205D001EB810302EBCB
:102D000043013039F1610AF1010A9AF80020A2F179
:102D100030010A29ECD3B0840FF214609AF8001045
:102D200001F01EFA08B11AF8010B8DF832009DF877
:102D30003200682804BF9AF80000682804D1622095
:102D40008DF832000AF1010A0DA8B0601AF8014BA3
:102D5000252C13D0582C40D0632C00F09880642C84
:102D600018BF692C71D06F2C37D0702C2BD0732CDE
:102D70000AD0752C18BF782C2FD0ABE00120F06062
:102D800025208DF83400AFE09DF832006C282868CB
:102D9000286014D050F8044B28607460F769002F45
:102DA00004D5204601F0E8F9074606E03A4600213E
:102DB000204601F0FDF900B1071B376194E050F89F
:102DC000042B28607FE02868286050F8041B2860E6
:102DD00002910DA87060782155E09DF832006C28B2
:102DE0000DD0712818BF6A2809D12868C01D20F0AD
:102DF00007022A60D2E9000108322A6004E029684B
:102E0000296051F8040B296002909DF8320068286F
:102E100002D102A8008803E0622802D102A800784B
:102E2000029096F82400000728D5029830B344F0A9
:102E30002000782822D1F068302100F80910401CC9
:102E4000411CF16000F8094018E09DF83200294665
:102E500000F0B2F80028029002D5F0682D2109E0B8
:102E6000B08C810702D5F0682B2103E0C00705D59F
:102E7000F068202100F80910401CF0600DA8F168EE
:102E800008187060214602A800F0CFF92CE09DF8E8
:102E900032006C2809D00120F0602868286050F8C2
:102EA000041B28608DF834101EE02868286001AAF1
:102EB00050F8041B2860ADF804100020ADF806009F
:102EC0004FF0FF30F06102A9404600F09BF8002867
:102ED0000AD56CE00120F06025208DF834001CB18B
:102EE0000220F06089F80140306AF168401A716987
:102EF000401A3169441A96F8240040070FD4202064
:102F00008DF80000002708E0012300AA02A940462E
:102F100000F0F2F900284AD17F1CA742F4DBF768E1
:102F20000DF1340B0AE01BF8011B0398C047002881
:102F300003903CD0B069401CB0617F1E002FF2D1DD
:102F400030208DF800004FF0000B776908E0012376
:102F500000AA02A9404600F0CFF940BB0BF1010BDB
:102F6000BB45F4DB3769D6F804B009E01BF8011B58
:102F70000398C0470390D0B1B069401CB0617F1E78
:102F8000002FF3D196F8240040077FF51BAE2020D8
:102F90008DF8000000E07F1CA742BFF613AE0123AE
:102FA00000AA02A9404600F0A7F90028F3D04FF08C
:102FB000FF3015B0BDE8F08F622815D068280CD01E
:102FC0006C2818BF742816D07A2814D10A680A60B1
:102FD00052F8040B0A60002170470A680A6052F830
:102FE000040B0A6000B20BE00A680A6052F8040B96
:102FF0000A6040B204E00A680A6052F8040B0A60F2
:10300000C11770472DE9F44F0D4694B0D5F820A0B4
:10301000BAF1000F804648BF6FF0004A01F0F4F8A3
:10302000696A401801900FF21030D0E90023CDE911
:10303000022395F82800400702D40198412805D2C0
:1030400040200DF110090190002607E001F0E2F8A0
:103050005FEA0009F8D1AAE7AAEB040ABAF1010F66
:10306000C0F28B801498018802AA0DF1010001F0D2
:1030700029F90028044600F18E801498008810B9C0
:10308000641E00F18880A24577DB28690199221827
:10309000914260D26E624042A969401A6969461A3B
:1030A00095F8280040070FD420208DF80000002755
:1030B00008E0012300AA2946404600F01DF9002837
:1030C00069D17F1CB742F4DB2F69CB460AE01BF8BD
:1030D000011B6868C047002868605CD0E869401C34
:1030E000E8617F1E002FF2D130208DF800004FF0F4
:1030F000000BAF6909E0012300AA2946404600F011
:10310000FBF8002847D10BF1010BBB45F3DB6F69DE
:10311000D5F808B009E01BF8011B6868C047686073
:10312000C8B3E869401CE8617F1E002FF3D195F811
:10313000280040070DD520208DF8000007E001236E
:1031400000AA2946404600F0D7F820BB7F1CB742B2
:10315000F5DB00262E61224628690DF10101484465
:10316000FDF720FC2869201828611498801C149011
:10317000801E008800287FF46FAF686A2969401AB2
:10318000A969401A6969A0EB010A95F8280040076F
:1031900010D400240CE04FF0FF363EE06868202198
:1031A000C04700286860F6D0E869401CE861641CEC
:1031B0005445F3DB2B694A462946404600F09CF80B
:1031C0000028E8D1AC69002709E068683021C047D1
:1031D00000286860DFD0E869401CE8617F1CA742D6
:1031E000F3DB6B69AA682946404600F085F80028A1
:1031F000D1D195F8280040070DD5002409E0686872
:103200002021C04700286860C5D0E869401CE861FB
:10321000641C5445F3DB2E616E6204A881451CBF1B
:10322000484601F05DF83046C3E6F0B4C2686F2945
:1032300008BF082405D041F02003782B14BF0A24CE
:10324000102418230668642918BF6929374602D15B
:10325000002E48BF7F425FB9056A4DB9082C27D1BF
:1032600090F82810090723D530211723D1751FE0C6
:10327000B7FBF4F604FB16773037FFB25D1E3A2F2A
:10328000A4BFA1F1510C6744AF542B46370003D0C3
:1032900085689E18B542EBD3082C09D190F8281008
:1032A000090705D5995C302902D05B1E302199545D
:1032B0009A188260C3F11801026A4161914208DAEA
:1032C000511A81614FF6EF72018D11400185F0BCFA
:1032D0007047002A0ED590F8282002F01402102A18
:1032E00008D1426A0369D21A8369D21A531A012B90
:1032F000A8BF8361F0BC7047F8B504460D4616467A
:103300001F46002004E0E869401CE8617F1E0020A1
:1033100047B116F8011B6868A04700286860F2D121
:103320004FF0FF30F2BD0000000000000000000080
:10333000686C747A4C00000000000000000000007F
:1033400070B582B0040000252078C0075AD5DFF898
:103350002C07006810F00C0004280BD0DFF81C07C5
:10336000006810F00C0008280ED1DFF81407006880
:10337000400209D5DFF80C070068800342D5606879
:1033800000283FD10120A2E10020DFF8FC160870E0
:10339000FFF70CF90500DFF8EC060068800308D59C
:1033A000FFF704F9401B41F289318842F3D303202F
:1033B0008DE16068DFF8D01608706068002810D0D2
:1033C000FFF7F4F80500DFF8BC060068800319D4A5
:1033D000FFF7ECF8401B41F289318842F3D3032018
:1033E00075E1FFF7E3F80500DFF898060068800351
:1033F00008D5FFF7DBF8401B41F289318842F3D34F
:10340000032064E12078800766D5DFF87006006845
:1034100010F00C0F0BD0DFF86406006810F00C0001
:1034200008281FD1DFF85806006840021AD4DFF8D8
:1034300054060068800704D5E068012801D0012007
:1034400045E1DFF8400600685FF0F851B1FA81F11C
:1034500030F0F800226912FA01F10843DFF824166F
:10346000086039E0E068002823D00120DFF81C164E
:103470000860FFF79BF80500DFF808060068800782
:1034800006D4FFF793F8401B6528F5D303201EE10F
:10349000DFF8F00500685FF0F851B1FA81F130F023
:1034A000F800226912FA01F10843DFF8D815086024
:1034B00012E00020DFF8D4150860FFF777F8050068
:1034C000DFF8C0050068800706D5FFF76FF8401BDE
:1034D0006528F5D30320FAE02078000728D5606935
:1034E000002812D00120DFF8A8150860FFF75EF869
:1034F0000500DFF8A0050068800719D4FFF756F82B
:10350000401B6528F5D30320E1E00020DFF880159B
:103510000860FFF74BF80500DFF8780500688007C2
:1035200006D5FFF743F8401B6528F5D30320CEE00E
:103530002078400763D5DFF86005006850F08050C0
:10354000DFF854150860DFF85005006810F080506F
:1035500000900098DFF84405006850F48070DFF8B0
:103560003C150860FFF722F80500DFF83005006819
:10357000C00506D4FFF71AF8401B6528F5D30320D1
:10358000A5E00020DFF818150870FFF70FF8050018
:10359000DFF80C050068800708D5FFF707F8401B27
:1035A00041F289318842F3D3032090E0A068DFF82C
:1035B000F0140870A068002810D0FEF7F7FF05008F
:1035C000DFF8DC040068800719D4FEF7EFFF401B2A
:1035D00041F289318842F3D3032078E0FEF7E6FF19
:1035E0000500DFF8BC040068800708D5FEF7DEFFA1
:1035F000401B41F289318842F3D3032067E0A06980
:10360000002863D0DFF87404006810F00C0008286C
:103610005AD0A069022844D10020DFF8881408603D
:10362000FEF7C4FF0500DFF85C040068800106D5E2
:10363000FEF7BCFF401B6528F5D3032047E0DFF809
:103640006804B0FA80F24FF44040B0FA80F0F02104
:10365000B1FA81F1E369266A3343666A16FA02F227
:103660001A43A36A5B085B1E13FA00F01043E26A78
:1036700012FA01F10843DFF8081408600120DFF8AE
:1036800024140860FEF792FF0500DFF8F8030068D5
:1036900080011BD4FEF78AFF401B6528F5D3032069
:1036A00015E00020DFF8FC130860FEF77FFF05003F
:1036B000DFF8D0030068800108D5FEF777FF401BD4
:1036C0006528F5D3032002E0012000E0002076BD4C
:1036D00070B504000D000026DFF8D003006810F07C
:1036E0000F00A84280F08F80DFF8C0030570DFF87C
:1036F000BC03006810F00F00A84201D001202AE1AD
:103700002078800709D5DFF87403006830F0F000F6
:10371000A1680843DFF8641308602078C00740F10F
:10372000FD806068012806D1DFF858030068800337
:1037300015D401200FE16068022802D060680328D8
:1037400006D1DFF840030068800108D4012002E1BF
:10375000DFF830030068800701D40120FBE0DFF8C8
:103760001C0300688008800061680843DFF80C13C0
:103770000860FEF71BFF06006068012810D1DFF823
:10378000FC02006810F00C00042800F0C780FEF76F
:103790000DFF801B41F289318842F0D30320DAE02B
:1037A0006068022810D1DFF8D402006810F00C0025
:1037B000082800F0B380FEF7F9FE801B41F2893142
:1037C0008842F0D30320C6E0606803280BD1DFF8FD
:1037D000AC020068FEF7EAFE801B41F289318842A4
:1037E000F5D30320B7E0DFF89402006810F00C0F67
:1037F00000F09480FEF7DAFE801B41F289318842A6
:10380000F1D30320A7E02078800709D5DFF86C0208
:10381000006830F0F000A1680843DFF8601208602B
:103820002078C0076ED56068012806D1DFF8540201
:103830000068800315D401208DE06068022802D062
:103840006068032806D1DFF83C020068800108D4D4
:10385000012080E0DFF82C020068800701D40120FD
:1038600079E0DFF81802006880088000616808438A
:10387000DFF808120860FEF799FE0600606801286C
:103880000FD1DFF8F801006810F00C00042839D0DF
:10389000FEF78CFE801B41F289318842F1D3032070
:1038A00059E0606802280FD1DFF8D001006810F0FD
:1038B0000C00082826D0FEF779FE801B41F28931E2
:1038C0008842F1D3032046E0606803280BD1DFF87B
:1038D000AC010068FEF76AFE801B41F28931884224
:1038E000F5D3032037E0DFF89401006810F00C0FE7
:1038F00008D0FEF75BFE801B41F289318842F2D38B
:10390000032028E0DFF8A4010570DFF8A0010068BB
:1039100010F00F00A84201D001201CE020784007E1
:1039200009D5DFF85801006830F4E050E168084339
:10393000DFF8481108602078000708D54F48006874
:1039400030F46040216950EAC1004C4908600F2002
:10395000FEF714FE002070BDF0B400210022002309
:103960000020464C246814F00C04002C04D0042CD5
:1039700005D0082C06D040E04D4C20003FE04D4CD7
:1039800020003CE03E4C246814F03F0421003C4CF5
:103990002468640210D53A4C2468464DB5FBF1F515
:1039A00047F6C0763440404EB6FA86F62700F74018
:1039B00007FB05F422000FE0314C24683C4DB5FBB9
:1039C000F1F547F6C0763440374EB6FA86F6270052
:1039D000F74007FB05F42200294C246814F4403416
:1039E0004FF44045B5FA85F52600EE40741C64009E
:1039F0002300B2FBF3F4200001E02D4C2000F0BCCA
:103A0000704710B5FFF7A8FF1C4909685FF07062A6
:103A1000B2FA82F2284B11F0F0010C00D440E15CC4
:103A20000200CA40254802602448006810BD10B555
:103A3000FFF7E7FF0100114800685FF46012B2FA77
:103A400082F21D4B10F4E0500400D440E25C080008
:103A5000D04010BD10B5FFF7D4FF01000748006843
:103A60005FF4E022B2FA82F2134B10F460400400DB
:103A7000D440E25C0800D04010BD0000083802408D
:103A80000438024000380240023802400000474239
:103A9000800E4742743802404038024000700040B7
:103AA00070380240600047420000FE03003C0240C4
:103AB0000024F40000127A00204900087C00002055
:103AC00000B591B0022000900120039006200490E0
:103AD0000220069000200790102008904FF480707C
:103AE000099008200A9004200B9000A8FFF728FCFA
:103AF00001200C9002200D9001210CA8FFF7E8FD99
:103B000011B000BD70B584B004000D0001A8009094
:103B10000DF10A0302AA0DF106010DF10900FDF7EE
:103B20008DFE0600F6B2002E18D1BDF8060080B258
:103B3000000A2070BDF80600000228802888BDF821
:103B40000410C9B20909C9B250EA011028802888B6
:103B5000BDF8041011F00F0108432880FDF7CFFCD9
:103B60003000C0B204B070BDF0B5A7B004000D00C5
:103B700016000027EDB2A81C812801DB422033E0AB
:103B800007A8FFB23C547F1C07A8FFB23D547F1C1E
:103B9000EDB22A00310007A8FFB23818FDF7DFFEAA
:103BA000EF191822002101A8FDF7E4FE3F20ADF82F
:103BB00004000C20ADF8060007A80390FFB204979C
:103BC00000A8059001200690002101A8FDF757FDEF
:103BD000002801D5FF2007E09DF80000002802D052
:103BE0009DF8000000E0002027B0F0BD30B589B09E
:103BF00004000D008DF804408DF8055018220021B6
:103C000002A8FDF7B7FE3F20ADF808000F20ADF881
:103C10000A0001A804900220059000A80690012047
:103C20000790002102A8FDF72AFD002801D5FF20FA
:103C300007E09DF80000002802D09DF8000000E099
:103C4000002009B030BD10B50400FDF79BFC10BD8D
:103C500010B50400002C01D101203EE094F8510081
:103C6000002805D1002084F850002000FEF7E2FC77
:103C7000022084F851002068006830F0400021687C
:103C800008606068A1680843E16808432169084347
:103C900061690843A16911F400710843E1690843AF
:103CA000216A0843A16A084321680860A069000CE2
:103CB00010F00400616A084321684860E06A2168E6
:103CC00008612068C06930F400602168C861002084
:103CD0006065012084F85100002010BD2DE9F047F7
:103CE00082B004000D0016001F00DDF828805FF090
:103CF00000095FF0000A94F851008146B9F1010F04
:103D000003D0B9F1220F40F09F81002D04D0002E86
:103D100002D0BFB2002F01D1012096E194F85000EB
:103D2000012801D1022090E1012084F8500094F88C
:103D30005100012802D1322084F851000020606532
:103D4000A663A787E7872563A786E7860020A06488
:103D50000020E064A06AB0F5005F0BD12068006825
:103D600030F40050216808602068006850F400506A
:103D70002168086020680068400605D42068006853
:103D800050F0400021680860E068B0F5006F40F036
:103D900088806068002806D06068B0F5827F0CD10A
:103DA000E08E012809D1206B00882168C860206B53
:103DB000801C2063E08E401EE086E08E00281ED12D
:103DC000A06AB0F5005F05D12068006850F480500B
:103DD00021680860434600220121200000F037F9E5
:103DE000002801D0032030E12068C068A16B088062
:103DF000A06B801CA063E08F401EE087D0E0E08EC7
:103E0000002835D0434600220221200000F01FF98F
:103E1000002801D0032018E1206B00882168C860C9
:103E2000206B801C2063E08E401EE086E08E002820
:103E300009D1A06AB0F5005F05D12068006850F490
:103E4000805021680860434600220121200000F0D4
:103E5000FEF8002801D00320F7E02068C068A16BBD
:103E60000880A06B801CA063E08F401EE087C6E73F
:103E70006068002840F09480434600220121200021
:103E800000F0E5F8002801D00320DEE02068C068DB
:103E9000A16B0880A06B801CA063E08F401EE087B0
:103EA0007EE06068002806D06068B0F5827F0BD1A4
:103EB000E08E012808D1206B411C21630078216825
:103EC000C860E08E401EE086E08E00281BD1A06A0C
:103ED000B0F5005F05D12068006850F4805021687B
:103EE0000860434600220121200000F0B0F80028BD
:103EF00001D00320A9E02068C068A16B0870E08FA2
:103F0000401EE0874CE0E08E002833D0434600227C
:103F10000221200000F09BF8002801D0032094E04B
:103F2000206B411C216300782168C860E08E401E30
:103F3000E086E08E002809D1A06AB0F5005F05D1C7
:103F40002068006850F480502168086043460022D1
:103F50000121200000F07BF8002801D0032074E04C
:103F6000A06B411CA1632168C9680170E08F401EED
:103F7000E087C8E76068002812D14346002201218B
:103F8000200000F064F8002801D003205DE0A06B61
:103F9000411CA1632168C9680170E08F401EE08761
:103FA000A06AB0F5005F13D1434600220121200032
:103FB00000F04DF8002805D0606D50F002006065FB
:103FC000032042E02068C068ADF80000BDF80000A2
:103FD000434601228021200000F039F8002805D056
:103FE000606D50F02000606503202EE0012084F811
:103FF000510020688068000910F001008246A06A24
:10400000B0F5005F1BD1BAF1000F18D0606D50F011
:1040100002006065A06AB0F5005F0BD120680068FF
:1040200030F40050216808602068006850F40050A7
:1040300021680860002084F85000012005E000207D
:1040400084F85000002000E00220BDE8F6872DE94A
:10405000F04104000D0016001F005FF00008FEF79D
:10406000A5FA8046F6B2002E33D120688068284039
:10407000A84262D017F1010FF7D0002F05D0FEF74C
:1040800095FAB0EB08008742EFD22068406830F024
:10409000E000216848602068006830F04000216836
:1040A0000860A06AB0F5005F0BD12068006830F4AA
:1040B0000050216808602068006850F400502168B2
:1040C0000860012084F85100002084F8500003208B
:1040D00034E0206880682840A8422ED117F1010FF3
:1040E000F7D0002F05D0FEF761FAB0EB0800874249
:1040F000EFD22068406830F0E00021684860206816
:10410000006830F0400021680860A06AB0F5005FE8
:104110000BD12068006830F40050216808602068E6
:10412000006850F4005021680860012084F85100B4
:10413000002084F85000032000E00020BDE8F0815A
:10414000F8B504460D4616461F4600F009F93B46F1
:1041500032462946204601B0BDE8F04000F017B9CC
:104160000278C9B28A421AB11CBF10F8012FF9E7D0
:1041700018BF00207047280000F10103810704D018
:1041800010F8011B89B18107FAD10268B2F101313F
:10419000914311F0803F04BF50F8042FF6E710F868
:1041A000011B11B110F8011BFBE7C01A704700009A
:1041B000C9B2830706D0521E22D310F8013B9942A0
:1041C000F7D11FE0083A13D302F1040241EA0121BA
:1041D00041EA014150F8043B121F21BF4B40A3F1BB
:1041E000013C2CEA030C1CF0803FF3D0C9B2001F45
:1041F000083210F8013B521E28BF91EA030FF8D88D
:1042000018BF0120401E704780B500F0A9F80120BA
:1042100002BD000070B5054605F10F00C408C04698
:10422000C046E400A54232D2082C04D2082402E0A1
:10423000083000F055F82248026811000CD1011D29
:104240000A6802B31368A34238BF111DF8D310E007
:104250001D68A5420DD2191D0B68002BF8D11268FC
:10426000011D00E0191D0B6893420CD01D68A5428A
:10427000F8D361B10D682A68A2F10803A3420AD2FB
:104280006A680A600FE000F0A5F80028D0D1C046A7
:10429000C046002070BD63190B60121B6E685E6023
:1042A0000B681A602C60096800291DBF4A68002A43
:1042B000091D00210160C046C04605F1080070BD1F
:1042C000E803002070B504460D46164600F048F895
:1042D000324629462046BDE8704000F04BB8000049
:1042E00000B9704738B5A0F108042068082833D316
:1042F00010F0070F30D1C046C0461848416809B1D8
:104300008C4203D26160446017E019464B680BB1E0
:10431000A342FAD30B685D18AC421BD3A54204D16B
:104320002268D2180A600C4607E04A681AB123686E
:104330001B199A420ED362604C60616851B12268C9
:1043400013198B4206D1002303600868801820608F
:1043500048686060C046C04631BD0000E8030020E8
:1043600080B5DFF80C0000F04BF8806902BD00005A
:104370000800002030B430B90FF24800D0E9004501
:10438000C2E900451BE00170012030BC704730B429
:1043900031B90FF23800D0E90045C3E900450EE01D
:1043A0001AB930BC6FF00100704708B10A7802807A
:1043B0000978481E804130BCC043C00F70470020C0
:1043C00030BC70470000000000000000000000004A
:1043D000000000000749086808B10020704706483F
:1043E000C008C00008600549C908C900091A016071
:1043F000704700BF2004002047080020400A00202A
:10440000704700001248006850F4700010490860BE
:104410001048006850F001000E49086000200E4965
:1044200008600C4800680D4908400A4908600C48BB
:104430000C4908600748006830F48020054908608E
:104440000020094908605FF0006008490860704773
:1044500088ED00E00038024008380240FFFFF6FE19
:1044600010300024043802400C38024008ED00E00F
:1044700053616D706C652053657276696365206168
:10448000646465642E0A5458204368617220486150
:104490006E646C6520253034582C205258204368B7
:1044A00061722048616E646C6520253034580A00C2
:1044B0007047FEE770477047704780B5FEF770F8A9
:1044C00009480068401C0849086001BD80B501200A
:1044D000FDF75CFF01BD80B54FF40050FDF756FFBE
:1044E00001200249087001BD1C040020380400208E
:1044F00019E050F8041BCB0744BFA9F10103591878
:10450000121F0023042A41F8043BF9D25FEA827C9F
:104510000B4604D54FF0000CA1F800C09B1CD1073E
:1045200044BF0021197050F8042B002AE1D17047D4
:104530002564207061636B6574732E20456C617017
:104540007365642074696D653A202564206D732E4F
:1045500020417070207468726F7567687075743A66
:10456000202564206B6270732E0A00004556545F4C
:10457000424C55455F474154545F444953435F5251
:104580004541445F434841525F42595F5555494454
:104590005F524553500A000010B450F8041B79B123
:1045A0000268436812180830DC0744BFA9F101040F
:1045B000E31852F8044B43F8044B091FF9D1ECE718
:1045C00010BC704710B5074979441831064C7C443B
:1045D000163404E00A68081D511888470146A142B4
:1045E000F8D110BD74000000940000004572726F95
:1045F00072207768696C6520616464696E67205316
:10460000616D706C6520536572766963652E0A0072
:104610004572726F72207768696C6520737461727D
:1046200074696E6720636F6E6E656374696F6E2E5A
:104630000A0000004EF68851CEF20001086840F4EE
:1046400070000860BFF34F8FBFF36F8F4FF00070A3
:10465000E1EE100A7047000099FEFFFFB80300006A
:10466000840000200000000031FFFFFF84000000F4
:104670001004000000000020000000005365747466
:10468000696E672042445F41444452206661696C10
:104690006564203078253032782E0A005345525612
:1046A00045523A20424C4520537461636B20496E59
:1046B000697469616C697A65640A00005365727691
:1046C0006963652061646465642073756363657301
:1046D0007366756C6C792E0A000000004572726F6B
:1046E00072207768696C6520616464696E67207305
:1046F0006572766963652E0A00000000434C4945E7
:104700004E543A20424C4520537461636B20496EED
:10471000697469616C697A65640A00005374617236
:10472000742072656164696E672054582043686123
:10473000722048616E646C650A00000053746172F7
:10474000742072656164696E672052582043686105
:10475000722048616E646C650A000000436C6965F4
:104760006E742043726561746520436F6E6E65637D
:1047700074696F6E0A00000047656E6572616C2097
:10478000446973636F76657261626C65204D6F6416
:104790006520000000F00BF8002801D0FFF712FFA1
:1047A0000020C046C046FDF797FB00F002F801204C
:1047B000704700F001B800000746384600F002F8E4
:1047C000FBE7000080B5C046C046024A1100182031
:1047D000ABBEFBE726000200424C452053746163E8
:1047E0006B20496E697469616C697A65642E0A0090
:1047F000436F6E6E656374656420746F20646576C4
:104800006963653A000000005458204368617220D3
:1048100048616E646C6520253034580A0000000041
:10482000525820436861722048616E646C6520258F
:104830003034580A0000000048577665722025641D
:104840002C20465776657220256400004741545459
:104850005F496E6974206661696C65642E0A0000A8
:104860004741505F496E6974206661696C65642ECA
:104870000A0000003031323334353637383941429E
:10488000434445464748494A303132333435363758
:104890003839414243444546000000002564206CFD
:1048A0006F7374207061636B65742873290A00004C
:1048B000669A0C200008969EE2119EB1E0F273D930
:1048C000669A0C200008969EE2119EB1E1F273D91F
:1048D000669A0C200008969EE2119EB1E2F273D90E
:1048E00009426C75654E52475F4368617400000071
:1048F000669A0C200008969EE2119EB1E1F273D9EF
:10490000669A0C200008969EE2119EB1E2F273D9DD
:10491000446973636F6E6E65637465640A000000BA
:104920000000000001020304010203040607080955
:104930000148804701480047054400084D490008E8
:10494000546573742073746172740A00C046C04663
:10495000FFF770FEFFF71EFFBB0000E180020000C2
:10496000AA0000E180020000AA0000E1800200002D
:10497000253032582D000000253032580A00000042
:104980000B000000000000000A0000000000000012
:10499000AA00000000000000E8030000FFF7FEBFCF
:1049A000FFF7FEBFFFF7FEBFFFF7FEBFFFF7FEBF3B
:1049B000FFF7FEBFFFF7FEBFFFF7FEBFFFF7FEBF2B
:1049C000FFF7FEBFFFF7FEBFFFF7FEBFFFF7FEBF1B
:1049D000FFF7FEBFFFF7FEBFFFF7FEBFFFF7FEBF0B
:1049E000FFF7FEBFFFF7FEBFFFF7FEBFFFF7FEBFFB
:1049F000FFF7FEBFFFF7FEBFFFF7FEBFFFF7FEBFEB
:104A0000FFF7FEBFFFF7FEBFFFF7FEBFFFF7FEBFDA
:104A1000FFF7FEBFFFF7FEBFFFF7FEBFFFF7FEBFCA
:104A2000FFF7FEBFFFF7FEBFFFF7FEBFFFF7FEBFBA
:104A3000FFF7FEBFFFF7FEBFFFF7FEBFFFF7FEBFAA
:104A4000FFF7FEBFFFF7FEBFFFF7FEBFFFF7FEBF9A
:104A5000FFF7FEBFFFF7FEBFFFF7FEBFFFF7FEBF8A
:104A6000FFF7FEBFFFF7FEBFFFF7FEBFFFF7FEBF7A
:104A7000FFF7FEBFFFF7FEBFFFF7FEBFFFF7FEBF6A
:104A80000000000000000000000000000000000026
:104A90000000000000000000000000000000000016
:104AA0000000000000000000000000000000000006
:104AB00000000000000000000000000000000000F6
:104AC00000000000000000000000000000000000E6
:104AD00000000000000000000000000000000000D6
:104AE00000000000000000000000000000000000C6
:104AF0000000000000000240000802400024F40012
:044B000001010000AF
:00000001FF
