:020000040800F2
:1000000070080020B5410008994000089B40000896
:10001000D5410008D9410008DD410008000000007A
:100020000000000000000000000000009D400008EB
:100030009F40000800000000A1400008A340000805
:10004000E1410008E5410008E9410008ED410008F0
:10005000F1410008F5410008B3400008F9410008EB
:10006000FD4100080142000805420008094200085D
:100070000D4200081142000815420008194200080C
:100080001D420008214200082542000829420008BC
:100090002D4200083142000835420008394200086C
:1000A0003D4200084142000845420008494200081C
:1000B0004D420008514200085542000859420008CC
:1000C0005D4200086142000865420008694200087C
:1000D0006D4200087142000875420008794200082C
:1000E000B94000087D4200088142000885420008AE
:1000F000894200088D42000891420008954200089C
:10010000994200089D420008A1420008A54200084B
:10011000A9420008AD420008B1420008B5420008FB
:10012000B9420008BD420008C1420008C5420008AB
:10013000C9420008CD420008D1420008D54200085B
:10014000D9420008DD420008E1420008E54200080B
:10015000E9420008ED420008F1420008F5420008BB
:10016000F9420008FD420008014300080543000869
:10017000094300080D430008114300080000000077
:1001800015430008194300082DE9F047044682B0E2
:100190002078DFF8B857DFF8B067C00625D5B0681B
:1001A00010F00C0F3AD13068C0F3400010B1A069D4
:1001B000002831D0306800074EBF306868680009F9
:1001C00000F0F001206A814206D200F081FB002895
:1001D00022D100F0DDF905E000F0DAF9206A00F044
:1001E00077FBC8B90F2000F0DEFB2078C00741F292
:1001F000893876D500F0D7FA07D000F0D9FA02BFD7
:10020000F06800F0030003282ED100F0BDF90028AB
:1002100067D06068002864D10120A3E1A0690028AC
:10022000306811D040F0010000F0A5F907463068B1
:10023000C0F3400028B900F0CDFBC01B6528F6D301
:100240008DE100F0A5F9D0E74008400000F093F9F7
:1002500007463068C0F340000028C6D000F0BAFB63
:10026000C01B6528F5D37AE100F088F920F48020DE
:1002700000F081F9074600F087F928B100F0AAFBE9
:10028000C01B4045F7D36AE16068B0F5803F07D0F6
:10029000B0F5A02F00F072F906D140F48020306054
:1002A000306840F4803001E020F4802030606068E5
:1002B00058B100F08FFB074600F066F988B900F0EE
:1002C00089FBC01B4045F7D349E100F083FB07469B
:1002D00000F05AF928B100F07DFBC01B4045F7D370
:1002E0003DE12078800718D500F058FA07D000F0DB
:1002F0005FFA02BFF06800F00300022825D13068E1
:10030000C0F3802010B1E068002885D070682169B2
:1003100020F0F85040EA016070602078000748D56E
:1003200060690028686834D040F00100686000F01F
:1003300051FB07466868C0F34000002839D100F03F
:1003400049FBC01B6528F5D309E1E0680028306847
:100350000FD040F4807000F00EF907463068C0F30B
:1003600080200028D2D100F035FBC01B6528F5D3D2
:10037000F5E020F4807000F0FEF807463068C0F326
:1003800080200028C9D000F025FBC01B6528F5D3CC
:10039000E5E040084000686000F01CFB0746686824
:1003A000C0F3400028B100F015FBC01B6528F6D350
:1003B000D5E02078400773D5B06DC0004FF000093C
:1003C0000AD4B06D40F08050B0654FF00109B06DB7
:1003D00000F0805000900098DFF874A5DAF8000073
:1003E000C00512D4DAF8000040F48070CAF80000AA
:1003F00000F0F0FA0746DAF80000C00505D400F076
:10040000E9FAC01B6528F6D3A9E0286800F0ACF82B
:10041000286000F0DFFA07462868C0F3400028B1E2
:1004200000F0D8FAC01B4045F6D398E0A068012838
:100430000CD008B928680DE0052828680AD14008C2
:1004400040002860286840F004002860286840F0D8
:10045000010001E000F088F82860A06860B100F0B9
:10046000B9FA07462868C0F3400090B900F0B2FA24
:10047000C01B4045F6D372E000F0ACFA074628688E
:10048000C0F3400028B100F0A5FAC01B4045F6D3E8
:1004900065E0B9F1000F03D0B06D20F08050B06579
:1004A000606A00285DD0B16801F00C010C293FF4AE
:1004B000B3AE0228306820F0807030603AD100F08E
:1004C00089FA07463068C0F3406028B100F082FA2C
:1004D000C01B6528F6D342E0E06A216B401E09028A
:1004E00041EA0010616B090940EA4140A16A0843F2
:1004F000A16B891E0905490D40EA4150E16B891E37
:10050000090601F07E410843F060306840F08070D9
:100510003060F06840F08070F06000F05BFA0746F1
:100520003068C0F34060E0B900F054FAC01B6528A1
:10053000F6D314E0F068DFF81C1480088000F06047
:10054000F0680840F06000F045FA07463068C0F3F4
:10055000406030B100F03EFAC01B6528F6D303209E
:1005600000E00020BDE8F6874008400028602868C9
:1005700020F004007047306000F02CBA306820F49E
:1005800080303060306870473068C0F3404070475A
:10059000306840F0080030603068216A20F0F000D8
:1005A000084330607068E16920F47F4040EA012030
:1005B000706070472DE9F843DFF89C53DFF88863DB
:1005C000044628680F4600F00700B84241F2893817
:1005D0005BD2002F18BF012F04D0022F1CBF032FA6
:1005E000042F04D12868C00847EAC00000E028684A
:1005F00000F0C7F816D100F0E0F840F1A98060687B
:10060000022803D13168C1F340410AE0032803D135
:100610003168C1F3406104E00028316803D1C1F3BF
:10062000400121B992E0C1F380210029FAD000F005
:10063000AEF805466068022808D100F0B4F809D089
:1006400000F0C8F9401B4045F7D36BE0032808D100
:1006500000F0AEF87CD000F0BDF9401B4045F7D368
:1006600060E048B9B06810F00C0F71D000F0B2F93A
:10067000401B4045F6D355E000F090F868D000F0FC
:10068000A9F9401B4045F7D34CE000F096F84BD554
:100690006068022803D13168C1F3404109E018B90C
:1006A0003168C1F3400104E00328316803D1C1F38C
:1006B000406121B94AE0C1F38021002946D000F011
:1006C00066F881466068022809D100F06CF82BD0EA
:1006D00000F080F9A0EB09004045F6D322E00328A2
:1006E00009D100F065F81FD000F074F9A0EB090003
:1006F0004045F6D316E060B9B06810F00C0F13D087
:1007000000F068F9A0EB090041F288318842F3D388
:1007100008E000F043F807D000F05CF9A0EB090016
:100720004045F6D303202AE0002F18BF012F04D044
:10073000022F1CBF032F042F04D12868C00847EAEA
:10074000C00000E0286800F01CF801D0012016E08D
:100750002078400705D5B068E16820F4E0600843E0
:10076000B0602078000706D5B068216920F4605099
:1007700040EAC100B0600F2000F015F90020BDE88C
:10078000F2832860286800F00700B8427047B1681B
:10079000890840EA8100B06000F01CB9B06800F040
:1007A0000C0004287047B06800F00C00082870475F
:1007B000B06800F00C000C2870472078800705D541
:1007C000B068A16820F0F0000843B0602078C0074E
:1007D00070475D498B680022002003F00C03042B56
:1007E00008BF5F4827D08B6803F00C03082B08BFB5
:1007F0005C4820D08B6813F00C0F09D08B6803F095
:100800000C030C2B02BFCB6803F00303012B12D1A6
:100810000A68120704D4544A1268C2F3032202E0A1
:100820000A68C2F30312514B53F822208B6813F06D
:100830000C0F08BF10468B6803F00C030C2B1ED165
:10084000C868CB68C3F302135B1C00F003000228E6
:1008500002D0032802D005E0414800E04148B0FB47
:10086000F3F001E0B2FBF3F0CA68C968C1F341617B
:10087000C2F30622491C50434900B0FBF1F0704717
:1008800080B5FFF7A6FF354B394A1B683949C3F3DA
:1008900003139A5C20FA02F30B60086802BD80B56E
:1008A000FFF7EEFF00F00EF8C2F3022206E080B57B
:1008B000FFF7E6FF00F006F8C2F3C222125C21FA4D
:1008C00002F002BD254A126801460FF2B0007047DF
:1008D00070B5294E82B0054630680024C00002D5AC
:1008E00000F08AF80EE0306840F0805030603068E8
:1008F00000F080500090009800F07EF8316821F000
:1009000080513160B0F5007F04D1812D0DD3A12D30
:1009100006D209E0812D28BF032406D2802D01D103
:10092000022402E0702D00D101240B480168C9089F
:1009300044EAC1010160006800F00700A04201D054
:10094000012076BD002076BD0010024090100240CC
:1009500000700040FFFFEEFE002002400810024041
:100960000024F40000127A0094100240284000088D
:1009700018400008AC0000205810024000000000A1
:100980000102030480B51A48016841F480710160D6
:10099000032000F046F80F2000F005F800F002F800
:1009A000002002BD704710B50446FFF769FF4FF401
:1009B0007A71B0FBF1F000F06DF8002221464FF0A3
:1009C000FF3000F03BF8002010BD0A480168491CC8
:1009D0000160704707480068704738B50446FFF764
:1009E000F9FF0546FFF7F6FF401BA042FAD331BDE1
:1009F000002002405C040020DFF80800006800F4DA
:100A0000C0607047007000400901002806D52B4ADD
:100A100000F00F00801800F8041C7047284A815429
:100A2000704728490A684FF6FF031A4000F0070094
:100A300042EA0020244A10430860704770B5214BF9
:100A40001B68C3F302230124C3F10705052D2EBF44
:100A50000F2504FA05F56D1E1E1D072E34BF002359
:100A6000DB1E2940994004FA03F3BDE870405B1E89
:100A70001A401143C8E7012100F01F029140134AB8
:100A800004E0012100F01F029140114A400942F8A0
:100A90002010704710B5401EB0F1807F01D30120B7
:100AA00010BD0C4C60600F214FF0FF30FFF7ACFF22
:100AB0000020A06007202060002010BD18ED00E09D
:100AC00000E400E00CED00E00000FA0500E100E0C9
:100AD00080E100E010E000E010B592B00EA80FF247
:100AE0003051DFF8184500F0B1F80AA80FF2305184
:100AF00000F0ACF806A80FF2385100F0A7F804F1A6
:100B00000C000090072301220EA9022000F0CBFB6D
:100B100070BB04F10E0005901423012004900AAA72
:100B200010200390022100200290019010200090DC
:100B3000A08900F0ECFBD8B904F110000590142353
:100B40000120049006AA10200390022101200290A7
:100B5000002001900C200090A08900F0D8FB38B94B
:100B6000228AE1890FF2D84000F008FD002004E05D
:100B70000FF20C5000F002FD472012B010BDDFF85C
:100B8000800400B500788BB040BB0FF2185000F025
:100B9000F5FC0FF22C510CC907A80CC0002000F086
:100BA00029FD4FF4FA60069005904FF480413C20F7
:100BB000049007AB002003900022282002900190AF
:100BC00000200090084600F0B4FE40B30FF2F84059
:100BD00000F0D4FC642000F002FF20E007A80FF230
:100BE0000C5100F033F80021002001F0B7F80FF2AB
:100BF0000C5000F0C3FC0020069005900490039078
:100C000007A802900D2001900020009003460246A4
:100C1000014600F0D2FD0146BCA000F0AFFC0BB0D5
:100C200000BD10B5DFF8D44386B0A07860B90FF2EC
:100C3000E84000F0A3FC01A80FF2FC4100F006F828
:100C400000F01CF80120A07006B010BD102201F0C9
:100C5000D7B810B5DFF8A44386B0E07860B90FF2DA
:100C6000E84000F08BFC01A80FF2FC41FFF7EEFF1B
:100C700000F004F80120E07006B010BD01A800905B
:100C80000223E0884FF6FF72012100F0D1BBF8B5D6
:100C900004460D46002000F0C3FC00269CA704E09B
:100CA000315D384600F06AFC761CAE42F8DBF1BDDF
:100CB000D34A10B51278D14C012A88B047D1D14A15
:100CC0001278002A3CD003A80FF2AC41142201F0A4
:100CD00097F8A0698DF81C00010A8DF81D10010C11
:100CE0008DF81E10010E8DF81F1030B90FF29C40C8
:100CF00000F044FC00F071FEE0610A2100F04EF8C3
:100D000003A800901423E189A089002200F054FB7D
:100D1000642804D101A801F0A6F80028F0D0A06949
:100D2000401CA061CFD000F0D1F80028CBD100F05A
:100D300054FEE16900F0D4F800F04FFEE061C2E734
:100D400000900B46E189A08900F036FB07E00346DE
:100D500060890A46411CE08889B200F0ECFB08B0CB
:100D600010BD10B50FF26C40A44C008884B00A216D
:100D7000ADF8000000F012F82089811CE08800AB7B
:100D8000022289B200F0A6FB462804D101A801F096
:100D90006AF80028F0D0012060701FBD9A480068F2
:100DA000414301A801F057B810B5944B1C8A641C4C
:100DB000A04203D1BDE81040104668E7D989891CDC
:100DC000884202BF10780128587010BD70B50446E3
:100DD0008A480FF21C4601224261C18005250FF2AC
:100DE000F83000F0CBFB295D304600F0C7FB6D1EEC
:100DF000012DF8DA21780FF20040BDE8704000F0D4
:100E0000BDBB10B57D4C002060610FF2F43000F0E6
:100E1000B5FB0120207000206070A070E070207190
:100E2000607110BD38B5754C764B1B78154622891C
:100E3000521C002B3AD0724B1B78002B36D19042BB
:100E40003AD1606A60B90FF2443000F097FB00F0CD
:100E5000C4FD2062697C287C00F02FF8401EA0624F
:100E6000287C697C00F029F8A16A4A1C904204D0D1
:100E7000E26A8218511A491EE162A062606A401C4F
:100E8000606219D000F022F8B0B900F0A6FD216A26
:100E900000F026F8E16A19B10FF2743000F06EFB31
:100EA00000F09BFD20620020E06231BD904203D142
:100EB0002846BDE83440EAE631BD40EA0120A97C7D
:100EC00040EA0140E97C40EA016070474FF4FA7162
:100ED000B0FBF1F14FF4FA7202FB11007047000011
:100EE000401A00EE100AF8EE400A9FED431AC1EED8
:100EF000200AFDEEE00A10EE903A10EE102A4FF4B0
:100F0000FA710FF2942000F039BB000025640A004A
:100F100025630000411C0078042800D0704738B5D4
:100F20000878052804D03E2805D0FF280ED031BD12
:100F3000BDE8314065E7881C017801295BD1401C80
:100F4000BDE83440B0F80110401D3FE78D1C2C482F
:100F500029880078294C40F60142891A06D00E39BA
:100F600014D0491E39D0891E1AD031BD27480078C7
:100F7000012803D1A81C831CC21D02E0A81C831CED
:100F8000421D99781888BDE838400DE7A81CBDE8D7
:100F900038408178421D891EB0F80300C9B241E78C
:100FA00048BB0FF2802000F0E9FAA178A81C39B103
:100FB000217929B9B0F803100FF29420218108E0BB
:100FC000E178C1B16179B1B9B0F803100FF298209E
:100FD0006181BDE8344000F0D1BA60B9A07820B199
:100FE000207910B90120207131BDE07818B1607905
:100FF00008B90120607131BD00409C477400002099
:10100000690400206A040020D04100086804002020
:10101000669A0C200008969EE2119EB1E0F273D908
:10102000669A0C200008969EE2119EB1E1F273D9F7
:10103000669A0C200008969EE2119EB1E2F273D9E6
:1010400053616D706C6520536572766963652061CC
:10105000646465642E0A54582043686172204861B4
:101060006E646C6520253034582C2052582043681B
:1010700061722048616E646C6520253034580A0026
:101080004572726F72207768696C6520616464696B
:101090006E672053616D706C65205365727669636D
:1010A000652E0A00436C69656E7420437265617435
:1010B0006520436F6E6E656374696F6E0A00000091
:1010C000AA0000E1800200004572726F722077680A
:1010D000696C65207374617274696E6720636F6EEA
:1010E0006E656374696F6E2E0A00000009426C75AC
:1010F000654E52475F4368617400000047656E6546
:1011000072616C20446973636F76657261626C65AD
:10111000204D6F6465200000537461727420726505
:101120006164696E67205458204368617220486189
:101130006E646C650A000000669A0C200008969E9A
:10114000E2119EB1E1F273D9537461727420726539
:101150006164696E6720525820436861722048615B
:101160006E646C650A000000669A0C200008969E6A
:10117000E2119EB1E2F273D9303132333435363771
:1011800038394142434445460000000054657374B9
:101190002073746172740A002564207061636B654A
:1011A00074732E20456C61707365642074696D657D
:1011B0003A202564206D732E20417070207468726F
:1011C0006F7567687075743A202564206B62707360
:1011D0002E0A000001000000436F6E6E65637465A7
:1011E0006420746F206465766963653A00000000CE
:1011F000253032582D000000253032580A000000FA
:10120000446973636F6E6E65637465640A00000001
:101210002564206C6F7374207061636B6574287330
:10122000290A00004556545F424C55455F474154DA
:10123000545F444953435F524541445F43484152E0
:101240005F42595F555549445F524553500A00006B
:10125000545820436861722048616E646C65202593
:101260003034580A00000000525820436861722050
:1012700048616E646C6520253034580A0000000017
:1012800000B587B000F014F900F003F940F2011046
:10129000ADF8060000F005F900284CBFFF209DF8CE
:1012A000000007B000BD70B58CB001288DF81C009F
:1012B00014460CBF022610261D4632460DF11D00B5
:1012C00000F0DDFD701C07A9C0B203224454441C89
:1012D000E4B200A86554002100F0D7FD00F0E8F862
:1012E00000F0D7F84FF4817000F093F8601C00F024
:1012F00059F800F0D9F8002848BFFF2005D49DF820
:10130000000010B9109900F048F80CB070BDF1B5AC
:101310008EB00D4616461F4602220EA900F0D7F8E1
:1013200007AC012DA57031460CBF022510252A46B9
:1013300000F07AF8E81CC0B2411C0755C9B21498F5
:101340000855491C1598C9B203220855491C16981E
:10135000C9B20855491C1798C9B24D1C0855EDB2C1
:101360001898285500F024F800F0A2F800F091F841
:101370004FF4827000F04DF8681C00F013F800F094
:1013800093F8002848BFFF2005D49DF8000010B94D
:10139000199900F002F80FB0F0BDBDF80100088007
:1013A00000207047C0B2049000A805900320704749
:1013B000002100A800F069BD33B51C46A01D81289E
:1013C000A7B01546A8BF422021DA022227A900F0C3
:1013D0007EF8022228A900F0A3F82C998DF820505D
:1013E0008DF82140224600F019F800F061F800F075
:1013F00050F84FF4837000F00CF8A01DC0B20490B8
:1014000000F04FF800284CBFFF209DF8000029B0E5
:1014100030BDADF8060007A8039070470DF122001B
:1014200000F02DBD224619460DF11F0000F027BD2A
:1014300017B58DB01C4602220DA900F048F8022213
:101440000EA900F06DF802220FA908A800F017FD00
:101450008DF82240012C0CBF022410241299224640
:1014600000F013F800F024F800F013F84FF48B703C
:10147000FFF7CFFFE01DC0B200F010F800284CBF0E
:10148000FF209DF8000010B010BD0DF1230000F00A
:10149000F6BC3F20ADF804000021704704900F20F7
:1014A000029000A805900120069001A800F067BBFB
:1014B0001822002101A800F0E8BC8DF82040224647
:1014C00029460DF1210000F0DABC022228A907A864
:1014D00000F0D5BC33B51446601D8128A7B01D4669
:1014E000A8BF422018DA022227A9FFF7F0FF022244
:1014F00028A900F015F8FFF7E0FFFFF7D9FFFFF785
:10150000C8FF40F2211000F00FF8FFF7C7FF0028D6
:101510004CBFFF209DF8000029B030BD022229A950
:101520000DF11E0000F0ABBCADF8060007A803905B
:10153000601DC0B2704710B5152A8EB0144628BF82
:10154000422019D2ADF81C00ADF81E108DF82040D5
:101550001946FFF7B6FFFFF7ABFFFFF79AFF40F220
:101560002310FFF756FF601D0490FFF79AFF002835
:101570004CBFFF209DF800000EB010BD0EB400B5AA
:10158000A0B0024621AB802100A800F089FC82B205
:101590004FF4967300A9044800F0DDFC08B101F097
:1015A00087F820B05DF810FB8003002010B586B0EE
:1015B000044600F090F83CB9DFF82401016841F0DE
:1015C0000101016000F010F80FF2241030F814004F
:1015D00000F07AF802200490DFF8080150F82400A7
:1015E00001F0FAF806B010BD006800F001000090AC
:1015F000009870470FF2F801DFF8E83031F810106A
:1016000053F82000012201F0CBB90FF2E401DFF81A
:10161000D43031F8101053F82000002201F0C0B986
:101620000FF2CC01DFF8BC2031F8101052F8200086
:1016300001F0BBB930B587B004460D4600F04BF859
:1016400054B9DFF89C00016841F0040101600068B2
:1016500000F0040000900098DFF88C000FF2940175
:101660003DB931F8141001910021029100F01AF8EF
:1016700016E0012D14D131F814100191DFF86C102F
:101680000291002100F00EF80FF26C0030F81440C7
:1016900000220F2160B2FFF7D1F960B2FFF7EBF93A
:1016A00007B030BD03910221049101A950F8240034
:1016B00001F092B80FF23C01DFF82C2031F8101045
:1016C00052F8200001F066B9019001A901200290B2
:1016D00000200390704701A8142101F089B900008F
:1016E0004C100240A4000020A8000020000021109F
:1016F0002000000000200000280010B58AB08DF8FE
:1017000000008DF801108DF802201C46072200F021
:1017100001F900F0EBF800F048F800A8059003206C
:10172000069001A80790072000F053F9002848BF51
:10173000FF200ED49DF8040058B9BDF805002080A4
:101740000C99BDF8070008800D99BDF809000880C4
:1017500000200AB010BD70B58AB00C468DF80800A4
:1017600015461E46072200F0CBF800F0BFF800F047
:101770001CF802A805900120069000A807900720F9
:1017800000F027F9002848BFFF200CD49DF8000086
:1017900048B9BDF801002080BDF803002880BDF8DD
:1017A0000500308000200AB070BD3F20ADF80C006D
:1017B00000218A20ADF80E00704776B592B000F097
:1017C00056F828BF42201BD200F059F800F049F823
:1017D00000F018F800F022F800F03BF800F031F8C3
:1017E00000F097F800F090F8832000F024F8C0B2E1
:1017F000049000F093F800284CBFFF209DF80000F3
:1018000014B070BD18981A998DF822008DF82160D7
:101810008DF823502A4609A800F031BB05F10800D5
:10182000C0B207A9451C4454EDB21C9907A8224632
:10183000281800F024BBADF8060007A80390A01CF0
:101840007047A41CE4B207A802221EA9201800F0C9
:1018500016BB6419E4B207A802221DA9201800F0E3
:101860000EBB022213A90DF11F0000F008BB199D49
:101870001B9C54FA85F10E3129291E4670478DF8BC
:101880001C00022212A90DF11D0000F0F8BA30B5BB
:101890008FB08DF81C008DF81D1014461D461022C7
:1018A000214600F042F812988DF82F008DF82E5046
:1018B000182213988DF8300000211498CDF83100CB
:1018C00015988DF8350001A800F0DFFA00F01CF83B
:1018D000862000F010F81A20049000F01FF800286D
:1018E0004CBFFF209DF800000FB030BD1822002132
:1018F00003A800F0CABAADF8060007A80390704725
:10190000002100A800F0C1BA3F20ADF8040000217A
:1019100070471822002101A800F0B7BA00A805906E
:101920000120069001A800F02AB90DF11E0000F078
:10193000A6BA00B58DB000F018F800F022F8BDF896
:101940004000ADF81200BDF8440000F023F83F203D
:10195000ADF81C0000219C2000F02AF800284CBFA4
:10196000FF209DF800000DB000BDADF80400ADF8FB
:1019700006108DF80820194606220DF1090000F026
:101980007EBA0E988DF80F0018220F98ADF810004F
:1019900000217047ADF814001298ADF816001398A6
:1019A000ADF818001498ADF81A0007A800F06DBA49
:1019B000ADF81E0001A8099018200A900F20089089
:1019C00000A80B9001200C9007A800F0D8B8079051
:1019D0000120089003A800F0D2B8FEF7FBBFFEF785
:1019E000FCBF8268521C8260426832B10268531C9C
:1019F000036011704168491E4160704738B5B14CB1
:101A0000201D00F0F8FF04F10C0000F0F4FF0025A9
:101A10008C2010FB054000F11401201D00F0FCFF9C
:101A20006D1C052DF4DB31BD00F108010A78042A94
:101A300001D00120704790F888008978C01E81424B
:101A400001D0022070470020704710B5A2B00020DE
:101A5000009001F086F99B4C10E000A904F10C0005
:101A600000F0E8FF01F07AF900980830FFF752FA29
:101A700001F077F90099201D00F0CEFF04F10C0071
:101A800000F0BCFF0028E8D0207850B90EE080229A
:101A900001A98D4801F0C6F8C0B210B101A8FFF746
:101AA00039FA01F0B5F80028F1D1207001F056F9AB
:101AB00022B010BD38B50020009001F055F9824CDD
:101AC000804D04E0281D00F0A0FF01F04DF901F069
:101AD0009FF818B3281D00F091FFD8B900A9281D60
:101AE00000F0A8FF009800F108018022204601F0D4
:101AF00099F8C0B200280099E4D081F888000098D5
:101B0000FFF792FF00280099DCD105F10C0000F0EE
:101B100083FFDAE70120287001F026F931BD01F0DA
:101B200027B830B5890583B0890D41EA8020ADF82A
:101B30000400144601208DF800001D468DF8064073
:101B4000032201A90DF1010000F099F923460422B6
:101B5000294600A8FFF7E3FF37BD38B504460D4618
:101B600007E000A9284600F065FF0099204600F034
:101B700053FF284600F042FF0028F2D031BD2DE986
:101B8000F041044686B060884E4F88468005218823
:101B9000800D40EA81254D4800680A21B0FBF1F62E
:101BA00000200090ADB202A800F025FFE268A36813
:101BB00061882088D2B2FFF7B4FFB8F1000F59D185
:101BC00006B90126314604A800F045F905E0009960
:101BD00002A800F021FF01F0C1F804A800F043F9C9
:101BE000002867D107F10C0000F008FF0028F4D1AD
:101BF00001F0B7F800A907F10C0000F01BFF0098F6
:101C000000F1080210780428E1D10098527800F120
:101C10000B0190F88800C01E0E2A37D00F2A04D07E
:101C2000102A47D03E2A38D008E04A88AA4241D13B
:101C300062680F2A15D0087800283BD1009902A8C5
:101C400000F0EAFE381D00F0D9FE0028C3D001A93B
:101C500007F10C0000F0EEFE0199381D00F0DCFEEB
:101C6000B9E762699042C8BF1046606102462069C8
:101C700000F005F90099381D00F0C7FE00F028F8C3
:101C800001F06CF8002006B0BDE8F081B1F8012049
:101C9000AA420FD1C91CC01EE3E70A7863689A42C2
:101CA000CCD16269401E9042C8BF104660610246B6
:101CB000491CDCE700F00CF801F050F84FF0FF3061
:101CC000E1E70000B0000020F0030020D041000850
:101CD00002A907F10C0040E7F0B589B000F02EF83A
:101CE00000F06FF800F077F8042000F070F80120A1
:101CF00000F029F8002848BFFF2013D49DF8000009
:101D000080B99DF801002070BDF8020028809DF880
:101D100004003070BDF8050038800E99BDF807004A
:101D20000880002009B0F0BD07A80390202004908F
:101D300000A805900120069001A820E704460D4662
:101D400016461F467047ADF80E000020059006901D
:101D500000A807900920089003A810E730B58FB0BD
:101D600000F017F88DF81C40202CA8BF1F2400F0AD
:101D700017F800F01BF800F01EF80920ADF8060077
:101D8000FFF7D2FF00284CBFFF209DF800000FB0E6
:101D900030BD04460D462022002107A800F075B88A
:101DA000224629460DF11D0000F069B818220021D5
:101DB00001A800F06AB80820ADF8040000217047BF
:101DC00004460922002100A800F05FB80820ADF801
:101DD0000C00002170471822002103A800F055B81C
:101DE00062B38B0708D0521E11F8013B00F8013B8B
:101DF00000F024808B07F6D1830740F0208000BFDD
:101E0000103A07D330B4B1E83810103AA0E83810CF
:101E1000F9D230BC530724BFB1E80810A0E808107D
:101E200044BF51F8043B40F8043BD20724BF31F8CB
:101E3000022B20F8022B44BF0B7803707047083A3E
:101E400007D3B1E80810083A40F8043B40F804CB47
:101E5000F7D25307E4E710B504466160FFE7FFF7E8
:101E6000BCFD206010BD10B50446FFF7B6FD22682A
:101E70006168801A401C81428041C00F10BD10B5BE
:101E80000446FFF7ADFF204610BD10B504461046CE
:101E90000A460146204600F085FF204610BD00009E
:101EA00008B584B00023029311B90093019302E0B6
:101EB0000090481E019004AB00A9074878441830F0
:101EC00000F0A4FF009911B1009A002111700028C0
:101ED00058BF029805B000BD0BFBFFFF38B50400EA
:101EE0000BD004F16805687818B92870204600F016
:101EF0008BFA00F00DF8012801D1012032BD606A93
:101F000008B100F025F800F014F821F02A0109E0EA
:101F10000220687020680168490849000160204675
:101F200000F06BB8816000F00CF8BDE8324000F0C2
:101F3000F4B92068416821F49041416020688168CB
:101F400070472068016841F0010101602046704738
:101F5000204600F07FB9F8B5044604F150070D465D
:101F6000787E01281CBF787E22281E4640D1002D95
:101F700018BF002A01D10120F2BD387E012837D0D8
:101F8000012038760020F861787E22280CBF3220AC
:101F9000122078763A807A8001E021680885788876
:101FA000A8B1401E788033460022802100F022F83C
:101FB00098B9A068B0F5805F04BF2069002811BF00
:101FC00015F8010B35F8020BC005C00DE5E73346E7
:101FD0000022402100F00EF808B10320F2BD787E07
:101FE00032280CBF22200120787600203876F2BDFE
:101FF0000220F2BD204600F0B5B9F8B50446894B81
:10200000226810681840A36818432369184363695D
:102010001843E3691843106010265068E36820F401
:1020200040501843506000210025A0697E4B9A4221
:102030001CBF276A3843976827F43067384390609D
:102040007A4F7B48BA421FD1006810F0030004D0D9
:10205000022826D035D3032831E00126E069B0F507
:10206000004F40F0B98066B1012E00F09E80022E34
:1020700000F09E80042E00F09D80082E00F09E80CF
:10208000A2E0FEF70CFC97E06A4FBA420BD1006861
:1020900010F00C005DD0042813D0082801D00C28C3
:1020A0000DE002261DE0644FBA420CD1006810F02A
:1020B00030004ED0102804D02028F2D030280FD085
:1020C0000FE004260DE05D4FBA4223D1006810F006
:1020D000C0003ED04028F4D08028E2D0C02800D1F3
:1020E00008269A42BAD1300006D0022E33D0042EF0
:1020F00033D0082E34D092E0FEF7D1FB002800F058
:102100008F80626802EB4201884202D31103814250
:1021100029D284E04A4FBA420CD1006810F44070D2
:1021200017D0B0F5807FCCD0B0F5007FB9D0B0F536
:10213000407FC4E79A42D4D1006810F4406008D0D0
:10214000B0F5806FBDD0B0F5006FAAD0B0F5406F8C
:10215000B5E70026C5E73B48D3E7FEF73AFBCDE7F6
:102160004FF40040CDE736B1022E07D0042E07D041
:10217000082E0CD012E0FEF792FB03E0324808E094
:10218000FEF727FB010E62680002002303E04FF414
:10219000000000210B4601F00BFA00E00125A0F53C
:1021A00040712A4A91423AD22EE0FEF780FB03E0CA
:1021B000274805E0FEF70DFB400001E04FF48030BA
:1021C0006168B0FBF1F100E001254FF6F0700840C6
:1021D000C1F34201084317E046B1012E09D0022E97
:1021E0000AD0042E0AD0082E11D018E0FEF757FBB3
:1021F00006E0FEF75CFB03E012480AE0FEF7E9FAAE
:102200006168B0FBF1F080B22168C86008E04FF46B
:1022100000406168B0FBF1F080B2D06000E00125C1
:102220002846F2BDF369FFEF00800040003801400E
:10223000881002400044004000480040004C00402C
:10224000005000400024F400000024F400FD0F00C2
:102250000048E80190F82410C90706D501684A68CB
:10226000836A22F400321A434A6090F824108907E6
:1022700006D501684A68C36A22F480321A434A606C
:1022800090F82410490706D501684A68036B22F4C8
:1022900080221A434A6090F82410090706D5016885
:1022A0004A68436B22F400421A434A6090F82410B3
:1022B000C90606D501688A68836B22F480521A43E6
:1022C0008A6090F82410890606D501688A68C36B75
:1022D00022F400521A438A6090F82410490610D55F
:1022E00001684A68036C22F480121A434A60026C47
:1022F000B2F5801F05D14A68436C22F4C0021A432C
:102300004A6090F82410090606D501684A68806C76
:1023100022F4002210434860704770B5044604F16F
:102320006805002068606FF07E462068006800073E
:1023300006D5334600224FF40011FFF75BFE50B97B
:1023400020680068400708D5334600224FF480011A
:10235000FFF750FE08B1032070BD01206870002017
:10236000287070BD2DE9F84304460E4691461F467D
:10237000FEF730FBB9F1000F804604F168050FD17C
:102380002068C0693040B0422BD017F1010FF7D060
:10239000AFB1FEF71FFBA0EB08008742F0D20EE0C2
:1023A0002068C0693040B0421BD117F1010FF7D04F
:1023B0002FB1FEF70FFBA0EB08008742F0D2206898
:1023C00000F012F821F0200101602068016821F47A
:1023D0008071016000F00FF8687000202870032001
:1023E00000E00020BDE8F283016821F08001016077
:1023F0002068016870472068816849084900816049
:10240000012070470000000000B59F4887B000F031
:1024100023F800F021F8C16841F40031C16001A93E
:10242000C06800F400300090009804200190022061
:102430000290012003900220049000F007F8082089
:10244000019001A900F002F807B000BD0720059037
:102450004FF0904000F0C0B9016841F00101016007
:10246000016801F0010100910099704780B587482B
:10247000874901604FF41651416000218160C160BD
:10248000016181610C214161FFF728FD00281CBF1B
:10249000BDE8014000F00CB901BD10B50FF22021DC
:1024A0007C4C8EB00CC90BA80FF21C210CC00CC9BF
:1024B00009A80CC0FEF766FA0020FFF777F80021A4
:1024C0000020FFF7B7F801F0EBF8FFF7CFFF00F0BF
:1024D00070FBFFF793FA00F088FB06A904A801F04F
:1024E00037F900F082FBBDF818209DF810100FF2AC
:1024F000E010FFF743F89DF810003128A4BF012039
:1025000020706078002807BF06220BA9062209A9BF
:1025100007A8FFF7B4FC07AA0621002001F043F941
:1025200020B101460FF2BC10FFF728F8FEF7A8FE15
:1025300018B10FF2D010FFF721F861782078012947
:1025400009D1012803D100F04EF8012008E000F085
:1025500044F801200AE0012805D100F044F80420E5
:10256000FFF7CBF804E000F038F80320FFF7F3F8AA
:1025700018B10FF2A410FFF701F801200390072310
:102580004548029000220020019000211020009078
:102590000120FFF77CF918B90FF29010FEF7EEFF5B
:1025A000607801280CD10FF29C10FEF7E7FFFEF7D0
:1025B00093FA002814BF0FF2CC100FF2A81001E01C
:1025C0000FF2E010FEF7DAFF0421012001F012F90A
:1025D000FFF73BFA00F011F8FAE70DF1120305AA34
:1025E0000DF1160170470DF1120001900DF1160367
:1025F00005A80090072200217047F0B5274C85B050
:10260000207818B1FEF7BBFA002020702148244C36
:102610004078244DE0B92868234E244F20B1387803
:1026200010B9FEF7FEFA05E0286818B1307808B94D
:10263000FEF70FFB286800281CBF3878002807D059
:10264000307828B1207818B9FEF7DFFFFEF789FB54
:102650000020FFF72FF8A0B90020FFF72BF8002883
:10266000FAD0286800281CBF2078002809D000A8CC
:102670000FF250111422FFF7C3FB142100A8FEF73C
:1026800017FB05B0F0BD00004C1002408003002095
:10269000004400406804002040E201007400002073
:1026A00075000020880000207900002078000020BC
:1026B00080B50020FEF7B4FF6420FEF78EF9F8E73E
:1026C000BB0000E180020000AA0000E180020000DF
:1026D00048577665722025642C204657766572200F
:1026E00025640A0053657474696E672042445F4133
:1026F000444452206661696C65642030782530322C
:10270000782E0A00474154545F496E69742066610F
:10271000696C65642E0A00004741505F496E697418
:10272000206661696C65642E0A000000424C4520F9
:10273000537461636B20496E697469616C697A6571
:10274000642E0A005345525645523A20424C4520C9
:10275000537461636B20496E697469616C697A6551
:10276000640A00005365727669636520616464657C
:1027700064207375636365737366756C6C792E0A78
:10278000000000004572726F72207768696C6520E6
:10279000616464696E6720736572766963652E0A89
:1027A00000000000434C49454E543A20424C45201D
:1027B000537461636B20496E697469616C697A65F1
:1027C000640A00003031323334353637383941420B
:1027D000434445464748494A2DE9F84700227A4B89
:1027E000DFF8E881DFF8E8914FF00F0A30E005FAF2
:1027F0000EFE4EEA040448F82C406FEA070C1C68F1
:102800000CEA040E4C68E40348BF47EA0E0EC3F816
:1028100000E05C680CEA040E4C68A40348BF47EA79
:102820000E0EC3F804E09C680CEA040E4C68E40247
:1028300048BF47EA0E0EC3F808E0DC680CEA040C57
:102840004C68A40248BF47EA0C0CC3F80CC0521CE9
:102850000F6837FA02F400F09B804FF0010C0CFA7D
:1028600002F42740F3D04D68022D18BF122D11D16C
:10287000D50800EB850C02F00706DCF820504FEA83
:10288000860E0AFA0EF6B5430E6906FA0EF63543C1
:10289000CCF820504FEA420C0326056806FA0CF6E5
:1028A0006FEA060E0E7906F003060EEA050506FA33
:1028B0000CF635430560E4434D68012D18BF022D29
:1028C00003D0112D18BF122D0FD18568CE680EEAE6
:1028D000050506FA0CF63543856045684E68C6F373
:1028E000001625409640354345604D6805F00306C7
:1028F000032E06D1C66AC5F3C005344095402C436B
:10290000C462C4680EEA040E8C6804FA0CF444EA4B
:102910000E04C4604C68E40099D5D9F8004044F036
:102920000104C9F800404FEA920CD9F8004004F0C5
:102930000104009402F00305009C58F82C404FEA73
:10294000850E0AFA0EF5AC43B0F1904F08BF002592
:102950001DD0204DA84208BF012518D01E4DA84209
:1029600008BF022513D01D4DA84208BF03250ED075
:102970001B4DA84208BF042509D01A4DA84208BF24
:10298000052504D0184DA8420CBF062507252EE7C3
:10299000BDE8F1870069084018BF0120C0B2704748
:1029A0000AB181617047816270474269514041615B
:1029B00070470E4A1368034200D1704780B510601B
:1029C00000F051FF01BD000000040140080001407B
:1029D000601002400004004800080048000C004855
:1029E000001000480014004800180048140401407A
:1029F000002200F03BBF00604060704701688142E8
:102A000001D1012070470020704702680A604860C9
:102A10000160086841607047086042684A60416030
:102A20004868016070474268016811604168006849
:102A30004160704710B50C46016821600068FFE7EF
:102A4000FFF7F1FF2168002008602168486010BD91
:102A50000068C749884200D0704700B5C54887B0B4
:102A6000016841F001010160016801F0010100917C
:102A70000099016841F002010160016801F0020162
:102A80000091009900F061F800F05FF8416941F4AD
:102A90008051416101A9406900F480500090009884
:102AA0004FF4807001900120029003900020049068
:102AB000059000F049F900224FF4807100F04AF9C6
:102AC0000820019001A902200290039003200490A5
:102AD00005200590A848FFF77FFE402000F027F86A
:102AE000802000F024F80220019001A9012002902A
:102AF00000F014F800F02CF90120019001A99F4882
:102B00000290002000F00AF8002203210620FDF7C1
:102B100095FF0620FDF7AFFF07B000BD039003202F
:102B20000490002005904FF09040FFF755BE0190B3
:102B300001A90220029000200390032004900520A8
:102B400005904FF09040FFF747BE016841F001014A
:102B50000160016801F0010100910099016841F0F4
:102B600001010160016801F00101009100997047C5
:102B70002DE9F04104468248DFF8088200680D46DE
:102B80000A2184B0B0FBF1F116461F4601A8FFF7F9
:102B900062F9F8B20090F3B22A462146404600F0AE
:102BA00087F820B101A8FFF75EF90028F1D0BDE851
:102BB000FF8174486E4901604FF4827141600021C9
:102BC00081604FF4E061C1600021016141614FF417
:102BD000007181610021016241620721C162082107
:102BE000C1610021816200F05BBE80B500224FF41C
:102BF000807100F0AFF80520FDF7EFFE01224FF4E1
:102C0000807100F0A7F8BDE802400520FDF7E5BEA1
:102C100080B501214FF09040FFF7BCFE012818BF9E
:102C2000002002BD2DE9F04186B005460E46FF208A
:102C300017468DF8050004A80FF250110CC90CC0FE
:102C4000002200F086F80F200090052302AA04A9B4
:102C500000F077F89DF808000024022819D19DF8AB
:102C60000C009DF80B1051EA002812D047450DDAF0
:102C7000B8460BE00F200090012301AA0DF10501D9
:102C800000F05FF89DF80400A055641CE4B24445D0
:102C9000F0DB00F05DF8002002E000BF0098401C6F
:102CA000009000980228F8DB204606B0BDE8F081CD
:102CB0002DE9F043884691461E460FF2D801C5B073
:102CC00005460CC903A80FF2D4010CC00CC901A819
:102CD00000270CC00620FDF7D4FE002200F039F8D2
:102CE0000F200090052301AA03A900F02AF89DF8FF
:102CF000040002281AD14C9C9DF8050054FA86F174
:102D0000884210DB36B10F200090334605AA4146B9
:102D100000F017F864B10F200090234605AA494639
:102D200000F00FF804E06FF0010701E04FF0FF370B
:102D300000F00EF80620FDF79EFE384645B0BDE8CF
:102D4000F083284600F012BE4FF09040FFF744BDDC
:102D5000012202214FF09040FFF722BE0620FDF72E
:102D60008ABE0620FDF78DBE074901200860704726
:102D7000003001404C1002400004004800001110D7
:102D8000D0410008F0030020140401400B000000B3
:102D9000000000000A00000000000000AA0000007F
:102DA0000000000062F30F2262F31F42401810F08F
:102DB000030308D0C91A1FD3DB0748BF00F8012D51
:102DC00028BF20F8022D130030B4144615461039E0
:102DD00028BF20E93C00FAD8490728BF20E90C00A9
:102DE00048BF40F8042D890028BF20F8022D48BFB5
:102DF00000F8012D30BC7047C91818BF00F8012D2C
:102E0000CB0728BF00F8012D704700002DE9F04FD7
:102E100080460FF2847095B092461D46D0E900239B
:102E2000CDE9132303AE00200391B0610DF1340905
:102E300000E0A2440020ADF8020013AB4FF0FF32D7
:102E400051460DF1020000F05CFF0446012C05DA4A
:102E50009AF80000441EA441E443E40FBDF80200C8
:102E600025280CBFA4F1010BA346BBF1010F0EDB1B
:102E7000574617F8011B0398C0470028039000F03D
:102E8000CE81B069401CBBF1010BB061F1D1BDF83E
:102E90000200252804D10020F0603061706105E057
:102EA0000028C6D1B069BCE140F001001AF8011F4A
:102EB0002029F9D023290DD02B2904D02D2906D083
:102EC00030290AD00CE040F0020080B2EEE740F07A
:102ED0000400FAE740F00800F7E740F01000F4E7DC
:102EE0002A290FD12968296051F8042B2960002A6A
:102EF000326204D5514240F00400316280B20AF1DE
:102F0000010A15E0002131620CE0316A6FF00043E4
:102F1000994205D001EB810302EB43013039316264
:102F20000AF1010A9AF80020A2F130010A29ECD333
:102F30009AF800102E2903D04FF0FF31F16122E002
:102F40001AF8011F2A2908D1296829600AF1010A03
:102F500051F8042B2960F26115E00021F1610CE0C9
:102F6000F1696FF00043994205D001EB810302EB58
:102F700043013039F1610AF1010A9AF80020A2F107
:102F800030010A29ECD3B0840FF214609AF80010D3
:102F900000F0C8FE08B11AF8010B8DF832009DF858
:102FA0003200682804BF9AF80000682804D1622023
:102FB0008DF832000AF1010A0DA8B0601AF8014B31
:102FC000252C13D0582C40D0632C00F09880642C12
:102FD00018BF692C71D06F2C37D0702C2BD0732C6C
:102FE0000AD0752C18BF782C2FD0ABE00120F060F0
:102FF00025208DF83400AFE09DF832006C28286859
:10300000286014D050F8044B28607460F769002FD2
:1030100004D5204600F092FE074606E03A4600211D
:10302000204600F0A7FE00B1071B376194E050F87E
:10303000042B28607FE02868286050F8041B286073
:1030400002910DA87060782155E09DF832006C283F
:103050000DD0712818BF6A2809D12868C01D20F03A
:1030600007022A60D2E9000108322A6004E02968D8
:10307000296051F8040B296002909DF832006828FD
:1030800002D102A8008803E0622802D102A80078D9
:10309000029096F82400000728D5029830B344F037
:1030A0002000782822D1F068302100F80910401C57
:1030B000411CF16000F8094018E09DF832002946F3
:1030C00000F0B2F80028029002D5F0682D2109E046
:1030D000B08C810702D5F0682B2103E0C00705D52D
:1030E000F068202100F80910401CF0600DA8F1687C
:1030F00008187060214602A800F0CFF92CE09DF876
:1031000032006C2809D00120F0602868286050F84F
:10311000041B28608DF834101EE02868286001AA7E
:1031200050F8041B2860ADF804100020ADF806002C
:103130004FF0FF30F06102A9404600F09BF80028F4
:103140000AD56CE00120F06025208DF834001CB118
:103150000220F06089F80140306AF168401A716914
:10316000401A3169441A96F8240040070FD42020F1
:103170008DF80000002708E0012300AA02A94046BC
:1031800000F0F2F900284AD17F1CA742F4DBF7686F
:103190000DF1340B0AE01BF8011B0398C04700280F
:1031A00003903CD0B069401CB0617F1E002FF2D16B
:1031B00030208DF800004FF0000B776908E0012304
:1031C00000AA02A9404600F0CFF940BB0BF1010B69
:1031D000BB45F4DB3769D6F804B009E01BF8011BE6
:1031E0000398C0470390D0B1B069401CB0617F1E06
:1031F000002FF3D196F8240040077FF51BAE202066
:103200008DF8000000E07F1CA742BFF613AE01233B
:1032100000AA02A9404600F0A7F90028F3D04FF019
:10322000FF3015B0BDE8F08F622815D068280CD0AB
:103230006C2818BF742816D07A2814D10A680A603E
:1032400052F8040B0A60002170470A680A6052F8BD
:10325000040B0A6000B20BE00A680A6052F8040B23
:103260000A6040B204E00A680A6052F8040B0A607F
:10327000C11770472DE9F44F0D4694B0D5F820A042
:10328000BAF1000F804648BF6FF0004A00F09EFD83
:10329000696A401801900FF21030D0E90023CDE99F
:1032A000022395F82800400702D40198412805D24E
:1032B00040200DF110090190002607E000F08CFD80
:1032C0005FEA0009F8D1AAE7AAEB040ABAF1010FF4
:1032D000C0F28B801498018802AA0DF1010000F061
:1032E000D3FD0028044600F18E801498008810B9A0
:1032F000641E00F18880A24577DB286901992218B5
:10330000914260D26E624042A969401A6969461AC8
:1033100095F8280040070FD420208DF800000027E2
:1033200008E0012300AA2946404600F01DF90028C4
:1033300069D17F1CB742F4DB2F69CB460AE01BF84A
:10334000011B6868C047002868605CD0E869401CC1
:10335000E8617F1E002FF2D130208DF800004FF081
:10336000000BAF6909E0012300AA2946404600F09E
:10337000FBF8002847D10BF1010BBB45F3DB6F696C
:10338000D5F808B009E01BF8011B6868C047686001
:10339000C8B3E869401CE8617F1E002FF3D195F89F
:1033A000280040070DD520208DF8000007E00123FC
:1033B00000AA2946404600F0D7F820BB7F1CB74240
:1033C000F5DB00262E61224628690DF101014844F3
:1033D000FEF706FD2869201828611498801C1490B7
:1033E000801E008800287FF46FAF686A2969401A40
:1033F000A969401A6969A0EB010A95F828004007FD
:1034000010D400240CE04FF0FF363EE06868202125
:10341000C04700286860F6D0E869401CE861641C79
:103420005445F3DB2B694A462946404600F09CF898
:103430000028E8D1AC69002709E068683021C0475E
:1034400000286860DFD0E869401CE8617F1CA74263
:10345000F3DB6B69AA682946404600F085F800282E
:10346000D1D195F8280040070DD5002409E06868FF
:103470002021C04700286860C5D0E869401CE86189
:10348000641C5445F3DB2E616E6204A881451CBFA9
:10349000484600F007FD3046C3E6F0B4C2686F2925
:1034A00008BF082405D041F02003782B14BF0A245C
:1034B000102418230668642918BF6929374602D1E9
:1034C000002E48BF7F425FB9056A4DB9082C27D14D
:1034D00090F82810090723D530211723D1751FE054
:1034E000B7FBF4F604FB16773037FFB25D1E3A2FB8
:1034F000A4BFA1F1510C6744AF542B46370003D051
:1035000085689E18B542EBD3082C09D190F8281095
:10351000090705D5995C302902D05B1E30219954EA
:103520009A188260C3F11801026A4161914208DA77
:10353000511A81614FF6EF72018D11400185F0BC87
:103540007047002A0ED590F8282002F01402102AA5
:1035500008D1426A0369D21A8369D21A531A012B1D
:10356000A8BF8361F0BC7047F8B504460D46164607
:103570001F46002004E0E869401CE8617F1E00202F
:1035800047B116F8011B6868A04700286860F2D1AF
:103590004FF0FF30F2BD000000000000000000000E
:1035A000686C747A4C00000000000000000000000D
:1035B0001B4213D1094236D12AB18446B0FBF2F046
:1035C00002FB10C2704700F0ADBCFCD30022002308
:1035D00070470B000200002100207047904271EB01
:1035E000030CF6D370B5B1FA81F4B3FA83F52C1B52
:1035F000A340C4F1200532FA05F63343A2405FF040
:103600000046E64002E05B085FEA3202841A71EB92
:10361000030524BF204629467641F4D302000B005F
:103620003000002170BD012ACFD970B5140C20D014
:10363000B1FA81F4B2FA82F5C4F120046419B4F14C
:103640002006D6D3B2405FF00044F440002502E0EB
:1036500052085FEA3303C61A71EB020E24BF3046EC
:10366000714664416D41F3D302000B002000290034
:1036700070BD0C46B1FBF2F102FB11452D0445EA89
:103680001045B5FBF2F402FB145580B240EA054543
:10369000B5FBF2F002FB105240EA044070BD00009E
:1036A00000B595B000A81421FFF7A2F90FF2600150
:1036B00005A891EC100B80EC100B10200590012058
:1036C0000B9060200D9000200C9002200E900120A5
:1036D0000F90109028201190022014900720129033
:1036E0000420139005A8FCF74FFD00B1FEE70F2062
:1036F0000090042103200190002002900390049088
:1037000000A8FCF757FF00B1FEE715B000BD0000B0
:1037100000000000000000000000000000000000A9
:103720000000000000000000000000000000000099
:103730000000000000000000000000000000000089
:103740000000000000000000000000000000000079
:1037500070B584B0064601A800900C460DF10A032E
:1037600002AA0DF106010DF10900FEF7B5FAC5B286
:10377000A5B9BDF80600000A3070BDF806000002C9
:103780002080BDF804100906090F40EA01102080CE
:10379000BDF8041001F00F0108432080FEF755F931
:1037A000284604B070BD10B50C461146A21C812AF3
:1037B000A8B0A8BF42201BDA8DF81C008DF81D4070
:1037C00022460DF11E00FEF75AFB00F036F800F01D
:1037D0002FF80C20ADF8060007A80390A01CC0B27B
:1037E000049000F031F800284CBFFF209DF8000045
:1037F00028B010BD00B589B08DF804008DF8051013
:103800001822002102A8FEF740FB3F20ADF8080077
:1038100000210F20ADF80A0001A80490022000F05A
:103820001AF800284CBFFF209DF8000009B000BD29
:103830003F20ADF80400002170471822002101A8A4
:10384000FEF723BBADF8060000A805900120069006
:1038500001A8FEF794B9059000A8069001200790F2
:1038600002A8FEF78CB9FEF725B9000000B500BF2D
:10387000130096469446103928BFA0E80C50FAD899
:103880005FEA417C28BF0CC048BF40F8042BC90741
:1038900028BF20F8022B48BF00F8012B00BD000014
:1038A00070B5040001D1012070BD04F15C05687899
:1038B00018B928702046FFF7CBF80220687040F254
:1038C000017300F0FDF9E2689A4204D30021B2F5D9
:1038D000706F05D106E0B2F5E06F4FF4805101D072
:1038E0000026A662266B26B99A422CBF022201222C
:1038F00022636268A3681A4323691A4363691A43FF
:10390000A36903F400731A43E3691A43236A1A4351
:10391000A36A1A430260226B022A03D1026842F4AE
:1039200000620260A269636A120C02F004021A4388
:10393000636B1A43E3681A4311434160E16A016112
:103940000020686001206870002070BD3B460122A5
:103950000121304600F034B901684DF6FF72114084
:103960000160016841F40051016070472DE9F84F92
:103970000646894692469B46FDF72CF806F15C0404
:10398000804620780025012808BF022000F0F6803C
:10399000012020706078012818BF022540F0E980DE
:1039A000B9F1000F1CBFBAF1000FBBF1000F00F01E
:1039B000DF80052006F1380760706560C7F808A051
:1039C000A7F80EB0A7F80CB0C7F80090A7F806B09B
:1039D000A7F804B000F0E0F802D13068FFF7BCFFB0
:1039E00040F20171F068884202D2F889022804DBB3
:1039F0003068426822F4805203E03068426842F442
:103A00008052426030680268520603D4026842F075
:103A100040020260F068DDF8289088423AD3F988C5
:103A200089B9F889F8B900F0B7F840F08B804B46B7
:103A3000FFF78DFF00287CD1F1683068B1F5706F19
:103A40006ED1C0687CE03068826892070BD500F0C8
:103A500097F8491EF98089B2002904BFB16AB1F50F
:103A6000005F00F0A7F8F88958B130688168C9078D
:103A700007D5B968C0680880881CB860F889401EFE
:103A8000F88119F1010FCAD0FCF7A4FF00F08EF8FD
:103A9000C5D343E0F98811B9F889C0B9C3E73068E4
:103AA0008268920713D5022903DB00F069F8891EAA
:103AB00004E0396800F074F8F988491EF980F98843
:103AC000002904BFB16AB1F5005F00F073F8F9890D
:103AD000E1B130688268D20718D5BA6802290EDBD6
:103AE000C1681180911CB960F989891EF98189B278
:103AF00002290BDA416841F48051416006E0511C13
:103B0000B960007B1070F889401EF88119F1010F2F
:103B1000C0D0FCF75FFF00F049F8BBD3032528E0D5
:103B200000F034F8306B02280CD14B46FFF70FFF42
:103B300020B1606840F002006060EFE73068007B11
:103B400000F025F830688168C90607D5616841F042
:103B50000201616001254FF6EF71816049463046F0
:103B600000F0B4F810B12020606001E0606800B19E
:103B7000012501206070002020702846BDE8F28FEA
:103B80003A6832F8023BC3603A607047007BADF898
:103B90000000BDF800007047B06AB0F5005F7047E4
:103BA000491C3960491E097801737047A0EB080071
:103BB0004845704703D1016841F480510160704766
:103BC0002DE9F04104460D4690461F46FCF702FFE2
:103BD0000646206880682840404516D017F1010F3E
:103BE000F7D027B1FCF7F6FE801BB842F1D300F006
:103BF00043F807D1A168B1F5004F18BFB1F5806F48
:103C000000F043F800F047F800E00020BDE8F08144
:103C10002DE9F04182B004460D4616461F46FCF7DA
:103C2000D9FE8046206881682940B14221D0B5F58F
:103C3000C06F08BF002E04D1007B8DF800009DF8F6
:103C4000000017F1010FEDD02FB1FCF7C3FEA0EB80
:103C50000800B842E6D300F00FF807D1A168B1F52B
:103C6000004F18BFB1F5806F00F00FF800F013F8A7
:103C700000E00020BDE8F6812068416821F0E00105
:103C800041606168B1F5827F704703D1016821F01E
:103C9000400101607047A16AB1F5005F08D1016879
:103CA0004DF6FF7211400160016841F4005101605E
:103CB00004F15C0001214170002101700320704774
:103CC0002068016821F040010160704738B50D4659
:103CD00004462B4600224FF4C051FFF799FF10B95C
:103CE00000F00AF808B100F001F832BD206E40F093
:103CF00020002066032070472B46002280212046AA
:103D00005EE7F8B504460D4616461F4600F00CF96E
:103D10003B4632462946204601B0BDE8F04000F05F
:103D20001AB900000278C9B28A421AB11CBF10F851
:103D3000012FF9E718BF00207047000000F10103D0
:103D4000810704D010F8011B89B18107FAD10268FC
:103D5000B2F10131914311F0803F04BF50F8042FBC
:103D6000F6E710F8011B11B110F8011BFBE7C01AB0
:103D700070470000C9B2830706D0521E22D310F844
:103D8000013B9942F7D11FE0083A13D302F1040234
:103D900041EA012141EA014150F8043B121F21BFD1
:103DA0004B40A3F1013C2CEA030C1CF0803FF3D004
:103DB000C9B2001F083210F8013B521E28BF91EA19
:103DC000030FF8D818BF0120401E704780B500F0DF
:103DD000ABF8012002BD000070B5054605F10F00EB
:103DE000C408C046C046E400A54232D2082C04D222
:103DF000082402E0083000F055F82248026811005B
:103E00000CD1011D0A6802B31368A34238BF111D0B
:103E1000F8D310E01D68A5420DD2191D0B68002BC8
:103E2000F8D11268011D00E0191D0B6893420CD0F7
:103E30001D68A542F8D361B10D682A68A2F1080394
:103E4000A3420AD26A680A600FE000F0A7F80028CF
:103E5000D0D1C046C046002070BD63190B60121B54
:103E60006E685E600B681A602C60096800291DBFCF
:103E70004A68002A091D00210160C046C04605F1BC
:103E8000080070BD5404002070B504460D46164667
:103E900000F04AF8324629462046BDE8704000F05E
:103EA0004DB8000000B9704738B5A0F1080420688B
:103EB000082833D310F0070F30D1C046C046184849
:103EC000416809B18C4203D26160446017E0194631
:103ED0004B680BB1A342FAD30B685D18AC421BD3FD
:103EE000A54204D12268D2180A600C4607E04A684D
:103EF0001AB123681B199A420ED362604C60616844
:103F000051B1226813198B4206D10023036008685F
:103F10008018206048686060C046C04631BD00001F
:103F2000540400207047000080B5DFF80C0000F05A
:103F30004BF8806902BD00000800002030B430B9A1
:103F40000FF24800D0E90045C2E900451BE00170CE
:103F5000012030BC704730B431B90FF23800D0E9DD
:103F60000045C3E900450EE01AB930BC6FF001000E
:103F7000704708B10A7802800978481E804130BC39
:103F8000C043C00F7047002030BC704700000000E5
:103F90000000000000000000000000000749086861
:103FA00008B1002070470648C008C00008600549F5
:103FB000C908C900091A0160704700BF64040020E5
:103FC00077080020700A0020704700000E480F4A52
:103FD000016841F4700101600D48016841F0010180
:103FE0000160002181600168114001604FF40061AF
:103FF000C160016821F480210160002181614FF0DE
:10400000006004490860704788ED00E0FFFFF6EAB1
:104010000010024008ED00E0000000000000000079
:104020000102030406070809A0860100400D0300F1
:10403000801A060000350C0040420F0080841E00EC
:1040400000093D0000127A000024F40000366E01E1
:104050000048E801006CDC0219E050F8041BCB07B3
:1040600044BFA9F101035918121F0023042A41F883
:10407000043BF9D25FEA827C0B4604D54FF0000C7A
:10408000A1F800C09B1CD10744BF0021197050F853
:10409000042B002AE1D170477047FEE77047704754
:1040A000704780B5FCF791FC08480168491C016025
:1040B00001BD0120FEF77DBC80B54FF40050FEF736
:1040C00078FC03490120087001BD00006004002055
:1040D0006B04002010B450F8041B79B102684368E7
:1040E00012180830DC0744BFA9F10104E31852F8A4
:1040F000044B43F8044B091FF9D1ECE710BC70479F
:1041000010B5074979441831064C7C44163404E054
:104110000A68081D511888470146A142F8D110BD10
:104120002C0000004C0000004EF68851CEF2000139
:10413000086840F470000860BFF34F8FBFF36F8FC3
:104140004FF00070E1EE100A704700000DFFFFFF16
:10415000BC030000B00000200000000079FFFFFF5A
:10416000B0000000B80100000000002000000000C6
:1041700000F00BF8002801D0FFF7C2FF0020C04676
:10418000C046FEF78AF900F002F80120704700F0FF
:1041900001B800000746384600F002F8FBE70000CF
:1041A00080B5C046C046024A11001820ABBEFBE7EE
:1041B000260002000148804701480047CD3F000823
:1041C000C5410008C046C046FFF7AEFFFFF7D0FF6D
:1041D000E8030000FFF7FEBFFFF7FEBFFFF7FEBFDB
:1041E000FFF7FEBFFFF7FEBFFFF7FEBFFFF7FEBF03
:1041F000FFF7FEBFFFF7FEBFFFF7FEBFFFF7FEBFF3
:10420000FFF7FEBFFFF7FEBFFFF7FEBFFFF7FEBFE2
:10421000FFF7FEBFFFF7FEBFFFF7FEBFFFF7FEBFD2
:10422000FFF7FEBFFFF7FEBFFFF7FEBFFFF7FEBFC2
:10423000FFF7FEBFFFF7FEBFFFF7FEBFFFF7FEBFB2
:10424000FFF7FEBFFFF7FEBFFFF7FEBFFFF7FEBFA2
:10425000FFF7FEBFFFF7FEBFFFF7FEBFFFF7FEBF92
:10426000FFF7FEBFFFF7FEBFFFF7FEBFFFF7FEBF82
:10427000FFF7FEBFFFF7FEBFFFF7FEBFFFF7FEBF72
:10428000FFF7FEBFFFF7FEBFFFF7FEBFFFF7FEBF62
:10429000FFF7FEBFFFF7FEBFFFF7FEBFFFF7FEBF52
:1042A000FFF7FEBFFFF7FEBFFFF7FEBFFFF7FEBF42
:1042B000FFF7FEBFFFF7FEBFFFF7FEBFFFF7FEBF32
:1042C000FFF7FEBFFFF7FEBFFFF7FEBFFFF7FEBF22
:1042D000FFF7FEBFFFF7FEBFFFF7FEBFFFF7FEBF12
:1042E000FFF7FEBFFFF7FEBFFFF7FEBFFFF7FEBF02
:1042F000FFF7FEBFFFF7FEBFFFF7FEBFFFF7FEBFF2
:10430000FFF7FEBFFFF7FEBFFFF7FEBFFFF7FEBFE1
:10431000FFF7FEBFFFF7FEBFFFF7FEBF0000000084
:10432000000000000000000000000000000000008D
:10433000000000000000000000000000000000007D
:10434000000000000000000000000000000000006D
:10435000000000000000000000000000000000005D
:10436000000000000000000000000000000000004D
:10437000000000000000000000000000000000003D
:10438000000000000000000000000000000000002D
:10439000010000000000000000000000000000001C
:1043A000000000000000000000000000000000000D
:1043B00000000000000000000000000000000000FD
:0C43C000000000480008004800093D0013
:00000001FF
