:020000040800F2
:10000000F8070020E92B0008CD2A0008CF2A0008B5
:10001000092C00080D2C0008112C0008000000001D
:10002000000000000000000000000000D12A0008CD
:10003000D32A000800000000D52A0008D72A0008AB
:10004000152C0008192C00081D2C0008212C000874
:10005000252C0008292C0008E72A00082D2C000870
:10006000312C0008352C0008392C00083D2C0008E4
:10007000412C0008452C0008492C00084D2C000894
:10008000512C0008552C0008592C00085D2C000844
:10009000612C0008652C0008692C00086D2C0008F4
:1000A000712C0008752C0008792C00087D2C0008A4
:1000B000812C0008852C0008892C00088D2C000854
:1000C000912C0008952C0008992C00089D2C000804
:1000D000A12C0008A52C0008A92C0008AD2C0008B4
:1000E000ED2A0008B12C0008B52C0008B92C000836
:1000F000BD2C0008C12C0008C52C0008C92C000824
:10010000CD2C0008D12C0008D52C0008D92C0008D3
:10011000DD2C0008E12C0008E52C0008E92C000883
:10012000ED2C0008F12C0008F52C0008F92C000833
:10013000FD2C0008012D0008052D0008092D0008E0
:100140000D2D0008112D0008152D0008192D00088F
:100150001D2D0008212D0008252D0008292D00083F
:100160002D2D0008312D0008352D0008392D0008EF
:100170003D2D0008412D0008452D0008000000001D
:10018000492D00084D2D00082DE9F047044682B0A6
:100190002078DFF88857DFF88067C00625D5B0687B
:1001A00010F00C0F3AD13068C0F3400010B1A069D4
:1001B000002831D0306800074EBF306868680009F9
:1001C00000F0F001206A814206D200F068FB0028AE
:1001D00022D100F0DDF905E000F0DAF9206A00F044
:1001E0005EFBC8B90F2000F0C2FB2078C00741F2C7
:1001F000893876D500F0D7FA07D000F0D9FA02BFD7
:10020000F06800F0030003282ED100F0BDF90028AB
:1002100067D06068002864D10120A3E1A0690028AC
:10022000306811D040F0010000F0A5F907463068B1
:10023000C0F3400028B900F0B1FBC01B6528F6D31D
:100240008DE100F0A5F9D0E74008400000F093F9F7
:1002500007463068C0F340000028C6D000F09EFB7F
:10026000C01B6528F5D37AE100F088F920F48020DE
:1002700000F081F9074600F087F928B100F08EFB05
:10028000C01B4045F7D36AE16068B0F5803F07D0F6
:10029000B0F5A02F00F072F906D140F48020306054
:1002A000306840F4803001E020F4802030606068E5
:1002B00058B100F073FB074600F066F988B900F00A
:1002C0006DFBC01B4045F7D349E100F067FB0746D3
:1002D00000F05AF928B100F061FBC01B4045F7D38C
:1002E0003DE12078800718D500F058FA07D000F0DB
:1002F0005FFA02BFF06800F00300022825D13068E1
:10030000C0F3802010B1E068002885D070682169B2
:1003100020F0F85040EA016070602078000748D56E
:1003200060690028686834D040F00100686000F01F
:1003300035FB07466868C0F34000002839D100F05B
:100340002DFBC01B6528F5D309E1E0680028306863
:100350000FD040F4807000F00EF907463068C0F30B
:1003600080200028D2D100F019FBC01B6528F5D3EE
:10037000F5E020F4807000F0FEF807463068C0F326
:1003800080200028C9D000F009FBC01B6528F5D3E8
:10039000E5E040084000686000F000FB0746686840
:1003A000C0F3400028B100F0F9FAC01B6528F6D36D
:1003B000D5E02078400773D5B06DC0004FF000093C
:1003C0000AD4B06D40F08050B0654FF00109B06DB7
:1003D00000F0805000900098DFF844A5DAF80000A3
:1003E000C00512D4DAF8000040F48070CAF80000AA
:1003F00000F0D4FA0746DAF80000C00505D400F092
:10040000CDFAC01B6528F6D3A9E0286800F0ACF847
:10041000286000F0C3FA07462868C0F3400028B1FE
:1004200000F0BCFAC01B4045F6D398E0A068012854
:100430000CD008B928680DE0052828680AD14008C2
:1004400040002860286840F004002860286840F0D8
:10045000010001E000F088F82860A06860B100F0B9
:100460009DFA07462868C0F3400090B900F096FA5C
:10047000C01B4045F6D372E000F090FA07462868AA
:10048000C0F3400028B100F089FAC01B4045F6D304
:1004900065E0B9F1000F03D0B06D20F08050B06579
:1004A000606A00285DD0B16801F00C010C293FF4AE
:1004B000B3AE0228306820F0807030603AD100F08E
:1004C0006DFA07463068C0F3406028B100F066FA64
:1004D000C01B6528F6D342E0E06A216B401E09028A
:1004E00041EA0010616B090940EA4140A16A0843F2
:1004F000A16B891E0905490D40EA4150E16B891E37
:10050000090601F07E410843F060306840F08070D9
:100510003060F06840F08070F06000F03FFA07460D
:100520003068C0F34060E0B900F038FAC01B6528BD
:10053000F6D314E0F068DFF8EC1380088000F06078
:10054000F0680840F06000F029FA07463068C0F310
:10055000406030B100F022FAC01B6528F6D30320BA
:1005600000E00020BDE8F6874008400028602868C9
:1005700020F004007047306000F010BA306820F4BA
:1005800080303060306870473068C0F3404070475A
:10059000306840F0080030603068216A20F0F000D8
:1005A000084330607068E16920F47F4040EA012030
:1005B000706070472DE9F843DFF86C53DFF858633B
:1005C000044628680F4600F00700B84241F2893817
:1005D0005BD2002F18BF012F04D0022F1CBF032FA6
:1005E000042F04D12868C00847EAC00000E028684A
:1005F00000F0C7F816D100F0E0F840F1A98060687B
:10060000022803D13168C1F340410AE0032803D135
:100610003168C1F3406104E00028316803D1C1F3BF
:10062000400121B992E0C1F380210029FAD000F005
:10063000AEF805466068022808D100F0B4F809D089
:1006400000F0ACF9401B4045F7D36BE0032808D11C
:1006500000F0AEF87CD000F0A1F9401B4045F7D384
:1006600060E048B9B06810F00C0F71D000F096F956
:10067000401B4045F6D355E000F090F868D000F0FC
:100680008DF9401B4045F7D34CE000F096F84BD570
:100690006068022803D13168C1F3404109E018B90C
:1006A0003168C1F3400104E00328316803D1C1F38C
:1006B000406121B94AE0C1F38021002946D000F011
:1006C00066F881466068022809D100F06CF82BD0EA
:1006D00000F064F9A0EB09004045F6D322E00328BE
:1006E00009D100F065F81FD000F058F9A0EB09001F
:1006F0004045F6D316E060B9B06810F00C0F13D087
:1007000000F04CF9A0EB090041F288318842F3D3A4
:1007100008E000F043F807D000F040F9A0EB090032
:100720004045F6D303202AE0002F18BF012F04D044
:10073000022F1CBF032F042F04D12868C00847EAEA
:10074000C00000E0286800F01CF801D0012016E08D
:100750002078400705D5B068E16820F4E0600843E0
:10076000B0602078000706D5B068216920F4605099
:1007700040EAC100B0600F2000F0F9F80020BDE8A9
:10078000F2832860286800F00700B8427047B1681B
:10079000890840EA8100B06000F000B9B06800F05C
:1007A0000C0004287047B06800F00C00082870475F
:1007B000B06800F00C000C2870472078800705D541
:1007C000B068A16820F0F0000843B0602078C0074E
:1007D000704751498B680022002003F00C03042B62
:1007E00008BF534827D08B6803F00C03082B08BFC1
:1007F000504820D08B6813F00C0F09D08B6803F0A1
:100800000C030C2B02BFCB6803F00303012B12D1A6
:100810000A68120704D4484A1268C2F3032202E0AD
:100820000A68C2F30312454B53F822208B6813F079
:100830000C0F08BF10468B6803F00C030C2B1ED165
:10084000C868CB68C3F302135B1C00F003000228E6
:1008500002D0032802D005E0354800E03548B0FB5F
:10086000F3F001E0B2FBF3F0CA68C968C1F341617B
:10087000C2F30622491C50434900B0FBF1F0704717
:1008800080B5FFF7A6FF294B2D4A1B682D49C3F3FE
:1008900003139A5C20FA02F30B60086802BD70B57E
:1008A000294E82B0054630680024C00002D500F011
:1008B00087F80EE0306840F080503060306800F01B
:1008C00080500090009800F07BF8316821F0805152
:1008D0003160B0F5007F04D1812D0DD3A12D06D25A
:1008E00009E0812D28BF032406D2802D01D10224E6
:1008F00002E0702D00D101240B480168C90844EAC8
:10090000C1010160006800F00700A04201D0012091
:1009100076BD002076BD000000100240901002401D
:1009200000700040FFFFEEFE002002400810024071
:100930000024F40000127A00941002405C2A00089F
:100940004C2A0008B40000205810024080B51A4814
:10095000016841F480710160032000F046F80F2027
:1009600000F005F800F002F8002002BD704710B555
:100970000446FFF785FF4FF47A71B0FBF1F000F009
:100980006DF8002221464FF0FF3000F03BF80020C8
:1009900010BD0A480168491C01607047074800689B
:1009A000704738B50446FFF7F9FF0546FFF7F6FF35
:1009B000401BA042FAD331BD00200240EC030020CE
:1009C000DFF80800006800F4C06070470070004065
:1009D0000901002806D52B4A00F00F00801800F806
:1009E000041C7047284A8154704728490A684FF60A
:1009F000FF031A4000F0070042EA0020244A104397
:100A00000860704770B5214B1B68C3F302230124B3
:100A1000C3F10705052D2EBF0F2504FA05F56D1E40
:100A20001E1D072E34BF0023DB1E2940994004FA07
:100A300003F3BDE870405B1E1A401143C8E7012173
:100A400000F01F029140134A04E0012100F01F0250
:100A50009140114A400942F82010704710B5401EDD
:100A6000B0F1807F01D3012010BD0C4C60600F21DC
:100A70004FF0FF30FFF7ACFF0020A06007202060A0
:100A8000002010BD18ED00E000E400E00CED00E0F7
:100A90000000FA0500E100E080E100E010E000E085
:100AA00030B58BB01B208DF8180006ACC5206070E7
:100AB00000F0ADF9B420A0719A2000F066F83A2059
:100AC00000F05DF86E2060733620A0730220E073A2
:100AD0000723DFF87C54281D0090012206A902207C
:100AE00000F079FA002847D11B208DF81800012367
:100AF00000F051F800F08DF9FC20A0718F2000F07B
:100B000044F84A20A072CF20E072A0202073782001
:100B100060733E20A073E220E073A81D05900020C2
:100B2000049010200390002002900190102000906B
:100B3000A88800F084FAF8B91B208DF81800062365
:100B400000F029F800F065F93620A071AC2000F023
:100B50001CF84B2000F013F81B2060730A20A073D0
:100B60003420E07305F1080000F00DF91220009028
:100B7000A88800F064FA00B147200BB030BDA07225
:100B8000CF20E072802020737047E071E120207256
:100B9000112060727047C520607006AAD520A07031
:100BA00002217047E0B501688DF804100623016842
:100BB00009128DF80510002241688DF80610416871
:100BC00009128DF8071081688DF8081001A9806856
:100BD000009100128DF80900DD48018980882EE11E
:100BE000F0B591B01B208DF830000CACC5206070C2
:100BF00000F00DF9D020A071822000F0CEF8402046
:100C000020731A2060738220A0734220E0730A23AD
:100C1000CF4D05F10A00009001220CA9022000F03E
:100C2000DAF9002825D100F0EBF8E320A071A92023
:100C300000F0B3F820202073552060732E20A0739D
:100C4000A320E07305F10C0000F0CBF8002810D1D0
:100C50000E208DF828004FF0FF3642F22F70ADF8CD
:100C60002A0042F6041700F0A2F8A98900F07EF8E5
:100C7000002878D11B208DF830000323C520607038
:100C80000CAAD520A070022100F0C3F80B20A0719F
:100C9000842000F072F88B20A072E420E0728020A3
:100CA0002073C42060732020A073CD20E07305F171
:100CB0000E0000F068F802200090688900F0BFF98B
:100CC000002850D10F208DF828006FF004008DF817
:100CD00029004FF41E50ADF82A0000208DF82C009A
:100CE000ADF82D000DF1260008900020079010208F
:100CF00006900020059001200490002003900AA88F
:100D00000290072001900090ADF82470E98968896D
:100D100009AB012200F0E8F9002824D100F070F8B6
:100D20007320A071A02000F028F88C20A072E4208D
:100D3000E072602020730B206073C520A073012037
:100D4000E07305F1100000F04CF860B906208DF852
:100D500028004FF41C50ADF82A0000F028F8298A2A
:100D600000F004F800B1472011B0F0BD6889ADF87B
:100D7000247009AB012200F0B7B9E071E2202072C3
:100D8000112060727047059000200490102003909D
:100D900004200290002001907047E071E220207250
:100DA000112060727720A072E420E072704700206A
:100DB0008DF82C00ADF82D000DF1260008900020D4
:100DC000079010200690002005900120049000203C
:100DD00003900AA802900720019000908DF82960E6
:100DE000704705900020049010200390042002908A
:100DF00000200190022000900146688900F01FB990
:100E00001B208DF830000223C52060700CAAD5206D
:100E1000A070A520E0700220207100206071704752
:100E200001B582B000F010F80223818905E001B518
:100E300082B000F009F80323C1894089002200F044
:100E4000ABF900B147200EBD02A94148009170479F
:100E500001B582B0FFF7F8FF0223018AEDE700B584
:100E60000FF2441189B00CC907A800210CC0002062
:100E700000F0D0FB0020069005900490039007A896
:100E8000029008200190002000900346024601468F
:100E900000F062FC09B000BD2D4801224261418092
:100EA00070472B48002141610121017000214170F0
:100EB000704730B5264C2189491C884283B004D143
:100EC00004F11800FFF76EFE3BE0A189491C88423F
:100ED00011D100F003FD054604F11800FFF762FE92
:100EE0000F2080FB050100F039F800F5877000B293
:100EF000FFF796FF25E0E189491C884213D1154888
:100F000000680A21B0FBF1F100A800F057FD00F0E5
:100F1000E5FC4FF47A7100F01FF800F5C330A03003
:100F2000FFF785FF0DE0218A491C884209D100F0B6
:100F3000D5FC642100F010F800F5E17080B2FFF7F5
:100F400087FF608810B1608800F0A2F937BD00000B
:100F50008C000020042C000881FB00016FF040424F
:100F6000002300F03FBD411C007804281AD1087806
:100F7000052804D03E2803D0FF280AD0704790E708
:100F8000881C017801290DD1401CB0F80110401DCA
:100F900082E7881C40F614420188914204BF808891
:100FA000FFF787BF7047000009426C75654E5247D6
:100FB00000B587B000F047F900F036F940F20110B3
:100FC000ADF8060000F038F900284CBFFF209DF86E
:100FD000000007B000BD70B58CB001288DF81C0072
:100FE00014460CBF022610261D4632460DF11D0088
:100FF00000F06FFD701C07A9C0B203224454441CCA
:10100000E4B200A86554002100F069FD00F01BF96E
:1010100000F00AF94FF4817000F0EBF8601C00F06A
:1010200059F800F00CF9002848BFFF2005D49DF8BE
:10103000000010B9109900F048F80CB070BDF1B57F
:101040008EB00D4616461F4602220EA900F00AF980
:1010500007AC012DA57031460CBF022510252A468C
:1010600000F0DEF8E81CC0B2411C0755C9B2149864
:101070000855491C1598C9B203220855491C1698F1
:10108000C9B20855491C1798C9B24D1C0855EDB294
:101090001898285500F024F800F0D5F800F0C4F8AE
:1010A0004FF4827000F0A5F8681C00F013F800F00F
:1010B000C6F8002848BFFF2005D49DF8000010B9ED
:1010C000199900F002F80FB0F0BDBDF801000880DA
:1010D00000207047C0B2049000A80590032070471C
:1010E000002100A800F0FBBC73B5A8B014461D4653
:1010F00000F0B6F800F0B9F88DF82040012C0CBFD4
:101100000224102400F0A6F8611D07AD2E98C9B284
:101110004855481C2F9CC0B2461CF6B256FA84F1C2
:101120004455491D8129A8BF422033DA309907ABC5
:101130002246F01800F0CDFCA1193198C9B2032263
:101140004855491C3298C9B24855491C3398C9B210
:101150004855491C3498C9B24E1C4855F6B23598CA
:101160007055FFF7BDFF00F06EF800F05DF840F23B
:10117000051000F03EF8701CFFF7ACFF00F05FF8C0
:10118000002848BFFF2005D49DF8000010B936990B
:10119000FFF79BFF2AB070BD33B51C46A01D812808
:1011A000A7B01546A8BF422021DA022227A900F0E5
:1011B00059F8022228A900F05AF82C998DF82050ED
:1011C0008DF82140224600F019F800F03CF800F0BC
:1011D0002BF84FF4837000F00CF8A01DC0B20490FF
:1011E00000F02AF800284CBFFF209DF8000029B02D
:1011F00030BDADF8060007A8039070470DF122003E
:1012000000F067BC3F20ADF80800002170471822AD
:10121000ADF80400002102A800F061BC2246194686
:101220000DF11F0000F055BC3F20ADF80400002177
:10123000704704900F20029000A8059001200690AE
:1012400001A800F0F8B81822002101A800F047BC5E
:101250008DF82040224629460DF1210000F039BCCE
:10126000022228A907A800F034BC022229A90DF106
:101270001E0000F02EBCADF80A0001A80490022068
:10128000059000A806900120079002A800F0D3B8AE
:1012900000B589B0FFF7BBFFFFF7B4FF40F227109E
:1012A000FFF7E9FF00284CBFFF209DF8000009B0C0
:1012B00000BD000038B5B14C201D00F01AFC04F14F
:1012C0000C0000F016FC00258C2010FB054000F1FE
:1012D0001401201D00F01EFC6D1C052DF4DB31BD3A
:1012E00000F108010A78042A01D00120704790F823
:1012F00088008978C01E814201D0022070470020FA
:10130000704710B5A2B00020009000F0A8FD9B4CE3
:1013100010E000A904F10C0000F00AFC00F09CFDB4
:1013200000980830FFF71FFE00F099FD0099201D7E
:1013300000F0F0FB04F10C0000F0DEFB0028E8D028
:10134000207850B90EE0802201A98D4800F0E8FC19
:10135000C0B210B101A8FFF706FE00F0D7FC0028CC
:10136000F1D1207000F078FD22B010BD38B500201A
:10137000009000F077FD824C804D04E0281D00F0C5
:10138000C2FB00F06FFD00F0C1FC18B3281D00F097
:10139000B3FBD8B900A9281D00F0CAFB009800F1E2
:1013A00008018022204600F0BBFCC0B20028009952
:1013B000E4D081F888000098FFF792FF0028009998
:1013C000DCD105F10C0000F0A5FBDAE70120287064
:1013D00000F048FD31BD00F049BC30B5890583B04F
:1013E000890D41EA8020ADF80400144601208DF8F3
:1013F00000001D468DF80640032201A90DF10100F1
:1014000000F067FB23460422294600A8FFF7E3FF0C
:1014100037BD38B504460D4607E000A9284600F060
:1014200087FB0099204600F075FB284600F064FB1E
:101430000028F2D031BD2DE9F041044686B0608825
:101440004E4F884680052188800D40EA81254D4811
:1014500000680A21B0FBF1F600200090ADB202A8AE
:1014600000F047FBE268A36861882088D2B2FFF7EA
:10147000B4FFB8F1000F59D106B90126314604A8CE
:1014800000F09CFA05E0009902A800F043FB00F090
:10149000E3FC04A800F09AFA002867D107F10C00D9
:1014A00000F02AFB0028F4D100F0D9FC00A907F1D4
:1014B0000C0000F03DFB009800F1080210780428B1
:1014C000E1D10098527800F10B0190F88800C01E1D
:1014D0000E2A37D00F2A04D0102A47D03E2A38D0FF
:1014E00008E04A88AA4241D162680F2A15D00878DC
:1014F00000283BD1009902A800F00CFB381D00F039
:10150000FBFA0028C3D001A907F10C0000F010FB82
:101510000199381D00F0FEFAB9E762699042C8BF30
:10152000104660610246206900F0D3FA0099381D28
:1015300000F0E9FA00F028F800F08EFC002006B078
:10154000BDE8F081B1F80120AA420FD1C91CC01E2C
:10155000E3E70A7863689A42CCD16269401E904200
:10156000C8BF104660610246491CDCE700F00CF879
:1015700000F072FC4FF0FF30E1E70000B8000020FF
:1015800088030020042C000802A907F10C0040E7A2
:10159000F0B589B000F02EF800F06FF800F077F8A1
:1015A000042000F070F8012000F029F8002848BF5E
:1015B000FF2013D49DF8000080B99DF80100207031
:1015C000BDF8020028809DF804003070BDF80500C9
:1015D00038800E99BDF807000880002009B0F0BDE2
:1015E00007A803902020049000A8059001200690F1
:1015F00001A820E704460D4616461F467047ADF881
:101600000E0000200590069000A807900920089081
:1016100003A810E730B58FB000F017F88DF81C4024
:10162000202CA8BF1F2400F017F800F01BF800F0D2
:101630001EF80920ADF80600FFF7D2FF00284CBFC6
:10164000FF209DF800000FB030BD04460D4620225B
:10165000002107A800F043BA224629460DF11D00DB
:1016600000F037BA1822002101A800F038BA08208B
:10167000ADF804000021704704460922002100A8AB
:1016800000F02DBA0820ADF80C0000217047182298
:10169000002103A800F023BA10B58AB08DF800002D
:1016A0008DF801108DF802201C46072200F006F983
:1016B00000F0F0F800F048F800A80590032006902C
:1016C00001A80790072000F0B2F8002848BFFF20CB
:1016D0000ED49DF8040058B9BDF8050020800C997F
:1016E000BDF8070008800D99BDF8090008800020AA
:1016F0000AB010BD70B58AB00C468DF808001546CA
:101700001E46072200F0D0F800F0C4F800F01CF8E4
:1017100002A805900120069000A80790072000F07D
:1017200086F8002848BFFF200CD49DF8000048B977
:10173000BDF801002080BDF803002880BDF8050039
:10174000308000200AB070BD3F20ADF80C000021B1
:101750008A20ADF80E00704776B592B000F057F8C9
:1017600028BF42201DD200F05AF800F04AF89DF838
:10177000600000F018F800F021F800F03AF800F0EE
:1017800030F800F09AF800F093F8832000F023F886
:10179000C0B2049000F096F800284CBFFF209DF8DE
:1017A000000014B070BD1A998DF822008DF82160E8
:1017B0008DF823502A4609A800F08BB905F10800DE
:1017C000C0B207A9451C4454EDB21C9907A8224693
:1017D000281800F07EB9ADF8060007A80390A01CF9
:1017E0007047A41CE4B207A802221EA9201800F02A
:1017F00070B96419E4B207A802221DA9201800F0EC
:1018000068B9022213A90DF11F0000F062B9199DF9
:101810001B9C54FA85F10E3129291E4670478DF81C
:101820001C00022212A90DF11D0000F052B908900F
:1018300003A8FFF700BE30B58FB08DF81C008DF8FF
:101840001D1014461D461022214600F042F8129841
:101850008DF82F008DF82E50182213988DF8300037
:1018600000211498CDF8310015988DF8350001A8A5
:1018700000F035F900F01CF8862000F010F81A206E
:10188000049000F01FF800284CBFFF209DF80000D6
:101890000FB030BD1822002103A800F020B9ADF828
:1018A000060007A803907047002100A800F017B9B0
:1018B0003F20ADF80400002170471822002101A844
:1018C00000F00DB900A805900120069001A8FFF7CF
:1018D000B2BD0DF11E0000F0FCB80000F8B5344FA9
:1018E000384600F0DDFA0446381D00F0D9FA054606
:1018F00007F1080000F0D4FA064607F10C0000F0EA
:10190000CFFA23782B492C4A002B40D12B6802FBBD
:1019100003132B60082702FB03132B6002FB031346
:101920002B6002FB03132B6002FB03132B6002FBF3
:1019300003132B6002FB03132B6002FB03132B60CA
:101940000346D5F800C002FB0C1CC5F800C043F8E4
:1019500004CB7F1ED5F800C002FB0C1CC5F800C0EC
:1019600043F804CBD5F800C002FB0C1CC5F800C03E
:1019700043F804CBD5F800C002FB0C1CC5F800C02E
:1019800043F804CBDDD1C36F3360012323702B6890
:1019900002FB03112960317801F01F0150F821206A
:1019A00032602A6840F82120306880008008F2BD4B
:1019B000000000205FF36E3C0D66190010B5044670
:1019C0006160FFE700F06DFA206010BD10B50446BD
:1019D00000F067FA22686168801A401C81428041E9
:1019E000C00F10BD1B4213D1094236D12AB1844623
:1019F000B0FBF2F002FB10C2704700F055BAFCD306
:101A00000022002370470B000200002100207047D5
:101A1000904271EB030CF6D370B5B1FA81F4B3FACE
:101A200083F52C1BA340C4F1200532FA05F633439D
:101A3000A2405FF00046E64002E05B085FEA320247
:101A4000841A71EB030524BF204629467641F4D35E
:101A500002000B003000002170BD012ACFD970B503
:101A6000140C20D0B1FA81F4B2FA82F5C4F120044A
:101A70006419B4F12006D6D3B2405FF00044F440BC
:101A8000002502E052085FEA3303C61A71EB020E2A
:101A900024BF3046714664416D41F3D302000B0010
:101AA0002000290070BD0C46B1FBF2F102FB11458C
:101AB0002D0445EA1045B5FBF2F402FB145580B243
:101AC00040EA0545B5FBF2F002FB105240EA044043
:101AD00070BD10B5044600F0E9F9204610BD10B500
:101AE000044610460A460146204600F01BFA2046EE
:101AF00010BD0060406070470168814201D1012043
:101B000070470020704702680A60486001600868FA
:101B100041607047086042684A60416048680160FF
:101B20007047426801681160416800684160704711
:101B300010B50C46016821600068FFE7FFF7F1FF70
:101B40002168002008602168486010BD0068C7490E
:101B5000884200D0704700B5C54887B0016841F0A1
:101B600001010160016801F0010100910099016823
:101B700041F002010160016801F002010091009949
:101B800000F061F800F05FF8416941F48051416173
:101B900001A9406900F48050009000984FF48070D3
:101BA000019001200290039000200490059000F025
:101BB00049F900224FF4807100F04AF908200190A1
:101BC00001A90220029003900320049005200590B3
:101BD000A84800F0DBF9402000F027F8802000F052
:101BE00024F80220019001A90120029000F014F8CD
:101BF00000F02CF90120019001A99F4802900020DB
:101C000000F00AF8002203210620FEF7FBFE062062
:101C1000FEF715FF07B000BD0390032004900020DD
:101C200005904FF0904000F0B1B9019001A9022059
:101C300002900020039003200490052005904FF0AF
:101C4000904000F0A3B9016841F001010160016812
:101C500001F0010100910099016841F0010101606A
:101C6000016801F001010091009970472DE9F041F0
:101C700004468248DFF8088200680D460A2184B0D5
:101C8000B0FBF1F116461F4601A8FFF797FEF8B228
:101C90000090F3B22A462146404600F087F820B172
:101CA00001A8FFF793FE0028F1D0BDE8FF8174483A
:101CB0006E4901604FF482714160002181604FF4F0
:101CC000E061C1600021016141614FF400718161F7
:101CD0000021016241620721C1620821C161002126
:101CE000816200F05BBA80B500224FF4807100F091
:101CF000AFF80520FEF755FE01224FF4807100F089
:101D0000A7F8BDE802400520FEF74BBE80B50121D3
:101D10004FF0904000F018FA012818BF002002BDD3
:101D20002DE9F04186B005460E46FF2017468DF896
:101D3000050004A80FF250110CC90CC0002200F0DD
:101D400086F80F200090052302AA04A900F077F876
:101D50009DF808000024022819D19DF80C009DF878
:101D60000B1051EA002812D047450DDAB8460BE0B7
:101D70000F200090012301AA0DF1050100F05FF88A
:101D80009DF80400A055641CE4B24445F0DB00F06B
:101D90005DF8002002E000BF0098401C0090009811
:101DA0000228F8DB204606B0BDE8F0812DE9F043BB
:101DB000884691461E460FF2D801C5B005460CC9AB
:101DC00003A80FF2D4010CC00CC901A800270CC055
:101DD0000620FEF73AFE002200F039F80F200090AE
:101DE000052301AA03A900F02AF89DF8040002289F
:101DF0001AD14C9C9DF8050054FA86F1884210DBFC
:101E000036B10F200090334605AA414600F017F87E
:101E100064B10F200090234605AA494600F00FF850
:101E200004E06FF0010701E04FF0FF3700F00EF81B
:101E30000620FEF704FE384645B0BDE8F08328468C
:101E400000F012BA4FF0904000F0A0B80122022139
:101E50004FF0904000F07EB90620FEF7F0BD06205E
:101E6000FEF7F3BD074901200860704700300140CC
:101E70004C1002400004004800001110042C00081F
:101E800088030020140401400B0000000000000043
:101E90000A00000000000000AA000000000000008E
:101EA0007047FEF77BBD00007047000062B38B07F0
:101EB00008D0521E11F8013B00F8013B00F02480CD
:101EC0008B07F6D1830740F0208000BF103A07D37C
:101ED00030B4B1E83810103AA0E83810F9D230BC6C
:101EE000530724BFB1E80810A0E8081044BF51F818
:101EF000043B40F8043BD20724BF31F8022B20F802
:101F0000022B44BF0B7803707047083A07D3B1E83F
:101F10000810083A40F8043B40F804CBF7D25307C6
:101F2000E4E7000062F30F2262F31F42401810F052
:101F3000030308D0C91A1FD3DB0748BF00F8012DDF
:101F400028BF20F8022D130030B41446154610396E
:101F500028BF20E93C00FAD8490728BF20E90C0037
:101F600048BF40F8042D890028BF20F8022D48BF43
:101F700000F8012D30BC7047C91818BF00F8012DBA
:101F8000CB0728BF00F8012D704700002DE9F84766
:101F90000022784BDFF8E081DFF8E0914FF00F0A84
:101FA00030E005FA0EFE4EEA040448F82C406FEAD1
:101FB000070C1C680CEA040E4C68E40348BF47EAAF
:101FC0000E0EC3F800E05C680CEA040E4C68A40333
:101FD00048BF47EA0E0EC3F804E09C680CEA040E02
:101FE0004C68E40248BF47EA0E0EC3F808E0DC681C
:101FF0000CEA040C4C68A40248BF47EA0C0CC3F876
:102000000CC0521C0F6837FA02F400F09B804FF0AE
:10201000010C0CFA02F42740F3D04D68022D18BFD2
:10202000122D11D1D50800EB850C02F00706DCF863
:1020300020504FEA860E0AFA0EF6B5430E6906FAEC
:102040000EF63543CCF820504FEA420C03260568C3
:1020500006FA0CF66FEA060E0E7906F003060EEA93
:10206000050506FA0CF635430560E4434D68012D7D
:1020700018BF022D03D0112D18BF122D0FD1856866
:10208000CE680EEA050506FA0CF63543856045680C
:102090004E68C6F3001625409640354345604D68AE
:1020A00005F00306032E06D1C66AC5F3C005344009
:1020B00095402C43C462C4680EEA040E8C6804FA8E
:1020C0000CF444EA0E04C4604C68E40099D5D9F8D5
:1020D000004044F00104C9F800404FEA920CD9F8DE
:1020E000004004F00104009402F00305009C58F83D
:1020F0002C404FEA850E0AFA0EF5AC43B0F1904F32
:1021000008BF00251DD01E4DA84208BF012518D0CC
:102110001C4DA84208BF022513D01B4DA84208BF82
:1021200003250ED0194DA84208BF042509D0184D2B
:10213000A84208BF052504D0164DA8420CBF0625AD
:1021400007252EE7BDE8F1870069084018BF012088
:10215000C0B270470AB181617047816270470E4A10
:102160001368034200D1704780B5106000F047FA51
:1021700001BD000000040140080001406010024061
:102180000004004800080048000C00480010004807
:1021900000140048001800481404014070B5040001
:1021A00001D1012070BD04F15C05687818B9287070
:1021B0002046FFF7CBFC0220687040F2017300F06C
:1021C000FDF9E2689A4204D30021B2F5706F05D19F
:1021D00006E0B2F5E06F4FF4805101D00026A66210
:1021E000266B26B99A422CBF022201222263626822
:1021F000A3681A4323691A4363691A43A36903F462
:1022000000731A43E3691A43236A1A43A36A1A4301
:102210000260226B022A03D1026842F4006202606B
:10222000A269636A120C02F004021A43636B1A4338
:10223000E3681A4311434160E16A0161002068606C
:1022400001206870002070BD3B460122012130460C
:1022500000F034B901684DF6FF7211400160016869
:1022600041F40051016070472DE9F84F0646894658
:1022700092469B46FEF792FB06F15C04804620786E
:102280000025012808BF022000F0F6800120207000
:102290006078012818BF022540F0E980B9F1000FED
:1022A0001CBFBAF1000FBBF1000F00F0DF8005206A
:1022B00006F1380760706560C7F808A0A7F80EB08F
:1022C000A7F80CB0C7F80090A7F806B0A7F804B0BC
:1022D00000F0E0F802D13068FFF7BCFF40F2017176
:1022E000F068884202D2F889022804DB306842682C
:1022F00022F4805203E03068426842F48052426027
:1023000030680268520603D4026842F0400202605C
:10231000F068DDF8289088423AD3F98889B9F889BD
:10232000F8B900F0B7F840F08B804B46FFF78DFF0F
:1023300000287CD1F1683068B1F5706F6ED1C0684B
:102340007CE03068826892070BD500F097F8491E50
:10235000F98089B2002904BFB16AB1F5005F00F0CD
:10236000A7F8F88958B130688168C90707D5B968F6
:10237000C0680880881CB860F889401EF88119F18F
:10238000010FCAD0FEF70AFB00F08EF8C5D343E078
:10239000F98811B9F889C0B9C3E730688268920733
:1023A00013D5022903DB00F069F8891E04E03968BF
:1023B00000F074F8F988491EF980F988002904BFF3
:1023C000B16AB1F5005F00F073F8F989E1B13068E6
:1023D0008268D20718D5BA6802290EDBC16811805D
:1023E000911CB960F989891EF98189B202290BDA39
:1023F000416841F48051416006E0511CB960007BA6
:102400001070F889401EF88119F1010FC0D0FEF755
:10241000C5FA00F049F8BBD3032528E000F034F8F2
:10242000306B02280CD14B46FFF70FFF20B16068DC
:1024300040F002006060EFE73068007B00F025F8B4
:1024400030688168C90607D5616841F002016160A2
:1024500001254FF6EF7181604946304600F0B4F82F
:1024600010B12020606001E0606800B1012501200A
:102470006070002020702846BDE8F28F3A6832F87C
:10248000023BC3603A607047007BADF80000BDF8C6
:1024900000007047B06AB0F5005F7047491C3960B2
:1024A000491E097801737047A0EB08004845704742
:1024B00003D1016841F48051016070472DE9F0417A
:1024C00004460D4690461F46FEF768FA0646206809
:1024D00080682840404516D017F1010FF7D027B18A
:1024E000FEF75CFA801BB842F1D300F043F807D145
:1024F000A168B1F5004F18BFB1F5806F00F043F847
:1025000000F047F800E00020BDE8F0812DE9F0413F
:1025100082B004460D4616461F46FEF73FFA804637
:10252000206881682940B14221D0B5F5C06F08BF4D
:10253000002E04D1007B8DF800009DF8000017F1FB
:10254000010FEDD02FB1FEF729FAA0EB0800B84239
:10255000E6D300F00FF807D1A168B1F5004F18BF1E
:10256000B1F5806F00F00FF800F013F800E00020E4
:10257000BDE8F6812068416821F0E00141606168B2
:10258000B1F5827F704703D1016821F040010160FD
:102590007047A16AB1F5005F08D101684DF6FF727E
:1025A00011400160016841F40051016004F15C00D8
:1025B00001214170002101700320704720680168EB
:1025C00021F040010160704738B50D4604462B46A6
:1025D00000224FF4C051FFF799FF10B900F00AF83C
:1025E00008B100F001F832BD206E40F020002066F6
:1025F000032070472B460022802120465EE7FEF72D
:10260000B5BE000010B50FF23C118CB00CC909A882
:1026100000240CC0FEF79AF90021084600F096F855
:1026200000F0ECF8FFF743FBFEF744FEFFF75BFB1F
:1026300006A904A800F03AF9FFF755FB9DF8100031
:10264000312803DB022001248DF82900062209A984
:1026500007A8FFF73EFA07AA0621002000F051F96B
:10266000FEF7A6FC64B10DF11600019005AB0DF16B
:1026700012000090072200210120FFF70DF807E06B
:102680000DF116030DF1120205A90120FFF732F832
:102690000FF2A800BDF8121000900723BDF8140037
:1026A0000022FEF779FD00B1FEE701200390072329
:1026B0001E481F4C02900022002001900021102093
:1026C00000900120FFF7B7F8FEF7EAF9FEF788FA65
:1026D0000421012000F03CF9FEF713FE204600F033
:1026E00001F8F9E738B5134D0446287818B1FEF71C
:1026F000B6FB00202870002000F068F8A8B9002080
:1027000000F064F80028FAD00B48006868B120682F
:1027100064302060606864306060A0686430A060ED
:102720002046BDE83240FEF73DBA31BD40E201002F
:10273000A40000208C000020A0000020426C7565E1
:102740004E524700123400E18003000030B587B0DC
:1027500004460D4600F044F854B9DFF88C000168D7
:1027600041F004010160006800F00400009000984E
:10277000DFF878000FF27C013DB931F814100191B7
:102780000021029100F01AF816E0012D14D131F861
:1027900014100191DFF858100291002100F00EF89A
:1027A0000FF2540030F8144000220F2160B2FEF7FF
:1027B00029F960B2FEF743F907B030BD0391022159
:1027C000049101A950F82400FFF7E0BB0FF22401A7
:1027D000DFF8182031F8101052F82000FFF7B4BCD1
:1027E00001A8142100F0EEB84C100240B000002007
:1027F00000002110002000002800000000B595B066
:1028000000A8142100F0DEF80FF2600105A891EC99
:10281000100B80EC100B1020059001200B90602015
:102820000D9000200C9002200E9001200F9010902F
:102830002820119002201490072012900420139059
:1028400005A8FDF7A1FC00B1FEE70F2000900421D0
:1028500003200190002002900390049000A8FDF74F
:10286000A9FE00B1FEE715B000BD000000000000A9
:102870000000000000000000000000000000000058
:102880000000000000000000000000000000000048
:102890000000000000000000000000000000000038
:1028A00000000000000000000000000070B584B0CF
:1028B000064601A800900C460DF10A0302AA0DF18C
:1028C00006010DF10900FEF763FEC5B2A5B9BDF81A
:1028D0000600000A3070BDF8060000022080BDF836
:1028E00004100906090F40EA01102080BDF8041009
:1028F00001F00F0108432080FEF703FD284604B0D5
:1029000070BD10B50C461146A21C812AA8B0A8BF04
:1029100042201BDA8DF81C008DF81D4022460DF177
:102920001E00FFF7D6F800F036F800F02FF80C2064
:10293000ADF8060007A80390A01CC0B2049000F0F8
:1029400031F800284CBFFF209DF8000028B010BDD2
:1029500000B589B08DF804008DF80510182200210B
:1029600002A8FFF7BCF83F20ADF8080000210F20B7
:10297000ADF80A0001A80490022000F01AF800281F
:102980004CBFFF209DF8000009B000BD3F20ADF80E
:102990000400002170471822002101A8FFF79FB80A
:1029A000ADF8060000A805900120069001A8FEF7EA
:1029B00042BD059000A806900120079002A8FEF7EE
:1029C0003ABD0000002200F001B8000000B500BFD1
:1029D000130096469446103928BFA0E80C50FAD848
:1029E0005FEA417C28BF0CC048BF40F8042BC907F0
:1029F00028BF20F8022B48BF00F8012B00BD0000C3
:102A00000E480F4A016841F4700101600D480168E9
:102A100041F0010101600021816001681140016005
:102A20004FF40061C160016821F480210160002140
:102A300081614FF0006004490860704788ED00E054
:102A4000FFFFF6EA0010024008ED00E00000000081
:102A5000000000000102030406070809A086010027
:102A6000400D0300801A060000350C0040420F00A4
:102A700080841E0000093D0000127A000024F4004A
:102A800000366E010048E801006CDC0219E050F8E5
:102A9000041BCB0744BFA9F101035918121F0023DF
:102AA000042A41F8043BF9D25FEA827C0B4604D544
:102AB0004FF0000CA1F800C09B1CD10744BF0021BF
:102AC000197050F8042B002AE1D170477047FEE7D7
:102AD00070477047704780B5FDF75BFF0848016895
:102AE000491C016001BD0120FFF739BB80B54FF4DF
:102AF0000050FFF734FB03490120087001BD0000BE
:102B0000F0030020F403002010B450F8041B79B146
:102B10000268436812180830DC0744BFA9F10104B9
:102B2000E31852F8044B43F8044B091FF9D1ECE7C2
:102B300010BC704710B5074979441831064C7C44E5
:102B4000163404E00A68081D511888470146A1425E
:102B5000F8D110BD2C0000004C0000004EF688514A
:102B6000CEF20001086840F470000860BFF34F8F98
:102B7000BFF36F8F4FF00070E1EE100A7047000056
:102B80000DFFFFFF40030000B80000200000000020
:102B900079FFFFFFB8000000B8010000000000202E
:102BA0000000000000F00BF8002801D0FFF7C2FF82
:102BB0000020C046C046FFF725FD00F002F80120C6
:102BC000704700F001B800000746384600F002F8F0
:102BD000FBE7000080B5C046C046024A110018203D
:102BE000ABBEFBE7260002000148804701480047D2
:102BF000012A0008F92B0008C046C046FFF7AEFFC7
:102C0000FFF7D0FFE8030000FFF7FEBFFFF7FEBFAE
:102C1000FFF7FEBFFFF7FEBFFFF7FEBFFFF7FEBFE8
:102C2000FFF7FEBFFFF7FEBFFFF7FEBFFFF7FEBFD8
:102C3000FFF7FEBFFFF7FEBFFFF7FEBFFFF7FEBFC8
:102C4000FFF7FEBFFFF7FEBFFFF7FEBFFFF7FEBFB8
:102C5000FFF7FEBFFFF7FEBFFFF7FEBFFFF7FEBFA8
:102C6000FFF7FEBFFFF7FEBFFFF7FEBFFFF7FEBF98
:102C7000FFF7FEBFFFF7FEBFFFF7FEBFFFF7FEBF88
:102C8000FFF7FEBFFFF7FEBFFFF7FEBFFFF7FEBF78
:102C9000FFF7FEBFFFF7FEBFFFF7FEBFFFF7FEBF68
:102CA000FFF7FEBFFFF7FEBFFFF7FEBFFFF7FEBF58
:102CB000FFF7FEBFFFF7FEBFFFF7FEBFFFF7FEBF48
:102CC000FFF7FEBFFFF7FEBFFFF7FEBFFFF7FEBF38
:102CD000FFF7FEBFFFF7FEBFFFF7FEBFFFF7FEBF28
:102CE000FFF7FEBFFFF7FEBFFFF7FEBFFFF7FEBF18
:102CF000FFF7FEBFFFF7FEBFFFF7FEBFFFF7FEBF08
:102D0000FFF7FEBFFFF7FEBFFFF7FEBFFFF7FEBFF7
:102D1000FFF7FEBFFFF7FEBFFFF7FEBFFFF7FEBFE7
:102D2000FFF7FEBFFFF7FEBFFFF7FEBFFFF7FEBFD7
:102D3000FFF7FEBFFFF7FEBFFFF7FEBFFFF7FEBFC7
:102D4000FFF7FEBFFFF7FEBFFFF7FEBFFFF7FEBFB7
:102D50000000000001000000000000000000000072
:102D60000000000000000000000000000000000063
:102D70000000000000000000000000000000000053
:102D80000000000000000000000000000000000043
:102D90000000000000000000000000000000000033
:102DA0000000000000000000000000000000000023
:102DB0000000000000000000000000000000000013
:102DC0000000000000000000000000000000000003
:102DD00000000000000000000000000001000000F2
:102DE00000000000000000000000000000000000E3
:102DF00000000000000000000000000000000000D3
:082E00000008004800093D0034
:00000001FF
