:020000040800F2
:100000004009002011320008D52F0008D72F000822
:100010003132000835320008393200080000000093
:10002000000000000000000000000000D92F0008C0
:10003000DB2F000800000000DD2F0008DF2F000884
:100040003D3200084132000845320008EF2F000819
:10005000493200084D320008F32F000851320008E1
:1000600055320008593200085D320008613200083C
:1000700065320008693200086D32000871320008EC
:1000800075320008793200087D3200080000000057
:1000900000000000000000000000000081320008A5
:1000A00085320008893200088D320008913200083C
:1000B00095320008993200089D320008A1320008EC
:1000C000A5320008A9320008AD320008B13200089C
:1000D000B5320008B9320008BD3200080000000047
:1000E000F92F0008C1320008C532000800000000E6
:1000F000000000000000000000000000C9320008FD
:1001000000000000CD320008D1320008D5320008CE
:1001100000000000000000000000000000000000DF
:1001200011300008D9320008DD32000849300008DB
:10013000E1320008000000000000000000000000A4
:10014000000000000000000000000000E532000890
:10015000E9320008ED320008F1320008F5320008FB
:10016000F9320008FD320008000000000000000025
:10017000000000000000000000000000000000007F
:100180000000000001330008000000000000000033
:1001900005330008DFF8B415002008707047DFF859
:1001A000B005406E004780B5DFF8A80501680A6C0D
:1001B000126800F03BFA496C00F0E9F972B690F869
:1001C000241001290BD1002180F824100121017194
:1001D000062000F024FB62B6BDE801407AE1002170
:1001E000017162B601BD80B5FFF7DDFFDFF8640580
:1001F0004189DFF864050068BDE80440C9B200F039
:10020000D2BB80B5012000F016FABDE80440002101
:1002100070E110B5DFF8384504F10C0000F01CF86F
:10022000DFF83005DFF8343504F10C0101600022FD
:100230000021017180F82410E068416841F0030159
:100240004160016841F040010160032004F10801B0
:10025000BDE8104000F0AABEDFF8041501604FF4BD
:100260008271416000218160C160016141614FF490
:10027000007181610021016241620721C162002198
:10028000C161816200F00ABF30B587B04FF4807061
:100290000290002005900022DFF8C83400A9032056
:1002A00000F084FEDFF8C004DFF8C0440168DFF826
:1002B0009C5441F0010101600022006800F001003F
:1002C00001904FF480710198204600F0FDFF01205D
:1002D000039002A900200490204600F023FF9DF81F
:1002E0000000012100F0ACFE00F013F801224FF4F1
:1002F0008071204600F0E8FF9DF800005D2100F0CD
:100300009FFE00F006F89DF8000000F073FE07B0B5
:1003100030BD0120287028780128FCD0704738B5FE
:10032000DFF83044251D68610020A9612A776B77CA
:10033000E87772B6287840B901202870062000F0CE
:100340006EFA62B6BDE83140C4E0012084F82400B2
:1003500062B631BD10B5DFF8184401206060062098
:1003600000F06CFA062000F054FA00F0AFF8012813
:1003700003D1206840F00100206010BD002207E09A
:10038000DFF8D0030068006880680006F8D4012216
:100390000221DFF8D80300F097BF80B5FFF7F0FF28
:1003A0000D204FF00051401E0968FAD1BDE8014010
:1003B000E4E7F8B5DFF89C03DFF8B8530668DFF828
:1003C000B823716CDFF8B4330F68DFF8B413DFF8CB
:1003D000B443AF4202D320275F600AE0A74202D3B2
:1003E00020271F6005E0974227BF20274F60202766
:1003F0000F60366C36684FF00067AE4228BF5F6012
:1004000007D2A64228BF1F6003D296422CBF4F607E
:100410000F60017ACE4C19B1022919D026D3F1BD53
:100420002079E17851EA002002D02078022828D0F3
:1004300000F04CF840B9FFF7A3FF0621012000F0BF
:1004400065FFBDE8F140AEE6FFF7A7FF002018E02A
:10045000FFF796FF0621012000F058FFCA486066AA
:100460000221207ABDE8F44000F0EABDA17862786C
:1004700052EA012102D02278022A05D0FFF78DFF2F
:100480000120BDE8F240D6E000F121029578137812
:10049000012D1C460FD090F8200054FA80F4A142A0
:1004A00005DA081A191A11700121917000E0184636
:1004B0005070002007E0A142B2BF581A1946002030
:1004C000107051700120BDE8F24066E00121A7489C
:1004D00000F0F4BE10B5062000F0A1F99C4CAB482A
:1004E0006066FFF74BFF207A062100F0A9FDBDE80A
:1004F00010400621002000F009BF10B595489D4C22
:1005000001689E4A096C0968A1424FF0006306D257
:100510009C4CA14205D2984C994AA14201D3536008
:1005200000E01360027D00F1210112B1012A06D022
:1005300010BD487890B1BDE8104001202DE08A78C8
:10054000012A0BD10A784AB1C26949788918C16178
:10055000FFF723FFBDE8104001206CE0BDE810402C
:1005600010B50621002000F0D1FE7A4C0020207149
:10057000FFF706FF2068016C00F009F8406C006886
:100580000168490849000160BDE81040E2E60968D9
:100590000A68520852000A60704738B56D4D04462B
:1005A0002868016C0A6800F041F8406C026800F0AD
:1005B0003DF800686F4B026822F0100202604FF0B5
:1005C000006208686D49984206D26E4B984205D287
:1005D000694B6B49984201D34A6000E00A603B20B6
:1005E00000F02CF92868006C01680A6842F01002DB
:1005F0000A6001680A6842F480620A6014B1012C42
:1006000008D010E000212975026895F8201051608B
:10061000A96906E001212975026895F82210516048
:10062000E9690268D16000F05BF831BD13685B08CE
:100630005B001360704770B5464C2268116C0B6804
:100640001D686D086D001D60536C1D682E6876086E
:1006500076002E6004251668367B6D1EFBD11A6865
:10066000136843F01003136009680A6822F010024F
:100670000A6018B102280AD003D326E00FF218113D
:1006800002E00FF20C11012000F030F81DE02072A2
:100690002F480179C07840EA0120217C814238BF8F
:1006A0000846216860810A6C13681D6825F480651E
:1006B0001D60496C0B685860136858600968E068F1
:1006C000C86011680FF2D800C8602068416C0968E2
:1006D0000A6842F001020A60006C00F001F870BD87
:1006E0000068016841F001010160704710B5194AC6
:1006F00010721068026C13681C6844F480641C60FB
:10070000052314686360406C046863600068104BE4
:10071000C3601068C16010BD0E4AD060117419E644
:1007200080B572B60B48017969B90121017162B6D1
:10073000FFF724FE0020FFF77EFFBDE80440002104
:10074000012000F0E3BD62B601BD00003D050020C0
:100750004C040020B4040020240500209F01000860
:10076000003001409501000830380240000002408E
:10077000103C014059640240596002400864024044
:1007800008600240B9600240E70100080302000867
:100790000A000000000000000B0000000000000044
:1007A000FF0000000901002806D5274A00F00F00CD
:1007B000801800F8041C7047244A8154704724496B
:1007C0000A684FF6FF031A4000F0070042EA0020D3
:1007D000204A10430860704770B51D4B1B68C3F377
:1007E00002230124C3F10705052D2EBF0F2504FAAE
:1007F00005F56D1E1E1D072E34BF0023DB1E29408C
:10080000994004FA03F3BDE870405B1E1A4011439F
:10081000C8E7012100F01F0291400F4A04E00121C6
:1008200000F01F0291400D4A400942F82010704725
:10083000012100F01F029140094AF5E7012100F073
:100840001F029140074AEFE718ED00E000E400E0E6
:100850000CED00E00000FA0500E100E080E100E0BE
:1008600000E200E080E200E0B349012048707047F8
:1008700038B5B14C04F1100000F0A8FD04F11800E7
:1008800000F0A4FD00258C2010FB054000F12001A4
:1008900000F06CF86D1C052DF5DB31BD80B5002036
:1008A000009000A9A54800F0B0FD0098802100F05C
:1008B000BFFD01BD70B5A04C00F10803A36000218D
:1008C000A3782BB9A38003E0042B4ED10323A3709C
:1008D000A388802B49DAA3885D1CA580A568A6782B
:1008E0005B5D002EF0D0032E08BF0623EFD0042E50
:1008F00008BF0523EBD0052E08BF0723E7D0072E3E
:1009000008BF0823E3D0082E04D1B5F80320002146
:100910000923DCE7062E01D11A46F8E7092ED7D1C4
:10092000491C89B292B29142D2D30021A17000F148
:1009300008014A1C097804290CD111780E2918BF26
:100940000F2907D0014604F1180000F050FD00F017
:100950006BFE02E0014600F009F8E06828B1A188CA
:10096000A068E268BDE87040104770BD04F1100057
:1009700000F03DBD10B582B0002000906E4C0BE041
:1009800000A904F1180000F040FD0098083001F0C3
:1009900020F80099FFF7EAFF04F1180000F019FDB4
:1009A0000028EDD013BD70B582B004460020009041
:1009B0000D46614E06F1100000F00BFD40B900A994
:1009C00006F1100000F021FD0098802100F030FDBC
:1009D0001DB12046FFF76EFF73BD214606F11000E2
:1009E00000F0FEFC73BD00F01FBD70B5890582B03C
:1009F000890D41EA8020ADF800000120504E307092
:100A000014461D468DF80240032200A9701C01F017
:100A100090F82346042229463046FFF7E4FF73BDD1
:100A200045490120C87070472DE9F8430446424FFC
:100A300060882188DFF80C918005800D40EA8125CF
:100A4000414800680A21B0FBF1F60020F8704FF031
:100A50000A0800F067FE3D48F860E268A368618814
:100A60002088D2B2FFF7C1FF2FE000F05AFE78785D
:100A700038B1387801F081F800F06AF84FF0FF30B3
:100A800057E0F8780028F0D0387801F076F8B868A8
:100A900002461178042916D1C11CB8885278C01EAC
:100AA0000E2A26D00F2A04D0102AE5D03E2A2ED0B6
:100AB00009E04A88ADB2AA4205D162680F2A13D074
:100AC00008780028D8D10020F8705FEA0800A8F163
:100AD0000108D1D006B90126002078703A4649466F
:100AE000304601F036F8C2E762699042C8BF10464E
:100AF0000AE0B1F80120ADB2AA42E4D16269C91C92
:100B0000C01E9042C8BF1046606102460BE00A78E2
:100B100063689A42D7D16269401E9042C8BF1046AE
:100B200060610246491C206901F003F800F010F8EA
:100B30000020BDE8F28300002000002030000020EB
:100B400028050020690800082C320008210A000846
:100B50000020F860012000F0E5BDF0B589B000F09C
:100B60002CF800F071F800F07FF8042000F078F81D
:100B7000012000F02CF800A807900920089003A895
:100B8000FFF752FF002802D49DF8000010B14FF08B
:100B9000FF3010E09DF801002070BDF802002880B1
:100BA0009DF804003070BDF8050038800E99BDF83E
:100BB00007000880002009B0F0BD04460D46164627
:100BC0001F4670471822002101A800F0B8BFADF8F9
:100BD0000E00002005900690704730B58FB000F0F1
:100BE0001EF88DF81C40202CA8BF1F2400F011F81F
:100BF000FFF7E8FF00F022F80920ADF8060007A88B
:100C000003902020049000F024F800F00FF80FB0BB
:100C100030BD224629460DF11D0000F08ABF044672
:100C20000D462022002107A800F089BF002802D429
:100C30009DF8000008B14FF0FF3070470820ADF874
:100C400004000021704704460922002100A800F09A
:100C500076BF00A805900120069001A8E4E60820D0
:100C6000ADF80C00002170471822002103A800F005
:100C700066BF00002DE9F041DFF80464DFF804846A
:100C8000044630781425082815FB048708D13078ED
:100C900070703470082038744FF6FF70F0803AE0BE
:100CA00000F06BF8B96811FA80F0B860B868317874
:100CB00015FB0181896888421BD3317802E015FB5E
:100CC0000181097C15FB0182127C082A04D015FBE6
:100CD000028292689042F2D215FB0180027C134698
:100CE000082B1CBF15FB0383DC733A74F97304747F
:100CF00011E030783278904215FB008106D0CA7B33
:100D000015FB02831C743874FA7300E03874CC73DA
:100D1000307870703470BDE8F081F0B5D84BD94DA3
:100D20001E781424B04214FB005204D11878587075
:100D3000107C18700BE0D07B167C177C14FB0050E5
:100D4000082E077403D0D07B14FB0654E0730120F7
:100D500010731878082802BF00294FF6FF70D8805A
:100D6000F0BDC749C96809684FF6FF7000E0886A9E
:100D70008A6A9042FBD180B2704710B5C04CE088BF
:100D80004FF6FF71884212D0FFF7EBFFE1888142F6
:100D9000E18828BF081A04D2228912FA81F1081AC0
:100DA000401C2179E278414321FA02F000E0002062
:100DB00080B210BD2DE9F843B14CE5682868816820
:100DC000490502D5C1684907FCD48168DFF8B482BF
:100DD00021F4806181604FF01409277819FB0780A6
:100DE0008668FFF7CAFF864238BF002608D36189AC
:100DF00010FA81F1B14202D26689002101E0361A6F
:100E00000121A17001E08A600F7C082F08D019FB36
:100E100007818A68824232BF00228A68121AF2E78A
:100E2000B6B23EB9FFF79DFFE0800320BDE8F24374
:100E3000FFF7FEBC022E02DAE078012800D0761E11
:100E40002868C1684907FBD500F0A7F88E490860FB
:100E50000320FFF7F3FCE5682868B6B24661FFF7A8
:100E600080FFE0802868816841F480618160BDE88E
:100E7000F1832DE9F041EFF3108872B68048C16824
:100E800009688A6822F480628A60CA6802F0800277
:100E900062F49062CA604FF480017B4A11601422B0
:100EA0000578784912FB0516317B02291ED1376877
:100EB000B47B8078C0B1707B01280AD1012128461B
:100EC000FFF72BFF88F310887168284600F0B8F808
:100ED00004E088F31088284600F097F83A4629463F
:100EE000204600F013FC03E0FFF764FF88F310884E
:100EF000BDE8F08138B5624CE0600168896801F0B6
:100F00000701C1F10401E17002681269120C02F0DC
:100F10007F02521C2271D2B203681B695B045B0C16
:100F200023815B1E5A4342FA01F3A3F110014FF6ED
:100F3000FF7291422CBF628161810121A170E28028
:100F40000021504A0023142515FB0125491C0829BE
:100F50002B73F8DB0821217000684C4D816821F467
:100F60008061816000F019F868610320FFF766FC7A
:100F7000E0680068816841F4804181600022A868CF
:100F800040F48000A8600321286840F480002860B5
:100F90000320BDE83840FFF71FBCC16801F08001A5
:100FA00061F49061C1604FF480007047F0B5002497
:100FB000EFF3108572B61426324F16FB047C9CF8B2
:100FC0000CC0BCF1000F03D0641CE4B2082CF4DBAD
:100FD000082C0BD016FB04760127377385F3108895
:100FE000B073727333600C700020F0BD85F310880D
:100FF0000120F0BD10B5044600F007F82149142285
:1010000012FB04110020087310BD38B5054600F02E
:101010003FF800F030F8007B02280BD10021284671
:10102000FFF77BFE16480178407888421CBF0829EC
:10103000FFF7C0FE0320FFF7ECFB84F3108831BDFF
:1010400070B505460E4600F023F800F014F80221B2
:101050000173866046602846FFF70CFE0848017859
:101060004078884218BFFFF7A5FE0320FFF7D1FBA9
:1010700084F3108870BD0348142111FB05007047EC
:101080000C050020AC030020143C0140003C014052
:10109000EFF3108472B60320FFF7C1BB38B505002B
:1010A00001D1012032BD05F15004607818B92070DB
:1010B000284600F067FD02206070286800F02CF8D8
:1010C0006868A9680843E9680843296908436969A9
:1010D0000843A96901F400710843E9690843296AD2
:1010E0000843A96A084329680860A869696A000C6E
:1010F00000F004000843296848602968E86A08612C
:101100002868C16921F40061C1610020606001208C
:101110006070002032BD2068016821F0400101604C
:10112000704700002DE9F84700226F4BDFF8BC81C3
:10113000DFF8BC914FF00F0A012707FA02FC0F6895
:101140000CEA0707674540F0B3804C68022C18BFD3
:10115000122C10D1D40800EB840E02F00704DEF844
:101160002050A4000AFA04F6B5430E6906FA04F406
:101170002C43CEF820404FEA420E032405680E7936
:1011800004FA0EF4E44306F00306254006FA0EF6D0
:10119000354305604D68012D18BF022D03D0112D78
:1011A00018BF122D11D18568CE68254006FA0EF6BB
:1011B00035438560456825EA0C0C4D68C5F300157C
:1011C000954045EA0C0CC0F804C0D0F80CC004EA05
:1011D0000C0C8C6804FA0EFE4EEA0C0CC0F80CC025
:1011E000D1F804C05FEACC0C62D5D9F8004044F4D1
:1011F0008044C9F800404FEA920CD9F8004004F44A
:101200008044009402F00305009C58F82C404FEAFB
:10121000850E0AFA0EF5AC43364DA84208BF0025EC
:1012200013D0354DA84208BF01250ED0334DA8423A
:1012300008BF022509D0324DA84208BF032504D0BB
:10124000304DA8420CBF0425052505FA0EFE4EEAD6
:10125000040448F82C406FEA070C1C680CEA040EE2
:101260004C68E40348BF47EA0E0EC3F800E05C6830
:101270000CEA040E4C68A40348BF47EA0E0EC3F8FC
:1012800004E09C680CEA040E4C68E40248BF47EA9C
:101290000E0EC3F808E0D3F80CE00CEA0E0CD1F8FF
:1012A00004E05FEA8E2E48BF47EA0C0CC3F80CC07E
:1012B000521C102AFFF440AFBDE8F18700690840D6
:1012C00018BF0120C0B2704702B90904816170479C
:1012D0000D4A1368034200D1704780B5106000F0DA
:1012E000AFF801BD00000000003C0140083801409B
:1012F000443802400000024000040240000802405E
:10130000000C024000100240143C0140F0B5EFF325
:10131000108272B62B4BDF681D685E689C684FF0C8
:10132000010C0CFA00F0082908BF074314D05FEA4B
:10133000417E6FEA000C4CBF0CEA050505435FEAED
:10134000817E4CBF0CEA06060643C9070CEA070774
:101350004CBF0CEA040404439C605E601D60DF60C7
:1013600082F31088F0BD38B5EFF3108472B61548DB
:10137000C16819BB016821B10121002000F0E1FC26
:101380001CE08168104D51B9C046C046286840F045
:101390000400286000F0F8FCC046C0460EE0296852
:1013A00041F0040129604068002819BF0121002094
:1013B0000121012000F0D2FC00F0B8FD84F3108878
:1013C00031BD0000FC04002000700040006040605F
:1013D00070470168814201D10120704700207047A9
:1013E00002680A60486001600868416070470860F0
:1013F00042684A604160486801607047426801681D
:101400001160416800684160704710B50C46016882
:1014100021600068FFE7FFF7F1FF21680020086006
:101420002168486010BD0000DBB2D2B2FEF777BF82
:10143000024A10600830FFF76FB900002405002051
:10144000012808BFFFF76CB9B0F5005F03D1082190
:101450000220FFF75BBF70470020704770B582B075
:1014600000F066FD00F08AFD00F0A0FCB14C607851
:1014700008B900F0A9FD0121002000F0E1FDAE4D0A
:10148000AE4E01206864B06B40F08050B063B06B2A
:1014900000F080500090009800F04EFC00F04CFCF2
:1014A000306820F4F8103060B06E40F40070B06620
:1014B00001202860A24DA348286000202877012041
:1014C0006877284600F018FE0120A86047F6FF70F4
:1014D000E860284600F024FE2968CA2048625320AC
:1014E000296848620321284600F084FEF06E8007D8
:1014F000FCD52846FFF7FEFC00230122A11C00209A
:10150000FFF754FD06210220FFF700FFFEF781FEE2
:1015100000F003F800F08DF8FCE710B50FF24C2155
:10152000844C8EB00CC90BA80FF248210CC00CC91A
:1015300009A80CC0FFF79CF9FEF7A6FEFFF7AEF96D
:1015400006A904A800F05DFEFEF79EFE9DF81000BF
:101550003128A4BF012020706078002807BF062230
:101560000BA9062209A907A800F0E3FA07AA062199
:10157000002000F071FE00F0CFFE61782078012994
:1015800009D1012803D100F032F8012008E000F071
:1015900028F801200AE0012805D100F028F80420ED
:1015A00001F038F804E000F01CF8032001F060F8C6
:1015B000012003900723644802900022002001903C
:1015C000002110200090012001F0EFF86078012840
:1015D00008BF00F0DDF80421012000F064FE0EB029
:1015E00010BD0DF1120305AA0DF1160170470DF1A2
:1015F000120001900DF1160305A8009007220021AA
:10160000704772B651494A68012303FA00F010434B
:1016100007E072B64D494A68012303FA00F022EA56
:101620000000486062B670470020EAE700BF012072
:10163000E7E710B5454C2079800706D5207820B91A
:101640000120FFF7E6FF00F016F82079C00705D566
:10165000207818B9FFF7DDFFFFF78CF972B66068E4
:1016600028B18008800004BF2078012801D1FFF74D
:101670007AFE62B610BD70B5354D2E4C86B0287816
:1016800058B1A078FFF7C1FC00F0C8F8002028701E
:1016900043F60161A078FFF7D3FC6078F0B92D4ED6
:1016A0002D4C30682D4D20B1287810B900F0F7F896
:1016B00005E0306818B1207808B900F003F9306807
:1016C00000281CBF2878002808D0207830B1244892
:1016D000007818B900F0A9FC00F03CF9214C207802
:1016E000012811D100A80FF29401142201F010F981
:1016F000142100A800F016F900201B492070087082
:1017000006210220FFF702FE06B070BD20B10228BC
:1017100018BF032803D000E089E7100000D010476D
:10172000704786E7411E89410848C90F017070471C
:1017300000000000380500203C0E474208380240F7
:10174000DC0400200028004040E201001C050020CD
:1017500000000020140000200500002004000020EC
:1017600001000020340500203C050020BB0000E102
:1017700080020000AA0000E1800200003031323314
:101780003435363738394142434445464748494A5B
:1017900010B592B00EA80FF23031C64C00F08FF8A1
:1017A0000AA80FF2343100F08AF806A80FF2383197
:1017B00000F085F804F10C000090072301220EA927
:1017C000022000F0BCFD30BB04F10E000590142394
:1017D000012004900AAA1020039002210020029008
:1017E000019010200090A08900F0DDFD98B904F16F
:1017F0001000059014230120049006AA10200390E5
:10180000022101200290002001900C200090A0896C
:1018100000F0C9FD00B1472012B010BDA64800B5C8
:1018200000788BB0002807A81CD10FF2CC210CC97E
:101830000CC0002000F0EEFB0820069005904FF44D
:1018400080414FF41670049007AB002003900022F3
:101850004FF4C8700290019000200090084600F0FC
:10186000F7FF1AE00FF2982100F029F8002100207C
:10187000FFF7B3F90020069005900490039007A8A5
:1018800002900D2001900020009003460246014680
:1018900000F020FF012000F006F90BB000BD10B5EC
:1018A000844C86B0A07840B901A80FF2642100F002
:1018B00006F800F017F80120A07006B010BD102245
:1018C00001F026B810B57B4C86B0E07840B901A88D
:1018D0000FF24C21FFF7F3FF00F004F80120E07055
:1018E00006B010BD01A800900223E0884FF6FF72F9
:1018F000012100F0E9BD38B5704D28780C4628B9B3
:1019000008210220FFF702FD012004E00621022049
:10191000FFF7FCFC00202870002000E0401CA042E3
:10192000FCDB31BD80B5644A12780346012A614868
:1019300007D1009300220B46C189808900F088FD01
:1019400001BD0A464189C088BDE80050491C89B2E2
:1019500000F03DBE10B50FF2D810564C008882B092
:1019600000ABADF8000002222089811CE08889B21A
:1019700000F0FCFD0120607013BD10B54D4B1C8ABA
:10198000641CA04203D1BDE810401046B3E7D989DA
:10199000891C884202BF10780128587010BD454844
:1019A00001224261C180704742480021416101210A
:1019B0000170002141708170C170017141717047E7
:1019C0003C4B1B895B1C984204BF1046FFF793BF3A
:1019D000704738B50446012000F065F82078651C92
:1019E00004285FD12878052804D03E2805D0FF2898
:1019F0000ED031BDBDE83140D6E7A81C01780129E1
:101A000050D1401CBDE83440B0F80110401DC6E77D
:101A1000A91C29480B880278264840F601441B1B64
:101A200006D00E3B14D05B1E2ED09B1E1AD031BDAB
:101A300023480078012803D1881C831CC21D02E0C2
:101A4000881C831C421D99781888BDE8384094E7AB
:101A5000BDE83840881C421D8178B0F80300891E1B
:101A6000C9B2ADE7F2B98278891C2AB102791AB9F4
:101A7000B1F80310018131BDC2789AB142798AB9B7
:101A8000B1F80310418131BD62B9817821B101798A
:101A900011B90121017131BDC17819B1417909B97B
:101AA0000121417131BD07490870012808BFFFF7C6
:101AB000BDBD704700000020390500203C05002016
:101AC000380500203B050020669A0C200008969EF1
:101AD000E2119EB1E0F273D9669A0C200008969E3E
:101AE000E2119EB1E1F273D9669A0C200008969E2D
:101AF000E2119EB1E2F273D9AA0000E18002000077
:101B000009426C75654E52475F436861740000007E
:101B1000669A0C200008969EE2119EB1E1F273D9FC
:101B2000669A0C200008969EE2119EB1E2F273D9EB
:101B3000010010B5044600F0DBFE204610BD10B5D4
:101B4000044610460A460146204600F00DFF204696
:101B500010BD38B5044615460B4600222946022022
:101B6000FFF724FA4FF47A7060433F21B0FBF1F1A4
:101B70002878FFF765FA002032BD80B5FFF73AFA02
:101B8000002002BD2DE9F043044687B020684F498C
:101B9000884240F098804E4D4E4E286840F002003A
:101BA000286001A9286800F0020000904FF48067C7
:101BB000009800F0AEF800F0ACF8686940F480508E
:101BC0006861686900F480500090009808200190D6
:101BD000022002900020039003200490052005902D
:101BE0003D48FFF79FFA402000F086F8802000F083
:101BF00083F80220019001A901200290002000F04A
:101C000073F8012202213046FFF75EFB01200190AC
:101C100001A932480290022000F066F8286840F4DA
:101C2000800028604FF0C06628682D4D00F48000C9
:101C3000009000986E604020A8600020E860686115
:101C4000A861E8614FF40038DFF898902F6109F13E
:101C500048002860C5F82080284600F0B9FE2068BA
:101C600029680C3088602564002028666866E8666C
:101C700028676867AC63EE65AF66C5F87880C5F81D
:101C8000589005F1580000F0A3FE2068A96D0C30B3
:101C90008860002205F158006064C5F89040012179
:101CA0003B20FEF799FD3B20FEF7B3FD002201210A
:101CB0003820FEF791FD3820FEF7ABFD002202210F
:101CC0000620FEF789FD07B0BDE8F0830030014033
:101CD00030380240000002400004024000001110B1
:101CE000FC020020106402400390032004900020B6
:101CF00005903046FFF716BA019001A90220029024
:101D00000020039003200490052005903046FFF743
:101D100009BA286840F001002860286800F0010036
:101D200000900098286840F001002860286800F0C2
:101D300001000090009870471949FFE701200860F2
:101D400070471948026822F004020129026001D19B
:101D500030BF704740BF20BF20BF7047114A136893
:101D60009B0840EA8300106001290F48026842F096
:101D7000040202600FBF30BF40BF20BF20BF016818
:101D800021F00401016070470648016841F002013A
:101D900001600548016841F00401016030BF7047EF
:101DA00020000E420070004010ED00E010B586B03B
:101DB00000F060FE554C206A40084000206201A9F6
:101DC000206A20F002002062206A20F004002062D5
:101DD000206A20F008002062206A20F010002062B3
:101DE000206A20F080002062206840F0010020601E
:101DF000206800F0010000F060F840F00200206070
:101E0000206800F0020000F058F840F00400206064
:101E1000206800F0040000F050F840F00800206056
:101E2000206800F0080000F048F840F01000206042
:101E3000206800F0100000F040F840F080002060C2
:101E4000206800F08000009000980320029000209D
:101E500003904FF6FF7001902D48FFF763F901A939
:101E60002C48FFF75FF901A92B48FFF75BF901A99F
:101E70002A48FFF757F901A92948FFF753F901A9A3
:101E80002848FFF74FF9206840084000206020688C
:101E900020F002002060206820F00400206020680C
:101EA00020F008002060206820F0100020602068EA
:101EB00020F08000206006B010BD009000982068DF
:101EC000704700B591B00820049000200A900120CE
:101ED000099004A800F0D6FD00B1FEE702200090B2
:101EE0004FF40070039000A800F0E6FF00B1FEE799
:101EF0000D490120086000220F210320FEF76CFC31
:101F00000320FEF786FC11B000BD0000303802400F
:101F10000004024000080240000C02400010024091
:101F2000001C0240000002403C0E47427047000087
:101F300080B51048016841F400710160016841F406
:101F400080610160016841F4807101600320FEF747
:101F500036FC0F20FFF780FA00F002F8002002BDE7
:101F6000704705480168491C0160704702480068D5
:101F700070470000003C02402C05002000B51148CD
:101F800093B0016841F080510160006800F080501A
:101F9000009000980220069010200A9001200990DD
:101FA0000C9006A800F06EFD0F200190002100208B
:101FB000029003900490059001A800F0A4FE13B0D5
:101FC00000BD00BF4038024070B5040086B008D1A3
:101FD000DFF8F400016841F001010160006800F0E1
:101FE0006DF80FF2F400DFF8E46030F8145001955A
:101FF00001200290039001A90220049056F82400C9
:10200000FFF790F856F8240000222946FFF75CF904
:1020100006B070BD0FF2C001DFF8B03031F810101B
:1020200053F820000122FFF74FB90FF2AC01DFF89F
:102030009C3031F8101053F820000022FFF744B90B
:10204000F0B5050087B00E460AD1DFF87C000168C4
:1020500041F004010160006800F004000090009865
:10206000DFF86C400FF274074EB900F021F80290CF
:1020700002200390049054F82500FFF753F8012E36
:1020800014D100F015F80390DFF84800029054F8DE
:102090002500FFF747F80FF248002C5C00220F21C3
:1020A00060B2FEF799FB60B2FEF7B3FB07B0F0BD7C
:1020B00037F81500019001A90020704700F00100D9
:1020C000009000987047000030380240180000204F
:1020D0001C00002000002110200000000020000053
:1020E000280000008A60FF210268516201214177C7
:1020F0000021017700207047017F012901D10220D2
:1021000070470121017702214177CA21026851629B
:1021100053210268516201688A6842F02002E1E7B7
:1021200038B504000ED0607F18B920772046FFF73D
:10213000C8FE00F034F8FF250028206804D045626E
:1021400004206077012032BD8168DFF870201140E3
:1021500000F02FF8626823691A4363691A43114338
:1021600081602168E068086120680169A26841EA2D
:10217000024101612068C16821F08001C1602068CE
:10218000016C21F4802101642068016CA269114373
:1021900001642068456201206077002032BD022082
:1021A0006077CA202168486253202168486220462F
:1021B00006E081602068816870470000BFFF8FFFE4
:1021C00038B504462068C168490611D44FF0FF3184
:1021D000C160FFF7CBFE05462068C068400607D403
:1021E000FFF7C4FE401BB0F57A7FF5D9032032BD5E
:1021F000002032BD00688268D20841EAC2018160D5
:10220000704770B584B0064601A800900C460DF1E9
:102210000A0302AA0DF106010DF10900FEF79DFC6B
:10222000C5B2A5B9BDF80600000A3070BDF80600B9
:1022300000022080BDF804100906090F40EA0110D1
:102240002080BDF8041001F00F0108432080FEF744
:1022500091FB284604B070BD10B50C461146A21C77
:10226000812AA8B0A8BF42201BDA8DF81C008DF887
:102270001D4022460DF11E00FFF75BFC00F036F812
:1022800000F02FF80C20ADF8060007A80390A01C62
:10229000C0B2049000F031F800284CBFFF209DF838
:1022A000000028B010BD00B589B08DF804008DF88D
:1022B00005101822002102A8FFF741FC3F20ADF8CD
:1022C000080000210F20ADF80A0001A804900220A8
:1022D00000F01AF800284CBFFF209DF8000009B05C
:1022E00000BD3F20ADF804000021704718220021F6
:1022F00001A8FFF724BCADF8060000A80590012056
:10230000069001A8FEF790BB059000A8069001205A
:10231000079002A8FEF788BB00B587B000F014F95B
:1023200000F003F940F20110ADF8060000F005F9E5
:1023300000284CBFFF209DF8000007B000BD70B51D
:102340008CB001288DF81C0014460CBF0226102604
:102350001D4632460DF11D00FFF7EBFB701C07A96F
:10236000C0B203224454441CE4B200A865540021C6
:10237000FFF7E5FB00F0E8F800F0D7F84FF48170C4
:1023800000F093F8601C00F059F800F0D9F800282C
:1023900048BFFF2005D49DF8000010B9109900F047
:1023A00048F80CB070BDF1B58EB00D4616461F460C
:1023B00002220EA900F0D7F807AC012DA570314616
:1023C0000CBF022510252A4600F07AF8E81CC0B29E
:1023D000411C0755C9B214980855491C1598C9B233
:1023E00003220855491C1698C9B20855491C17986C
:1023F000C9B24D1C0855EDB21898285500F024F8C4
:1024000000F0A2F800F091F84FF4827000F04DF85F
:10241000681C00F013F800F093F8002848BFFF2074
:1024200005D49DF8000010B9199900F002F80FB01A
:10243000F0BDBDF80100088000207047C0B20490D4
:1024400000A8059003207047002100A8FFF777BB84
:1024500033B51C46A01D8128A7B01546A8BF422051
:1024600021DA022227A900F07EF8022228A900F032
:10247000A3F82C998DF820508DF82140224600F0C9
:1024800019F800F061F800F050F84FF4837000F094
:102490000CF8A01DC0B2049000F04FF800284CBF0B
:1024A000FF209DF8000029B030BDADF8060007A858
:1024B000039070470DF12200FFF73BBB22461946FF
:1024C0000DF11F00FFF735BB17B58DB01C4602227A
:1024D0000DA900F048F802220EA900F06DF80222C2
:1024E0000FA908A8FFF725FB8DF82240012C0CBF8F
:1024F000022410241299224600F013F800F024F868
:1025000000F013F84FF48B70FFF7CFFFE01DC0B25F
:1025100000F010F800284CBFFF209DF8000010B01C
:1025200010BD0DF12300FFF704BB3F20ADF8040000
:102530000021704704900F20029000A80590012010
:10254000069001A8FEF770BA1822002101A8FFF733
:10255000F6BA8DF82040224629460DF12100FFF7FA
:10256000E8BA022228A907A8FFF7E3BA33B5144650
:10257000601D8128A7B01D46A8BF422018DA02229C
:1025800027A9FFF7F0FF022228A900F015F8FFF7AE
:10259000E0FFFFF7D9FFFFF7C8FF40F2211000F07E
:1025A0000FF8FFF7C7FF00284CBFFF209DF8000081
:1025B00029B030BD022229A90DF11E00FFF7B9BADA
:1025C000ADF8060007A80390601DC0B2704710B5B3
:1025D000152A8EB0144628BF422019D2ADF81C002F
:1025E000ADF81E108DF820401946FFF7B6FFFFF733
:1025F000ABFFFFF79AFF40F22310FFF756FF601D75
:102600000490FFF79AFF00284CBFFF209DF80000C0
:102610000EB010BD10B58AB08DF800008DF8011015
:102620008DF802201C46072200F003F900F0EDF8B7
:1026300000F048F800A805900320069001A8079034
:10264000072000F050F9002848BFFF200ED49DF865
:10265000040058B9BDF8050020800C99BDF80700AA
:1026600008800D99BDF80900088000200AB010BD4F
:1026700070B58AB00C468DF8080015461E46072234
:1026800000F0CDF800F0C1F800F01CF802A80590A9
:102690000120069000A80790072000F024F90028E8
:1026A00048BFFF200CD49DF8000048B9BDF80100D8
:1026B0002080BDF803002880BDF805003080002090
:1026C0000AB070BD3F20ADF80C0000218A20ADF8A3
:1026D0000E00704776B592B000F057F828BF422040
:1026E0001DD200F05AF800F04AF89DF8600000F0A2
:1026F00018F800F021F800F03AF800F030F800F097
:1027000097F800F090F8832000F023F8C0B204900E
:1027100000F093F800284CBFFF209DF8000014B093
:1027200070BD1A998DF822008DF821608DF8235024
:102730002A4609A8FFF7FDB905F10800C0B207A9AC
:10274000451C4454EDB21C9907A822462818FFF7EF
:10275000F0B9ADF8060007A80390A01C7047A41CB0
:10276000E4B207A802221EA92018FFF7E2B96419F3
:10277000E4B207A802221DA92018FFF7DAB9022245
:1027800013A90DF11F00FFF7D4B9199D1B9C54FA32
:1027900085F10E3129291E4670478DF81C00022252
:1027A00012A90DF11D00FFF7C4B930B58FB08DF837
:1027B0001C008DF81D1014461D461022214600F005
:1027C00043F812988DF82F008DF82E5018229DF89E
:1027D0004C008DF8300000211498CDF83100159888
:1027E0008DF8350001A8FFF7AAF900F01CF8862043
:1027F00000F010F81A20049000F01FF800284CBFD9
:10280000FF209DF800000FB030BD1822002103A862
:10281000FFF795B9ADF8060007A8039070470021AF
:1028200000A8FFF78CB93F20ADF8040000217047E5
:102830001822002101A8FFF782B900A80590012005
:10284000069001A8FEF7F0B80DF11E00FFF771B970
:1028500000B58DB000F010F800F029F83F20ADF879
:102860001C0000219C2000F013F800284CBFFF2022
:102870009DF800000DB000BDADF80400ADF80610E5
:102880008DF80820194606220DF10900FFF751B90D
:10289000ADF81E0001A8099018200A900F2008909A
:1028A00000A80B9001200C9007A8FEF7BDB80E9869
:1028B0008DF80F0018220F98ADF810000021109825
:1028C000ADF812001198ADF814001298ADF816008A
:1028D0001398ADF818001498ADF81A0007A8FFF780
:1028E0002EB907900120089003A8FEF79DB80000BC
:1028F00062B38B0708D0521E11F8013B00F8013B70
:1029000000F024808B07F6D1830740F0208000BFC1
:10291000103A07D330B4B1E83810103AA0E83810B4
:10292000F9D230BC530724BFB1E80810A0E8081062
:1029300044BF51F8043B40F8043BD20724BF31F8B0
:10294000022B20F8022B44BF0B7803707047083A23
:1029500007D3B1E80810083A40F8043B40F804CB2C
:10296000F7D25307E4E7000062F30F2262F31F423D
:10297000401810F0030308D0C91A1FD3DB0748BF63
:1029800000F8012D28BF20F8022D130030B41446A2
:102990001546103928BF20E93C00FAD8490728BF5E
:1029A00020E90C0048BF40F8042D890028BF20F81A
:1029B000022D48BF00F8012D30BC7047C91818BF60
:1029C00000F8012DCB0728BF00F8012D704700004B
:1029D00010B5040001D1012010BD022084F835009B
:1029E000DFF8602020680168114062681143A26826
:1029F0001143E26811432269114362691143A269DC
:102A00001143E2691143226A1143626A042A03D125
:102A1000E26A236B1A431143016020684169626ACC
:102A2000C90842EAC101042A04BFA26A11434161F4
:102A3000204600F009F80020E064012084F8350009
:102A4000002010BD3F8010F00168CAB2103A182370
:102A5000B2FBF3F20FF21403D35C4365890A8902D7
:102A6000042A28BF091D0165084670470006101694
:102A7000000610160249FFE70120086070470000B9
:102A800024000E422DE9F047044682B02078DFF89A
:102A90001064C00741F289383BD5B06800F00C00E3
:102AA000042805D000F02AF909D17068400206D543
:102AB000306880032DD5606858BB012017E10020E5
:102AC000B070FFF753FA07463068800305D5FFF76B
:102AD0004DFAC01B4045F7D306E16068B0706068EE
:102AE00058B1FFF743FA07463068800311D4FFF767
:102AF0003DFAC01B4045F7D3F6E0FFF737FA07462B
:102B00003068800305D5FFF731FAC01B4045F7D385
:102B1000EAE02078DFF88C93800716D5B06810F0D3
:102B20000C0F05D000F0EAF826D17068400223D4DB
:102B30003068800702D5E0680128BED1306821697D
:102B400020F0F80040EAC10030602078DFF85853E8
:102B500000073DD56169DFF8540361B301210160CD
:102B6000FFF704FA07466868800731D4FFF7FEF9DB
:102B7000C01B6528F7D3B7E0E06870B10120C9F841
:102B80000000FFF7F3F9074630688007D6D4FFF757
:102B9000EDF9C01B6528F7D3A6E0C9F80000FFF7E0
:102BA000E5F9074630688007CFD5FFF7DFF9C01B8E
:102BB0006528F7D398E00160FFF7D8F90746686801
:102BC000800705D5FFF7D2F9C01B6528F7D38BE046
:102BD0002078400747D5306CDFF8D4A240F0805011
:102BE0003064306C00F0805000900098DAF80000FB
:102BF00040F48070CAF80000FFF7B8F90746DAF829
:102C00000000C00505D4FFF7B1F9C01B6528F6D355
:102C10006AE000202870FFF7A9F9074628688007B6
:102C200005D5FFF7A3F9C01B4045F7D35CE0A068CA
:102C30002870A06858B1FFF799F9074628688007FF
:102C400011D4FFF793F9C01B4045F7D34CE0FFF7D1
:102C50008DF907462868800705D5FFF787F9C01B5F
:102C60004045F7D340E0A06900283FD0B16801F0AB
:102C70000C0108293FF421AF02282AD100F039F8CD
:102C800007463068800105D5FFF770F9C01B65283D
:102C9000F7D329E0E069216A0843616A40EA8110BC
:102CA000A16A891EC903090C40EA0140E16A40EAB1
:102CB000016070600120C9F86000FFF757F907460E
:102CC0003068800112D4FFF751F9C01B6528F7D393
:102CD0000AE000F00EF807463068800106D5FFF7DD
:102CE00045F9C01B6528F7D3032000E00020BDE8AC
:102CF000F6870020C9F86000FFF738B9B06800F027
:102D00000C00082870472DE9F843DFF8A841DFF8E8
:102D1000905106462068894600F00F00484541F270
:102D2000893840D200F0A2F810D100F0ADF840F19F
:102D300084807068012802D12968890305E002288F
:102D400018BF032803D12968890103D473E02968D7
:102D5000890770D500F091F80746706801280AD1FC
:102D6000A86800F00C00042867D0FFF7FFF8C01B2C
:102D70004045F5D35AE0022809D1A868FFF7BFFF04
:102D80005BD0FFF7F3F8C01B4045F6D34EE00328B5
:102D90003CD0A86810F00C0F4FD0FFF7E7F8C01B2D
:102DA0004045F6D342E000F06FF841D57068012845
:102DB00002D12968890305E0022818BF032803D13E
:102DC0002968890103D436E02968890733D500F0E2
:102DD00054F80746706801280AD1A86800F00C0072
:102DE000042825D0FFF7C2F8C01B4045F5D31DE0ED
:102DF000022809D1A868FFF782FF19D0FFF7B6F8BB
:102E0000C01B4045F6D311E0032806D1A868FFF7A0
:102E1000ADF8C01B4045F9D308E0A86810F00C0FCE
:102E200006D0FFF7A3F8C01B4045F6D303201BE0F4
:102E300000F01CF801D0012016E03078400705D5DD
:102E4000A868F16820F4E0500843A86030780007D3
:102E500006D5A868316920F4604040EAC100A86046
:102E60000F20FEF7F9FA0020BDE8F28384F8009005
:102E7000206800F00F0048457047A968890840EABB
:102E80008100A860FFF772B83078800705D5A86880
:102E9000B16820F0F0000843A8603078C0077047A0
:102EA000003802400000474270380240800E47421E
:102EB00000700040003C0240F8B504463F4D2078C9
:102EC000C00723D53F4E00203060FFF74FF807467C
:102ED0002868000105D5FFF749F8C01B6528F7D31E
:102EE00051E0A1686068090741EA80103449086030
:102EF00001203060FFF73AF807462868000105D442
:102F0000FFF734F8C01B6528F7D33CE02078800732
:102F100052D5286C2C4E40F080502864286C00F06C
:102F2000805000900098306840F480703060FFF767
:102F30001DF807463068C00505D4FFF717F8C01B19
:102F40006528F7D31FE0286FE16800F4407001F4B2
:102F50004071884230D01D49286F01220A6020F458
:102F6000407000220A60286780070ED5FEF7FEFF3A
:102F70000746286F800708D4FEF7F8FFC01B41F210
:102F800089318842F5D30320F2BDE06800F4407136
:102F9000B1F5407F06D1A9680D4A21F4F81110401F
:102FA000084302E0A86820F4F810A860286FE168E0
:102FB000090550EA115028670020F2BD0038024090
:102FC000843802406800474200700040400E47428B
:102FD000FFFCFF0F7047FEE770477047704780B5F2
:102FE000FEF7BFFF26480168491C016001BDFDF7DF
:102FF00040BF0120FEF76CB980B52249012008606E
:10300000FEF751FDBDE802404FF40050FEF760B9F5
:103010001D48406C00680168C90614D51B4A1C494C
:10302000904228BF486809D21A4A904205D21A4AEB
:103030001A49904228BF486800D2086810F0200062
:1030400018BFFDF7B6B970470F48006C00680168FB
:10305000C90614D50D4A0E49904228BF486809D2C6
:103060000C4A904205D20C4A0C49904228BF48684D
:1030700000D2086810F0006018BFFDF73EBA704734
:103080003005002034050020580400205964024017
:1030900000640240B9600240596002400060024092
:1030A0000E480F4A016841F4700101600D48016843
:1030B00041F001010160002181600168114001605F
:1030C00009494160016821F4802101600021C1604B
:1030D0004FF00060054908607047000088ED00E08F
:1030E000FFFFF6FE003802401030002408ED00E03B
:1030F00019E050F8041BCB0744BFA9F1010359188C
:10310000121F0023042A41F8043BF9D25FEA827CB3
:103110000B4604D54FF0000CA1F800C09B1CD10752
:1031200044BF0021197050F8042B002AE1D17047E8
:1031300010B450F8041B79B10268436812180830C3
:10314000DC0744BFA9F10104E31852F8044B43F82B
:10315000044B091FF9D1ECE710BC704710B50749C3
:1031600079441831064C7C44163404E00A68081D82
:10317000511888470146A142F8D110BD2C0000002B
:103180004C0000004EF68851CEF20001086840F471
:1031900070000860BFF34F8FBFF36F8F4FF0007068
:1031A000E1EE100A7047000049FFFFFF2005000014
:1031B000200000200000000079FFFFFF2000000039
:1031C00048010000000000200000000000F00BF8A3
:1031D000002801D0FFF7C2FF0020C046C046FEF71E
:1031E0003DF900F002F80120704700F001B800003E
:1031F0000746384600F002F8FBE7000080B5C046FD
:10320000C046024A11001820ABBEFBE726000200B0
:103210000148804701480047A130000821320008DA
:10322000C046C046FFF7AEFFFFF7D0FFE80300003F
:10323000FFF7FEBFFFF7FEBFFFF7FEBFFFF7FEBFC2
:10324000FFF7FEBFFFF7FEBFFFF7FEBFFFF7FEBFB2
:10325000FFF7FEBFFFF7FEBFFFF7FEBFFFF7FEBFA2
:10326000FFF7FEBFFFF7FEBFFFF7FEBFFFF7FEBF92
:10327000FFF7FEBFFFF7FEBFFFF7FEBFFFF7FEBF82
:10328000FFF7FEBFFFF7FEBFFFF7FEBFFFF7FEBF72
:10329000FFF7FEBFFFF7FEBFFFF7FEBFFFF7FEBF62
:1032A000FFF7FEBFFFF7FEBFFFF7FEBFFFF7FEBF52
:1032B000FFF7FEBFFFF7FEBFFFF7FEBFFFF7FEBF42
:1032C000FFF7FEBFFFF7FEBFFFF7FEBFFFF7FEBF32
:1032D000FFF7FEBFFFF7FEBFFFF7FEBFFFF7FEBF22
:1032E000FFF7FEBFFFF7FEBFFFF7FEBFFFF7FEBF12
:1032F000FFF7FEBFFFF7FEBFFFF7FEBFFFF7FEBF02
:10330000FFF7FEBFFFF7FEBF010000000000000056
:1033100000000000000000000000000000000000AD
:08332000000002400008024019
:00000001FF
